{
  "address": "0x9AbBb32033a24c2f503704d8A0F20A7E4af9ABfe",
  "transactionHash": "0xaa1ad68d08519f628cf3ea42c4730488bb483e7c9f698da906acd4d93627daee",
  "args": [
    "0x0Fc0c315F3b38ca5a3bb7118fa689B9682eeA1E9"
  ],
  "_format": "hh-sol-artifact-1",
  "contractName": "BlindBox",
  "sourceName": "contracts/BlindBox.sol",
  "abi": [
    {
      "anonymous": false,
      "inputs": [
        {
          "indexed": true,
          "internalType": "address",
          "name": "owner",
          "type": "address"
        },
        {
          "indexed": true,
          "internalType": "address",
          "name": "approved",
          "type": "address"
        },
        {
          "indexed": true,
          "internalType": "uint256",
          "name": "tokenId",
          "type": "uint256"
        }
      ],
      "name": "Approval",
      "type": "event"
    },
    {
      "anonymous": false,
      "inputs": [
        {
          "indexed": true,
          "internalType": "address",
          "name": "owner",
          "type": "address"
        },
        {
          "indexed": true,
          "internalType": "address",
          "name": "operator",
          "type": "address"
        },
        {
          "indexed": false,
          "internalType": "bool",
          "name": "approved",
          "type": "bool"
        }
      ],
      "name": "ApprovalForAll",
      "type": "event"
    },
    {
      "anonymous": false,
      "inputs": [
        {
          "indexed": true,
          "internalType": "address",
          "name": "user",
          "type": "address"
        },
        {
          "indexed": false,
          "internalType": "uint256",
          "name": "amount",
          "type": "uint256"
        }
      ],
      "name": "Buy",
      "type": "event"
    },
    {
      "anonymous": false,
      "inputs": [
        {
          "indexed": true,
          "internalType": "address",
          "name": "previousOwner",
          "type": "address"
        },
        {
          "indexed": true,
          "internalType": "address",
          "name": "newOwner",
          "type": "address"
        }
      ],
      "name": "OwnershipTransferred",
      "type": "event"
    },
    {
      "anonymous": false,
      "inputs": [
        {
          "indexed": true,
          "internalType": "address",
          "name": "from",
          "type": "address"
        },
        {
          "indexed": true,
          "internalType": "address",
          "name": "to",
          "type": "address"
        },
        {
          "indexed": true,
          "internalType": "uint256",
          "name": "tokenId",
          "type": "uint256"
        }
      ],
      "name": "Transfer",
      "type": "event"
    },
    {
      "inputs": [],
      "name": "AMOUNT_PER_USER",
      "outputs": [
        {
          "internalType": "uint256",
          "name": "",
          "type": "uint256"
        }
      ],
      "stateMutability": "view",
      "type": "function"
    },
    {
      "inputs": [],
      "name": "MAX_TOKEN_ID",
      "outputs": [
        {
          "internalType": "uint256",
          "name": "",
          "type": "uint256"
        }
      ],
      "stateMutability": "view",
      "type": "function"
    },
    {
      "inputs": [
        {
          "internalType": "address",
          "name": "to",
          "type": "address"
        },
        {
          "internalType": "uint256",
          "name": "tokenId",
          "type": "uint256"
        }
      ],
      "name": "approve",
      "outputs": [],
      "stateMutability": "nonpayable",
      "type": "function"
    },
    {
      "inputs": [
        {
          "internalType": "address",
          "name": "owner",
          "type": "address"
        }
      ],
      "name": "balanceOf",
      "outputs": [
        {
          "internalType": "uint256",
          "name": "",
          "type": "uint256"
        }
      ],
      "stateMutability": "view",
      "type": "function"
    },
    {
      "inputs": [],
      "name": "baseURI",
      "outputs": [
        {
          "internalType": "string",
          "name": "",
          "type": "string"
        }
      ],
      "stateMutability": "view",
      "type": "function"
    },
    {
      "inputs": [
        {
          "internalType": "uint256",
          "name": "amount",
          "type": "uint256"
        },
        {
          "internalType": "address",
          "name": "addr",
          "type": "address"
        }
      ],
      "name": "batchMint",
      "outputs": [],
      "stateMutability": "nonpayable",
      "type": "function"
    },
    {
      "inputs": [],
      "name": "beneficiary",
      "outputs": [
        {
          "internalType": "address payable",
          "name": "",
          "type": "address"
        }
      ],
      "stateMutability": "view",
      "type": "function"
    },
    {
      "inputs": [
        {
          "internalType": "uint256",
          "name": "amount",
          "type": "uint256"
        }
      ],
      "name": "buy",
      "outputs": [],
      "stateMutability": "payable",
      "type": "function"
    },
    {
      "inputs": [],
      "name": "currentTokenId",
      "outputs": [
        {
          "internalType": "uint256",
          "name": "",
          "type": "uint256"
        }
      ],
      "stateMutability": "view",
      "type": "function"
    },
    {
      "inputs": [
        {
          "internalType": "uint256",
          "name": "tokenId",
          "type": "uint256"
        }
      ],
      "name": "getApproved",
      "outputs": [
        {
          "internalType": "address",
          "name": "",
          "type": "address"
        }
      ],
      "stateMutability": "view",
      "type": "function"
    },
    {
      "inputs": [
        {
          "internalType": "address payable",
          "name": "beneficiary_",
          "type": "address"
        }
      ],
      "name": "initialize",
      "outputs": [],
      "stateMutability": "nonpayable",
      "type": "function"
    },
    {
      "inputs": [
        {
          "internalType": "address",
          "name": "owner",
          "type": "address"
        },
        {
          "internalType": "address",
          "name": "operator",
          "type": "address"
        }
      ],
      "name": "isApprovedForAll",
      "outputs": [
        {
          "internalType": "bool",
          "name": "",
          "type": "bool"
        }
      ],
      "stateMutability": "view",
      "type": "function"
    },
    {
      "inputs": [],
      "name": "name",
      "outputs": [
        {
          "internalType": "string",
          "name": "",
          "type": "string"
        }
      ],
      "stateMutability": "view",
      "type": "function"
    },
    {
      "inputs": [],
      "name": "owner",
      "outputs": [
        {
          "internalType": "address",
          "name": "",
          "type": "address"
        }
      ],
      "stateMutability": "view",
      "type": "function"
    },
    {
      "inputs": [
        {
          "internalType": "uint256",
          "name": "tokenId",
          "type": "uint256"
        }
      ],
      "name": "ownerOf",
      "outputs": [
        {
          "internalType": "address",
          "name": "",
          "type": "address"
        }
      ],
      "stateMutability": "view",
      "type": "function"
    },
    {
      "inputs": [],
      "name": "price",
      "outputs": [
        {
          "internalType": "uint256",
          "name": "",
          "type": "uint256"
        }
      ],
      "stateMutability": "view",
      "type": "function"
    },
    {
      "inputs": [],
      "name": "renounceOwnership",
      "outputs": [],
      "stateMutability": "nonpayable",
      "type": "function"
    },
    {
      "inputs": [
        {
          "internalType": "address",
          "name": "from",
          "type": "address"
        },
        {
          "internalType": "address",
          "name": "to",
          "type": "address"
        },
        {
          "internalType": "uint256",
          "name": "tokenId",
          "type": "uint256"
        }
      ],
      "name": "safeTransferFrom",
      "outputs": [],
      "stateMutability": "nonpayable",
      "type": "function"
    },
    {
      "inputs": [
        {
          "internalType": "address",
          "name": "from",
          "type": "address"
        },
        {
          "internalType": "address",
          "name": "to",
          "type": "address"
        },
        {
          "internalType": "uint256",
          "name": "tokenId",
          "type": "uint256"
        },
        {
          "internalType": "bytes",
          "name": "_data",
          "type": "bytes"
        }
      ],
      "name": "safeTransferFrom",
      "outputs": [],
      "stateMutability": "nonpayable",
      "type": "function"
    },
    {
      "inputs": [
        {
          "internalType": "address",
          "name": "operator",
          "type": "address"
        },
        {
          "internalType": "bool",
          "name": "approved",
          "type": "bool"
        }
      ],
      "name": "setApprovalForAll",
      "outputs": [],
      "stateMutability": "nonpayable",
      "type": "function"
    },
    {
      "inputs": [
        {
          "internalType": "address payable",
          "name": "newBeneficiary",
          "type": "address"
        }
      ],
      "name": "setBeneficiary",
      "outputs": [],
      "stateMutability": "nonpayable",
      "type": "function"
    },
    {
      "inputs": [
        {
          "internalType": "uint256",
          "name": "newPrice",
          "type": "uint256"
        }
      ],
      "name": "setPrice",
      "outputs": [],
      "stateMutability": "nonpayable",
      "type": "function"
    },
    {
      "inputs": [
        {
          "internalType": "uint256",
          "name": "newSolds",
          "type": "uint256"
        }
      ],
      "name": "setSolds",
      "outputs": [],
      "stateMutability": "nonpayable",
      "type": "function"
    },
    {
      "inputs": [],
      "name": "solds",
      "outputs": [
        {
          "internalType": "uint256",
          "name": "",
          "type": "uint256"
        }
      ],
      "stateMutability": "view",
      "type": "function"
    },
    {
      "inputs": [
        {
          "internalType": "bytes4",
          "name": "interfaceId",
          "type": "bytes4"
        }
      ],
      "name": "supportsInterface",
      "outputs": [
        {
          "internalType": "bool",
          "name": "",
          "type": "bool"
        }
      ],
      "stateMutability": "view",
      "type": "function"
    },
    {
      "inputs": [],
      "name": "symbol",
      "outputs": [
        {
          "internalType": "string",
          "name": "",
          "type": "string"
        }
      ],
      "stateMutability": "view",
      "type": "function"
    },
    {
      "inputs": [
        {
          "internalType": "uint256",
          "name": "tokenId",
          "type": "uint256"
        }
      ],
      "name": "tokenURI",
      "outputs": [
        {
          "internalType": "string",
          "name": "",
          "type": "string"
        }
      ],
      "stateMutability": "view",
      "type": "function"
    },
    {
      "inputs": [
        {
          "internalType": "address",
          "name": "from",
          "type": "address"
        },
        {
          "internalType": "address",
          "name": "to",
          "type": "address"
        },
        {
          "internalType": "uint256",
          "name": "tokenId",
          "type": "uint256"
        }
      ],
      "name": "transferFrom",
      "outputs": [],
      "stateMutability": "nonpayable",
      "type": "function"
    },
    {
      "inputs": [
        {
          "internalType": "address",
          "name": "newOwner",
          "type": "address"
        }
      ],
      "name": "transferOwnership",
      "outputs": [],
      "stateMutability": "nonpayable",
      "type": "function"
    },
    {
      "inputs": [
        {
          "internalType": "address",
          "name": "",
          "type": "address"
        }
      ],
      "name": "userBuys",
      "outputs": [
        {
          "internalType": "uint256",
          "name": "",
          "type": "uint256"
        }
      ],
      "stateMutability": "view",
      "type": "function"
    }
  ],
  "bytecode": "0x608060405234801561001057600080fd5b50612038806100206000396000f3fe6080604052600436106101cc5760003560e01c806370a08231116100f7578063b835871511610095578063c87b56dd11610064578063c87b56dd14610527578063d96a094a14610547578063e985e9c51461055a578063f2fde38b146105a357600080fd5b8063b8358715146104b2578063b88d4fde146104c7578063c2f637dc146104e7578063c4d66de81461050757600080fd5b806391b7f5ed116100d157806391b7f5ed1461044757806395d89b4114610467578063a035b1fe1461047c578063a22cb4651461049257600080fd5b806370a08231146103f4578063715018a6146104145780638da5cb5b1461042957600080fd5b806338af3eed1161016f57806348d2df481161013e57806348d2df481461035c5780636352211e146103895780636c0360eb146103a95780636da612d8146103de57600080fd5b806338af3eed146102e65780633bf83d03146103065780633c51199f1461032657806342842e0e1461033c57600080fd5b8063081812fc116101ab578063081812fc1461024c578063095ea7b3146102845780631c31f710146102a657806323b872dd146102c657600080fd5b80629a9b7b146101d157806301ffc9a7146101fa57806306fdde031461022a575b600080fd5b3480156101dd57600080fd5b506101e760c95481565b6040519081526020015b60405180910390f35b34801561020657600080fd5b5061021a610215366004611c84565b6105c3565b60405190151581526020016101f1565b34801561023657600080fd5b5061023f610615565b6040516101f19190611d90565b34801561025857600080fd5b5061026c610267366004611cbc565b6106a7565b6040516001600160a01b0390911681526020016101f1565b34801561029057600080fd5b506102a461029f366004611c59565b610741565b005b3480156102b257600080fd5b506102a46102c1366004611abb565b610857565b3480156102d257600080fd5b506102a46102e1366004611b0f565b6108a3565b3480156102f257600080fd5b5060cb5461026c906001600160a01b031681565b34801561031257600080fd5b506102a4610321366004611cbc565b6108d4565b34801561033257600080fd5b506101e760cc5481565b34801561034857600080fd5b506102a4610357366004611b0f565b610955565b34801561036857600080fd5b506101e7610377366004611abb565b60ca6020526000908152604090205481565b34801561039557600080fd5b5061026c6103a4366004611cbc565b610970565b3480156103b557600080fd5b5060408051808201909152600c81526b697066733a2f2f697066732f60a01b602082015261023f565b3480156103ea57600080fd5b506101e761138881565b34801561040057600080fd5b506101e761040f366004611abb565b6109e7565b34801561042057600080fd5b506102a4610a6e565b34801561043557600080fd5b506097546001600160a01b031661026c565b34801561045357600080fd5b506102a4610462366004611cbc565b610aa4565b34801561047357600080fd5b5061023f610ad3565b34801561048857600080fd5b506101e760cd5481565b34801561049e57600080fd5b506102a46104ad366004611c28565b610ae2565b3480156104be57600080fd5b506101e7600581565b3480156104d357600080fd5b506102a46104e2366004611b4f565b610af1565b3480156104f357600080fd5b506102a4610502366004611cd4565b610b29565b34801561051357600080fd5b506102a4610522366004611abb565b610c03565b34801561053357600080fd5b5061023f610542366004611cbc565b610d49565b6102a4610555366004611cbc565b610e45565b34801561056657600080fd5b5061021a610575366004611ad7565b6001600160a01b039182166000908152606a6020908152604080832093909416825291909152205460ff1690565b3480156105af57600080fd5b506102a46105be366004611abb565b61105b565b60006001600160e01b031982166380ac58cd60e01b14806105f457506001600160e01b03198216635b5e139f60e01b145b8061060f57506301ffc9a760e01b6001600160e01b03198316145b92915050565b60606065805461062490611f54565b80601f016020809104026020016040519081016040528092919081815260200182805461065090611f54565b801561069d5780601f106106725761010080835404028352916020019161069d565b820191906000526020600020905b81548152906001019060200180831161068057829003601f168201915b5050505050905090565b6000818152606760205260408120546001600160a01b03166107255760405162461bcd60e51b815260206004820152602c60248201527f4552433732313a20617070726f76656420717565727920666f72206e6f6e657860448201526b34b9ba32b73a103a37b5b2b760a11b60648201526084015b60405180910390fd5b506000908152606960205260409020546001600160a01b031690565b600061074c82610970565b9050806001600160a01b0316836001600160a01b031614156107ba5760405162461bcd60e51b815260206004820152602160248201527f4552433732313a20617070726f76616c20746f2063757272656e74206f776e656044820152603960f91b606482015260840161071c565b336001600160a01b03821614806107d657506107d68133610575565b6108485760405162461bcd60e51b815260206004820152603860248201527f4552433732313a20617070726f76652063616c6c6572206973206e6f74206f7760448201527f6e6572206e6f7220617070726f76656420666f7220616c6c0000000000000000606482015260840161071c565b61085283836110f6565b505050565b6097546001600160a01b031633146108815760405162461bcd60e51b815260040161071c90611df5565b60cb80546001600160a01b0319166001600160a01b0392909216919091179055565b6108ad3382611164565b6108c95760405162461bcd60e51b815260040161071c90611e2a565b61085283838361125b565b6097546001600160a01b031633146108fe5760405162461bcd60e51b815260040161071c90611df5565b6113888111156109505760405162461bcd60e51b815260206004820152601d60248201527f426c696e64426f783a20746f6b656e4964206d61782069732035303030000000604482015260640161071c565b60cc55565b61085283838360405180602001604052806000815250610af1565b6000818152606760205260408120546001600160a01b03168061060f5760405162461bcd60e51b815260206004820152602960248201527f4552433732313a206f776e657220717565727920666f72206e6f6e657869737460448201526832b73a103a37b5b2b760b91b606482015260840161071c565b60006001600160a01b038216610a525760405162461bcd60e51b815260206004820152602a60248201527f4552433732313a2062616c616e636520717565727920666f7220746865207a65604482015269726f206164647265737360b01b606482015260840161071c565b506001600160a01b031660009081526068602052604090205490565b6097546001600160a01b03163314610a985760405162461bcd60e51b815260040161071c90611df5565b610aa260006113fb565b565b6097546001600160a01b03163314610ace5760405162461bcd60e51b815260040161071c90611df5565b60cd55565b60606066805461062490611f54565b610aed33838361144d565b5050565b610afb3383611164565b610b175760405162461bcd60e51b815260040161071c90611e2a565b610b238484848461151c565b50505050565b6097546001600160a01b03163314610b535760405162461bcd60e51b815260040161071c90611df5565b6113888260c954610b649190611ec6565b1115610bb25760405162461bcd60e51b815260206004820152601d60248201527f426c696e64426f783a20746f6b656e4964206d61782069732035303030000000604482015260640161071c565b60c9545b8260c954610bc49190611ec6565b811015610be757610bd5828261154f565b80610bdf81611f8f565b915050610bb6565b508160c96000828254610bfa9190611ec6565b90915550505050565b600054610100900460ff16610c1e5760005460ff1615610c22565b303b155b610c855760405162461bcd60e51b815260206004820152602e60248201527f496e697469616c697a61626c653a20636f6e747261637420697320616c72656160448201526d191e481a5b9a5d1a585b1a5e995960921b606482015260840161071c565b600054610100900460ff16158015610ca7576000805461ffff19166101011790555b610cfb60405180604001604052806016815260200175090dee4e6ca40a4c2c6d2dcce4084d8d2dcc84084def60531b815250604051806040016040528060048152602001632429212160e11b815250611569565b610d036115aa565b60cb80546001600160a01b0319166001600160a01b038416179055600160c955600060cc55674563918244f4000060cd558015610aed576000805461ff00191690555050565b6000818152606760205260409020546060906001600160a01b0316610dc85760405162461bcd60e51b815260206004820152602f60248201527f4552433732314d657461646174613a2055524920717565727920666f72206e6f60448201526e3732bc34b9ba32b73a103a37b5b2b760891b606482015260840161071c565b6000610df360408051808201909152600c81526b697066733a2f2f697066732f60a01b602082015290565b90506000815111610e135760405180602001604052806000815250610e3e565b80610e1d846115e1565b604051602001610e2e929190611d24565b6040516020818303038152906040525b9392505050565b3460cd5482610e549190611ef2565b14610eac5760405162461bcd60e51b815260206004820152602260248201527f426c696e64426f783a206d73672e76616c7565206973206e6f7420636f72726560448201526118dd60f21b606482015260840161071c565b60cc5460018260c954610ebf9190611ec6565b610ec99190611f11565b1115610f0c5760405162461bcd60e51b8152602060048201526012602482015271109b1a5b99109bde0e8814dbdb190813dd5d60721b604482015260640161071c565b33600090815260ca6020526040902054600590610f2a908390611ec6565b1115610f785760405162461bcd60e51b815260206004820152601d60248201527f426c696e64426f783a2075736572206f6e6c7920627579206669766573000000604482015260640161071c565b60c9545b8160c954610f8a9190611ec6565b811015610fad57610f9b338261154f565b80610fa581611f8f565b915050610f7c565b508060c96000828254610fc09190611ec6565b909155505033600090815260ca602052604081208054839290610fe4908490611ec6565b909155505060cb546040516001600160a01b03909116904780156108fc02916000818181858888f19350505050158015611022573d6000803e3d6000fd5b5060405181815233907fe3d4187f6ca4248660cc0ac8b8056515bac4a8132be2eca31d6d0cc170722a7e9060200160405180910390a250565b6097546001600160a01b031633146110855760405162461bcd60e51b815260040161071c90611df5565b6001600160a01b0381166110ea5760405162461bcd60e51b815260206004820152602660248201527f4f776e61626c653a206e6577206f776e657220697320746865207a65726f206160448201526564647265737360d01b606482015260840161071c565b6110f3816113fb565b50565b600081815260696020526040902080546001600160a01b0319166001600160a01b038416908117909155819061112b82610970565b6001600160a01b03167f8c5be1e5ebec7d5bd14f71427d1e84f3dd0314c0f7b2291e5b200ac8c7c3b92560405160405180910390a45050565b6000818152606760205260408120546001600160a01b03166111dd5760405162461bcd60e51b815260206004820152602c60248201527f4552433732313a206f70657261746f7220717565727920666f72206e6f6e657860448201526b34b9ba32b73a103a37b5b2b760a11b606482015260840161071c565b60006111e883610970565b9050806001600160a01b0316846001600160a01b031614806112235750836001600160a01b0316611218846106a7565b6001600160a01b0316145b8061125357506001600160a01b038082166000908152606a602090815260408083209388168352929052205460ff165b949350505050565b826001600160a01b031661126e82610970565b6001600160a01b0316146112d65760405162461bcd60e51b815260206004820152602960248201527f4552433732313a207472616e73666572206f6620746f6b656e2074686174206960448201526839903737ba1037bbb760b91b606482015260840161071c565b6001600160a01b0382166113385760405162461bcd60e51b8152602060048201526024808201527f4552433732313a207472616e7366657220746f20746865207a65726f206164646044820152637265737360e01b606482015260840161071c565b6113436000826110f6565b6001600160a01b038316600090815260686020526040812080546001929061136c908490611f11565b90915550506001600160a01b038216600090815260686020526040812080546001929061139a908490611ec6565b909155505060008181526067602052604080822080546001600160a01b0319166001600160a01b0386811691821790925591518493918716917fddf252ad1be2c89b69c2b068fc378daa952ba7f163c4a11628f55a4df523b3ef91a4505050565b609780546001600160a01b038381166001600160a01b0319831681179093556040519116919082907f8be0079c531659141344cd1fd0a4f28419497f9722a3daafe3b4186f6b6457e090600090a35050565b816001600160a01b0316836001600160a01b031614156114af5760405162461bcd60e51b815260206004820152601960248201527f4552433732313a20617070726f766520746f2063616c6c657200000000000000604482015260640161071c565b6001600160a01b038381166000818152606a6020908152604080832094871680845294825291829020805460ff191686151590811790915591519182527f17307eab39ab6107e8899845ad3d59bd9653f200f220920489ca2b5937696c31910160405180910390a3505050565b61152784848461125b565b611533848484846116fb565b610b235760405162461bcd60e51b815260040161071c90611da3565b610aed828260405180602001604052806000815250611808565b600054610100900460ff166115905760405162461bcd60e51b815260040161071c90611e7b565b61159861183b565b6115a061183b565b610aed8282611862565b600054610100900460ff166115d15760405162461bcd60e51b815260040161071c90611e7b565b6115d961183b565b610aa26118b0565b6060816116055750506040805180820190915260018152600360fc1b602082015290565b8160005b811561162f578061161981611f8f565b91506116289050600a83611ede565b9150611609565b60008167ffffffffffffffff81111561165857634e487b7160e01b600052604160045260246000fd5b6040519080825280601f01601f191660200182016040528015611682576020820181803683370190505b5090505b841561125357611697600183611f11565b91506116a4600a86611faa565b6116af906030611ec6565b60f81b8183815181106116d257634e487b7160e01b600052603260045260246000fd5b60200101906001600160f81b031916908160001a9053506116f4600a86611ede565b9450611686565b60006001600160a01b0384163b156117fd57604051630a85bd0160e11b81526001600160a01b0385169063150b7a029061173f903390899088908890600401611d53565b602060405180830381600087803b15801561175957600080fd5b505af1925050508015611789575060408051601f3d908101601f1916820190925261178691810190611ca0565b60015b6117e3573d8080156117b7576040519150601f19603f3d011682016040523d82523d6000602084013e6117bc565b606091505b5080516117db5760405162461bcd60e51b815260040161071c90611da3565b805181602001fd5b6001600160e01b031916630a85bd0160e11b149050611253565b506001949350505050565b61181283836118e0565b61181f60008484846116fb565b6108525760405162461bcd60e51b815260040161071c90611da3565b600054610100900460ff16610aa25760405162461bcd60e51b815260040161071c90611e7b565b600054610100900460ff166118895760405162461bcd60e51b815260040161071c90611e7b565b815161189c906065906020850190611a22565b508051610852906066906020840190611a22565b600054610100900460ff166118d75760405162461bcd60e51b815260040161071c90611e7b565b610aa2336113fb565b6001600160a01b0382166119365760405162461bcd60e51b815260206004820181905260248201527f4552433732313a206d696e7420746f20746865207a65726f2061646472657373604482015260640161071c565b6000818152606760205260409020546001600160a01b03161561199b5760405162461bcd60e51b815260206004820152601c60248201527f4552433732313a20746f6b656e20616c7265616479206d696e74656400000000604482015260640161071c565b6001600160a01b03821660009081526068602052604081208054600192906119c4908490611ec6565b909155505060008181526067602052604080822080546001600160a01b0319166001600160a01b03861690811790915590518392907fddf252ad1be2c89b69c2b068fc378daa952ba7f163c4a11628f55a4df523b3ef908290a45050565b828054611a2e90611f54565b90600052602060002090601f016020900481019282611a505760008555611a96565b82601f10611a6957805160ff1916838001178555611a96565b82800160010185558215611a96579182015b82811115611a96578251825591602001919060010190611a7b565b50611aa2929150611aa6565b5090565b5b80821115611aa25760008155600101611aa7565b600060208284031215611acc578081fd5b8135610e3e81612000565b60008060408385031215611ae9578081fd5b8235611af481612000565b91506020830135611b0481612000565b809150509250929050565b600080600060608486031215611b23578081fd5b8335611b2e81612000565b92506020840135611b3e81612000565b929592945050506040919091013590565b60008060008060808587031215611b64578081fd5b8435611b6f81612000565b93506020850135611b7f81612000565b925060408501359150606085013567ffffffffffffffff80821115611ba2578283fd5b818701915087601f830112611bb5578283fd5b813581811115611bc757611bc7611fea565b604051601f8201601f19908116603f01168101908382118183101715611bef57611bef611fea565b816040528281528a6020848701011115611c07578586fd5b82602086016020830137918201602001949094529598949750929550505050565b60008060408385031215611c3a578182fd5b8235611c4581612000565b915060208301358015158114611b04578182fd5b60008060408385031215611c6b578182fd5b8235611c7681612000565b946020939093013593505050565b600060208284031215611c95578081fd5b8135610e3e81612015565b600060208284031215611cb1578081fd5b8151610e3e81612015565b600060208284031215611ccd578081fd5b5035919050565b60008060408385031215611ce6578182fd5b823591506020830135611b0481612000565b60008151808452611d10816020860160208601611f28565b601f01601f19169290920160200192915050565b60008351611d36818460208801611f28565b835190830190611d4a818360208801611f28565b01949350505050565b6001600160a01b0385811682528416602082015260408101839052608060608201819052600090611d8690830184611cf8565b9695505050505050565b602081526000610e3e6020830184611cf8565b60208082526032908201527f4552433732313a207472616e7366657220746f206e6f6e20455243373231526560408201527131b2b4bb32b91034b6b83632b6b2b73a32b960711b606082015260800190565b6020808252818101527f4f776e61626c653a2063616c6c6572206973206e6f7420746865206f776e6572604082015260600190565b60208082526031908201527f4552433732313a207472616e736665722063616c6c6572206973206e6f74206f6040820152701ddb995c881b9bdc88185c1c1c9bdd9959607a1b606082015260800190565b6020808252602b908201527f496e697469616c697a61626c653a20636f6e7472616374206973206e6f74206960408201526a6e697469616c697a696e6760a81b606082015260800190565b60008219821115611ed957611ed9611fbe565b500190565b600082611eed57611eed611fd4565b500490565b6000816000190483118215151615611f0c57611f0c611fbe565b500290565b600082821015611f2357611f23611fbe565b500390565b60005b83811015611f43578181015183820152602001611f2b565b83811115610b235750506000910152565b600181811c90821680611f6857607f821691505b60208210811415611f8957634e487b7160e01b600052602260045260246000fd5b50919050565b6000600019821415611fa357611fa3611fbe565b5060010190565b600082611fb957611fb9611fd4565b500690565b634e487b7160e01b600052601160045260246000fd5b634e487b7160e01b600052601260045260246000fd5b634e487b7160e01b600052604160045260246000fd5b6001600160a01b03811681146110f357600080fd5b6001600160e01b0319811681146110f357600080fdfea164736f6c6343000804000a",
  "linkReferences": {},
  "deployedLinkReferences": {}
}