{
  "address": "0x9AbBb32033a24c2f503704d8A0F20A7E4af9ABfe",
  "transactionHash": "0xf9f5fe0643a5b86e89cb3c5dee9c64cabad2d18eaa3e9cc940c6c4875fff2ead",
  "args": [
    "0x0Fc0c315F3b38ca5a3bb7118fa689B9682eeA1E9"
  ],
  "_format": "hh-sol-artifact-1",
  "contractName": "BlindBox",
  "sourceName": "contracts/BlindBox.sol",
  "abi": [
    {
      "anonymous": false,
      "inputs": [
        {
          "indexed": true,
          "internalType": "address",
          "name": "owner",
          "type": "address"
        },
        {
          "indexed": true,
          "internalType": "address",
          "name": "approved",
          "type": "address"
        },
        {
          "indexed": true,
          "internalType": "uint256",
          "name": "tokenId",
          "type": "uint256"
        }
      ],
      "name": "Approval",
      "type": "event"
    },
    {
      "anonymous": false,
      "inputs": [
        {
          "indexed": true,
          "internalType": "address",
          "name": "owner",
          "type": "address"
        },
        {
          "indexed": true,
          "internalType": "address",
          "name": "operator",
          "type": "address"
        },
        {
          "indexed": false,
          "internalType": "bool",
          "name": "approved",
          "type": "bool"
        }
      ],
      "name": "ApprovalForAll",
      "type": "event"
    },
    {
      "anonymous": false,
      "inputs": [
        {
          "indexed": true,
          "internalType": "address",
          "name": "user",
          "type": "address"
        },
        {
          "indexed": false,
          "internalType": "uint256",
          "name": "amount",
          "type": "uint256"
        }
      ],
      "name": "Buy",
      "type": "event"
    },
    {
      "anonymous": false,
      "inputs": [
        {
          "indexed": true,
          "internalType": "address",
          "name": "previousOwner",
          "type": "address"
        },
        {
          "indexed": true,
          "internalType": "address",
          "name": "newOwner",
          "type": "address"
        }
      ],
      "name": "OwnershipTransferred",
      "type": "event"
    },
    {
      "anonymous": false,
      "inputs": [
        {
          "indexed": true,
          "internalType": "address",
          "name": "from",
          "type": "address"
        },
        {
          "indexed": true,
          "internalType": "address",
          "name": "to",
          "type": "address"
        },
        {
          "indexed": true,
          "internalType": "uint256",
          "name": "tokenId",
          "type": "uint256"
        }
      ],
      "name": "Transfer",
      "type": "event"
    },
    {
      "inputs": [],
      "name": "AMOUNT_PER_USER",
      "outputs": [
        {
          "internalType": "uint256",
          "name": "",
          "type": "uint256"
        }
      ],
      "stateMutability": "view",
      "type": "function"
    },
    {
      "inputs": [],
      "name": "MAX_TOKEN_ID",
      "outputs": [
        {
          "internalType": "uint256",
          "name": "",
          "type": "uint256"
        }
      ],
      "stateMutability": "view",
      "type": "function"
    },
    {
      "inputs": [
        {
          "components": [
            {
              "internalType": "uint256",
              "name": "price",
              "type": "uint256"
            },
            {
              "internalType": "uint256",
              "name": "solds",
              "type": "uint256"
            },
            {
              "internalType": "uint256",
              "name": "startTime",
              "type": "uint256"
            },
            {
              "internalType": "uint256",
              "name": "endTime",
              "type": "uint256"
            }
          ],
          "internalType": "struct BlindBox.Pool",
          "name": "pool",
          "type": "tuple"
        }
      ],
      "name": "addPool",
      "outputs": [],
      "stateMutability": "nonpayable",
      "type": "function"
    },
    {
      "inputs": [
        {
          "internalType": "address",
          "name": "to",
          "type": "address"
        },
        {
          "internalType": "uint256",
          "name": "tokenId",
          "type": "uint256"
        }
      ],
      "name": "approve",
      "outputs": [],
      "stateMutability": "nonpayable",
      "type": "function"
    },
    {
      "inputs": [
        {
          "internalType": "address",
          "name": "owner",
          "type": "address"
        }
      ],
      "name": "balanceOf",
      "outputs": [
        {
          "internalType": "uint256",
          "name": "",
          "type": "uint256"
        }
      ],
      "stateMutability": "view",
      "type": "function"
    },
    {
      "inputs": [],
      "name": "baseURI",
      "outputs": [
        {
          "internalType": "string",
          "name": "",
          "type": "string"
        }
      ],
      "stateMutability": "view",
      "type": "function"
    },
    {
      "inputs": [
        {
          "internalType": "uint256",
          "name": "amount",
          "type": "uint256"
        },
        {
          "internalType": "address",
          "name": "addr",
          "type": "address"
        }
      ],
      "name": "batchMint",
      "outputs": [],
      "stateMutability": "nonpayable",
      "type": "function"
    },
    {
      "inputs": [
        {
          "internalType": "uint256[]",
          "name": "tokenIds",
          "type": "uint256[]"
        }
      ],
      "name": "batchOpen",
      "outputs": [],
      "stateMutability": "nonpayable",
      "type": "function"
    },
    {
      "inputs": [],
      "name": "beneficiary",
      "outputs": [
        {
          "internalType": "address payable",
          "name": "",
          "type": "address"
        }
      ],
      "stateMutability": "view",
      "type": "function"
    },
    {
      "inputs": [
        {
          "internalType": "uint256",
          "name": "pid",
          "type": "uint256"
        },
        {
          "internalType": "uint256",
          "name": "amount",
          "type": "uint256"
        }
      ],
      "name": "buy",
      "outputs": [],
      "stateMutability": "payable",
      "type": "function"
    },
    {
      "inputs": [],
      "name": "currentTokenId",
      "outputs": [
        {
          "internalType": "uint256",
          "name": "",
          "type": "uint256"
        }
      ],
      "stateMutability": "view",
      "type": "function"
    },
    {
      "inputs": [
        {
          "internalType": "uint256",
          "name": "tokenId",
          "type": "uint256"
        }
      ],
      "name": "getApproved",
      "outputs": [
        {
          "internalType": "address",
          "name": "",
          "type": "address"
        }
      ],
      "stateMutability": "view",
      "type": "function"
    },
    {
      "inputs": [
        {
          "internalType": "uint256",
          "name": "pid",
          "type": "uint256"
        },
        {
          "internalType": "address",
          "name": "account",
          "type": "address"
        }
      ],
      "name": "getUserBuyed",
      "outputs": [
        {
          "internalType": "uint256",
          "name": "",
          "type": "uint256"
        }
      ],
      "stateMutability": "view",
      "type": "function"
    },
    {
      "inputs": [],
      "name": "horse",
      "outputs": [
        {
          "internalType": "address",
          "name": "",
          "type": "address"
        }
      ],
      "stateMutability": "view",
      "type": "function"
    },
    {
      "inputs": [
        {
          "internalType": "address payable",
          "name": "beneficiary_",
          "type": "address"
        }
      ],
      "name": "initialize",
      "outputs": [],
      "stateMutability": "nonpayable",
      "type": "function"
    },
    {
      "inputs": [
        {
          "internalType": "address",
          "name": "owner",
          "type": "address"
        },
        {
          "internalType": "address",
          "name": "operator",
          "type": "address"
        }
      ],
      "name": "isApprovedForAll",
      "outputs": [
        {
          "internalType": "bool",
          "name": "",
          "type": "bool"
        }
      ],
      "stateMutability": "view",
      "type": "function"
    },
    {
      "inputs": [],
      "name": "name",
      "outputs": [
        {
          "internalType": "string",
          "name": "",
          "type": "string"
        }
      ],
      "stateMutability": "view",
      "type": "function"
    },
    {
      "inputs": [
        {
          "internalType": "uint256",
          "name": "tokenId",
          "type": "uint256"
        }
      ],
      "name": "open",
      "outputs": [],
      "stateMutability": "nonpayable",
      "type": "function"
    },
    {
      "inputs": [],
      "name": "openStart",
      "outputs": [
        {
          "internalType": "bool",
          "name": "",
          "type": "bool"
        }
      ],
      "stateMutability": "view",
      "type": "function"
    },
    {
      "inputs": [],
      "name": "owner",
      "outputs": [
        {
          "internalType": "address",
          "name": "",
          "type": "address"
        }
      ],
      "stateMutability": "view",
      "type": "function"
    },
    {
      "inputs": [
        {
          "internalType": "uint256",
          "name": "tokenId",
          "type": "uint256"
        }
      ],
      "name": "ownerOf",
      "outputs": [
        {
          "internalType": "address",
          "name": "",
          "type": "address"
        }
      ],
      "stateMutability": "view",
      "type": "function"
    },
    {
      "inputs": [],
      "name": "poolLength",
      "outputs": [
        {
          "internalType": "uint256",
          "name": "",
          "type": "uint256"
        }
      ],
      "stateMutability": "view",
      "type": "function"
    },
    {
      "inputs": [
        {
          "internalType": "uint256",
          "name": "",
          "type": "uint256"
        }
      ],
      "name": "pools",
      "outputs": [
        {
          "internalType": "uint256",
          "name": "price",
          "type": "uint256"
        },
        {
          "internalType": "uint256",
          "name": "solds",
          "type": "uint256"
        },
        {
          "internalType": "uint256",
          "name": "startTime",
          "type": "uint256"
        },
        {
          "internalType": "uint256",
          "name": "endTime",
          "type": "uint256"
        }
      ],
      "stateMutability": "view",
      "type": "function"
    },
    {
      "inputs": [],
      "name": "price",
      "outputs": [
        {
          "internalType": "uint256",
          "name": "",
          "type": "uint256"
        }
      ],
      "stateMutability": "view",
      "type": "function"
    },
    {
      "inputs": [],
      "name": "renounceOwnership",
      "outputs": [],
      "stateMutability": "nonpayable",
      "type": "function"
    },
    {
      "inputs": [
        {
          "internalType": "address",
          "name": "from",
          "type": "address"
        },
        {
          "internalType": "address",
          "name": "to",
          "type": "address"
        },
        {
          "internalType": "uint256",
          "name": "tokenId",
          "type": "uint256"
        }
      ],
      "name": "safeTransferFrom",
      "outputs": [],
      "stateMutability": "nonpayable",
      "type": "function"
    },
    {
      "inputs": [
        {
          "internalType": "address",
          "name": "from",
          "type": "address"
        },
        {
          "internalType": "address",
          "name": "to",
          "type": "address"
        },
        {
          "internalType": "uint256",
          "name": "tokenId",
          "type": "uint256"
        },
        {
          "internalType": "bytes",
          "name": "_data",
          "type": "bytes"
        }
      ],
      "name": "safeTransferFrom",
      "outputs": [],
      "stateMutability": "nonpayable",
      "type": "function"
    },
    {
      "inputs": [
        {
          "internalType": "address",
          "name": "operator",
          "type": "address"
        },
        {
          "internalType": "bool",
          "name": "approved",
          "type": "bool"
        }
      ],
      "name": "setApprovalForAll",
      "outputs": [],
      "stateMutability": "nonpayable",
      "type": "function"
    },
    {
      "inputs": [
        {
          "internalType": "address payable",
          "name": "newBeneficiary",
          "type": "address"
        }
      ],
      "name": "setBeneficiary",
      "outputs": [],
      "stateMutability": "nonpayable",
      "type": "function"
    },
    {
      "inputs": [
        {
          "internalType": "address",
          "name": "addr",
          "type": "address"
        }
      ],
      "name": "setHorse",
      "outputs": [],
      "stateMutability": "nonpayable",
      "type": "function"
    },
    {
      "inputs": [
        {
          "internalType": "bool",
          "name": "started",
          "type": "bool"
        }
      ],
      "name": "setOpenStart",
      "outputs": [],
      "stateMutability": "nonpayable",
      "type": "function"
    },
    {
      "inputs": [],
      "name": "solds",
      "outputs": [
        {
          "internalType": "uint256",
          "name": "",
          "type": "uint256"
        }
      ],
      "stateMutability": "view",
      "type": "function"
    },
    {
      "inputs": [
        {
          "internalType": "bytes4",
          "name": "interfaceId",
          "type": "bytes4"
        }
      ],
      "name": "supportsInterface",
      "outputs": [
        {
          "internalType": "bool",
          "name": "",
          "type": "bool"
        }
      ],
      "stateMutability": "view",
      "type": "function"
    },
    {
      "inputs": [],
      "name": "symbol",
      "outputs": [
        {
          "internalType": "string",
          "name": "",
          "type": "string"
        }
      ],
      "stateMutability": "view",
      "type": "function"
    },
    {
      "inputs": [
        {
          "internalType": "uint256",
          "name": "tokenId",
          "type": "uint256"
        }
      ],
      "name": "tokenURI",
      "outputs": [
        {
          "internalType": "string",
          "name": "",
          "type": "string"
        }
      ],
      "stateMutability": "view",
      "type": "function"
    },
    {
      "inputs": [
        {
          "internalType": "address",
          "name": "from",
          "type": "address"
        },
        {
          "internalType": "address",
          "name": "to",
          "type": "address"
        },
        {
          "internalType": "uint256",
          "name": "tokenId",
          "type": "uint256"
        }
      ],
      "name": "transferFrom",
      "outputs": [],
      "stateMutability": "nonpayable",
      "type": "function"
    },
    {
      "inputs": [
        {
          "internalType": "address",
          "name": "newOwner",
          "type": "address"
        }
      ],
      "name": "transferOwnership",
      "outputs": [],
      "stateMutability": "nonpayable",
      "type": "function"
    },
    {
      "inputs": [
        {
          "internalType": "address",
          "name": "",
          "type": "address"
        }
      ],
      "name": "userBuys",
      "outputs": [
        {
          "internalType": "uint256",
          "name": "",
          "type": "uint256"
        }
      ],
      "stateMutability": "view",
      "type": "function"
    }
  ],
  "bytecode": "0x608060405234801561001057600080fd5b506126db806100206000396000f3fe6080604052600436106102245760003560e01c80636c0360eb11610123578063ac4afa38116100ab578063c87b56dd1161006f578063c87b56dd1461069c578063d6febde8146106bc578063d6ffd7a7146106cf578063e985e9c5146106e9578063f2fde38b1461073257600080fd5b8063ac4afa38146105c5578063b835871514610627578063b88d4fde1461063c578063c2f637dc1461065c578063c4d66de81461067c57600080fd5b806372b94bbb116100f257806372b94bbb1461053c5780638da5cb5b1461055c57806395d89b411461057a578063a035b1fe1461058f578063a22cb465146105a557600080fd5b80636c0360eb146104bc5780636da612d8146104f157806370a0823114610507578063715018a61461052757600080fd5b806323b872dd116101b157806348d2df481161017557806348d2df481461040a578063521d14f51461043757806362c0be10146104575780636352211e1461047c578063690e7c091461049c57600080fd5b806323b872dd1461037457806338af3eed146103945780633c51199f146103b457806342842e0e146103ca578063473017f7146103ea57600080fd5b8063081812fc116101f8578063081812fc146102c6578063081e3eda146102fe578063095ea7b3146103145780631969160b146103345780631c31f7101461035457600080fd5b80629a9b7b1461022957806301ffc9a7146102525780630492524b1461028257806306fdde03146102a4575b600080fd5b34801561023557600080fd5b5061023f60c95481565b6040519081526020015b60405180910390f35b34801561025e57600080fd5b5061027261026d3660046122f5565b610752565b6040519015158152602001610249565b34801561028e57600080fd5b506102a261029d3660046122db565b6107a4565b005b3480156102b057600080fd5b506102b96107ea565b6040516102499190612439565b3480156102d257600080fd5b506102e66102e1366004612344565b61087c565b6040516001600160a01b039091168152602001610249565b34801561030a57600080fd5b5061023f60cf5481565b34801561032057600080fd5b506102a261032f366004612240565b610911565b34801561034057600080fd5b506102a261034f36600461226b565b610a27565b34801561036057600080fd5b506102a261036f36600461209f565b610abb565b34801561038057600080fd5b506102a261038f3660046120f3565b610b07565b3480156103a057600080fd5b5060cb546102e6906001600160a01b031681565b3480156103c057600080fd5b5061023f60cc5481565b3480156103d657600080fd5b506102a26103e53660046120f3565b610b38565b3480156103f657600080fd5b5061023f61040536600461235c565b610b53565b34801561041657600080fd5b5061023f61042536600461209f565b60ca6020526000908152604090205481565b34801561044357600080fd5b506102a261045236600461232d565b610bc6565b34801561046357600080fd5b5060ce546102e69061010090046001600160a01b031681565b34801561048857600080fd5b506102e6610497366004612344565b610c4c565b3480156104a857600080fd5b506102a26104b7366004612344565b610cc3565b3480156104c857600080fd5b5060408051808201909152600c81526b697066733a2f2f697066732f60a01b60208201526102b9565b3480156104fd57600080fd5b5061023f61138881565b34801561051357600080fd5b5061023f61052236600461209f565b610d17565b34801561053357600080fd5b506102a2610d9e565b34801561054857600080fd5b506102a261055736600461209f565b610dd4565b34801561056857600080fd5b506097546001600160a01b03166102e6565b34801561058657600080fd5b506102b9610e26565b34801561059b57600080fd5b5061023f60cd5481565b3480156105b157600080fd5b506102a26105c036600461220c565b610e35565b3480156105d157600080fd5b506106076105e0366004612344565b60d06020526000908152604090208054600182015460028301546003909301549192909184565b604080519485526020850193909352918301526060820152608001610249565b34801561063357600080fd5b5061023f600581565b34801561064857600080fd5b506102a2610657366004612133565b610e44565b34801561066857600080fd5b506102a261067736600461235c565b610e7c565b34801561068857600080fd5b506102a261069736600461209f565b610f56565b3480156106a857600080fd5b506102b96106b7366004612344565b61108b565b6102a26106ca366004612380565b611187565b3480156106db57600080fd5b5060ce546102729060ff1681565b3480156106f557600080fd5b506102726107043660046120bb565b6001600160a01b039182166000908152606a6020908152604080832093909416825291909152205460ff1690565b34801561073e57600080fd5b506102a261074d36600461209f565b6114c6565b60006001600160e01b031982166380ac58cd60e01b148061078357506001600160e01b03198216635b5e139f60e01b145b8061079e57506301ffc9a760e01b6001600160e01b03198316145b92915050565b6097546001600160a01b031633146107d75760405162461bcd60e51b81526004016107ce9061249e565b60405180910390fd5b60ce805460ff1916911515919091179055565b6060606580546107f9906125fd565b80601f0160208091040260200160405190810160405280929190818152602001828054610825906125fd565b80156108725780601f1061084757610100808354040283529160200191610872565b820191906000526020600020905b81548152906001019060200180831161085557829003601f168201915b5050505050905090565b6000818152606760205260408120546001600160a01b03166108f55760405162461bcd60e51b815260206004820152602c60248201527f4552433732313a20617070726f76656420717565727920666f72206e6f6e657860448201526b34b9ba32b73a103a37b5b2b760a11b60648201526084016107ce565b506000908152606960205260409020546001600160a01b031690565b600061091c82610c4c565b9050806001600160a01b0316836001600160a01b0316141561098a5760405162461bcd60e51b815260206004820152602160248201527f4552433732313a20617070726f76616c20746f2063757272656e74206f776e656044820152603960f91b60648201526084016107ce565b336001600160a01b03821614806109a657506109a68133610704565b610a185760405162461bcd60e51b815260206004820152603860248201527f4552433732313a20617070726f76652063616c6c6572206973206e6f74206f7760448201527f6e6572206e6f7220617070726f76656420666f7220616c6c000000000000000060648201526084016107ce565b610a22838361155e565b505050565b60ce5460ff16610a6f5760405162461bcd60e51b8152602060048201526013602482015272109b1a5b99109bde0e88139bdd081cdd185c9d606a1b60448201526064016107ce565b60005b81811015610a2257610aa9838383818110610a9d57634e487b7160e01b600052603260045260246000fd5b905060200201356115cc565b80610ab381612632565b915050610a72565b6097546001600160a01b03163314610ae55760405162461bcd60e51b81526004016107ce9061249e565b60cb80546001600160a01b0319166001600160a01b0392909216919091179055565b610b113382611698565b610b2d5760405162461bcd60e51b81526004016107ce906124d3565b610a2283838361178f565b610a2283838360405180602001604052806000815250610e44565b600060cf548310610b9d5760405162461bcd60e51b8152602060048201526014602482015273109b1a5b99109bde0e88195b5c1d1e481c1bdbdb60621b60448201526064016107ce565b50600091825260d1602090815260408084206001600160a01b0393909316845291905290205490565b6097546001600160a01b03163314610bf05760405162461bcd60e51b81526004016107ce9061249e565b60cf54600090815260d0602052604090208190610c2e8282813581556020820135600182015560408201356002820155606082013560038201555050565b905050600160cf6000828254610c44919061256f565b909155505050565b6000818152606760205260408120546001600160a01b03168061079e5760405162461bcd60e51b815260206004820152602960248201527f4552433732313a206f776e657220717565727920666f72206e6f6e657869737460448201526832b73a103a37b5b2b760b91b60648201526084016107ce565b60ce5460ff16610d0b5760405162461bcd60e51b8152602060048201526013602482015272109b1a5b99109bde0e88139bdd081cdd185c9d606a1b60448201526064016107ce565b610d14816115cc565b50565b60006001600160a01b038216610d825760405162461bcd60e51b815260206004820152602a60248201527f4552433732313a2062616c616e636520717565727920666f7220746865207a65604482015269726f206164647265737360b01b60648201526084016107ce565b506001600160a01b031660009081526068602052604090205490565b6097546001600160a01b03163314610dc85760405162461bcd60e51b81526004016107ce9061249e565b610dd2600061192f565b565b6097546001600160a01b03163314610dfe5760405162461bcd60e51b81526004016107ce9061249e565b60ce80546001600160a01b0390921661010002610100600160a81b0319909216919091179055565b6060606680546107f9906125fd565b610e40338383611981565b5050565b610e4e3383611698565b610e6a5760405162461bcd60e51b81526004016107ce906124d3565b610e7684848484611a50565b50505050565b6097546001600160a01b03163314610ea65760405162461bcd60e51b81526004016107ce9061249e565b6113888260c954610eb7919061256f565b1115610f055760405162461bcd60e51b815260206004820152601d60248201527f426c696e64426f783a20746f6b656e4964206d6178206973203530303000000060448201526064016107ce565b60c9545b8260c954610f17919061256f565b811015610f3a57610f288282611a83565b80610f3281612632565b915050610f09565b508160c96000828254610f4d919061256f565b90915550505050565b600054610100900460ff16610f715760005460ff1615610f75565b303b155b610fd85760405162461bcd60e51b815260206004820152602e60248201527f496e697469616c697a61626c653a20636f6e747261637420697320616c72656160448201526d191e481a5b9a5d1a585b1a5e995960921b60648201526084016107ce565b600054610100900460ff16158015610ffa576000805461ffff19166101011790555b61104e60405180604001604052806016815260200175090dee4e6ca40a4c2c6d2dcce4084d8d2dcc84084def60531b815250604051806040016040528060048152602001632429212160e11b815250611a9d565b611056611ade565b60cb80546001600160a01b0319166001600160a01b038416179055600160c9558015610e40576000805461ff00191690555050565b6000818152606760205260409020546060906001600160a01b031661110a5760405162461bcd60e51b815260206004820152602f60248201527f4552433732314d657461646174613a2055524920717565727920666f72206e6f60448201526e3732bc34b9ba32b73a103a37b5b2b760891b60648201526084016107ce565b600061113560408051808201909152600c81526b697066733a2f2f697066732f60a01b602082015290565b905060008151116111555760405180602001604052806000815250611180565b8061115f84611b15565b6040516020016111709291906123cd565b6040516020818303038152906040525b9392505050565b60cf5482106111cf5760405162461bcd60e51b8152602060048201526014602482015273109b1a5b99109bde0e88195b5c1d1e481c1bdbdb60621b60448201526064016107ce565b600082815260d060209081526040918290208251608081018452815481526001820154928101929092526002810154928201839052600301546060820152904210156112535760405162461bcd60e51b8152602060048201526013602482015272109b1a5b99109bde0e881b9bdd081cdd185c9d606a1b60448201526064016107ce565b80606001514211156112995760405162461bcd60e51b815260206004820152600f60248201526e109b1a5b99109bde0e88195b991959608a1b60448201526064016107ce565b805134906112a7908461259b565b146112ff5760405162461bcd60e51b815260206004820152602260248201527f426c696e64426f783a206d73672e76616c7565206973206e6f7420636f72726560448201526118dd60f21b60648201526084016107ce565b806020015160018360c954611314919061256f565b61131e91906125ba565b11156113615760405162461bcd60e51b8152602060048201526012602482015271109b1a5b99109bde0e8814dbdb190813dd5d60721b60448201526064016107ce565b600083815260d16020908152604080832033845290915290205460059061138990849061256f565b11156113d75760405162461bcd60e51b815260206004820152601d60248201527f426c696e64426f783a2075736572206f6e6c792062757920666976657300000060448201526064016107ce565b60c9545b8260c9546113e9919061256f565b81101561140c576113fa3382611a83565b8061140481612632565b9150506113db565b508160c9600082825461141f919061256f565b9091555050600083815260d1602090815260408083203384529091528120805484929061144d90849061256f565b909155505060cb546040516001600160a01b03909116904780156108fc02916000818181858888f1935050505015801561148b573d6000803e3d6000fd5b5060405182815233907fe3d4187f6ca4248660cc0ac8b8056515bac4a8132be2eca31d6d0cc170722a7e9060200160405180910390a2505050565b6097546001600160a01b031633146114f05760405162461bcd60e51b81526004016107ce9061249e565b6001600160a01b0381166115555760405162461bcd60e51b815260206004820152602660248201527f4f776e61626c653a206e6577206f776e657220697320746865207a65726f206160448201526564647265737360d01b60648201526084016107ce565b610d148161192f565b600081815260696020526040902080546001600160a01b0319166001600160a01b038416908117909155819061159382610c4c565b6001600160a01b03167f8c5be1e5ebec7d5bd14f71427d1e84f3dd0314c0f7b2291e5b200ac8c7c3b92560405160405180910390a45050565b336115d682610c4c565b6001600160a01b0316146116245760405162461bcd60e51b8152602060048201526015602482015274213634b7322137bc1d103737ba10309037bbb732b960591b60448201526064016107ce565b61162d81611c2f565b60ce546040516340c10f1960e01b8152336004820152602481018390526101009091046001600160a01b0316906340c10f1990604401600060405180830381600087803b15801561167d57600080fd5b505af1158015611691573d6000803e3d6000fd5b5050505050565b6000818152606760205260408120546001600160a01b03166117115760405162461bcd60e51b815260206004820152602c60248201527f4552433732313a206f70657261746f7220717565727920666f72206e6f6e657860448201526b34b9ba32b73a103a37b5b2b760a11b60648201526084016107ce565b600061171c83610c4c565b9050806001600160a01b0316846001600160a01b031614806117575750836001600160a01b031661174c8461087c565b6001600160a01b0316145b8061178757506001600160a01b038082166000908152606a602090815260408083209388168352929052205460ff165b949350505050565b826001600160a01b03166117a282610c4c565b6001600160a01b03161461180a5760405162461bcd60e51b815260206004820152602960248201527f4552433732313a207472616e73666572206f6620746f6b656e2074686174206960448201526839903737ba1037bbb760b91b60648201526084016107ce565b6001600160a01b03821661186c5760405162461bcd60e51b8152602060048201526024808201527f4552433732313a207472616e7366657220746f20746865207a65726f206164646044820152637265737360e01b60648201526084016107ce565b61187760008261155e565b6001600160a01b03831660009081526068602052604081208054600192906118a09084906125ba565b90915550506001600160a01b03821660009081526068602052604081208054600192906118ce90849061256f565b909155505060008181526067602052604080822080546001600160a01b0319166001600160a01b0386811691821790925591518493918716917fddf252ad1be2c89b69c2b068fc378daa952ba7f163c4a11628f55a4df523b3ef91a4505050565b609780546001600160a01b038381166001600160a01b0319831681179093556040519116919082907f8be0079c531659141344cd1fd0a4f28419497f9722a3daafe3b4186f6b6457e090600090a35050565b816001600160a01b0316836001600160a01b031614156119e35760405162461bcd60e51b815260206004820152601960248201527f4552433732313a20617070726f766520746f2063616c6c65720000000000000060448201526064016107ce565b6001600160a01b038381166000818152606a6020908152604080832094871680845294825291829020805460ff191686151590811790915591519182527f17307eab39ab6107e8899845ad3d59bd9653f200f220920489ca2b5937696c31910160405180910390a3505050565b611a5b84848461178f565b611a6784848484611cca565b610e765760405162461bcd60e51b81526004016107ce9061244c565b610e40828260405180602001604052806000815250611dd7565b600054610100900460ff16611ac45760405162461bcd60e51b81526004016107ce90612524565b611acc611e0a565b611ad4611e0a565b610e408282611e31565b600054610100900460ff16611b055760405162461bcd60e51b81526004016107ce90612524565b611b0d611e0a565b610dd2611e7f565b606081611b395750506040805180820190915260018152600360fc1b602082015290565b8160005b8115611b635780611b4d81612632565b9150611b5c9050600a83612587565b9150611b3d565b60008167ffffffffffffffff811115611b8c57634e487b7160e01b600052604160045260246000fd5b6040519080825280601f01601f191660200182016040528015611bb6576020820181803683370190505b5090505b841561178757611bcb6001836125ba565b9150611bd8600a8661264d565b611be390603061256f565b60f81b818381518110611c0657634e487b7160e01b600052603260045260246000fd5b60200101906001600160f81b031916908160001a905350611c28600a86612587565b9450611bba565b6000611c3a82610c4c565b9050611c4760008361155e565b6001600160a01b0381166000908152606860205260408120805460019290611c709084906125ba565b909155505060008281526067602052604080822080546001600160a01b0319169055518391906001600160a01b038416907fddf252ad1be2c89b69c2b068fc378daa952ba7f163c4a11628f55a4df523b3ef908390a45050565b60006001600160a01b0384163b15611dcc57604051630a85bd0160e11b81526001600160a01b0385169063150b7a0290611d0e9033908990889088906004016123fc565b602060405180830381600087803b158015611d2857600080fd5b505af1925050508015611d58575060408051601f3d908101601f19168201909252611d5591810190612311565b60015b611db2573d808015611d86576040519150601f19603f3d011682016040523d82523d6000602084013e611d8b565b606091505b508051611daa5760405162461bcd60e51b81526004016107ce9061244c565b805181602001fd5b6001600160e01b031916630a85bd0160e11b149050611787565b506001949350505050565b611de18383611eaf565b611dee6000848484611cca565b610a225760405162461bcd60e51b81526004016107ce9061244c565b600054610100900460ff16610dd25760405162461bcd60e51b81526004016107ce90612524565b600054610100900460ff16611e585760405162461bcd60e51b81526004016107ce90612524565b8151611e6b906065906020850190611ff1565b508051610a22906066906020840190611ff1565b600054610100900460ff16611ea65760405162461bcd60e51b81526004016107ce90612524565b610dd23361192f565b6001600160a01b038216611f055760405162461bcd60e51b815260206004820181905260248201527f4552433732313a206d696e7420746f20746865207a65726f206164647265737360448201526064016107ce565b6000818152606760205260409020546001600160a01b031615611f6a5760405162461bcd60e51b815260206004820152601c60248201527f4552433732313a20746f6b656e20616c7265616479206d696e7465640000000060448201526064016107ce565b6001600160a01b0382166000908152606860205260408120805460019290611f9390849061256f565b909155505060008181526067602052604080822080546001600160a01b0319166001600160a01b03861690811790915590518392907fddf252ad1be2c89b69c2b068fc378daa952ba7f163c4a11628f55a4df523b3ef908290a45050565b828054611ffd906125fd565b90600052602060002090601f01602090048101928261201f5760008555612065565b82601f1061203857805160ff1916838001178555612065565b82800160010185558215612065579182015b8281111561206557825182559160200191906001019061204a565b50612071929150612075565b5090565b5b808211156120715760008155600101612076565b8035801515811461209a57600080fd5b919050565b6000602082840312156120b0578081fd5b8135611180816126a3565b600080604083850312156120cd578081fd5b82356120d8816126a3565b915060208301356120e8816126a3565b809150509250929050565b600080600060608486031215612107578081fd5b8335612112816126a3565b92506020840135612122816126a3565b929592945050506040919091013590565b60008060008060808587031215612148578081fd5b8435612153816126a3565b93506020850135612163816126a3565b925060408501359150606085013567ffffffffffffffff80821115612186578283fd5b818701915087601f830112612199578283fd5b8135818111156121ab576121ab61268d565b604051601f8201601f19908116603f011681019083821181831017156121d3576121d361268d565b816040528281528a60208487010111156121eb578586fd5b82602086016020830137918201602001949094529598949750929550505050565b6000806040838503121561221e578182fd5b8235612229816126a3565b91506122376020840161208a565b90509250929050565b60008060408385031215612252578182fd5b823561225d816126a3565b946020939093013593505050565b6000806020838503121561227d578182fd5b823567ffffffffffffffff80821115612294578384fd5b818501915085601f8301126122a7578384fd5b8135818111156122b5578485fd5b8660208260051b85010111156122c9578485fd5b60209290920196919550909350505050565b6000602082840312156122ec578081fd5b6111808261208a565b600060208284031215612306578081fd5b8135611180816126b8565b600060208284031215612322578081fd5b8151611180816126b8565b60006080828403121561233e578081fd5b50919050565b600060208284031215612355578081fd5b5035919050565b6000806040838503121561236e578182fd5b8235915060208301356120e8816126a3565b60008060408385031215612392578182fd5b50508035926020909101359150565b600081518084526123b98160208601602086016125d1565b601f01601f19169290920160200192915050565b600083516123df8184602088016125d1565b8351908301906123f38183602088016125d1565b01949350505050565b6001600160a01b038581168252841660208201526040810183905260806060820181905260009061242f908301846123a1565b9695505050505050565b60208152600061118060208301846123a1565b60208082526032908201527f4552433732313a207472616e7366657220746f206e6f6e20455243373231526560408201527131b2b4bb32b91034b6b83632b6b2b73a32b960711b606082015260800190565b6020808252818101527f4f776e61626c653a2063616c6c6572206973206e6f7420746865206f776e6572604082015260600190565b60208082526031908201527f4552433732313a207472616e736665722063616c6c6572206973206e6f74206f6040820152701ddb995c881b9bdc88185c1c1c9bdd9959607a1b606082015260800190565b6020808252602b908201527f496e697469616c697a61626c653a20636f6e7472616374206973206e6f74206960408201526a6e697469616c697a696e6760a81b606082015260800190565b6000821982111561258257612582612661565b500190565b60008261259657612596612677565b500490565b60008160001904831182151516156125b5576125b5612661565b500290565b6000828210156125cc576125cc612661565b500390565b60005b838110156125ec5781810151838201526020016125d4565b83811115610e765750506000910152565b600181811c9082168061261157607f821691505b6020821081141561233e57634e487b7160e01b600052602260045260246000fd5b600060001982141561264657612646612661565b5060010190565b60008261265c5761265c612677565b500690565b634e487b7160e01b600052601160045260246000fd5b634e487b7160e01b600052601260045260246000fd5b634e487b7160e01b600052604160045260246000fd5b6001600160a01b0381168114610d1457600080fd5b6001600160e01b031981168114610d1457600080fdfea164736f6c6343000804000a",
  "linkReferences": {},
  "deployedLinkReferences": {}
}