{
  "address": "0x41e4C43aF9C199FEc3DaC3bcf8F4ebe343Bb2846",
  "transactionHash": "0x13f3ba47b5e16fec802af69b4099c824ffe051c9e1bb856cf79016eca00dc5a9",
  "args": [
    "0x0Fc0c315F3b38ca5a3bb7118fa689B9682eeA1E9"
  ],
  "_format": "hh-sol-artifact-1",
  "contractName": "BlindBox",
  "sourceName": "contracts/BlindBox.sol",
  "abi": [
    {
      "anonymous": false,
      "inputs": [
        {
          "indexed": true,
          "internalType": "address",
          "name": "owner",
          "type": "address"
        },
        {
          "indexed": true,
          "internalType": "address",
          "name": "approved",
          "type": "address"
        },
        {
          "indexed": true,
          "internalType": "uint256",
          "name": "tokenId",
          "type": "uint256"
        }
      ],
      "name": "Approval",
      "type": "event"
    },
    {
      "anonymous": false,
      "inputs": [
        {
          "indexed": true,
          "internalType": "address",
          "name": "owner",
          "type": "address"
        },
        {
          "indexed": true,
          "internalType": "address",
          "name": "operator",
          "type": "address"
        },
        {
          "indexed": false,
          "internalType": "bool",
          "name": "approved",
          "type": "bool"
        }
      ],
      "name": "ApprovalForAll",
      "type": "event"
    },
    {
      "anonymous": false,
      "inputs": [
        {
          "indexed": true,
          "internalType": "address",
          "name": "user",
          "type": "address"
        },
        {
          "indexed": false,
          "internalType": "uint256",
          "name": "amount",
          "type": "uint256"
        }
      ],
      "name": "Buy",
      "type": "event"
    },
    {
      "anonymous": false,
      "inputs": [
        {
          "indexed": true,
          "internalType": "address",
          "name": "previousOwner",
          "type": "address"
        },
        {
          "indexed": true,
          "internalType": "address",
          "name": "newOwner",
          "type": "address"
        }
      ],
      "name": "OwnershipTransferred",
      "type": "event"
    },
    {
      "anonymous": false,
      "inputs": [
        {
          "indexed": true,
          "internalType": "address",
          "name": "from",
          "type": "address"
        },
        {
          "indexed": true,
          "internalType": "address",
          "name": "to",
          "type": "address"
        },
        {
          "indexed": true,
          "internalType": "uint256",
          "name": "tokenId",
          "type": "uint256"
        }
      ],
      "name": "Transfer",
      "type": "event"
    },
    {
      "inputs": [],
      "name": "AMOUNT_PER_USER",
      "outputs": [
        {
          "internalType": "uint256",
          "name": "",
          "type": "uint256"
        }
      ],
      "stateMutability": "view",
      "type": "function"
    },
    {
      "inputs": [],
      "name": "MAX_TOKEN_ID",
      "outputs": [
        {
          "internalType": "uint256",
          "name": "",
          "type": "uint256"
        }
      ],
      "stateMutability": "view",
      "type": "function"
    },
    {
      "inputs": [
        {
          "internalType": "address",
          "name": "to",
          "type": "address"
        },
        {
          "internalType": "uint256",
          "name": "tokenId",
          "type": "uint256"
        }
      ],
      "name": "approve",
      "outputs": [],
      "stateMutability": "nonpayable",
      "type": "function"
    },
    {
      "inputs": [
        {
          "internalType": "address",
          "name": "owner",
          "type": "address"
        }
      ],
      "name": "balanceOf",
      "outputs": [
        {
          "internalType": "uint256",
          "name": "",
          "type": "uint256"
        }
      ],
      "stateMutability": "view",
      "type": "function"
    },
    {
      "inputs": [],
      "name": "baseURI",
      "outputs": [
        {
          "internalType": "string",
          "name": "",
          "type": "string"
        }
      ],
      "stateMutability": "view",
      "type": "function"
    },
    {
      "inputs": [
        {
          "internalType": "uint256",
          "name": "amount",
          "type": "uint256"
        },
        {
          "internalType": "address",
          "name": "addr",
          "type": "address"
        }
      ],
      "name": "batchMint",
      "outputs": [],
      "stateMutability": "nonpayable",
      "type": "function"
    },
    {
      "inputs": [],
      "name": "beneficiary",
      "outputs": [
        {
          "internalType": "address payable",
          "name": "",
          "type": "address"
        }
      ],
      "stateMutability": "view",
      "type": "function"
    },
    {
      "inputs": [
        {
          "internalType": "uint256",
          "name": "amount",
          "type": "uint256"
        }
      ],
      "name": "buy",
      "outputs": [],
      "stateMutability": "payable",
      "type": "function"
    },
    {
      "inputs": [],
      "name": "currentTokenId",
      "outputs": [
        {
          "internalType": "uint256",
          "name": "",
          "type": "uint256"
        }
      ],
      "stateMutability": "view",
      "type": "function"
    },
    {
      "inputs": [
        {
          "internalType": "uint256",
          "name": "tokenId",
          "type": "uint256"
        }
      ],
      "name": "getApproved",
      "outputs": [
        {
          "internalType": "address",
          "name": "",
          "type": "address"
        }
      ],
      "stateMutability": "view",
      "type": "function"
    },
    {
      "inputs": [
        {
          "internalType": "address payable",
          "name": "beneficiary_",
          "type": "address"
        }
      ],
      "name": "initialize",
      "outputs": [],
      "stateMutability": "nonpayable",
      "type": "function"
    },
    {
      "inputs": [
        {
          "internalType": "address",
          "name": "owner",
          "type": "address"
        },
        {
          "internalType": "address",
          "name": "operator",
          "type": "address"
        }
      ],
      "name": "isApprovedForAll",
      "outputs": [
        {
          "internalType": "bool",
          "name": "",
          "type": "bool"
        }
      ],
      "stateMutability": "view",
      "type": "function"
    },
    {
      "inputs": [],
      "name": "name",
      "outputs": [
        {
          "internalType": "string",
          "name": "",
          "type": "string"
        }
      ],
      "stateMutability": "view",
      "type": "function"
    },
    {
      "inputs": [],
      "name": "owner",
      "outputs": [
        {
          "internalType": "address",
          "name": "",
          "type": "address"
        }
      ],
      "stateMutability": "view",
      "type": "function"
    },
    {
      "inputs": [
        {
          "internalType": "uint256",
          "name": "tokenId",
          "type": "uint256"
        }
      ],
      "name": "ownerOf",
      "outputs": [
        {
          "internalType": "address",
          "name": "",
          "type": "address"
        }
      ],
      "stateMutability": "view",
      "type": "function"
    },
    {
      "inputs": [],
      "name": "price",
      "outputs": [
        {
          "internalType": "uint256",
          "name": "",
          "type": "uint256"
        }
      ],
      "stateMutability": "view",
      "type": "function"
    },
    {
      "inputs": [],
      "name": "renounceOwnership",
      "outputs": [],
      "stateMutability": "nonpayable",
      "type": "function"
    },
    {
      "inputs": [
        {
          "internalType": "address",
          "name": "from",
          "type": "address"
        },
        {
          "internalType": "address",
          "name": "to",
          "type": "address"
        },
        {
          "internalType": "uint256",
          "name": "tokenId",
          "type": "uint256"
        }
      ],
      "name": "safeTransferFrom",
      "outputs": [],
      "stateMutability": "nonpayable",
      "type": "function"
    },
    {
      "inputs": [
        {
          "internalType": "address",
          "name": "from",
          "type": "address"
        },
        {
          "internalType": "address",
          "name": "to",
          "type": "address"
        },
        {
          "internalType": "uint256",
          "name": "tokenId",
          "type": "uint256"
        },
        {
          "internalType": "bytes",
          "name": "_data",
          "type": "bytes"
        }
      ],
      "name": "safeTransferFrom",
      "outputs": [],
      "stateMutability": "nonpayable",
      "type": "function"
    },
    {
      "inputs": [
        {
          "internalType": "address",
          "name": "operator",
          "type": "address"
        },
        {
          "internalType": "bool",
          "name": "approved",
          "type": "bool"
        }
      ],
      "name": "setApprovalForAll",
      "outputs": [],
      "stateMutability": "nonpayable",
      "type": "function"
    },
    {
      "inputs": [
        {
          "internalType": "address payable",
          "name": "newBeneficiary",
          "type": "address"
        }
      ],
      "name": "setBeneficiary",
      "outputs": [],
      "stateMutability": "nonpayable",
      "type": "function"
    },
    {
      "inputs": [
        {
          "internalType": "uint256",
          "name": "newPrice",
          "type": "uint256"
        }
      ],
      "name": "setPrice",
      "outputs": [],
      "stateMutability": "nonpayable",
      "type": "function"
    },
    {
      "inputs": [
        {
          "internalType": "uint256",
          "name": "newSolds",
          "type": "uint256"
        }
      ],
      "name": "setSolds",
      "outputs": [],
      "stateMutability": "nonpayable",
      "type": "function"
    },
    {
      "inputs": [],
      "name": "solds",
      "outputs": [
        {
          "internalType": "uint256",
          "name": "",
          "type": "uint256"
        }
      ],
      "stateMutability": "view",
      "type": "function"
    },
    {
      "inputs": [
        {
          "internalType": "bytes4",
          "name": "interfaceId",
          "type": "bytes4"
        }
      ],
      "name": "supportsInterface",
      "outputs": [
        {
          "internalType": "bool",
          "name": "",
          "type": "bool"
        }
      ],
      "stateMutability": "view",
      "type": "function"
    },
    {
      "inputs": [],
      "name": "symbol",
      "outputs": [
        {
          "internalType": "string",
          "name": "",
          "type": "string"
        }
      ],
      "stateMutability": "view",
      "type": "function"
    },
    {
      "inputs": [
        {
          "internalType": "uint256",
          "name": "tokenId",
          "type": "uint256"
        }
      ],
      "name": "tokenURI",
      "outputs": [
        {
          "internalType": "string",
          "name": "",
          "type": "string"
        }
      ],
      "stateMutability": "view",
      "type": "function"
    },
    {
      "inputs": [
        {
          "internalType": "address",
          "name": "from",
          "type": "address"
        },
        {
          "internalType": "address",
          "name": "to",
          "type": "address"
        },
        {
          "internalType": "uint256",
          "name": "tokenId",
          "type": "uint256"
        }
      ],
      "name": "transferFrom",
      "outputs": [],
      "stateMutability": "nonpayable",
      "type": "function"
    },
    {
      "inputs": [
        {
          "internalType": "address",
          "name": "newOwner",
          "type": "address"
        }
      ],
      "name": "transferOwnership",
      "outputs": [],
      "stateMutability": "nonpayable",
      "type": "function"
    },
    {
      "inputs": [
        {
          "internalType": "address",
          "name": "",
          "type": "address"
        }
      ],
      "name": "userBuys",
      "outputs": [
        {
          "internalType": "uint256",
          "name": "",
          "type": "uint256"
        }
      ],
      "stateMutability": "view",
      "type": "function"
    }
  ],
  "bytecode": "0x608060405234801561001057600080fd5b50611fca806100206000396000f3fe6080604052600436106101cc5760003560e01c806370a08231116100f7578063b835871511610095578063c87b56dd11610064578063c87b56dd14610527578063d96a094a14610547578063e985e9c51461055a578063f2fde38b146105a357600080fd5b8063b8358715146104b2578063b88d4fde146104c7578063c2f637dc146104e7578063c4d66de81461050757600080fd5b806391b7f5ed116100d157806391b7f5ed1461044757806395d89b4114610467578063a035b1fe1461047c578063a22cb4651461049257600080fd5b806370a08231146103f4578063715018a6146104145780638da5cb5b1461042957600080fd5b806338af3eed1161016f57806348d2df481161013e57806348d2df481461035c5780636352211e146103895780636c0360eb146103a95780636da612d8146103de57600080fd5b806338af3eed146102e65780633bf83d03146103065780633c51199f1461032657806342842e0e1461033c57600080fd5b8063081812fc116101ab578063081812fc1461024c578063095ea7b3146102845780631c31f710146102a657806323b872dd146102c657600080fd5b80629a9b7b146101d157806301ffc9a7146101fa57806306fdde031461022a575b600080fd5b3480156101dd57600080fd5b506101e760c95481565b6040519081526020015b60405180910390f35b34801561020657600080fd5b5061021a610215366004611c16565b6105c3565b60405190151581526020016101f1565b34801561023657600080fd5b5061023f610615565b6040516101f19190611d22565b34801561025857600080fd5b5061026c610267366004611c4e565b6106a7565b6040516001600160a01b0390911681526020016101f1565b34801561029057600080fd5b506102a461029f366004611beb565b610741565b005b3480156102b257600080fd5b506102a46102c1366004611a4d565b610857565b3480156102d257600080fd5b506102a46102e1366004611aa1565b6108a3565b3480156102f257600080fd5b5060cb5461026c906001600160a01b031681565b34801561031257600080fd5b506102a4610321366004611c4e565b6108d4565b34801561033257600080fd5b506101e760cc5481565b34801561034857600080fd5b506102a4610357366004611aa1565b610955565b34801561036857600080fd5b506101e7610377366004611a4d565b60ca6020526000908152604090205481565b34801561039557600080fd5b5061026c6103a4366004611c4e565b610970565b3480156103b557600080fd5b5060408051808201909152600c81526b697066733a2f2f697066732f60a01b602082015261023f565b3480156103ea57600080fd5b506101e761c35081565b34801561040057600080fd5b506101e761040f366004611a4d565b6109e7565b34801561042057600080fd5b506102a4610a6e565b34801561043557600080fd5b506097546001600160a01b031661026c565b34801561045357600080fd5b506102a4610462366004611c4e565b610aa4565b34801561047357600080fd5b5061023f610ad3565b34801561048857600080fd5b506101e760cd5481565b34801561049e57600080fd5b506102a46104ad366004611bba565b610ae2565b3480156104be57600080fd5b506101e7600581565b3480156104d357600080fd5b506102a46104e2366004611ae1565b610af1565b3480156104f357600080fd5b506102a4610502366004611c66565b610b29565b34801561051357600080fd5b506102a4610522366004611a4d565b610c03565b34801561053357600080fd5b5061023f610542366004611c4e565b610d42565b6102a4610555366004611c4e565b610e3e565b34801561056657600080fd5b5061021a610575366004611a69565b6001600160a01b039182166000908152606a6020908152604080832093909416825291909152205460ff1690565b3480156105af57600080fd5b506102a46105be366004611a4d565b611054565b60006001600160e01b031982166380ac58cd60e01b14806105f457506001600160e01b03198216635b5e139f60e01b145b8061060f57506301ffc9a760e01b6001600160e01b03198316145b92915050565b60606065805461062490611ee6565b80601f016020809104026020016040519081016040528092919081815260200182805461065090611ee6565b801561069d5780601f106106725761010080835404028352916020019161069d565b820191906000526020600020905b81548152906001019060200180831161068057829003601f168201915b5050505050905090565b6000818152606760205260408120546001600160a01b03166107255760405162461bcd60e51b815260206004820152602c60248201527f4552433732313a20617070726f76656420717565727920666f72206e6f6e657860448201526b34b9ba32b73a103a37b5b2b760a11b60648201526084015b60405180910390fd5b506000908152606960205260409020546001600160a01b031690565b600061074c82610970565b9050806001600160a01b0316836001600160a01b031614156107ba5760405162461bcd60e51b815260206004820152602160248201527f4552433732313a20617070726f76616c20746f2063757272656e74206f776e656044820152603960f91b606482015260840161071c565b336001600160a01b03821614806107d657506107d68133610575565b6108485760405162461bcd60e51b815260206004820152603860248201527f4552433732313a20617070726f76652063616c6c6572206973206e6f74206f7760448201527f6e6572206e6f7220617070726f76656420666f7220616c6c0000000000000000606482015260840161071c565b61085283836110ef565b505050565b6097546001600160a01b031633146108815760405162461bcd60e51b815260040161071c90611d87565b60cb80546001600160a01b0319166001600160a01b0392909216919091179055565b6108ad338261115d565b6108c95760405162461bcd60e51b815260040161071c90611dbc565b610852838383611254565b6097546001600160a01b031633146108fe5760405162461bcd60e51b815260040161071c90611d87565b61c3508111156109505760405162461bcd60e51b815260206004820152601d60248201527f426c696e64426f783a20746f6b656e4964206d61782069732035303030000000604482015260640161071c565b60cc55565b61085283838360405180602001604052806000815250610af1565b6000818152606760205260408120546001600160a01b03168061060f5760405162461bcd60e51b815260206004820152602960248201527f4552433732313a206f776e657220717565727920666f72206e6f6e657869737460448201526832b73a103a37b5b2b760b91b606482015260840161071c565b60006001600160a01b038216610a525760405162461bcd60e51b815260206004820152602a60248201527f4552433732313a2062616c616e636520717565727920666f7220746865207a65604482015269726f206164647265737360b01b606482015260840161071c565b506001600160a01b031660009081526068602052604090205490565b6097546001600160a01b03163314610a985760405162461bcd60e51b815260040161071c90611d87565b610aa260006113f4565b565b6097546001600160a01b03163314610ace5760405162461bcd60e51b815260040161071c90611d87565b60cd55565b60606066805461062490611ee6565b610aed338383611446565b5050565b610afb338361115d565b610b175760405162461bcd60e51b815260040161071c90611dbc565b610b2384848484611515565b50505050565b6097546001600160a01b03163314610b535760405162461bcd60e51b815260040161071c90611d87565b61c3508260c954610b649190611e58565b1115610bb25760405162461bcd60e51b815260206004820152601d60248201527f426c696e64426f783a20746f6b656e4964206d61782069732035303030000000604482015260640161071c565b60c9545b8260c954610bc49190611e58565b811015610be757610bd58282611548565b80610bdf81611f21565b915050610bb6565b508160c96000828254610bfa9190611e58565b90915550505050565b600054610100900460ff16610c1e5760005460ff1615610c22565b303b155b610c855760405162461bcd60e51b815260206004820152602e60248201527f496e697469616c697a61626c653a20636f6e747261637420697320616c72656160448201526d191e481a5b9a5d1a585b1a5e995960921b606482015260840161071c565b600054610100900460ff16158015610ca7576000805461ffff19166101011790555b610cfb60405180604001604052806016815260200175090dee4e6ca40a4c2c6d2dcce4084d8d2dcc84084def60531b815250604051806040016040528060048152602001632429212160e11b815250611562565b60cb80546001600160a01b0319166001600160a01b038416179055600160c9556109c460cc55674563918244f4000060cd558015610aed576000805461ff00191690555050565b6000818152606760205260409020546060906001600160a01b0316610dc15760405162461bcd60e51b815260206004820152602f60248201527f4552433732314d657461646174613a2055524920717565727920666f72206e6f60448201526e3732bc34b9ba32b73a103a37b5b2b760891b606482015260840161071c565b6000610dec60408051808201909152600c81526b697066733a2f2f697066732f60a01b602082015290565b90506000815111610e0c5760405180602001604052806000815250610e37565b80610e16846115a3565b604051602001610e27929190611cb6565b6040516020818303038152906040525b9392505050565b3460cd5482610e4d9190611e84565b14610ea55760405162461bcd60e51b815260206004820152602260248201527f426c696e64426f783a206d73672e76616c7565206973206e6f7420636f72726560448201526118dd60f21b606482015260840161071c565b60cc5460018260c954610eb89190611e58565b610ec29190611ea3565b1115610f055760405162461bcd60e51b8152602060048201526012602482015271109b1a5b99109bde0e8814dbdb190813dd5d60721b604482015260640161071c565b33600090815260ca6020526040902054600590610f23908390611e58565b1115610f715760405162461bcd60e51b815260206004820152601d60248201527f426c696e64426f783a2075736572206f6e6c7920627579206669766573000000604482015260640161071c565b60c9545b8160c954610f839190611e58565b811015610fa657610f943382611548565b80610f9e81611f21565b915050610f75565b508060c96000828254610fb99190611e58565b909155505033600090815260ca602052604081208054839290610fdd908490611e58565b909155505060cb546040516001600160a01b03909116904780156108fc02916000818181858888f1935050505015801561101b573d6000803e3d6000fd5b5060405181815233907fe3d4187f6ca4248660cc0ac8b8056515bac4a8132be2eca31d6d0cc170722a7e9060200160405180910390a250565b6097546001600160a01b0316331461107e5760405162461bcd60e51b815260040161071c90611d87565b6001600160a01b0381166110e35760405162461bcd60e51b815260206004820152602660248201527f4f776e61626c653a206e6577206f776e657220697320746865207a65726f206160448201526564647265737360d01b606482015260840161071c565b6110ec816113f4565b50565b600081815260696020526040902080546001600160a01b0319166001600160a01b038416908117909155819061112482610970565b6001600160a01b03167f8c5be1e5ebec7d5bd14f71427d1e84f3dd0314c0f7b2291e5b200ac8c7c3b92560405160405180910390a45050565b6000818152606760205260408120546001600160a01b03166111d65760405162461bcd60e51b815260206004820152602c60248201527f4552433732313a206f70657261746f7220717565727920666f72206e6f6e657860448201526b34b9ba32b73a103a37b5b2b760a11b606482015260840161071c565b60006111e183610970565b9050806001600160a01b0316846001600160a01b0316148061121c5750836001600160a01b0316611211846106a7565b6001600160a01b0316145b8061124c57506001600160a01b038082166000908152606a602090815260408083209388168352929052205460ff165b949350505050565b826001600160a01b031661126782610970565b6001600160a01b0316146112cf5760405162461bcd60e51b815260206004820152602960248201527f4552433732313a207472616e73666572206f6620746f6b656e2074686174206960448201526839903737ba1037bbb760b91b606482015260840161071c565b6001600160a01b0382166113315760405162461bcd60e51b8152602060048201526024808201527f4552433732313a207472616e7366657220746f20746865207a65726f206164646044820152637265737360e01b606482015260840161071c565b61133c6000826110ef565b6001600160a01b0383166000908152606860205260408120805460019290611365908490611ea3565b90915550506001600160a01b0382166000908152606860205260408120805460019290611393908490611e58565b909155505060008181526067602052604080822080546001600160a01b0319166001600160a01b0386811691821790925591518493918716917fddf252ad1be2c89b69c2b068fc378daa952ba7f163c4a11628f55a4df523b3ef91a4505050565b609780546001600160a01b038381166001600160a01b0319831681179093556040519116919082907f8be0079c531659141344cd1fd0a4f28419497f9722a3daafe3b4186f6b6457e090600090a35050565b816001600160a01b0316836001600160a01b031614156114a85760405162461bcd60e51b815260206004820152601960248201527f4552433732313a20617070726f766520746f2063616c6c657200000000000000604482015260640161071c565b6001600160a01b038381166000818152606a6020908152604080832094871680845294825291829020805460ff191686151590811790915591519182527f17307eab39ab6107e8899845ad3d59bd9653f200f220920489ca2b5937696c31910160405180910390a3505050565b611520848484611254565b61152c848484846116bd565b610b235760405162461bcd60e51b815260040161071c90611d35565b610aed8282604051806020016040528060008152506117ca565b600054610100900460ff166115895760405162461bcd60e51b815260040161071c90611e0d565b6115916117fd565b6115996117fd565b610aed8282611824565b6060816115c75750506040805180820190915260018152600360fc1b602082015290565b8160005b81156115f157806115db81611f21565b91506115ea9050600a83611e70565b91506115cb565b60008167ffffffffffffffff81111561161a57634e487b7160e01b600052604160045260246000fd5b6040519080825280601f01601f191660200182016040528015611644576020820181803683370190505b5090505b841561124c57611659600183611ea3565b9150611666600a86611f3c565b611671906030611e58565b60f81b81838151811061169457634e487b7160e01b600052603260045260246000fd5b60200101906001600160f81b031916908160001a9053506116b6600a86611e70565b9450611648565b60006001600160a01b0384163b156117bf57604051630a85bd0160e11b81526001600160a01b0385169063150b7a0290611701903390899088908890600401611ce5565b602060405180830381600087803b15801561171b57600080fd5b505af192505050801561174b575060408051601f3d908101601f1916820190925261174891810190611c32565b60015b6117a5573d808015611779576040519150601f19603f3d011682016040523d82523d6000602084013e61177e565b606091505b50805161179d5760405162461bcd60e51b815260040161071c90611d35565b805181602001fd5b6001600160e01b031916630a85bd0160e11b14905061124c565b506001949350505050565b6117d48383611872565b6117e160008484846116bd565b6108525760405162461bcd60e51b815260040161071c90611d35565b600054610100900460ff16610aa25760405162461bcd60e51b815260040161071c90611e0d565b600054610100900460ff1661184b5760405162461bcd60e51b815260040161071c90611e0d565b815161185e9060659060208501906119b4565b5080516108529060669060208401906119b4565b6001600160a01b0382166118c85760405162461bcd60e51b815260206004820181905260248201527f4552433732313a206d696e7420746f20746865207a65726f2061646472657373604482015260640161071c565b6000818152606760205260409020546001600160a01b03161561192d5760405162461bcd60e51b815260206004820152601c60248201527f4552433732313a20746f6b656e20616c7265616479206d696e74656400000000604482015260640161071c565b6001600160a01b0382166000908152606860205260408120805460019290611956908490611e58565b909155505060008181526067602052604080822080546001600160a01b0319166001600160a01b03861690811790915590518392907fddf252ad1be2c89b69c2b068fc378daa952ba7f163c4a11628f55a4df523b3ef908290a45050565b8280546119c090611ee6565b90600052602060002090601f0160209004810192826119e25760008555611a28565b82601f106119fb57805160ff1916838001178555611a28565b82800160010185558215611a28579182015b82811115611a28578251825591602001919060010190611a0d565b50611a34929150611a38565b5090565b5b80821115611a345760008155600101611a39565b600060208284031215611a5e578081fd5b8135610e3781611f92565b60008060408385031215611a7b578081fd5b8235611a8681611f92565b91506020830135611a9681611f92565b809150509250929050565b600080600060608486031215611ab5578081fd5b8335611ac081611f92565b92506020840135611ad081611f92565b929592945050506040919091013590565b60008060008060808587031215611af6578081fd5b8435611b0181611f92565b93506020850135611b1181611f92565b925060408501359150606085013567ffffffffffffffff80821115611b34578283fd5b818701915087601f830112611b47578283fd5b813581811115611b5957611b59611f7c565b604051601f8201601f19908116603f01168101908382118183101715611b8157611b81611f7c565b816040528281528a6020848701011115611b99578586fd5b82602086016020830137918201602001949094529598949750929550505050565b60008060408385031215611bcc578182fd5b8235611bd781611f92565b915060208301358015158114611a96578182fd5b60008060408385031215611bfd578182fd5b8235611c0881611f92565b946020939093013593505050565b600060208284031215611c27578081fd5b8135610e3781611fa7565b600060208284031215611c43578081fd5b8151610e3781611fa7565b600060208284031215611c5f578081fd5b5035919050565b60008060408385031215611c78578182fd5b823591506020830135611a9681611f92565b60008151808452611ca2816020860160208601611eba565b601f01601f19169290920160200192915050565b60008351611cc8818460208801611eba565b835190830190611cdc818360208801611eba565b01949350505050565b6001600160a01b0385811682528416602082015260408101839052608060608201819052600090611d1890830184611c8a565b9695505050505050565b602081526000610e376020830184611c8a565b60208082526032908201527f4552433732313a207472616e7366657220746f206e6f6e20455243373231526560408201527131b2b4bb32b91034b6b83632b6b2b73a32b960711b606082015260800190565b6020808252818101527f4f776e61626c653a2063616c6c6572206973206e6f7420746865206f776e6572604082015260600190565b60208082526031908201527f4552433732313a207472616e736665722063616c6c6572206973206e6f74206f6040820152701ddb995c881b9bdc88185c1c1c9bdd9959607a1b606082015260800190565b6020808252602b908201527f496e697469616c697a61626c653a20636f6e7472616374206973206e6f74206960408201526a6e697469616c697a696e6760a81b606082015260800190565b60008219821115611e6b57611e6b611f50565b500190565b600082611e7f57611e7f611f66565b500490565b6000816000190483118215151615611e9e57611e9e611f50565b500290565b600082821015611eb557611eb5611f50565b500390565b60005b83811015611ed5578181015183820152602001611ebd565b83811115610b235750506000910152565b600181811c90821680611efa57607f821691505b60208210811415611f1b57634e487b7160e01b600052602260045260246000fd5b50919050565b6000600019821415611f3557611f35611f50565b5060010190565b600082611f4b57611f4b611f66565b500690565b634e487b7160e01b600052601160045260246000fd5b634e487b7160e01b600052601260045260246000fd5b634e487b7160e01b600052604160045260246000fd5b6001600160a01b03811681146110ec57600080fd5b6001600160e01b0319811681146110ec57600080fdfea164736f6c6343000804000a",
  "linkReferences": {},
  "deployedLinkReferences": {}
}