{
  "address": "0xCa07Cd5dF8dCBDc6A55305E80573F1CDB90aCaCd",
  "transactionHash": "0xb4751da51c13c6de4fbb5f33cec8e303e0788444a66393f29fe90bc26db2063d",
  "args": [
    "0x0Fc0c315F3b38ca5a3bb7118fa689B9682eeA1E9"
  ],
  "_format": "hh-sol-artifact-1",
  "contractName": "BlindBox",
  "sourceName": "contracts/BlindBox.sol",
  "abi": [
    {
      "anonymous": false,
      "inputs": [
        {
          "indexed": true,
          "internalType": "address",
          "name": "owner",
          "type": "address"
        },
        {
          "indexed": true,
          "internalType": "address",
          "name": "approved",
          "type": "address"
        },
        {
          "indexed": true,
          "internalType": "uint256",
          "name": "tokenId",
          "type": "uint256"
        }
      ],
      "name": "Approval",
      "type": "event"
    },
    {
      "anonymous": false,
      "inputs": [
        {
          "indexed": true,
          "internalType": "address",
          "name": "owner",
          "type": "address"
        },
        {
          "indexed": true,
          "internalType": "address",
          "name": "operator",
          "type": "address"
        },
        {
          "indexed": false,
          "internalType": "bool",
          "name": "approved",
          "type": "bool"
        }
      ],
      "name": "ApprovalForAll",
      "type": "event"
    },
    {
      "anonymous": false,
      "inputs": [
        {
          "indexed": true,
          "internalType": "address",
          "name": "user",
          "type": "address"
        },
        {
          "indexed": false,
          "internalType": "uint256",
          "name": "amount",
          "type": "uint256"
        }
      ],
      "name": "Buy",
      "type": "event"
    },
    {
      "anonymous": false,
      "inputs": [
        {
          "indexed": true,
          "internalType": "address",
          "name": "previousOwner",
          "type": "address"
        },
        {
          "indexed": true,
          "internalType": "address",
          "name": "newOwner",
          "type": "address"
        }
      ],
      "name": "OwnershipTransferred",
      "type": "event"
    },
    {
      "anonymous": false,
      "inputs": [
        {
          "indexed": true,
          "internalType": "address",
          "name": "from",
          "type": "address"
        },
        {
          "indexed": true,
          "internalType": "address",
          "name": "to",
          "type": "address"
        },
        {
          "indexed": true,
          "internalType": "uint256",
          "name": "tokenId",
          "type": "uint256"
        }
      ],
      "name": "Transfer",
      "type": "event"
    },
    {
      "inputs": [],
      "name": "AMOUNT_PER_USER",
      "outputs": [
        {
          "internalType": "uint256",
          "name": "",
          "type": "uint256"
        }
      ],
      "stateMutability": "view",
      "type": "function"
    },
    {
      "inputs": [],
      "name": "MAX_TOKEN_ID",
      "outputs": [
        {
          "internalType": "uint256",
          "name": "",
          "type": "uint256"
        }
      ],
      "stateMutability": "view",
      "type": "function"
    },
    {
      "inputs": [
        {
          "components": [
            {
              "internalType": "uint256",
              "name": "price",
              "type": "uint256"
            },
            {
              "internalType": "uint256",
              "name": "solds",
              "type": "uint256"
            },
            {
              "internalType": "uint256",
              "name": "startTime",
              "type": "uint256"
            },
            {
              "internalType": "uint256",
              "name": "endTime",
              "type": "uint256"
            }
          ],
          "internalType": "struct BlindBox.Pool",
          "name": "pool",
          "type": "tuple"
        }
      ],
      "name": "addPool",
      "outputs": [],
      "stateMutability": "nonpayable",
      "type": "function"
    },
    {
      "inputs": [
        {
          "internalType": "address",
          "name": "to",
          "type": "address"
        },
        {
          "internalType": "uint256",
          "name": "tokenId",
          "type": "uint256"
        }
      ],
      "name": "approve",
      "outputs": [],
      "stateMutability": "nonpayable",
      "type": "function"
    },
    {
      "inputs": [
        {
          "internalType": "address",
          "name": "owner",
          "type": "address"
        }
      ],
      "name": "balanceOf",
      "outputs": [
        {
          "internalType": "uint256",
          "name": "",
          "type": "uint256"
        }
      ],
      "stateMutability": "view",
      "type": "function"
    },
    {
      "inputs": [],
      "name": "baseURI",
      "outputs": [
        {
          "internalType": "string",
          "name": "",
          "type": "string"
        }
      ],
      "stateMutability": "view",
      "type": "function"
    },
    {
      "inputs": [
        {
          "internalType": "uint256",
          "name": "amount",
          "type": "uint256"
        },
        {
          "internalType": "address",
          "name": "addr",
          "type": "address"
        }
      ],
      "name": "batchMint",
      "outputs": [],
      "stateMutability": "nonpayable",
      "type": "function"
    },
    {
      "inputs": [
        {
          "internalType": "uint256[]",
          "name": "tokenIds",
          "type": "uint256[]"
        }
      ],
      "name": "batchOpen",
      "outputs": [],
      "stateMutability": "nonpayable",
      "type": "function"
    },
    {
      "inputs": [],
      "name": "beneficiary",
      "outputs": [
        {
          "internalType": "address payable",
          "name": "",
          "type": "address"
        }
      ],
      "stateMutability": "view",
      "type": "function"
    },
    {
      "inputs": [
        {
          "internalType": "uint256",
          "name": "pid",
          "type": "uint256"
        },
        {
          "internalType": "uint256",
          "name": "amount",
          "type": "uint256"
        }
      ],
      "name": "buy",
      "outputs": [],
      "stateMutability": "payable",
      "type": "function"
    },
    {
      "inputs": [],
      "name": "currentTokenId",
      "outputs": [
        {
          "internalType": "uint256",
          "name": "",
          "type": "uint256"
        }
      ],
      "stateMutability": "view",
      "type": "function"
    },
    {
      "inputs": [
        {
          "internalType": "uint256",
          "name": "tokenId",
          "type": "uint256"
        }
      ],
      "name": "getApproved",
      "outputs": [
        {
          "internalType": "address",
          "name": "",
          "type": "address"
        }
      ],
      "stateMutability": "view",
      "type": "function"
    },
    {
      "inputs": [],
      "name": "horse",
      "outputs": [
        {
          "internalType": "address",
          "name": "",
          "type": "address"
        }
      ],
      "stateMutability": "view",
      "type": "function"
    },
    {
      "inputs": [
        {
          "internalType": "address payable",
          "name": "beneficiary_",
          "type": "address"
        }
      ],
      "name": "initialize",
      "outputs": [],
      "stateMutability": "nonpayable",
      "type": "function"
    },
    {
      "inputs": [
        {
          "internalType": "address",
          "name": "owner",
          "type": "address"
        },
        {
          "internalType": "address",
          "name": "operator",
          "type": "address"
        }
      ],
      "name": "isApprovedForAll",
      "outputs": [
        {
          "internalType": "bool",
          "name": "",
          "type": "bool"
        }
      ],
      "stateMutability": "view",
      "type": "function"
    },
    {
      "inputs": [],
      "name": "name",
      "outputs": [
        {
          "internalType": "string",
          "name": "",
          "type": "string"
        }
      ],
      "stateMutability": "view",
      "type": "function"
    },
    {
      "inputs": [
        {
          "internalType": "uint256",
          "name": "tokenId",
          "type": "uint256"
        }
      ],
      "name": "open",
      "outputs": [],
      "stateMutability": "nonpayable",
      "type": "function"
    },
    {
      "inputs": [],
      "name": "openStart",
      "outputs": [
        {
          "internalType": "bool",
          "name": "",
          "type": "bool"
        }
      ],
      "stateMutability": "view",
      "type": "function"
    },
    {
      "inputs": [],
      "name": "owner",
      "outputs": [
        {
          "internalType": "address",
          "name": "",
          "type": "address"
        }
      ],
      "stateMutability": "view",
      "type": "function"
    },
    {
      "inputs": [
        {
          "internalType": "uint256",
          "name": "tokenId",
          "type": "uint256"
        }
      ],
      "name": "ownerOf",
      "outputs": [
        {
          "internalType": "address",
          "name": "",
          "type": "address"
        }
      ],
      "stateMutability": "view",
      "type": "function"
    },
    {
      "inputs": [],
      "name": "poolLength",
      "outputs": [
        {
          "internalType": "uint256",
          "name": "",
          "type": "uint256"
        }
      ],
      "stateMutability": "view",
      "type": "function"
    },
    {
      "inputs": [
        {
          "internalType": "uint256",
          "name": "",
          "type": "uint256"
        }
      ],
      "name": "pools",
      "outputs": [
        {
          "internalType": "uint256",
          "name": "price",
          "type": "uint256"
        },
        {
          "internalType": "uint256",
          "name": "solds",
          "type": "uint256"
        },
        {
          "internalType": "uint256",
          "name": "startTime",
          "type": "uint256"
        },
        {
          "internalType": "uint256",
          "name": "endTime",
          "type": "uint256"
        }
      ],
      "stateMutability": "view",
      "type": "function"
    },
    {
      "inputs": [],
      "name": "price",
      "outputs": [
        {
          "internalType": "uint256",
          "name": "",
          "type": "uint256"
        }
      ],
      "stateMutability": "view",
      "type": "function"
    },
    {
      "inputs": [],
      "name": "renounceOwnership",
      "outputs": [],
      "stateMutability": "nonpayable",
      "type": "function"
    },
    {
      "inputs": [
        {
          "internalType": "address",
          "name": "from",
          "type": "address"
        },
        {
          "internalType": "address",
          "name": "to",
          "type": "address"
        },
        {
          "internalType": "uint256",
          "name": "tokenId",
          "type": "uint256"
        }
      ],
      "name": "safeTransferFrom",
      "outputs": [],
      "stateMutability": "nonpayable",
      "type": "function"
    },
    {
      "inputs": [
        {
          "internalType": "address",
          "name": "from",
          "type": "address"
        },
        {
          "internalType": "address",
          "name": "to",
          "type": "address"
        },
        {
          "internalType": "uint256",
          "name": "tokenId",
          "type": "uint256"
        },
        {
          "internalType": "bytes",
          "name": "_data",
          "type": "bytes"
        }
      ],
      "name": "safeTransferFrom",
      "outputs": [],
      "stateMutability": "nonpayable",
      "type": "function"
    },
    {
      "inputs": [
        {
          "internalType": "address",
          "name": "operator",
          "type": "address"
        },
        {
          "internalType": "bool",
          "name": "approved",
          "type": "bool"
        }
      ],
      "name": "setApprovalForAll",
      "outputs": [],
      "stateMutability": "nonpayable",
      "type": "function"
    },
    {
      "inputs": [
        {
          "internalType": "address payable",
          "name": "newBeneficiary",
          "type": "address"
        }
      ],
      "name": "setBeneficiary",
      "outputs": [],
      "stateMutability": "nonpayable",
      "type": "function"
    },
    {
      "inputs": [
        {
          "internalType": "address",
          "name": "addr",
          "type": "address"
        }
      ],
      "name": "setHorse",
      "outputs": [],
      "stateMutability": "nonpayable",
      "type": "function"
    },
    {
      "inputs": [
        {
          "internalType": "bool",
          "name": "started",
          "type": "bool"
        }
      ],
      "name": "setOpenStart",
      "outputs": [],
      "stateMutability": "nonpayable",
      "type": "function"
    },
    {
      "inputs": [],
      "name": "solds",
      "outputs": [
        {
          "internalType": "uint256",
          "name": "",
          "type": "uint256"
        }
      ],
      "stateMutability": "view",
      "type": "function"
    },
    {
      "inputs": [
        {
          "internalType": "bytes4",
          "name": "interfaceId",
          "type": "bytes4"
        }
      ],
      "name": "supportsInterface",
      "outputs": [
        {
          "internalType": "bool",
          "name": "",
          "type": "bool"
        }
      ],
      "stateMutability": "view",
      "type": "function"
    },
    {
      "inputs": [],
      "name": "symbol",
      "outputs": [
        {
          "internalType": "string",
          "name": "",
          "type": "string"
        }
      ],
      "stateMutability": "view",
      "type": "function"
    },
    {
      "inputs": [
        {
          "internalType": "uint256",
          "name": "tokenId",
          "type": "uint256"
        }
      ],
      "name": "tokenURI",
      "outputs": [
        {
          "internalType": "string",
          "name": "",
          "type": "string"
        }
      ],
      "stateMutability": "view",
      "type": "function"
    },
    {
      "inputs": [
        {
          "internalType": "address",
          "name": "from",
          "type": "address"
        },
        {
          "internalType": "address",
          "name": "to",
          "type": "address"
        },
        {
          "internalType": "uint256",
          "name": "tokenId",
          "type": "uint256"
        }
      ],
      "name": "transferFrom",
      "outputs": [],
      "stateMutability": "nonpayable",
      "type": "function"
    },
    {
      "inputs": [
        {
          "internalType": "address",
          "name": "newOwner",
          "type": "address"
        }
      ],
      "name": "transferOwnership",
      "outputs": [],
      "stateMutability": "nonpayable",
      "type": "function"
    },
    {
      "inputs": [
        {
          "internalType": "address",
          "name": "",
          "type": "address"
        }
      ],
      "name": "userBuys",
      "outputs": [
        {
          "internalType": "uint256",
          "name": "",
          "type": "uint256"
        }
      ],
      "stateMutability": "view",
      "type": "function"
    }
  ],
  "bytecode": "0x608060405234801561001057600080fd5b5061263d806100206000396000f3fe6080604052600436106102195760003560e01c80636c0360eb11610123578063ac4afa38116100ab578063c87b56dd1161006f578063c87b56dd14610671578063d6febde814610691578063d6ffd7a7146106a4578063e985e9c5146106be578063f2fde38b1461070757600080fd5b8063ac4afa381461059a578063b8358715146105fc578063b88d4fde14610611578063c2f637dc14610631578063c4d66de81461065157600080fd5b806372b94bbb116100f257806372b94bbb146105115780638da5cb5b1461053157806395d89b411461054f578063a035b1fe14610564578063a22cb4651461057a57600080fd5b80636c0360eb146104915780636da612d8146104c657806370a08231146104dc578063715018a6146104fc57600080fd5b806323b872dd116101a657806348d2df481161017557806348d2df48146103df578063521d14f51461040c57806362c0be101461042c5780636352211e14610451578063690e7c091461047157600080fd5b806323b872dd1461036957806338af3eed146103895780633c51199f146103a957806342842e0e146103bf57600080fd5b8063081812fc116101ed578063081812fc146102bb578063081e3eda146102f3578063095ea7b3146103095780631969160b146103295780631c31f7101461034957600080fd5b80629a9b7b1461021e57806301ffc9a7146102475780630492524b1461027757806306fdde0314610299575b600080fd5b34801561022a57600080fd5b5061023460c95481565b6040519081526020015b60405180910390f35b34801561025357600080fd5b50610267610262366004612257565b610727565b604051901515815260200161023e565b34801561028357600080fd5b5061029761029236600461223d565b610779565b005b3480156102a557600080fd5b506102ae6107bf565b60405161023e919061239b565b3480156102c757600080fd5b506102db6102d63660046122a6565b610851565b6040516001600160a01b03909116815260200161023e565b3480156102ff57600080fd5b5061023460cf5481565b34801561031557600080fd5b506102976103243660046121a2565b6108e6565b34801561033557600080fd5b506102976103443660046121cd565b6109fc565b34801561035557600080fd5b50610297610364366004612001565b610a90565b34801561037557600080fd5b50610297610384366004612055565b610adc565b34801561039557600080fd5b5060cb546102db906001600160a01b031681565b3480156103b557600080fd5b5061023460cc5481565b3480156103cb57600080fd5b506102976103da366004612055565b610b0d565b3480156103eb57600080fd5b506102346103fa366004612001565b60ca6020526000908152604090205481565b34801561041857600080fd5b5061029761042736600461228f565b610b28565b34801561043857600080fd5b5060ce546102db9061010090046001600160a01b031681565b34801561045d57600080fd5b506102db61046c3660046122a6565b610bae565b34801561047d57600080fd5b5061029761048c3660046122a6565b610c25565b34801561049d57600080fd5b5060408051808201909152600c81526b697066733a2f2f697066732f60a01b60208201526102ae565b3480156104d257600080fd5b5061023461138881565b3480156104e857600080fd5b506102346104f7366004612001565b610c79565b34801561050857600080fd5b50610297610d00565b34801561051d57600080fd5b5061029761052c366004612001565b610d36565b34801561053d57600080fd5b506097546001600160a01b03166102db565b34801561055b57600080fd5b506102ae610d88565b34801561057057600080fd5b5061023460cd5481565b34801561058657600080fd5b5061029761059536600461216e565b610d97565b3480156105a657600080fd5b506105dc6105b53660046122a6565b60d06020526000908152604090208054600182015460028301546003909301549192909184565b60408051948552602085019390935291830152606082015260800161023e565b34801561060857600080fd5b50610234600581565b34801561061d57600080fd5b5061029761062c366004612095565b610da6565b34801561063d57600080fd5b5061029761064c3660046122be565b610dde565b34801561065d57600080fd5b5061029761066c366004612001565b610eb8565b34801561067d57600080fd5b506102ae61068c3660046122a6565b610fed565b61029761069f3660046122e2565b6110e9565b3480156106b057600080fd5b5060ce546102679060ff1681565b3480156106ca57600080fd5b506102676106d936600461201d565b6001600160a01b039182166000908152606a6020908152604080832093909416825291909152205460ff1690565b34801561071357600080fd5b50610297610722366004612001565b611428565b60006001600160e01b031982166380ac58cd60e01b148061075857506001600160e01b03198216635b5e139f60e01b145b8061077357506301ffc9a760e01b6001600160e01b03198316145b92915050565b6097546001600160a01b031633146107ac5760405162461bcd60e51b81526004016107a390612400565b60405180910390fd5b60ce805460ff1916911515919091179055565b6060606580546107ce9061255f565b80601f01602080910402602001604051908101604052809291908181526020018280546107fa9061255f565b80156108475780601f1061081c57610100808354040283529160200191610847565b820191906000526020600020905b81548152906001019060200180831161082a57829003601f168201915b5050505050905090565b6000818152606760205260408120546001600160a01b03166108ca5760405162461bcd60e51b815260206004820152602c60248201527f4552433732313a20617070726f76656420717565727920666f72206e6f6e657860448201526b34b9ba32b73a103a37b5b2b760a11b60648201526084016107a3565b506000908152606960205260409020546001600160a01b031690565b60006108f182610bae565b9050806001600160a01b0316836001600160a01b0316141561095f5760405162461bcd60e51b815260206004820152602160248201527f4552433732313a20617070726f76616c20746f2063757272656e74206f776e656044820152603960f91b60648201526084016107a3565b336001600160a01b038216148061097b575061097b81336106d9565b6109ed5760405162461bcd60e51b815260206004820152603860248201527f4552433732313a20617070726f76652063616c6c6572206973206e6f74206f7760448201527f6e6572206e6f7220617070726f76656420666f7220616c6c000000000000000060648201526084016107a3565b6109f783836114c0565b505050565b60ce5460ff16610a445760405162461bcd60e51b8152602060048201526013602482015272109b1a5b99109bde0e88139bdd081cdd185c9d606a1b60448201526064016107a3565b60005b818110156109f757610a7e838383818110610a7257634e487b7160e01b600052603260045260246000fd5b9050602002013561152e565b80610a8881612594565b915050610a47565b6097546001600160a01b03163314610aba5760405162461bcd60e51b81526004016107a390612400565b60cb80546001600160a01b0319166001600160a01b0392909216919091179055565b610ae633826115fa565b610b025760405162461bcd60e51b81526004016107a390612435565b6109f78383836116f1565b6109f783838360405180602001604052806000815250610da6565b6097546001600160a01b03163314610b525760405162461bcd60e51b81526004016107a390612400565b60cf54600090815260d0602052604090208190610b908282813581556020820135600182015560408201356002820155606082013560038201555050565b905050600160cf6000828254610ba691906124d1565b909155505050565b6000818152606760205260408120546001600160a01b0316806107735760405162461bcd60e51b815260206004820152602960248201527f4552433732313a206f776e657220717565727920666f72206e6f6e657869737460448201526832b73a103a37b5b2b760b91b60648201526084016107a3565b60ce5460ff16610c6d5760405162461bcd60e51b8152602060048201526013602482015272109b1a5b99109bde0e88139bdd081cdd185c9d606a1b60448201526064016107a3565b610c768161152e565b50565b60006001600160a01b038216610ce45760405162461bcd60e51b815260206004820152602a60248201527f4552433732313a2062616c616e636520717565727920666f7220746865207a65604482015269726f206164647265737360b01b60648201526084016107a3565b506001600160a01b031660009081526068602052604090205490565b6097546001600160a01b03163314610d2a5760405162461bcd60e51b81526004016107a390612400565b610d346000611891565b565b6097546001600160a01b03163314610d605760405162461bcd60e51b81526004016107a390612400565b60ce80546001600160a01b0390921661010002610100600160a81b0319909216919091179055565b6060606680546107ce9061255f565b610da23383836118e3565b5050565b610db033836115fa565b610dcc5760405162461bcd60e51b81526004016107a390612435565b610dd8848484846119b2565b50505050565b6097546001600160a01b03163314610e085760405162461bcd60e51b81526004016107a390612400565b6113888260c954610e1991906124d1565b1115610e675760405162461bcd60e51b815260206004820152601d60248201527f426c696e64426f783a20746f6b656e4964206d6178206973203530303000000060448201526064016107a3565b60c9545b8260c954610e7991906124d1565b811015610e9c57610e8a82826119e5565b80610e9481612594565b915050610e6b565b508160c96000828254610eaf91906124d1565b90915550505050565b600054610100900460ff16610ed35760005460ff1615610ed7565b303b155b610f3a5760405162461bcd60e51b815260206004820152602e60248201527f496e697469616c697a61626c653a20636f6e747261637420697320616c72656160448201526d191e481a5b9a5d1a585b1a5e995960921b60648201526084016107a3565b600054610100900460ff16158015610f5c576000805461ffff19166101011790555b610fb060405180604001604052806016815260200175090dee4e6ca40a4c2c6d2dcce4084d8d2dcc84084def60531b815250604051806040016040528060048152602001632429212160e11b8152506119ff565b610fb8611a40565b60cb80546001600160a01b0319166001600160a01b038416179055600160c9558015610da2576000805461ff00191690555050565b6000818152606760205260409020546060906001600160a01b031661106c5760405162461bcd60e51b815260206004820152602f60248201527f4552433732314d657461646174613a2055524920717565727920666f72206e6f60448201526e3732bc34b9ba32b73a103a37b5b2b760891b60648201526084016107a3565b600061109760408051808201909152600c81526b697066733a2f2f697066732f60a01b602082015290565b905060008151116110b757604051806020016040528060008152506110e2565b806110c184611a77565b6040516020016110d292919061232f565b6040516020818303038152906040525b9392505050565b60cf5482106111315760405162461bcd60e51b8152602060048201526014602482015273109b1a5b99109bde0e88195b5c1d1e481c1bdbdb60621b60448201526064016107a3565b600082815260d060209081526040918290208251608081018452815481526001820154928101929092526002810154928201839052600301546060820152904210156111b55760405162461bcd60e51b8152602060048201526013602482015272109b1a5b99109bde0e881b9bdd081cdd185c9d606a1b60448201526064016107a3565b80606001514211156111fb5760405162461bcd60e51b815260206004820152600f60248201526e109b1a5b99109bde0e88195b991959608a1b60448201526064016107a3565b8051349061120990846124fd565b146112615760405162461bcd60e51b815260206004820152602260248201527f426c696e64426f783a206d73672e76616c7565206973206e6f7420636f72726560448201526118dd60f21b60648201526084016107a3565b806020015160018360c95461127691906124d1565b611280919061251c565b11156112c35760405162461bcd60e51b8152602060048201526012602482015271109b1a5b99109bde0e8814dbdb190813dd5d60721b60448201526064016107a3565b600083815260d1602090815260408083203384529091529020546005906112eb9084906124d1565b11156113395760405162461bcd60e51b815260206004820152601d60248201527f426c696e64426f783a2075736572206f6e6c792062757920666976657300000060448201526064016107a3565b60c9545b8260c95461134b91906124d1565b81101561136e5761135c33826119e5565b8061136681612594565b91505061133d565b508160c9600082825461138191906124d1565b9091555050600083815260d160209081526040808320338452909152812080548492906113af9084906124d1565b909155505060cb546040516001600160a01b03909116904780156108fc02916000818181858888f193505050501580156113ed573d6000803e3d6000fd5b5060405182815233907fe3d4187f6ca4248660cc0ac8b8056515bac4a8132be2eca31d6d0cc170722a7e9060200160405180910390a2505050565b6097546001600160a01b031633146114525760405162461bcd60e51b81526004016107a390612400565b6001600160a01b0381166114b75760405162461bcd60e51b815260206004820152602660248201527f4f776e61626c653a206e6577206f776e657220697320746865207a65726f206160448201526564647265737360d01b60648201526084016107a3565b610c7681611891565b600081815260696020526040902080546001600160a01b0319166001600160a01b03841690811790915581906114f582610bae565b6001600160a01b03167f8c5be1e5ebec7d5bd14f71427d1e84f3dd0314c0f7b2291e5b200ac8c7c3b92560405160405180910390a45050565b3361153882610bae565b6001600160a01b0316146115865760405162461bcd60e51b8152602060048201526015602482015274213634b7322137bc1d103737ba10309037bbb732b960591b60448201526064016107a3565b61158f81611b91565b60ce546040516340c10f1960e01b8152336004820152602481018390526101009091046001600160a01b0316906340c10f1990604401600060405180830381600087803b1580156115df57600080fd5b505af11580156115f3573d6000803e3d6000fd5b5050505050565b6000818152606760205260408120546001600160a01b03166116735760405162461bcd60e51b815260206004820152602c60248201527f4552433732313a206f70657261746f7220717565727920666f72206e6f6e657860448201526b34b9ba32b73a103a37b5b2b760a11b60648201526084016107a3565b600061167e83610bae565b9050806001600160a01b0316846001600160a01b031614806116b95750836001600160a01b03166116ae84610851565b6001600160a01b0316145b806116e957506001600160a01b038082166000908152606a602090815260408083209388168352929052205460ff165b949350505050565b826001600160a01b031661170482610bae565b6001600160a01b03161461176c5760405162461bcd60e51b815260206004820152602960248201527f4552433732313a207472616e73666572206f6620746f6b656e2074686174206960448201526839903737ba1037bbb760b91b60648201526084016107a3565b6001600160a01b0382166117ce5760405162461bcd60e51b8152602060048201526024808201527f4552433732313a207472616e7366657220746f20746865207a65726f206164646044820152637265737360e01b60648201526084016107a3565b6117d96000826114c0565b6001600160a01b038316600090815260686020526040812080546001929061180290849061251c565b90915550506001600160a01b03821660009081526068602052604081208054600192906118309084906124d1565b909155505060008181526067602052604080822080546001600160a01b0319166001600160a01b0386811691821790925591518493918716917fddf252ad1be2c89b69c2b068fc378daa952ba7f163c4a11628f55a4df523b3ef91a4505050565b609780546001600160a01b038381166001600160a01b0319831681179093556040519116919082907f8be0079c531659141344cd1fd0a4f28419497f9722a3daafe3b4186f6b6457e090600090a35050565b816001600160a01b0316836001600160a01b031614156119455760405162461bcd60e51b815260206004820152601960248201527f4552433732313a20617070726f766520746f2063616c6c65720000000000000060448201526064016107a3565b6001600160a01b038381166000818152606a6020908152604080832094871680845294825291829020805460ff191686151590811790915591519182527f17307eab39ab6107e8899845ad3d59bd9653f200f220920489ca2b5937696c31910160405180910390a3505050565b6119bd8484846116f1565b6119c984848484611c2c565b610dd85760405162461bcd60e51b81526004016107a3906123ae565b610da2828260405180602001604052806000815250611d39565b600054610100900460ff16611a265760405162461bcd60e51b81526004016107a390612486565b611a2e611d6c565b611a36611d6c565b610da28282611d93565b600054610100900460ff16611a675760405162461bcd60e51b81526004016107a390612486565b611a6f611d6c565b610d34611de1565b606081611a9b5750506040805180820190915260018152600360fc1b602082015290565b8160005b8115611ac55780611aaf81612594565b9150611abe9050600a836124e9565b9150611a9f565b60008167ffffffffffffffff811115611aee57634e487b7160e01b600052604160045260246000fd5b6040519080825280601f01601f191660200182016040528015611b18576020820181803683370190505b5090505b84156116e957611b2d60018361251c565b9150611b3a600a866125af565b611b459060306124d1565b60f81b818381518110611b6857634e487b7160e01b600052603260045260246000fd5b60200101906001600160f81b031916908160001a905350611b8a600a866124e9565b9450611b1c565b6000611b9c82610bae565b9050611ba96000836114c0565b6001600160a01b0381166000908152606860205260408120805460019290611bd290849061251c565b909155505060008281526067602052604080822080546001600160a01b0319169055518391906001600160a01b038416907fddf252ad1be2c89b69c2b068fc378daa952ba7f163c4a11628f55a4df523b3ef908390a45050565b60006001600160a01b0384163b15611d2e57604051630a85bd0160e11b81526001600160a01b0385169063150b7a0290611c7090339089908890889060040161235e565b602060405180830381600087803b158015611c8a57600080fd5b505af1925050508015611cba575060408051601f3d908101601f19168201909252611cb791810190612273565b60015b611d14573d808015611ce8576040519150601f19603f3d011682016040523d82523d6000602084013e611ced565b606091505b508051611d0c5760405162461bcd60e51b81526004016107a3906123ae565b805181602001fd5b6001600160e01b031916630a85bd0160e11b1490506116e9565b506001949350505050565b611d438383611e11565b611d506000848484611c2c565b6109f75760405162461bcd60e51b81526004016107a3906123ae565b600054610100900460ff16610d345760405162461bcd60e51b81526004016107a390612486565b600054610100900460ff16611dba5760405162461bcd60e51b81526004016107a390612486565b8151611dcd906065906020850190611f53565b5080516109f7906066906020840190611f53565b600054610100900460ff16611e085760405162461bcd60e51b81526004016107a390612486565b610d3433611891565b6001600160a01b038216611e675760405162461bcd60e51b815260206004820181905260248201527f4552433732313a206d696e7420746f20746865207a65726f206164647265737360448201526064016107a3565b6000818152606760205260409020546001600160a01b031615611ecc5760405162461bcd60e51b815260206004820152601c60248201527f4552433732313a20746f6b656e20616c7265616479206d696e7465640000000060448201526064016107a3565b6001600160a01b0382166000908152606860205260408120805460019290611ef59084906124d1565b909155505060008181526067602052604080822080546001600160a01b0319166001600160a01b03861690811790915590518392907fddf252ad1be2c89b69c2b068fc378daa952ba7f163c4a11628f55a4df523b3ef908290a45050565b828054611f5f9061255f565b90600052602060002090601f016020900481019282611f815760008555611fc7565b82601f10611f9a57805160ff1916838001178555611fc7565b82800160010185558215611fc7579182015b82811115611fc7578251825591602001919060010190611fac565b50611fd3929150611fd7565b5090565b5b80821115611fd35760008155600101611fd8565b80358015158114611ffc57600080fd5b919050565b600060208284031215612012578081fd5b81356110e281612605565b6000806040838503121561202f578081fd5b823561203a81612605565b9150602083013561204a81612605565b809150509250929050565b600080600060608486031215612069578081fd5b833561207481612605565b9250602084013561208481612605565b929592945050506040919091013590565b600080600080608085870312156120aa578081fd5b84356120b581612605565b935060208501356120c581612605565b925060408501359150606085013567ffffffffffffffff808211156120e8578283fd5b818701915087601f8301126120fb578283fd5b81358181111561210d5761210d6125ef565b604051601f8201601f19908116603f01168101908382118183101715612135576121356125ef565b816040528281528a602084870101111561214d578586fd5b82602086016020830137918201602001949094529598949750929550505050565b60008060408385031215612180578182fd5b823561218b81612605565b915061219960208401611fec565b90509250929050565b600080604083850312156121b4578182fd5b82356121bf81612605565b946020939093013593505050565b600080602083850312156121df578182fd5b823567ffffffffffffffff808211156121f6578384fd5b818501915085601f830112612209578384fd5b813581811115612217578485fd5b8660208260051b850101111561222b578485fd5b60209290920196919550909350505050565b60006020828403121561224e578081fd5b6110e282611fec565b600060208284031215612268578081fd5b81356110e28161261a565b600060208284031215612284578081fd5b81516110e28161261a565b6000608082840312156122a0578081fd5b50919050565b6000602082840312156122b7578081fd5b5035919050565b600080604083850312156122d0578182fd5b82359150602083013561204a81612605565b600080604083850312156122f4578182fd5b50508035926020909101359150565b6000815180845261231b816020860160208601612533565b601f01601f19169290920160200192915050565b60008351612341818460208801612533565b835190830190612355818360208801612533565b01949350505050565b6001600160a01b038581168252841660208201526040810183905260806060820181905260009061239190830184612303565b9695505050505050565b6020815260006110e26020830184612303565b60208082526032908201527f4552433732313a207472616e7366657220746f206e6f6e20455243373231526560408201527131b2b4bb32b91034b6b83632b6b2b73a32b960711b606082015260800190565b6020808252818101527f4f776e61626c653a2063616c6c6572206973206e6f7420746865206f776e6572604082015260600190565b60208082526031908201527f4552433732313a207472616e736665722063616c6c6572206973206e6f74206f6040820152701ddb995c881b9bdc88185c1c1c9bdd9959607a1b606082015260800190565b6020808252602b908201527f496e697469616c697a61626c653a20636f6e7472616374206973206e6f74206960408201526a6e697469616c697a696e6760a81b606082015260800190565b600082198211156124e4576124e46125c3565b500190565b6000826124f8576124f86125d9565b500490565b6000816000190483118215151615612517576125176125c3565b500290565b60008282101561252e5761252e6125c3565b500390565b60005b8381101561254e578181015183820152602001612536565b83811115610dd85750506000910152565b600181811c9082168061257357607f821691505b602082108114156122a057634e487b7160e01b600052602260045260246000fd5b60006000198214156125a8576125a86125c3565b5060010190565b6000826125be576125be6125d9565b500690565b634e487b7160e01b600052601160045260246000fd5b634e487b7160e01b600052601260045260246000fd5b634e487b7160e01b600052604160045260246000fd5b6001600160a01b0381168114610c7657600080fd5b6001600160e01b031981168114610c7657600080fdfea164736f6c6343000804000a",
  "linkReferences": {},
  "deployedLinkReferences": {}
}