{
  "address": "0xCa07Cd5dF8dCBDc6A55305E80573F1CDB90aCaCd",
  "transactionHash": "0xba516ec35a3d7a4d1d2b8a58ae8da0def1c491c76f394ea4957ac26083556e17",
  "args": [
    "0x0Fc0c315F3b38ca5a3bb7118fa689B9682eeA1E9"
  ],
  "_format": "hh-sol-artifact-1",
  "contractName": "BlindBox",
  "sourceName": "contracts/BlindBox.sol",
  "abi": [
    {
      "anonymous": false,
      "inputs": [
        {
          "indexed": true,
          "internalType": "address",
          "name": "owner",
          "type": "address"
        },
        {
          "indexed": true,
          "internalType": "address",
          "name": "approved",
          "type": "address"
        },
        {
          "indexed": true,
          "internalType": "uint256",
          "name": "tokenId",
          "type": "uint256"
        }
      ],
      "name": "Approval",
      "type": "event"
    },
    {
      "anonymous": false,
      "inputs": [
        {
          "indexed": true,
          "internalType": "address",
          "name": "owner",
          "type": "address"
        },
        {
          "indexed": true,
          "internalType": "address",
          "name": "operator",
          "type": "address"
        },
        {
          "indexed": false,
          "internalType": "bool",
          "name": "approved",
          "type": "bool"
        }
      ],
      "name": "ApprovalForAll",
      "type": "event"
    },
    {
      "anonymous": false,
      "inputs": [
        {
          "indexed": true,
          "internalType": "address",
          "name": "user",
          "type": "address"
        },
        {
          "indexed": false,
          "internalType": "uint256",
          "name": "amount",
          "type": "uint256"
        }
      ],
      "name": "Buy",
      "type": "event"
    },
    {
      "anonymous": false,
      "inputs": [
        {
          "indexed": true,
          "internalType": "address",
          "name": "previousOwner",
          "type": "address"
        },
        {
          "indexed": true,
          "internalType": "address",
          "name": "newOwner",
          "type": "address"
        }
      ],
      "name": "OwnershipTransferred",
      "type": "event"
    },
    {
      "anonymous": false,
      "inputs": [
        {
          "indexed": true,
          "internalType": "address",
          "name": "from",
          "type": "address"
        },
        {
          "indexed": true,
          "internalType": "address",
          "name": "to",
          "type": "address"
        },
        {
          "indexed": true,
          "internalType": "uint256",
          "name": "tokenId",
          "type": "uint256"
        }
      ],
      "name": "Transfer",
      "type": "event"
    },
    {
      "inputs": [],
      "name": "AMOUNT_PER_USER",
      "outputs": [
        {
          "internalType": "uint256",
          "name": "",
          "type": "uint256"
        }
      ],
      "stateMutability": "view",
      "type": "function"
    },
    {
      "inputs": [],
      "name": "MAX_TOKEN_ID",
      "outputs": [
        {
          "internalType": "uint256",
          "name": "",
          "type": "uint256"
        }
      ],
      "stateMutability": "view",
      "type": "function"
    },
    {
      "inputs": [
        {
          "internalType": "address",
          "name": "to",
          "type": "address"
        },
        {
          "internalType": "uint256",
          "name": "tokenId",
          "type": "uint256"
        }
      ],
      "name": "approve",
      "outputs": [],
      "stateMutability": "nonpayable",
      "type": "function"
    },
    {
      "inputs": [
        {
          "internalType": "address",
          "name": "owner",
          "type": "address"
        }
      ],
      "name": "balanceOf",
      "outputs": [
        {
          "internalType": "uint256",
          "name": "",
          "type": "uint256"
        }
      ],
      "stateMutability": "view",
      "type": "function"
    },
    {
      "inputs": [],
      "name": "baseURI",
      "outputs": [
        {
          "internalType": "string",
          "name": "",
          "type": "string"
        }
      ],
      "stateMutability": "view",
      "type": "function"
    },
    {
      "inputs": [
        {
          "internalType": "uint256",
          "name": "amount",
          "type": "uint256"
        },
        {
          "internalType": "address",
          "name": "addr",
          "type": "address"
        }
      ],
      "name": "batchMint",
      "outputs": [],
      "stateMutability": "nonpayable",
      "type": "function"
    },
    {
      "inputs": [
        {
          "internalType": "uint256[]",
          "name": "tokenIds",
          "type": "uint256[]"
        }
      ],
      "name": "batchOpen",
      "outputs": [],
      "stateMutability": "nonpayable",
      "type": "function"
    },
    {
      "inputs": [],
      "name": "beneficiary",
      "outputs": [
        {
          "internalType": "address payable",
          "name": "",
          "type": "address"
        }
      ],
      "stateMutability": "view",
      "type": "function"
    },
    {
      "inputs": [
        {
          "internalType": "uint256",
          "name": "amount",
          "type": "uint256"
        }
      ],
      "name": "buy",
      "outputs": [],
      "stateMutability": "payable",
      "type": "function"
    },
    {
      "inputs": [],
      "name": "currentTokenId",
      "outputs": [
        {
          "internalType": "uint256",
          "name": "",
          "type": "uint256"
        }
      ],
      "stateMutability": "view",
      "type": "function"
    },
    {
      "inputs": [
        {
          "internalType": "uint256",
          "name": "tokenId",
          "type": "uint256"
        }
      ],
      "name": "getApproved",
      "outputs": [
        {
          "internalType": "address",
          "name": "",
          "type": "address"
        }
      ],
      "stateMutability": "view",
      "type": "function"
    },
    {
      "inputs": [],
      "name": "horse",
      "outputs": [
        {
          "internalType": "address",
          "name": "",
          "type": "address"
        }
      ],
      "stateMutability": "view",
      "type": "function"
    },
    {
      "inputs": [
        {
          "internalType": "address payable",
          "name": "beneficiary_",
          "type": "address"
        }
      ],
      "name": "initialize",
      "outputs": [],
      "stateMutability": "nonpayable",
      "type": "function"
    },
    {
      "inputs": [
        {
          "internalType": "address",
          "name": "owner",
          "type": "address"
        },
        {
          "internalType": "address",
          "name": "operator",
          "type": "address"
        }
      ],
      "name": "isApprovedForAll",
      "outputs": [
        {
          "internalType": "bool",
          "name": "",
          "type": "bool"
        }
      ],
      "stateMutability": "view",
      "type": "function"
    },
    {
      "inputs": [],
      "name": "name",
      "outputs": [
        {
          "internalType": "string",
          "name": "",
          "type": "string"
        }
      ],
      "stateMutability": "view",
      "type": "function"
    },
    {
      "inputs": [
        {
          "internalType": "uint256",
          "name": "tokenId",
          "type": "uint256"
        }
      ],
      "name": "open",
      "outputs": [],
      "stateMutability": "nonpayable",
      "type": "function"
    },
    {
      "inputs": [],
      "name": "openStart",
      "outputs": [
        {
          "internalType": "bool",
          "name": "",
          "type": "bool"
        }
      ],
      "stateMutability": "view",
      "type": "function"
    },
    {
      "inputs": [],
      "name": "owner",
      "outputs": [
        {
          "internalType": "address",
          "name": "",
          "type": "address"
        }
      ],
      "stateMutability": "view",
      "type": "function"
    },
    {
      "inputs": [
        {
          "internalType": "uint256",
          "name": "tokenId",
          "type": "uint256"
        }
      ],
      "name": "ownerOf",
      "outputs": [
        {
          "internalType": "address",
          "name": "",
          "type": "address"
        }
      ],
      "stateMutability": "view",
      "type": "function"
    },
    {
      "inputs": [],
      "name": "price",
      "outputs": [
        {
          "internalType": "uint256",
          "name": "",
          "type": "uint256"
        }
      ],
      "stateMutability": "view",
      "type": "function"
    },
    {
      "inputs": [],
      "name": "renounceOwnership",
      "outputs": [],
      "stateMutability": "nonpayable",
      "type": "function"
    },
    {
      "inputs": [
        {
          "internalType": "address",
          "name": "from",
          "type": "address"
        },
        {
          "internalType": "address",
          "name": "to",
          "type": "address"
        },
        {
          "internalType": "uint256",
          "name": "tokenId",
          "type": "uint256"
        }
      ],
      "name": "safeTransferFrom",
      "outputs": [],
      "stateMutability": "nonpayable",
      "type": "function"
    },
    {
      "inputs": [
        {
          "internalType": "address",
          "name": "from",
          "type": "address"
        },
        {
          "internalType": "address",
          "name": "to",
          "type": "address"
        },
        {
          "internalType": "uint256",
          "name": "tokenId",
          "type": "uint256"
        },
        {
          "internalType": "bytes",
          "name": "_data",
          "type": "bytes"
        }
      ],
      "name": "safeTransferFrom",
      "outputs": [],
      "stateMutability": "nonpayable",
      "type": "function"
    },
    {
      "inputs": [
        {
          "internalType": "address",
          "name": "operator",
          "type": "address"
        },
        {
          "internalType": "bool",
          "name": "approved",
          "type": "bool"
        }
      ],
      "name": "setApprovalForAll",
      "outputs": [],
      "stateMutability": "nonpayable",
      "type": "function"
    },
    {
      "inputs": [
        {
          "internalType": "address payable",
          "name": "newBeneficiary",
          "type": "address"
        }
      ],
      "name": "setBeneficiary",
      "outputs": [],
      "stateMutability": "nonpayable",
      "type": "function"
    },
    {
      "inputs": [
        {
          "internalType": "address",
          "name": "addr",
          "type": "address"
        }
      ],
      "name": "setHorse",
      "outputs": [],
      "stateMutability": "nonpayable",
      "type": "function"
    },
    {
      "inputs": [
        {
          "internalType": "bool",
          "name": "started",
          "type": "bool"
        }
      ],
      "name": "setOpenStart",
      "outputs": [],
      "stateMutability": "nonpayable",
      "type": "function"
    },
    {
      "inputs": [
        {
          "internalType": "uint256",
          "name": "newPrice",
          "type": "uint256"
        }
      ],
      "name": "setPrice",
      "outputs": [],
      "stateMutability": "nonpayable",
      "type": "function"
    },
    {
      "inputs": [
        {
          "internalType": "uint256",
          "name": "newSolds",
          "type": "uint256"
        }
      ],
      "name": "setSolds",
      "outputs": [],
      "stateMutability": "nonpayable",
      "type": "function"
    },
    {
      "inputs": [],
      "name": "solds",
      "outputs": [
        {
          "internalType": "uint256",
          "name": "",
          "type": "uint256"
        }
      ],
      "stateMutability": "view",
      "type": "function"
    },
    {
      "inputs": [
        {
          "internalType": "bytes4",
          "name": "interfaceId",
          "type": "bytes4"
        }
      ],
      "name": "supportsInterface",
      "outputs": [
        {
          "internalType": "bool",
          "name": "",
          "type": "bool"
        }
      ],
      "stateMutability": "view",
      "type": "function"
    },
    {
      "inputs": [],
      "name": "symbol",
      "outputs": [
        {
          "internalType": "string",
          "name": "",
          "type": "string"
        }
      ],
      "stateMutability": "view",
      "type": "function"
    },
    {
      "inputs": [
        {
          "internalType": "uint256",
          "name": "tokenId",
          "type": "uint256"
        }
      ],
      "name": "tokenURI",
      "outputs": [
        {
          "internalType": "string",
          "name": "",
          "type": "string"
        }
      ],
      "stateMutability": "view",
      "type": "function"
    },
    {
      "inputs": [
        {
          "internalType": "address",
          "name": "from",
          "type": "address"
        },
        {
          "internalType": "address",
          "name": "to",
          "type": "address"
        },
        {
          "internalType": "uint256",
          "name": "tokenId",
          "type": "uint256"
        }
      ],
      "name": "transferFrom",
      "outputs": [],
      "stateMutability": "nonpayable",
      "type": "function"
    },
    {
      "inputs": [
        {
          "internalType": "address",
          "name": "newOwner",
          "type": "address"
        }
      ],
      "name": "transferOwnership",
      "outputs": [],
      "stateMutability": "nonpayable",
      "type": "function"
    },
    {
      "inputs": [
        {
          "internalType": "address",
          "name": "",
          "type": "address"
        }
      ],
      "name": "userBuys",
      "outputs": [
        {
          "internalType": "uint256",
          "name": "",
          "type": "uint256"
        }
      ],
      "stateMutability": "view",
      "type": "function"
    }
  ],
  "bytecode": "0x608060405234801561001057600080fd5b506124ba806100206000396000f3fe60806040526004361061020e5760003560e01c80636da612d811610118578063b8358715116100a0578063c87b56dd1161006f578063c87b56dd1461060e578063d6ffd7a71461062e578063d96a094a14610648578063e985e9c51461065b578063f2fde38b146106a457600080fd5b8063b835871514610599578063b88d4fde146105ae578063c2f637dc146105ce578063c4d66de8146105ee57600080fd5b80638da5cb5b116100e75780638da5cb5b1461051057806391b7f5ed1461052e57806395d89b411461054e578063a035b1fe14610563578063a22cb4651461057957600080fd5b80636da612d8146104a557806370a08231146104bb578063715018a6146104db57806372b94bbb146104f057600080fd5b806338af3eed1161019b57806348d2df481161016a57806348d2df48146103de57806362c0be101461040b5780636352211e14610430578063690e7c09146104505780636c0360eb1461047057600080fd5b806338af3eed146103685780633bf83d03146103885780633c51199f146103a857806342842e0e146103be57600080fd5b8063081812fc116101e2578063081812fc146102b0578063095ea7b3146102e85780631969160b146103085780631c31f7101461032857806323b872dd1461034857600080fd5b80629a9b7b1461021357806301ffc9a71461023c5780630492524b1461026c57806306fdde031461028e575b600080fd5b34801561021f57600080fd5b5061022960c95481565b6040519081526020015b60405180910390f35b34801561024857600080fd5b5061025c610257366004612106565b6106c4565b6040519015158152602001610233565b34801561027857600080fd5b5061028c6102873660046120ec565b610716565b005b34801561029a57600080fd5b506102a361075c565b6040516102339190612212565b3480156102bc57600080fd5b506102d06102cb36600461213e565b6107ee565b6040516001600160a01b039091168152602001610233565b3480156102f457600080fd5b5061028c610303366004612051565b610883565b34801561031457600080fd5b5061028c61032336600461207c565b610999565b34801561033457600080fd5b5061028c610343366004611eb0565b610a2d565b34801561035457600080fd5b5061028c610363366004611f04565b610a79565b34801561037457600080fd5b5060cb546102d0906001600160a01b031681565b34801561039457600080fd5b5061028c6103a336600461213e565b610aaa565b3480156103b457600080fd5b5061022960cc5481565b3480156103ca57600080fd5b5061028c6103d9366004611f04565b610b2b565b3480156103ea57600080fd5b506102296103f9366004611eb0565b60ca6020526000908152604090205481565b34801561041757600080fd5b5060ce546102d09061010090046001600160a01b031681565b34801561043c57600080fd5b506102d061044b36600461213e565b610b46565b34801561045c57600080fd5b5061028c61046b36600461213e565b610bbd565b34801561047c57600080fd5b5060408051808201909152600c81526b697066733a2f2f697066732f60a01b60208201526102a3565b3480156104b157600080fd5b5061022961138881565b3480156104c757600080fd5b506102296104d6366004611eb0565b610c11565b3480156104e757600080fd5b5061028c610c98565b3480156104fc57600080fd5b5061028c61050b366004611eb0565b610cce565b34801561051c57600080fd5b506097546001600160a01b03166102d0565b34801561053a57600080fd5b5061028c61054936600461213e565b610d20565b34801561055a57600080fd5b506102a3610d4f565b34801561056f57600080fd5b5061022960cd5481565b34801561058557600080fd5b5061028c61059436600461201d565b610d5e565b3480156105a557600080fd5b50610229600581565b3480156105ba57600080fd5b5061028c6105c9366004611f44565b610d6d565b3480156105da57600080fd5b5061028c6105e9366004612156565b610da5565b3480156105fa57600080fd5b5061028c610609366004611eb0565b610e7f565b34801561061a57600080fd5b506102a361062936600461213e565b610fc5565b34801561063a57600080fd5b5060ce5461025c9060ff1681565b61028c61065636600461213e565b6110c1565b34801561066757600080fd5b5061025c610676366004611ecc565b6001600160a01b039182166000908152606a6020908152604080832093909416825291909152205460ff1690565b3480156106b057600080fd5b5061028c6106bf366004611eb0565b6112d7565b60006001600160e01b031982166380ac58cd60e01b14806106f557506001600160e01b03198216635b5e139f60e01b145b8061071057506301ffc9a760e01b6001600160e01b03198316145b92915050565b6097546001600160a01b031633146107495760405162461bcd60e51b815260040161074090612277565b60405180910390fd5b60ce805460ff1916911515919091179055565b60606065805461076b906123d6565b80601f0160208091040260200160405190810160405280929190818152602001828054610797906123d6565b80156107e45780601f106107b9576101008083540402835291602001916107e4565b820191906000526020600020905b8154815290600101906020018083116107c757829003601f168201915b5050505050905090565b6000818152606760205260408120546001600160a01b03166108675760405162461bcd60e51b815260206004820152602c60248201527f4552433732313a20617070726f76656420717565727920666f72206e6f6e657860448201526b34b9ba32b73a103a37b5b2b760a11b6064820152608401610740565b506000908152606960205260409020546001600160a01b031690565b600061088e82610b46565b9050806001600160a01b0316836001600160a01b031614156108fc5760405162461bcd60e51b815260206004820152602160248201527f4552433732313a20617070726f76616c20746f2063757272656e74206f776e656044820152603960f91b6064820152608401610740565b336001600160a01b038216148061091857506109188133610676565b61098a5760405162461bcd60e51b815260206004820152603860248201527f4552433732313a20617070726f76652063616c6c6572206973206e6f74206f7760448201527f6e6572206e6f7220617070726f76656420666f7220616c6c00000000000000006064820152608401610740565b610994838361136f565b505050565b60ce5460ff166109e15760405162461bcd60e51b8152602060048201526013602482015272109b1a5b99109bde0e88139bdd081cdd185c9d606a1b6044820152606401610740565b60005b8181101561099457610a1b838383818110610a0f57634e487b7160e01b600052603260045260246000fd5b905060200201356113dd565b80610a2581612411565b9150506109e4565b6097546001600160a01b03163314610a575760405162461bcd60e51b815260040161074090612277565b60cb80546001600160a01b0319166001600160a01b0392909216919091179055565b610a8333826114a9565b610a9f5760405162461bcd60e51b8152600401610740906122ac565b6109948383836115a0565b6097546001600160a01b03163314610ad45760405162461bcd60e51b815260040161074090612277565b611388811115610b265760405162461bcd60e51b815260206004820152601d60248201527f426c696e64426f783a20746f6b656e4964206d617820697320353030300000006044820152606401610740565b60cc55565b61099483838360405180602001604052806000815250610d6d565b6000818152606760205260408120546001600160a01b0316806107105760405162461bcd60e51b815260206004820152602960248201527f4552433732313a206f776e657220717565727920666f72206e6f6e657869737460448201526832b73a103a37b5b2b760b91b6064820152608401610740565b60ce5460ff16610c055760405162461bcd60e51b8152602060048201526013602482015272109b1a5b99109bde0e88139bdd081cdd185c9d606a1b6044820152606401610740565b610c0e816113dd565b50565b60006001600160a01b038216610c7c5760405162461bcd60e51b815260206004820152602a60248201527f4552433732313a2062616c616e636520717565727920666f7220746865207a65604482015269726f206164647265737360b01b6064820152608401610740565b506001600160a01b031660009081526068602052604090205490565b6097546001600160a01b03163314610cc25760405162461bcd60e51b815260040161074090612277565b610ccc6000611740565b565b6097546001600160a01b03163314610cf85760405162461bcd60e51b815260040161074090612277565b60ce80546001600160a01b0390921661010002610100600160a81b0319909216919091179055565b6097546001600160a01b03163314610d4a5760405162461bcd60e51b815260040161074090612277565b60cd55565b60606066805461076b906123d6565b610d69338383611792565b5050565b610d7733836114a9565b610d935760405162461bcd60e51b8152600401610740906122ac565b610d9f84848484611861565b50505050565b6097546001600160a01b03163314610dcf5760405162461bcd60e51b815260040161074090612277565b6113888260c954610de09190612348565b1115610e2e5760405162461bcd60e51b815260206004820152601d60248201527f426c696e64426f783a20746f6b656e4964206d617820697320353030300000006044820152606401610740565b60c9545b8260c954610e409190612348565b811015610e6357610e518282611894565b80610e5b81612411565b915050610e32565b508160c96000828254610e769190612348565b90915550505050565b600054610100900460ff16610e9a5760005460ff1615610e9e565b303b155b610f015760405162461bcd60e51b815260206004820152602e60248201527f496e697469616c697a61626c653a20636f6e747261637420697320616c72656160448201526d191e481a5b9a5d1a585b1a5e995960921b6064820152608401610740565b600054610100900460ff16158015610f23576000805461ffff19166101011790555b610f7760405180604001604052806016815260200175090dee4e6ca40a4c2c6d2dcce4084d8d2dcc84084def60531b815250604051806040016040528060048152602001632429212160e11b8152506118ae565b610f7f6118ef565b60cb80546001600160a01b0319166001600160a01b038416179055600160c955600060cc55674563918244f4000060cd558015610d69576000805461ff00191690555050565b6000818152606760205260409020546060906001600160a01b03166110445760405162461bcd60e51b815260206004820152602f60248201527f4552433732314d657461646174613a2055524920717565727920666f72206e6f60448201526e3732bc34b9ba32b73a103a37b5b2b760891b6064820152608401610740565b600061106f60408051808201909152600c81526b697066733a2f2f697066732f60a01b602082015290565b9050600081511161108f57604051806020016040528060008152506110ba565b8061109984611926565b6040516020016110aa9291906121a6565b6040516020818303038152906040525b9392505050565b3460cd54826110d09190612374565b146111285760405162461bcd60e51b815260206004820152602260248201527f426c696e64426f783a206d73672e76616c7565206973206e6f7420636f72726560448201526118dd60f21b6064820152608401610740565b60cc5460018260c95461113b9190612348565b6111459190612393565b11156111885760405162461bcd60e51b8152602060048201526012602482015271109b1a5b99109bde0e8814dbdb190813dd5d60721b6044820152606401610740565b33600090815260ca60205260409020546005906111a6908390612348565b11156111f45760405162461bcd60e51b815260206004820152601d60248201527f426c696e64426f783a2075736572206f6e6c79206275792066697665730000006044820152606401610740565b60c9545b8160c9546112069190612348565b811015611229576112173382611894565b8061122181612411565b9150506111f8565b508060c9600082825461123c9190612348565b909155505033600090815260ca602052604081208054839290611260908490612348565b909155505060cb546040516001600160a01b03909116904780156108fc02916000818181858888f1935050505015801561129e573d6000803e3d6000fd5b5060405181815233907fe3d4187f6ca4248660cc0ac8b8056515bac4a8132be2eca31d6d0cc170722a7e9060200160405180910390a250565b6097546001600160a01b031633146113015760405162461bcd60e51b815260040161074090612277565b6001600160a01b0381166113665760405162461bcd60e51b815260206004820152602660248201527f4f776e61626c653a206e6577206f776e657220697320746865207a65726f206160448201526564647265737360d01b6064820152608401610740565b610c0e81611740565b600081815260696020526040902080546001600160a01b0319166001600160a01b03841690811790915581906113a482610b46565b6001600160a01b03167f8c5be1e5ebec7d5bd14f71427d1e84f3dd0314c0f7b2291e5b200ac8c7c3b92560405160405180910390a45050565b336113e782610b46565b6001600160a01b0316146114355760405162461bcd60e51b8152602060048201526015602482015274213634b7322137bc1d103737ba10309037bbb732b960591b6044820152606401610740565b61143e81611a40565b60ce546040516340c10f1960e01b8152336004820152602481018390526101009091046001600160a01b0316906340c10f1990604401600060405180830381600087803b15801561148e57600080fd5b505af11580156114a2573d6000803e3d6000fd5b5050505050565b6000818152606760205260408120546001600160a01b03166115225760405162461bcd60e51b815260206004820152602c60248201527f4552433732313a206f70657261746f7220717565727920666f72206e6f6e657860448201526b34b9ba32b73a103a37b5b2b760a11b6064820152608401610740565b600061152d83610b46565b9050806001600160a01b0316846001600160a01b031614806115685750836001600160a01b031661155d846107ee565b6001600160a01b0316145b8061159857506001600160a01b038082166000908152606a602090815260408083209388168352929052205460ff165b949350505050565b826001600160a01b03166115b382610b46565b6001600160a01b03161461161b5760405162461bcd60e51b815260206004820152602960248201527f4552433732313a207472616e73666572206f6620746f6b656e2074686174206960448201526839903737ba1037bbb760b91b6064820152608401610740565b6001600160a01b03821661167d5760405162461bcd60e51b8152602060048201526024808201527f4552433732313a207472616e7366657220746f20746865207a65726f206164646044820152637265737360e01b6064820152608401610740565b61168860008261136f565b6001600160a01b03831660009081526068602052604081208054600192906116b1908490612393565b90915550506001600160a01b03821660009081526068602052604081208054600192906116df908490612348565b909155505060008181526067602052604080822080546001600160a01b0319166001600160a01b0386811691821790925591518493918716917fddf252ad1be2c89b69c2b068fc378daa952ba7f163c4a11628f55a4df523b3ef91a4505050565b609780546001600160a01b038381166001600160a01b0319831681179093556040519116919082907f8be0079c531659141344cd1fd0a4f28419497f9722a3daafe3b4186f6b6457e090600090a35050565b816001600160a01b0316836001600160a01b031614156117f45760405162461bcd60e51b815260206004820152601960248201527f4552433732313a20617070726f766520746f2063616c6c6572000000000000006044820152606401610740565b6001600160a01b038381166000818152606a6020908152604080832094871680845294825291829020805460ff191686151590811790915591519182527f17307eab39ab6107e8899845ad3d59bd9653f200f220920489ca2b5937696c31910160405180910390a3505050565b61186c8484846115a0565b61187884848484611adb565b610d9f5760405162461bcd60e51b815260040161074090612225565b610d69828260405180602001604052806000815250611be8565b600054610100900460ff166118d55760405162461bcd60e51b8152600401610740906122fd565b6118dd611c1b565b6118e5611c1b565b610d698282611c42565b600054610100900460ff166119165760405162461bcd60e51b8152600401610740906122fd565b61191e611c1b565b610ccc611c90565b60608161194a5750506040805180820190915260018152600360fc1b602082015290565b8160005b8115611974578061195e81612411565b915061196d9050600a83612360565b915061194e565b60008167ffffffffffffffff81111561199d57634e487b7160e01b600052604160045260246000fd5b6040519080825280601f01601f1916602001820160405280156119c7576020820181803683370190505b5090505b8415611598576119dc600183612393565b91506119e9600a8661242c565b6119f4906030612348565b60f81b818381518110611a1757634e487b7160e01b600052603260045260246000fd5b60200101906001600160f81b031916908160001a905350611a39600a86612360565b94506119cb565b6000611a4b82610b46565b9050611a5860008361136f565b6001600160a01b0381166000908152606860205260408120805460019290611a81908490612393565b909155505060008281526067602052604080822080546001600160a01b0319169055518391906001600160a01b038416907fddf252ad1be2c89b69c2b068fc378daa952ba7f163c4a11628f55a4df523b3ef908390a45050565b60006001600160a01b0384163b15611bdd57604051630a85bd0160e11b81526001600160a01b0385169063150b7a0290611b1f9033908990889088906004016121d5565b602060405180830381600087803b158015611b3957600080fd5b505af1925050508015611b69575060408051601f3d908101601f19168201909252611b6691810190612122565b60015b611bc3573d808015611b97576040519150601f19603f3d011682016040523d82523d6000602084013e611b9c565b606091505b508051611bbb5760405162461bcd60e51b815260040161074090612225565b805181602001fd5b6001600160e01b031916630a85bd0160e11b149050611598565b506001949350505050565b611bf28383611cc0565b611bff6000848484611adb565b6109945760405162461bcd60e51b815260040161074090612225565b600054610100900460ff16610ccc5760405162461bcd60e51b8152600401610740906122fd565b600054610100900460ff16611c695760405162461bcd60e51b8152600401610740906122fd565b8151611c7c906065906020850190611e02565b508051610994906066906020840190611e02565b600054610100900460ff16611cb75760405162461bcd60e51b8152600401610740906122fd565b610ccc33611740565b6001600160a01b038216611d165760405162461bcd60e51b815260206004820181905260248201527f4552433732313a206d696e7420746f20746865207a65726f20616464726573736044820152606401610740565b6000818152606760205260409020546001600160a01b031615611d7b5760405162461bcd60e51b815260206004820152601c60248201527f4552433732313a20746f6b656e20616c7265616479206d696e746564000000006044820152606401610740565b6001600160a01b0382166000908152606860205260408120805460019290611da4908490612348565b909155505060008181526067602052604080822080546001600160a01b0319166001600160a01b03861690811790915590518392907fddf252ad1be2c89b69c2b068fc378daa952ba7f163c4a11628f55a4df523b3ef908290a45050565b828054611e0e906123d6565b90600052602060002090601f016020900481019282611e305760008555611e76565b82601f10611e4957805160ff1916838001178555611e76565b82800160010185558215611e76579182015b82811115611e76578251825591602001919060010190611e5b565b50611e82929150611e86565b5090565b5b80821115611e825760008155600101611e87565b80358015158114611eab57600080fd5b919050565b600060208284031215611ec1578081fd5b81356110ba81612482565b60008060408385031215611ede578081fd5b8235611ee981612482565b91506020830135611ef981612482565b809150509250929050565b600080600060608486031215611f18578081fd5b8335611f2381612482565b92506020840135611f3381612482565b929592945050506040919091013590565b60008060008060808587031215611f59578081fd5b8435611f6481612482565b93506020850135611f7481612482565b925060408501359150606085013567ffffffffffffffff80821115611f97578283fd5b818701915087601f830112611faa578283fd5b813581811115611fbc57611fbc61246c565b604051601f8201601f19908116603f01168101908382118183101715611fe457611fe461246c565b816040528281528a6020848701011115611ffc578586fd5b82602086016020830137918201602001949094529598949750929550505050565b6000806040838503121561202f578182fd5b823561203a81612482565b915061204860208401611e9b565b90509250929050565b60008060408385031215612063578182fd5b823561206e81612482565b946020939093013593505050565b6000806020838503121561208e578182fd5b823567ffffffffffffffff808211156120a5578384fd5b818501915085601f8301126120b8578384fd5b8135818111156120c6578485fd5b8660208260051b85010111156120da578485fd5b60209290920196919550909350505050565b6000602082840312156120fd578081fd5b6110ba82611e9b565b600060208284031215612117578081fd5b81356110ba81612497565b600060208284031215612133578081fd5b81516110ba81612497565b60006020828403121561214f578081fd5b5035919050565b60008060408385031215612168578182fd5b823591506020830135611ef981612482565b600081518084526121928160208601602086016123aa565b601f01601f19169290920160200192915050565b600083516121b88184602088016123aa565b8351908301906121cc8183602088016123aa565b01949350505050565b6001600160a01b03858116825284166020820152604081018390526080606082018190526000906122089083018461217a565b9695505050505050565b6020815260006110ba602083018461217a565b60208082526032908201527f4552433732313a207472616e7366657220746f206e6f6e20455243373231526560408201527131b2b4bb32b91034b6b83632b6b2b73a32b960711b606082015260800190565b6020808252818101527f4f776e61626c653a2063616c6c6572206973206e6f7420746865206f776e6572604082015260600190565b60208082526031908201527f4552433732313a207472616e736665722063616c6c6572206973206e6f74206f6040820152701ddb995c881b9bdc88185c1c1c9bdd9959607a1b606082015260800190565b6020808252602b908201527f496e697469616c697a61626c653a20636f6e7472616374206973206e6f74206960408201526a6e697469616c697a696e6760a81b606082015260800190565b6000821982111561235b5761235b612440565b500190565b60008261236f5761236f612456565b500490565b600081600019048311821515161561238e5761238e612440565b500290565b6000828210156123a5576123a5612440565b500390565b60005b838110156123c55781810151838201526020016123ad565b83811115610d9f5750506000910152565b600181811c908216806123ea57607f821691505b6020821081141561240b57634e487b7160e01b600052602260045260246000fd5b50919050565b600060001982141561242557612425612440565b5060010190565b60008261243b5761243b612456565b500690565b634e487b7160e01b600052601160045260246000fd5b634e487b7160e01b600052601260045260246000fd5b634e487b7160e01b600052604160045260246000fd5b6001600160a01b0381168114610c0e57600080fd5b6001600160e01b031981168114610c0e57600080fdfea164736f6c6343000804000a",
  "linkReferences": {},
  "deployedLinkReferences": {}
}