{
  "address": "0x9AbBb32033a24c2f503704d8A0F20A7E4af9ABfe",
  "transactionHash": "0x52695a2d4a7c8ef989998ac2a838946614f44077866fb370907df9ae608d22c3",
  "args": [
    "0x0Fc0c315F3b38ca5a3bb7118fa689B9682eeA1E9"
  ],
  "_format": "hh-sol-artifact-1",
  "contractName": "BlindBox",
  "sourceName": "contracts/BlindBox.sol",
  "abi": [
    {
      "anonymous": false,
      "inputs": [
        {
          "indexed": true,
          "internalType": "address",
          "name": "owner",
          "type": "address"
        },
        {
          "indexed": true,
          "internalType": "address",
          "name": "approved",
          "type": "address"
        },
        {
          "indexed": true,
          "internalType": "uint256",
          "name": "tokenId",
          "type": "uint256"
        }
      ],
      "name": "Approval",
      "type": "event"
    },
    {
      "anonymous": false,
      "inputs": [
        {
          "indexed": true,
          "internalType": "address",
          "name": "owner",
          "type": "address"
        },
        {
          "indexed": true,
          "internalType": "address",
          "name": "operator",
          "type": "address"
        },
        {
          "indexed": false,
          "internalType": "bool",
          "name": "approved",
          "type": "bool"
        }
      ],
      "name": "ApprovalForAll",
      "type": "event"
    },
    {
      "anonymous": false,
      "inputs": [
        {
          "indexed": true,
          "internalType": "address",
          "name": "user",
          "type": "address"
        },
        {
          "indexed": false,
          "internalType": "uint256",
          "name": "amount",
          "type": "uint256"
        }
      ],
      "name": "Buy",
      "type": "event"
    },
    {
      "anonymous": false,
      "inputs": [
        {
          "indexed": true,
          "internalType": "address",
          "name": "previousOwner",
          "type": "address"
        },
        {
          "indexed": true,
          "internalType": "address",
          "name": "newOwner",
          "type": "address"
        }
      ],
      "name": "OwnershipTransferred",
      "type": "event"
    },
    {
      "anonymous": false,
      "inputs": [
        {
          "indexed": true,
          "internalType": "address",
          "name": "from",
          "type": "address"
        },
        {
          "indexed": true,
          "internalType": "address",
          "name": "to",
          "type": "address"
        },
        {
          "indexed": true,
          "internalType": "uint256",
          "name": "tokenId",
          "type": "uint256"
        }
      ],
      "name": "Transfer",
      "type": "event"
    },
    {
      "inputs": [],
      "name": "AMOUNT_PER_USER",
      "outputs": [
        {
          "internalType": "uint256",
          "name": "",
          "type": "uint256"
        }
      ],
      "stateMutability": "view",
      "type": "function"
    },
    {
      "inputs": [],
      "name": "MAX_TOKEN_ID",
      "outputs": [
        {
          "internalType": "uint256",
          "name": "",
          "type": "uint256"
        }
      ],
      "stateMutability": "view",
      "type": "function"
    },
    {
      "inputs": [
        {
          "components": [
            {
              "internalType": "uint256",
              "name": "price",
              "type": "uint256"
            },
            {
              "internalType": "uint256",
              "name": "solds",
              "type": "uint256"
            },
            {
              "internalType": "uint256",
              "name": "startTime",
              "type": "uint256"
            },
            {
              "internalType": "uint256",
              "name": "endTime",
              "type": "uint256"
            }
          ],
          "internalType": "struct BlindBox.Pool",
          "name": "pool",
          "type": "tuple"
        }
      ],
      "name": "addPool",
      "outputs": [],
      "stateMutability": "nonpayable",
      "type": "function"
    },
    {
      "inputs": [
        {
          "internalType": "address",
          "name": "to",
          "type": "address"
        },
        {
          "internalType": "uint256",
          "name": "tokenId",
          "type": "uint256"
        }
      ],
      "name": "approve",
      "outputs": [],
      "stateMutability": "nonpayable",
      "type": "function"
    },
    {
      "inputs": [
        {
          "internalType": "address",
          "name": "owner",
          "type": "address"
        }
      ],
      "name": "balanceOf",
      "outputs": [
        {
          "internalType": "uint256",
          "name": "",
          "type": "uint256"
        }
      ],
      "stateMutability": "view",
      "type": "function"
    },
    {
      "inputs": [],
      "name": "baseURI",
      "outputs": [
        {
          "internalType": "string",
          "name": "",
          "type": "string"
        }
      ],
      "stateMutability": "view",
      "type": "function"
    },
    {
      "inputs": [
        {
          "internalType": "uint256",
          "name": "amount",
          "type": "uint256"
        },
        {
          "internalType": "address",
          "name": "addr",
          "type": "address"
        }
      ],
      "name": "batchMint",
      "outputs": [],
      "stateMutability": "nonpayable",
      "type": "function"
    },
    {
      "inputs": [
        {
          "internalType": "uint256[]",
          "name": "tokenIds",
          "type": "uint256[]"
        }
      ],
      "name": "batchOpen",
      "outputs": [],
      "stateMutability": "nonpayable",
      "type": "function"
    },
    {
      "inputs": [
        {
          "internalType": "address[]",
          "name": "froms",
          "type": "address[]"
        },
        {
          "internalType": "address[]",
          "name": "tos",
          "type": "address[]"
        },
        {
          "internalType": "uint256[]",
          "name": "tokenIds",
          "type": "uint256[]"
        }
      ],
      "name": "batchTransferFrom",
      "outputs": [],
      "stateMutability": "nonpayable",
      "type": "function"
    },
    {
      "inputs": [],
      "name": "beneficiary",
      "outputs": [
        {
          "internalType": "address payable",
          "name": "",
          "type": "address"
        }
      ],
      "stateMutability": "view",
      "type": "function"
    },
    {
      "inputs": [
        {
          "internalType": "uint256",
          "name": "pid",
          "type": "uint256"
        },
        {
          "internalType": "uint256",
          "name": "amount",
          "type": "uint256"
        }
      ],
      "name": "buy",
      "outputs": [],
      "stateMutability": "payable",
      "type": "function"
    },
    {
      "inputs": [],
      "name": "currentTokenId",
      "outputs": [
        {
          "internalType": "uint256",
          "name": "",
          "type": "uint256"
        }
      ],
      "stateMutability": "view",
      "type": "function"
    },
    {
      "inputs": [
        {
          "internalType": "uint256",
          "name": "tokenId",
          "type": "uint256"
        }
      ],
      "name": "getApproved",
      "outputs": [
        {
          "internalType": "address",
          "name": "",
          "type": "address"
        }
      ],
      "stateMutability": "view",
      "type": "function"
    },
    {
      "inputs": [
        {
          "internalType": "uint256",
          "name": "pid",
          "type": "uint256"
        },
        {
          "internalType": "address",
          "name": "account",
          "type": "address"
        }
      ],
      "name": "getUserBuyed",
      "outputs": [
        {
          "internalType": "uint256",
          "name": "",
          "type": "uint256"
        }
      ],
      "stateMutability": "view",
      "type": "function"
    },
    {
      "inputs": [],
      "name": "horse",
      "outputs": [
        {
          "internalType": "address",
          "name": "",
          "type": "address"
        }
      ],
      "stateMutability": "view",
      "type": "function"
    },
    {
      "inputs": [
        {
          "internalType": "address payable",
          "name": "beneficiary_",
          "type": "address"
        }
      ],
      "name": "initialize",
      "outputs": [],
      "stateMutability": "nonpayable",
      "type": "function"
    },
    {
      "inputs": [
        {
          "internalType": "address",
          "name": "owner",
          "type": "address"
        },
        {
          "internalType": "address",
          "name": "operator",
          "type": "address"
        }
      ],
      "name": "isApprovedForAll",
      "outputs": [
        {
          "internalType": "bool",
          "name": "",
          "type": "bool"
        }
      ],
      "stateMutability": "view",
      "type": "function"
    },
    {
      "inputs": [],
      "name": "name",
      "outputs": [
        {
          "internalType": "string",
          "name": "",
          "type": "string"
        }
      ],
      "stateMutability": "view",
      "type": "function"
    },
    {
      "inputs": [
        {
          "internalType": "uint256",
          "name": "tokenId",
          "type": "uint256"
        }
      ],
      "name": "open",
      "outputs": [],
      "stateMutability": "nonpayable",
      "type": "function"
    },
    {
      "inputs": [],
      "name": "openStart",
      "outputs": [
        {
          "internalType": "bool",
          "name": "",
          "type": "bool"
        }
      ],
      "stateMutability": "view",
      "type": "function"
    },
    {
      "inputs": [],
      "name": "owner",
      "outputs": [
        {
          "internalType": "address",
          "name": "",
          "type": "address"
        }
      ],
      "stateMutability": "view",
      "type": "function"
    },
    {
      "inputs": [
        {
          "internalType": "uint256",
          "name": "tokenId",
          "type": "uint256"
        }
      ],
      "name": "ownerOf",
      "outputs": [
        {
          "internalType": "address",
          "name": "",
          "type": "address"
        }
      ],
      "stateMutability": "view",
      "type": "function"
    },
    {
      "inputs": [],
      "name": "poolLength",
      "outputs": [
        {
          "internalType": "uint256",
          "name": "",
          "type": "uint256"
        }
      ],
      "stateMutability": "view",
      "type": "function"
    },
    {
      "inputs": [
        {
          "internalType": "uint256",
          "name": "",
          "type": "uint256"
        }
      ],
      "name": "pools",
      "outputs": [
        {
          "internalType": "uint256",
          "name": "price",
          "type": "uint256"
        },
        {
          "internalType": "uint256",
          "name": "solds",
          "type": "uint256"
        },
        {
          "internalType": "uint256",
          "name": "startTime",
          "type": "uint256"
        },
        {
          "internalType": "uint256",
          "name": "endTime",
          "type": "uint256"
        }
      ],
      "stateMutability": "view",
      "type": "function"
    },
    {
      "inputs": [],
      "name": "price",
      "outputs": [
        {
          "internalType": "uint256",
          "name": "",
          "type": "uint256"
        }
      ],
      "stateMutability": "view",
      "type": "function"
    },
    {
      "inputs": [],
      "name": "renounceOwnership",
      "outputs": [],
      "stateMutability": "nonpayable",
      "type": "function"
    },
    {
      "inputs": [
        {
          "internalType": "address",
          "name": "from",
          "type": "address"
        },
        {
          "internalType": "address",
          "name": "to",
          "type": "address"
        },
        {
          "internalType": "uint256",
          "name": "tokenId",
          "type": "uint256"
        }
      ],
      "name": "safeTransferFrom",
      "outputs": [],
      "stateMutability": "nonpayable",
      "type": "function"
    },
    {
      "inputs": [
        {
          "internalType": "address",
          "name": "from",
          "type": "address"
        },
        {
          "internalType": "address",
          "name": "to",
          "type": "address"
        },
        {
          "internalType": "uint256",
          "name": "tokenId",
          "type": "uint256"
        },
        {
          "internalType": "bytes",
          "name": "_data",
          "type": "bytes"
        }
      ],
      "name": "safeTransferFrom",
      "outputs": [],
      "stateMutability": "nonpayable",
      "type": "function"
    },
    {
      "inputs": [
        {
          "internalType": "address",
          "name": "operator",
          "type": "address"
        },
        {
          "internalType": "bool",
          "name": "approved",
          "type": "bool"
        }
      ],
      "name": "setApprovalForAll",
      "outputs": [],
      "stateMutability": "nonpayable",
      "type": "function"
    },
    {
      "inputs": [
        {
          "internalType": "address payable",
          "name": "newBeneficiary",
          "type": "address"
        }
      ],
      "name": "setBeneficiary",
      "outputs": [],
      "stateMutability": "nonpayable",
      "type": "function"
    },
    {
      "inputs": [
        {
          "internalType": "address",
          "name": "addr",
          "type": "address"
        }
      ],
      "name": "setHorse",
      "outputs": [],
      "stateMutability": "nonpayable",
      "type": "function"
    },
    {
      "inputs": [
        {
          "internalType": "bool",
          "name": "started",
          "type": "bool"
        }
      ],
      "name": "setOpenStart",
      "outputs": [],
      "stateMutability": "nonpayable",
      "type": "function"
    },
    {
      "inputs": [
        {
          "internalType": "uint256",
          "name": "pid",
          "type": "uint256"
        },
        {
          "components": [
            {
              "internalType": "uint256",
              "name": "price",
              "type": "uint256"
            },
            {
              "internalType": "uint256",
              "name": "solds",
              "type": "uint256"
            },
            {
              "internalType": "uint256",
              "name": "startTime",
              "type": "uint256"
            },
            {
              "internalType": "uint256",
              "name": "endTime",
              "type": "uint256"
            }
          ],
          "internalType": "struct BlindBox.Pool",
          "name": "pool",
          "type": "tuple"
        }
      ],
      "name": "setPool",
      "outputs": [],
      "stateMutability": "nonpayable",
      "type": "function"
    },
    {
      "inputs": [],
      "name": "solds",
      "outputs": [
        {
          "internalType": "uint256",
          "name": "",
          "type": "uint256"
        }
      ],
      "stateMutability": "view",
      "type": "function"
    },
    {
      "inputs": [
        {
          "internalType": "bytes4",
          "name": "interfaceId",
          "type": "bytes4"
        }
      ],
      "name": "supportsInterface",
      "outputs": [
        {
          "internalType": "bool",
          "name": "",
          "type": "bool"
        }
      ],
      "stateMutability": "view",
      "type": "function"
    },
    {
      "inputs": [],
      "name": "symbol",
      "outputs": [
        {
          "internalType": "string",
          "name": "",
          "type": "string"
        }
      ],
      "stateMutability": "view",
      "type": "function"
    },
    {
      "inputs": [
        {
          "internalType": "uint256",
          "name": "tokenId",
          "type": "uint256"
        }
      ],
      "name": "tokenURI",
      "outputs": [
        {
          "internalType": "string",
          "name": "",
          "type": "string"
        }
      ],
      "stateMutability": "view",
      "type": "function"
    },
    {
      "inputs": [
        {
          "internalType": "address",
          "name": "from",
          "type": "address"
        },
        {
          "internalType": "address",
          "name": "to",
          "type": "address"
        },
        {
          "internalType": "uint256",
          "name": "tokenId",
          "type": "uint256"
        }
      ],
      "name": "transferFrom",
      "outputs": [],
      "stateMutability": "nonpayable",
      "type": "function"
    },
    {
      "inputs": [
        {
          "internalType": "address",
          "name": "newOwner",
          "type": "address"
        }
      ],
      "name": "transferOwnership",
      "outputs": [],
      "stateMutability": "nonpayable",
      "type": "function"
    },
    {
      "inputs": [
        {
          "internalType": "address",
          "name": "",
          "type": "address"
        }
      ],
      "name": "userBuys",
      "outputs": [
        {
          "internalType": "uint256",
          "name": "",
          "type": "uint256"
        }
      ],
      "stateMutability": "view",
      "type": "function"
    }
  ],
  "bytecode": "0x608060405234801561001057600080fd5b506129c3806100206000396000f3fe60806040526004361061023a5760003560e01c80636da612d81161012e578063b8358715116100ab578063d6febde81161006f578063d6febde8146106f2578063d6ffd7a714610705578063e985e9c51461071f578063f2fde38b14610768578063f5366b311461078857600080fd5b8063b83587151461065d578063b88d4fde14610672578063c2f637dc14610692578063c4d66de8146106b2578063c87b56dd146106d257600080fd5b806395d89b41116100f257806395d89b4114610590578063a035b1fe146105a5578063a22cb465146105bb578063ac4afa38146105db578063b818f9e41461063d57600080fd5b80636da612d81461050757806370a082311461051d578063715018a61461053d57806372b94bbb146105525780638da5cb5b1461057257600080fd5b806338af3eed116101bc578063521d14f511610180578063521d14f51461044d57806362c0be101461046d5780636352211e14610492578063690e7c09146104b25780636c0360eb146104d257600080fd5b806338af3eed146103aa5780633c51199f146103ca57806342842e0e146103e0578063473017f71461040057806348d2df481461042057600080fd5b8063081e3eda11610203578063081e3eda14610314578063095ea7b31461032a5780631969160b1461034a5780631c31f7101461036a57806323b872dd1461038a57600080fd5b80629a9b7b1461023f57806301ffc9a7146102685780630492524b1461029857806306fdde03146102ba578063081812fc146102dc575b600080fd5b34801561024b57600080fd5b5061025560c95481565b6040519081526020015b60405180910390f35b34801561027457600080fd5b506102886102833660046125b6565b6107a8565b604051901515815260200161025f565b3480156102a457600080fd5b506102b86102b336600461259c565b6107fa565b005b3480156102c657600080fd5b506102cf610840565b60405161025f9190612721565b3480156102e857600080fd5b506102fc6102f7366004612609565b6108d2565b6040516001600160a01b03909116815260200161025f565b34801561032057600080fd5b5061025560cf5481565b34801561033657600080fd5b506102b861034536600461249b565b610967565b34801561035657600080fd5b506102b861036536600461255c565b610a7d565b34801561037657600080fd5b506102b86103853660046122fa565b610b11565b34801561039657600080fd5b506102b86103a536600461234e565b610b5d565b3480156103b657600080fd5b5060cb546102fc906001600160a01b031681565b3480156103d657600080fd5b5061025560cc5481565b3480156103ec57600080fd5b506102b86103fb36600461234e565b610b8e565b34801561040c57600080fd5b5061025561041b366004612621565b610ba9565b34801561042c57600080fd5b5061025561043b3660046122fa565b60ca6020526000908152604090205481565b34801561045957600080fd5b506102b86104683660046125ee565b610c1c565b34801561047957600080fd5b5060ce546102fc9061010090046001600160a01b031681565b34801561049e57600080fd5b506102fc6104ad366004612609565b610ca2565b3480156104be57600080fd5b506102b86104cd366004612609565b610d19565b3480156104de57600080fd5b5060408051808201909152600c81526b697066733a2f2f697066732f60a01b60208201526102cf565b34801561051357600080fd5b5061025561138881565b34801561052957600080fd5b506102556105383660046122fa565b610d6d565b34801561054957600080fd5b506102b8610df4565b34801561055e57600080fd5b506102b861056d3660046122fa565b610e2a565b34801561057e57600080fd5b506097546001600160a01b03166102fc565b34801561059c57600080fd5b506102cf610e7c565b3480156105b157600080fd5b5061025560cd5481565b3480156105c757600080fd5b506102b86105d6366004612467565b610e8b565b3480156105e757600080fd5b5061061d6105f6366004612609565b60d06020526000908152604090208054600182015460028301546003909301549192909184565b60408051948552602085019390935291830152606082015260800161025f565b34801561064957600080fd5b506102b86106583660046124c6565b610e9a565b34801561066957600080fd5b50610255600581565b34801561067e57600080fd5b506102b861068d36600461238e565b610fd9565b34801561069e57600080fd5b506102b86106ad366004612621565b611011565b3480156106be57600080fd5b506102b86106cd3660046122fa565b6110eb565b3480156106de57600080fd5b506102cf6106ed366004612609565b611220565b6102b8610700366004612668565b61131c565b34801561071157600080fd5b5060ce546102889060ff1681565b34801561072b57600080fd5b5061028861073a366004612316565b6001600160a01b039182166000908152606a6020908152604080832093909416825291909152205460ff1690565b34801561077457600080fd5b506102b86107833660046122fa565b61165b565b34801561079457600080fd5b506102b86107a3366004612645565b6116f3565b60006001600160e01b031982166380ac58cd60e01b14806107d957506001600160e01b03198216635b5e139f60e01b145b806107f457506301ffc9a760e01b6001600160e01b03198316145b92915050565b6097546001600160a01b0316331461082d5760405162461bcd60e51b815260040161082490612786565b60405180910390fd5b60ce805460ff1916911515919091179055565b60606065805461084f906128e5565b80601f016020809104026020016040519081016040528092919081815260200182805461087b906128e5565b80156108c85780601f1061089d576101008083540402835291602001916108c8565b820191906000526020600020905b8154815290600101906020018083116108ab57829003601f168201915b5050505050905090565b6000818152606760205260408120546001600160a01b031661094b5760405162461bcd60e51b815260206004820152602c60248201527f4552433732313a20617070726f76656420717565727920666f72206e6f6e657860448201526b34b9ba32b73a103a37b5b2b760a11b6064820152608401610824565b506000908152606960205260409020546001600160a01b031690565b600061097282610ca2565b9050806001600160a01b0316836001600160a01b031614156109e05760405162461bcd60e51b815260206004820152602160248201527f4552433732313a20617070726f76616c20746f2063757272656e74206f776e656044820152603960f91b6064820152608401610824565b336001600160a01b03821614806109fc57506109fc813361073a565b610a6e5760405162461bcd60e51b815260206004820152603860248201527f4552433732313a20617070726f76652063616c6c6572206973206e6f74206f7760448201527f6e6572206e6f7220617070726f76656420666f7220616c6c00000000000000006064820152608401610824565b610a788383611758565b505050565b60ce5460ff16610ac55760405162461bcd60e51b8152602060048201526013602482015272109b1a5b99109bde0e88139bdd081cdd185c9d606a1b6044820152606401610824565b60005b81811015610a7857610aff838383818110610af357634e487b7160e01b600052603260045260246000fd5b905060200201356117c6565b80610b098161291a565b915050610ac8565b6097546001600160a01b03163314610b3b5760405162461bcd60e51b815260040161082490612786565b60cb80546001600160a01b0319166001600160a01b0392909216919091179055565b610b673382611892565b610b835760405162461bcd60e51b8152600401610824906127bb565b610a78838383611989565b610a7883838360405180602001604052806000815250610fd9565b600060cf548310610bf35760405162461bcd60e51b8152602060048201526014602482015273109b1a5b99109bde0e88195b5c1d1e481c1bdbdb60621b6044820152606401610824565b50600091825260d1602090815260408084206001600160a01b0393909316845291905290205490565b6097546001600160a01b03163314610c465760405162461bcd60e51b815260040161082490612786565b60cf54600090815260d0602052604090208190610c848282813581556020820135600182015560408201356002820155606082013560038201555050565b905050600160cf6000828254610c9a9190612857565b909155505050565b6000818152606760205260408120546001600160a01b0316806107f45760405162461bcd60e51b815260206004820152602960248201527f4552433732313a206f776e657220717565727920666f72206e6f6e657869737460448201526832b73a103a37b5b2b760b91b6064820152608401610824565b60ce5460ff16610d615760405162461bcd60e51b8152602060048201526013602482015272109b1a5b99109bde0e88139bdd081cdd185c9d606a1b6044820152606401610824565b610d6a816117c6565b50565b60006001600160a01b038216610dd85760405162461bcd60e51b815260206004820152602a60248201527f4552433732313a2062616c616e636520717565727920666f7220746865207a65604482015269726f206164647265737360b01b6064820152608401610824565b506001600160a01b031660009081526068602052604090205490565b6097546001600160a01b03163314610e1e5760405162461bcd60e51b815260040161082490612786565b610e286000611b29565b565b6097546001600160a01b03163314610e545760405162461bcd60e51b815260040161082490612786565b60ce80546001600160a01b0390921661010002610100600160a81b0319909216919091179055565b60606066805461084f906128e5565b610e96338383611b7b565b5050565b8281148015610ea857508085145b610f1a5760405162461bcd60e51b815260206004820152603960248201527f426c696e64426f783a20746f732e6c656e677468206e657120746f6b656e496460448201527f732e6c656e677468206e65712066726f6d732e6c656e677468000000000000006064820152608401610824565b60005b83811015610fd057610fbe878783818110610f4857634e487b7160e01b600052603260045260246000fd5b9050602002016020810190610f5d91906122fa565b868684818110610f7d57634e487b7160e01b600052603260045260246000fd5b9050602002016020810190610f9291906122fa565b858585818110610fb257634e487b7160e01b600052603260045260246000fd5b90506020020135610b5d565b80610fc88161291a565b915050610f1d565b50505050505050565b610fe33383611892565b610fff5760405162461bcd60e51b8152600401610824906127bb565b61100b84848484611c4a565b50505050565b6097546001600160a01b0316331461103b5760405162461bcd60e51b815260040161082490612786565b6113888260c95461104c9190612857565b111561109a5760405162461bcd60e51b815260206004820152601d60248201527f426c696e64426f783a20746f6b656e4964206d617820697320353030300000006044820152606401610824565b60c9545b8260c9546110ac9190612857565b8110156110cf576110bd8282611c7d565b806110c78161291a565b91505061109e565b508160c960008282546110e29190612857565b90915550505050565b600054610100900460ff166111065760005460ff161561110a565b303b155b61116d5760405162461bcd60e51b815260206004820152602e60248201527f496e697469616c697a61626c653a20636f6e747261637420697320616c72656160448201526d191e481a5b9a5d1a585b1a5e995960921b6064820152608401610824565b600054610100900460ff1615801561118f576000805461ffff19166101011790555b6111e360405180604001604052806016815260200175090dee4e6ca40a4c2c6d2dcce4084d8d2dcc84084def60531b815250604051806040016040528060048152602001632429212160e11b815250611c97565b6111eb611cd8565b60cb80546001600160a01b0319166001600160a01b038416179055600160c9558015610e96576000805461ff00191690555050565b6000818152606760205260409020546060906001600160a01b031661129f5760405162461bcd60e51b815260206004820152602f60248201527f4552433732314d657461646174613a2055524920717565727920666f72206e6f60448201526e3732bc34b9ba32b73a103a37b5b2b760891b6064820152608401610824565b60006112ca60408051808201909152600c81526b697066733a2f2f697066732f60a01b602082015290565b905060008151116112ea5760405180602001604052806000815250611315565b806112f484611d0f565b6040516020016113059291906126b5565b6040516020818303038152906040525b9392505050565b60cf5482106113645760405162461bcd60e51b8152602060048201526014602482015273109b1a5b99109bde0e88195b5c1d1e481c1bdbdb60621b6044820152606401610824565b600082815260d060209081526040918290208251608081018452815481526001820154928101929092526002810154928201839052600301546060820152904210156113e85760405162461bcd60e51b8152602060048201526013602482015272109b1a5b99109bde0e881b9bdd081cdd185c9d606a1b6044820152606401610824565b806060015142111561142e5760405162461bcd60e51b815260206004820152600f60248201526e109b1a5b99109bde0e88195b991959608a1b6044820152606401610824565b8051349061143c9084612883565b146114945760405162461bcd60e51b815260206004820152602260248201527f426c696e64426f783a206d73672e76616c7565206973206e6f7420636f72726560448201526118dd60f21b6064820152608401610824565b806020015160018360c9546114a99190612857565b6114b391906128a2565b11156114f65760405162461bcd60e51b8152602060048201526012602482015271109b1a5b99109bde0e8814dbdb190813dd5d60721b6044820152606401610824565b600083815260d16020908152604080832033845290915290205460059061151e908490612857565b111561156c5760405162461bcd60e51b815260206004820152601d60248201527f426c696e64426f783a2075736572206f6e6c79206275792066697665730000006044820152606401610824565b60c9545b8260c95461157e9190612857565b8110156115a15761158f3382611c7d565b806115998161291a565b915050611570565b508160c960008282546115b49190612857565b9091555050600083815260d160209081526040808320338452909152812080548492906115e2908490612857565b909155505060cb546040516001600160a01b03909116904780156108fc02916000818181858888f19350505050158015611620573d6000803e3d6000fd5b5060405182815233907fe3d4187f6ca4248660cc0ac8b8056515bac4a8132be2eca31d6d0cc170722a7e9060200160405180910390a2505050565b6097546001600160a01b031633146116855760405162461bcd60e51b815260040161082490612786565b6001600160a01b0381166116ea5760405162461bcd60e51b815260206004820152602660248201527f4f776e61626c653a206e6577206f776e657220697320746865207a65726f206160448201526564647265737360d01b6064820152608401610824565b610d6a81611b29565b6097546001600160a01b0316331461171d5760405162461bcd60e51b815260040161082490612786565b600082815260d060205260409020819061100b8282813581556020820135600182015560408201356002820155606082013560038201555050565b600081815260696020526040902080546001600160a01b0319166001600160a01b038416908117909155819061178d82610ca2565b6001600160a01b03167f8c5be1e5ebec7d5bd14f71427d1e84f3dd0314c0f7b2291e5b200ac8c7c3b92560405160405180910390a45050565b336117d082610ca2565b6001600160a01b03161461181e5760405162461bcd60e51b8152602060048201526015602482015274213634b7322137bc1d103737ba10309037bbb732b960591b6044820152606401610824565b61182781611e29565b60ce546040516340c10f1960e01b8152336004820152602481018390526101009091046001600160a01b0316906340c10f1990604401600060405180830381600087803b15801561187757600080fd5b505af115801561188b573d6000803e3d6000fd5b5050505050565b6000818152606760205260408120546001600160a01b031661190b5760405162461bcd60e51b815260206004820152602c60248201527f4552433732313a206f70657261746f7220717565727920666f72206e6f6e657860448201526b34b9ba32b73a103a37b5b2b760a11b6064820152608401610824565b600061191683610ca2565b9050806001600160a01b0316846001600160a01b031614806119515750836001600160a01b0316611946846108d2565b6001600160a01b0316145b8061198157506001600160a01b038082166000908152606a602090815260408083209388168352929052205460ff165b949350505050565b826001600160a01b031661199c82610ca2565b6001600160a01b031614611a045760405162461bcd60e51b815260206004820152602960248201527f4552433732313a207472616e73666572206f6620746f6b656e2074686174206960448201526839903737ba1037bbb760b91b6064820152608401610824565b6001600160a01b038216611a665760405162461bcd60e51b8152602060048201526024808201527f4552433732313a207472616e7366657220746f20746865207a65726f206164646044820152637265737360e01b6064820152608401610824565b611a71600082611758565b6001600160a01b0383166000908152606860205260408120805460019290611a9a9084906128a2565b90915550506001600160a01b0382166000908152606860205260408120805460019290611ac8908490612857565b909155505060008181526067602052604080822080546001600160a01b0319166001600160a01b0386811691821790925591518493918716917fddf252ad1be2c89b69c2b068fc378daa952ba7f163c4a11628f55a4df523b3ef91a4505050565b609780546001600160a01b038381166001600160a01b0319831681179093556040519116919082907f8be0079c531659141344cd1fd0a4f28419497f9722a3daafe3b4186f6b6457e090600090a35050565b816001600160a01b0316836001600160a01b03161415611bdd5760405162461bcd60e51b815260206004820152601960248201527f4552433732313a20617070726f766520746f2063616c6c6572000000000000006044820152606401610824565b6001600160a01b038381166000818152606a6020908152604080832094871680845294825291829020805460ff191686151590811790915591519182527f17307eab39ab6107e8899845ad3d59bd9653f200f220920489ca2b5937696c31910160405180910390a3505050565b611c55848484611989565b611c6184848484611ec4565b61100b5760405162461bcd60e51b815260040161082490612734565b610e96828260405180602001604052806000815250611fd1565b600054610100900460ff16611cbe5760405162461bcd60e51b81526004016108249061280c565b611cc6612004565b611cce612004565b610e96828261202b565b600054610100900460ff16611cff5760405162461bcd60e51b81526004016108249061280c565b611d07612004565b610e28612079565b606081611d335750506040805180820190915260018152600360fc1b602082015290565b8160005b8115611d5d5780611d478161291a565b9150611d569050600a8361286f565b9150611d37565b60008167ffffffffffffffff811115611d8657634e487b7160e01b600052604160045260246000fd5b6040519080825280601f01601f191660200182016040528015611db0576020820181803683370190505b5090505b841561198157611dc56001836128a2565b9150611dd2600a86612935565b611ddd906030612857565b60f81b818381518110611e0057634e487b7160e01b600052603260045260246000fd5b60200101906001600160f81b031916908160001a905350611e22600a8661286f565b9450611db4565b6000611e3482610ca2565b9050611e41600083611758565b6001600160a01b0381166000908152606860205260408120805460019290611e6a9084906128a2565b909155505060008281526067602052604080822080546001600160a01b0319169055518391906001600160a01b038416907fddf252ad1be2c89b69c2b068fc378daa952ba7f163c4a11628f55a4df523b3ef908390a45050565b60006001600160a01b0384163b15611fc657604051630a85bd0160e11b81526001600160a01b0385169063150b7a0290611f089033908990889088906004016126e4565b602060405180830381600087803b158015611f2257600080fd5b505af1925050508015611f52575060408051601f3d908101601f19168201909252611f4f918101906125d2565b60015b611fac573d808015611f80576040519150601f19603f3d011682016040523d82523d6000602084013e611f85565b606091505b508051611fa45760405162461bcd60e51b815260040161082490612734565b805181602001fd5b6001600160e01b031916630a85bd0160e11b149050611981565b506001949350505050565b611fdb83836120a9565b611fe86000848484611ec4565b610a785760405162461bcd60e51b815260040161082490612734565b600054610100900460ff16610e285760405162461bcd60e51b81526004016108249061280c565b600054610100900460ff166120525760405162461bcd60e51b81526004016108249061280c565b81516120659060659060208501906121eb565b508051610a789060669060208401906121eb565b600054610100900460ff166120a05760405162461bcd60e51b81526004016108249061280c565b610e2833611b29565b6001600160a01b0382166120ff5760405162461bcd60e51b815260206004820181905260248201527f4552433732313a206d696e7420746f20746865207a65726f20616464726573736044820152606401610824565b6000818152606760205260409020546001600160a01b0316156121645760405162461bcd60e51b815260206004820152601c60248201527f4552433732313a20746f6b656e20616c7265616479206d696e746564000000006044820152606401610824565b6001600160a01b038216600090815260686020526040812080546001929061218d908490612857565b909155505060008181526067602052604080822080546001600160a01b0319166001600160a01b03861690811790915590518392907fddf252ad1be2c89b69c2b068fc378daa952ba7f163c4a11628f55a4df523b3ef908290a45050565b8280546121f7906128e5565b90600052602060002090601f016020900481019282612219576000855561225f565b82601f1061223257805160ff191683800117855561225f565b8280016001018555821561225f579182015b8281111561225f578251825591602001919060010190612244565b5061226b92915061226f565b5090565b5b8082111561226b5760008155600101612270565b60008083601f840112612295578081fd5b50813567ffffffffffffffff8111156122ac578182fd5b6020830191508360208260051b85010111156122c757600080fd5b9250929050565b803580151581146122de57600080fd5b919050565b6000608082840312156122f4578081fd5b50919050565b60006020828403121561230b578081fd5b81356113158161298b565b60008060408385031215612328578081fd5b82356123338161298b565b915060208301356123438161298b565b809150509250929050565b600080600060608486031215612362578081fd5b833561236d8161298b565b9250602084013561237d8161298b565b929592945050506040919091013590565b600080600080608085870312156123a3578081fd5b84356123ae8161298b565b935060208501356123be8161298b565b925060408501359150606085013567ffffffffffffffff808211156123e1578283fd5b818701915087601f8301126123f4578283fd5b81358181111561240657612406612975565b604051601f8201601f19908116603f0116810190838211818310171561242e5761242e612975565b816040528281528a6020848701011115612446578586fd5b82602086016020830137918201602001949094529598949750929550505050565b60008060408385031215612479578182fd5b82356124848161298b565b9150612492602084016122ce565b90509250929050565b600080604083850312156124ad578182fd5b82356124b88161298b565b946020939093013593505050565b600080600080600080606087890312156124de578182fd5b863567ffffffffffffffff808211156124f5578384fd5b6125018a838b01612284565b90985096506020890135915080821115612519578384fd5b6125258a838b01612284565b9096509450604089013591508082111561253d578384fd5b5061254a89828a01612284565b979a9699509497509295939492505050565b6000806020838503121561256e578182fd5b823567ffffffffffffffff811115612584578283fd5b61259085828601612284565b90969095509350505050565b6000602082840312156125ad578081fd5b611315826122ce565b6000602082840312156125c7578081fd5b8135611315816129a0565b6000602082840312156125e3578081fd5b8151611315816129a0565b6000608082840312156125ff578081fd5b61131583836122e3565b60006020828403121561261a578081fd5b5035919050565b60008060408385031215612633578182fd5b8235915060208301356123438161298b565b60008060a08385031215612657578182fd5b8235915061249284602085016122e3565b6000806040838503121561267a578182fd5b50508035926020909101359150565b600081518084526126a18160208601602086016128b9565b601f01601f19169290920160200192915050565b600083516126c78184602088016128b9565b8351908301906126db8183602088016128b9565b01949350505050565b6001600160a01b038581168252841660208201526040810183905260806060820181905260009061271790830184612689565b9695505050505050565b6020815260006113156020830184612689565b60208082526032908201527f4552433732313a207472616e7366657220746f206e6f6e20455243373231526560408201527131b2b4bb32b91034b6b83632b6b2b73a32b960711b606082015260800190565b6020808252818101527f4f776e61626c653a2063616c6c6572206973206e6f7420746865206f776e6572604082015260600190565b60208082526031908201527f4552433732313a207472616e736665722063616c6c6572206973206e6f74206f6040820152701ddb995c881b9bdc88185c1c1c9bdd9959607a1b606082015260800190565b6020808252602b908201527f496e697469616c697a61626c653a20636f6e7472616374206973206e6f74206960408201526a6e697469616c697a696e6760a81b606082015260800190565b6000821982111561286a5761286a612949565b500190565b60008261287e5761287e61295f565b500490565b600081600019048311821515161561289d5761289d612949565b500290565b6000828210156128b4576128b4612949565b500390565b60005b838110156128d45781810151838201526020016128bc565b8381111561100b5750506000910152565b600181811c908216806128f957607f821691505b602082108114156122f457634e487b7160e01b600052602260045260246000fd5b600060001982141561292e5761292e612949565b5060010190565b6000826129445761294461295f565b500690565b634e487b7160e01b600052601160045260246000fd5b634e487b7160e01b600052601260045260246000fd5b634e487b7160e01b600052604160045260246000fd5b6001600160a01b0381168114610d6a57600080fd5b6001600160e01b031981168114610d6a57600080fdfea164736f6c6343000804000a",
  "linkReferences": {},
  "deployedLinkReferences": {}
}