{
  "address": "0x7F8CB68c52c26b9E5e6d0eCd48351d5Fb2F7546F",
  "transactionHash": "0x10a2b7f06fc3a8dd2b082f267d5a71b72e886f2403f516a2179d27c5b7b0785e",
  "args": [
    "0x2Dc45fFC85A43Fa14345EBB851337598fCcC7919",
    "0x66c00E4B114cE1302E31a8e97C31214148351bbd",
    "0x713967412d60fe5a38442562c98E194BAfCEae5e"
  ],
  "_format": "hh-sol-artifact-1",
  "contractName": "Game",
  "sourceName": "contracts/Game.sol",
  "abi": [
    {
      "anonymous": false,
      "inputs": [
        {
          "indexed": true,
          "internalType": "address",
          "name": "account",
          "type": "address"
        },
        {
          "components": [
            {
              "internalType": "address",
              "name": "owner",
              "type": "address"
            },
            {
              "internalType": "uint256",
              "name": "salt",
              "type": "uint256"
            },
            {
              "internalType": "uint256",
              "name": "horse1",
              "type": "uint256"
            },
            {
              "internalType": "uint256",
              "name": "horse2",
              "type": "uint256"
            },
            {
              "internalType": "uint8",
              "name": "newType",
              "type": "uint8"
            }
          ],
          "indexed": false,
          "internalType": "struct Game.BreedData",
          "name": "breedData",
          "type": "tuple"
        },
        {
          "indexed": false,
          "internalType": "uint256",
          "name": "newHorse",
          "type": "uint256"
        }
      ],
      "name": "Breed",
      "type": "event"
    },
    {
      "anonymous": false,
      "inputs": [
        {
          "indexed": true,
          "internalType": "address",
          "name": "account",
          "type": "address"
        },
        {
          "indexed": false,
          "internalType": "uint256[]",
          "name": "tokenIds",
          "type": "uint256[]"
        }
      ],
      "name": "DepositHorse",
      "type": "event"
    },
    {
      "anonymous": false,
      "inputs": [
        {
          "indexed": true,
          "internalType": "address",
          "name": "account",
          "type": "address"
        },
        {
          "indexed": false,
          "internalType": "uint256",
          "name": "value",
          "type": "uint256"
        }
      ],
      "name": "DepositHrw",
      "type": "event"
    },
    {
      "anonymous": false,
      "inputs": [
        {
          "indexed": true,
          "internalType": "address",
          "name": "account",
          "type": "address"
        },
        {
          "indexed": false,
          "internalType": "uint256",
          "name": "value",
          "type": "uint256"
        }
      ],
      "name": "DepositNative",
      "type": "event"
    },
    {
      "anonymous": false,
      "inputs": [
        {
          "indexed": true,
          "internalType": "address",
          "name": "previousOwner",
          "type": "address"
        },
        {
          "indexed": true,
          "internalType": "address",
          "name": "newOwner",
          "type": "address"
        }
      ],
      "name": "OwnershipTransferred",
      "type": "event"
    },
    {
      "anonymous": false,
      "inputs": [
        {
          "indexed": true,
          "internalType": "address",
          "name": "account",
          "type": "address"
        },
        {
          "indexed": false,
          "internalType": "uint256[]",
          "name": "tokenIds",
          "type": "uint256[]"
        }
      ],
      "name": "WithdrawHorse",
      "type": "event"
    },
    {
      "anonymous": false,
      "inputs": [
        {
          "indexed": true,
          "internalType": "address",
          "name": "account",
          "type": "address"
        },
        {
          "indexed": false,
          "internalType": "uint256",
          "name": "total",
          "type": "uint256"
        },
        {
          "indexed": false,
          "internalType": "uint256",
          "name": "amount",
          "type": "uint256"
        }
      ],
      "name": "WithdrawHrw",
      "type": "event"
    },
    {
      "anonymous": false,
      "inputs": [
        {
          "indexed": true,
          "internalType": "address",
          "name": "account",
          "type": "address"
        },
        {
          "indexed": false,
          "internalType": "uint256",
          "name": "total",
          "type": "uint256"
        },
        {
          "indexed": false,
          "internalType": "uint256",
          "name": "amount",
          "type": "uint256"
        }
      ],
      "name": "WithdrawNative",
      "type": "event"
    },
    {
      "inputs": [
        {
          "components": [
            {
              "internalType": "address",
              "name": "owner",
              "type": "address"
            },
            {
              "internalType": "uint256",
              "name": "salt",
              "type": "uint256"
            },
            {
              "internalType": "uint256",
              "name": "horse1",
              "type": "uint256"
            },
            {
              "internalType": "uint256",
              "name": "horse2",
              "type": "uint256"
            },
            {
              "internalType": "uint8",
              "name": "newType",
              "type": "uint8"
            }
          ],
          "internalType": "struct Game.BreedData",
          "name": "breedData",
          "type": "tuple"
        },
        {
          "internalType": "uint8",
          "name": "v",
          "type": "uint8"
        },
        {
          "internalType": "bytes32",
          "name": "r",
          "type": "bytes32"
        },
        {
          "internalType": "bytes32",
          "name": "s",
          "type": "bytes32"
        }
      ],
      "name": "breed",
      "outputs": [],
      "stateMutability": "nonpayable",
      "type": "function"
    },
    {
      "inputs": [
        {
          "internalType": "uint256[]",
          "name": "tokenIds",
          "type": "uint256[]"
        }
      ],
      "name": "depositHorse",
      "outputs": [],
      "stateMutability": "payable",
      "type": "function"
    },
    {
      "inputs": [
        {
          "internalType": "uint256",
          "name": "amount",
          "type": "uint256"
        }
      ],
      "name": "depositHrw",
      "outputs": [],
      "stateMutability": "payable",
      "type": "function"
    },
    {
      "inputs": [],
      "name": "depositNative",
      "outputs": [],
      "stateMutability": "payable",
      "type": "function"
    },
    {
      "inputs": [
        {
          "internalType": "address",
          "name": "_signer",
          "type": "address"
        },
        {
          "internalType": "contract IERC20Upgradeable",
          "name": "_hrw",
          "type": "address"
        },
        {
          "internalType": "contract Horse",
          "name": "_horse",
          "type": "address"
        }
      ],
      "name": "initialize",
      "outputs": [],
      "stateMutability": "nonpayable",
      "type": "function"
    },
    {
      "inputs": [
        {
          "internalType": "address",
          "name": "operator",
          "type": "address"
        },
        {
          "internalType": "address",
          "name": "from",
          "type": "address"
        },
        {
          "internalType": "uint256",
          "name": "tokenId",
          "type": "uint256"
        },
        {
          "internalType": "bytes",
          "name": "data",
          "type": "bytes"
        }
      ],
      "name": "onERC721Received",
      "outputs": [
        {
          "internalType": "bytes4",
          "name": "",
          "type": "bytes4"
        }
      ],
      "stateMutability": "pure",
      "type": "function"
    },
    {
      "inputs": [],
      "name": "owner",
      "outputs": [
        {
          "internalType": "address",
          "name": "",
          "type": "address"
        }
      ],
      "stateMutability": "view",
      "type": "function"
    },
    {
      "inputs": [],
      "name": "renounceOwnership",
      "outputs": [],
      "stateMutability": "nonpayable",
      "type": "function"
    },
    {
      "inputs": [
        {
          "internalType": "address payable",
          "name": "_beneficiary",
          "type": "address"
        }
      ],
      "name": "setBeneficiary",
      "outputs": [],
      "stateMutability": "nonpayable",
      "type": "function"
    },
    {
      "inputs": [
        {
          "internalType": "address",
          "name": "_signer",
          "type": "address"
        }
      ],
      "name": "setSigner",
      "outputs": [],
      "stateMutability": "nonpayable",
      "type": "function"
    },
    {
      "inputs": [
        {
          "internalType": "uint256",
          "name": "_fees",
          "type": "uint256"
        }
      ],
      "name": "setWithdrawFees",
      "outputs": [],
      "stateMutability": "nonpayable",
      "type": "function"
    },
    {
      "inputs": [
        {
          "internalType": "address",
          "name": "newOwner",
          "type": "address"
        }
      ],
      "name": "transferOwnership",
      "outputs": [],
      "stateMutability": "nonpayable",
      "type": "function"
    },
    {
      "inputs": [
        {
          "internalType": "address",
          "name": "",
          "type": "address"
        },
        {
          "internalType": "uint256",
          "name": "",
          "type": "uint256"
        }
      ],
      "name": "userHorse",
      "outputs": [
        {
          "internalType": "uint256",
          "name": "",
          "type": "uint256"
        }
      ],
      "stateMutability": "view",
      "type": "function"
    },
    {
      "inputs": [
        {
          "internalType": "address",
          "name": "",
          "type": "address"
        },
        {
          "internalType": "uint256",
          "name": "",
          "type": "uint256"
        }
      ],
      "name": "userHorseMapping",
      "outputs": [
        {
          "internalType": "bool",
          "name": "",
          "type": "bool"
        }
      ],
      "stateMutability": "view",
      "type": "function"
    },
    {
      "inputs": [
        {
          "internalType": "address",
          "name": "account",
          "type": "address"
        }
      ],
      "name": "userHorses",
      "outputs": [
        {
          "internalType": "uint256[]",
          "name": "",
          "type": "uint256[]"
        }
      ],
      "stateMutability": "view",
      "type": "function"
    },
    {
      "inputs": [
        {
          "internalType": "address",
          "name": "",
          "type": "address"
        }
      ],
      "name": "userHrw",
      "outputs": [
        {
          "internalType": "uint256",
          "name": "",
          "type": "uint256"
        }
      ],
      "stateMutability": "view",
      "type": "function"
    },
    {
      "inputs": [
        {
          "internalType": "address",
          "name": "",
          "type": "address"
        }
      ],
      "name": "userNative",
      "outputs": [
        {
          "internalType": "uint256",
          "name": "",
          "type": "uint256"
        }
      ],
      "stateMutability": "view",
      "type": "function"
    },
    {
      "inputs": [
        {
          "internalType": "address",
          "name": "",
          "type": "address"
        }
      ],
      "name": "userWithdrawHrw",
      "outputs": [
        {
          "internalType": "uint256",
          "name": "",
          "type": "uint256"
        }
      ],
      "stateMutability": "view",
      "type": "function"
    },
    {
      "inputs": [
        {
          "internalType": "address",
          "name": "",
          "type": "address"
        }
      ],
      "name": "userWithdrawNative",
      "outputs": [
        {
          "internalType": "uint256",
          "name": "",
          "type": "uint256"
        }
      ],
      "stateMutability": "view",
      "type": "function"
    },
    {
      "inputs": [],
      "name": "withdrawFees",
      "outputs": [
        {
          "internalType": "uint256",
          "name": "",
          "type": "uint256"
        }
      ],
      "stateMutability": "view",
      "type": "function"
    },
    {
      "inputs": [
        {
          "internalType": "uint256[]",
          "name": "tokenIds",
          "type": "uint256[]"
        },
        {
          "internalType": "uint8",
          "name": "v",
          "type": "uint8"
        },
        {
          "internalType": "bytes32",
          "name": "r",
          "type": "bytes32"
        },
        {
          "internalType": "bytes32",
          "name": "s",
          "type": "bytes32"
        }
      ],
      "name": "withdrawHorse",
      "outputs": [],
      "stateMutability": "payable",
      "type": "function"
    },
    {
      "inputs": [
        {
          "internalType": "uint256",
          "name": "value",
          "type": "uint256"
        },
        {
          "internalType": "uint8",
          "name": "v",
          "type": "uint8"
        },
        {
          "internalType": "bytes32",
          "name": "r",
          "type": "bytes32"
        },
        {
          "internalType": "bytes32",
          "name": "s",
          "type": "bytes32"
        }
      ],
      "name": "withdrawHrw",
      "outputs": [],
      "stateMutability": "nonpayable",
      "type": "function"
    },
    {
      "inputs": [
        {
          "internalType": "uint256",
          "name": "value",
          "type": "uint256"
        },
        {
          "internalType": "uint8",
          "name": "v",
          "type": "uint8"
        },
        {
          "internalType": "bytes32",
          "name": "r",
          "type": "bytes32"
        },
        {
          "internalType": "bytes32",
          "name": "s",
          "type": "bytes32"
        }
      ],
      "name": "withdrawNative",
      "outputs": [],
      "stateMutability": "nonpayable",
      "type": "function"
    }
  ],
  "bytecode": "0x608060405234801561001057600080fd5b50612797806100206000396000f3fe6080604052600436106101405760003560e01c8063715018a6116100b6578063c0c53b8b1161006f578063c0c53b8b146103ac578063ca298c4e146103cc578063db6b524614610417578063e0680aba1461041f578063e780da4a14610432578063f2fde38b1461045f57600080fd5b8063715018a6146102e25780637841135a146102f75780637af596681461030a5780638da5cb5b1461032a578063a0356ed714610352578063b757c3bd1461037f57600080fd5b8063335b726311610108578063335b726314610212578063401193821461023f578063476343ee1461026c5780635cae4765146102825780636c19e783146102a25780636e0bf24f146102c257600080fd5b806302b0b9771461014557806305d1c37114610178578063150b7a021461019a5780631c31f710146101df5780632a2a8049146101ff575b600080fd5b34801561015157600080fd5b50610165610160366004612268565b61047f565b6040519081526020015b60405180910390f35b34801561018457600080fd5b506101986101933660046123a0565b6104b0565b005b3480156101a657600080fd5b506101c66101b5366004612184565b630a85bd0160e11b95945050505050565b6040516001600160e01b0319909116815260200161016f565b3480156101eb57600080fd5b506101986101fa366004612168565b6104e8565b61019861020d3660046122d3565b610534565b34801561021e57600080fd5b5061016561022d366004612168565b606a6020526000908152604090205481565b34801561024b57600080fd5b5061016561025a366004612168565b60696020526000908152604090205481565b34801561027857600080fd5b50610165606f5481565b34801561028e57600080fd5b5061019861029d3660046123d0565b610938565b3480156102ae57600080fd5b506101986102bd366004612168565b610b9a565b3480156102ce57600080fd5b506101986102dd3660046123d0565b610be6565b3480156102ee57600080fd5b50610198610d95565b6101986103053660046123a0565b610dcb565b34801561031657600080fd5b50610198610325366004612357565b610e3f565b34801561033657600080fd5b506033546040516001600160a01b03909116815260200161016f565b34801561035e57600080fd5b5061037261036d366004612168565b6110e0565b60405161016f919061252f565b34801561038b57600080fd5b5061016561039a366004612168565b60686020526000908152604090205481565b3480156103b857600080fd5b506101986103c736600461221e565b61114c565b3480156103d857600080fd5b506104076103e7366004612268565b606d60209081526000928352604080842090915290825290205460ff1681565b604051901515815260200161016f565b61019861124d565b61019861042d366004612293565b6112a8565b34801561043e57600080fd5b5061016561044d366004612168565b606b6020526000908152604090205481565b34801561046b57600080fd5b5061019861047a366004612168565b611447565b606c602052816000526040600020818154811061049b57600080fd5b90600052602060002001600091509150505481565b6033546001600160a01b031633146104e35760405162461bcd60e51b81526004016104da906125a6565b60405180910390fd5b606f55565b6033546001600160a01b031633146105125760405162461bcd60e51b81526004016104da906125a6565b606e80546001600160a01b0319166001600160a01b0392909216919091179055565b6065546067546040516001600160a01b039283169261058e928792879287926105869261056b92339216908e908e906020016124e4565b604051602081830303815290604052805190602001206114e2565b929190611696565b6001600160a01b0316146105b45760405162461bcd60e51b81526004016104da90612626565b336000908152606c602052604090205484111561060b5760405162461bcd60e51b815260206004820152601560248201527447616d653a206c656e67746820746f6f206c6f6e6760581b60448201526064016104da565b60005b848110156107ab57336000908152606d602052604081209087878481811061064657634e487b7160e01b600052603260045260246000fd5b602090810292909201358352508101919091526040016000205460ff166106af5760405162461bcd60e51b815260206004820152601960248201527f47616d653a204e6f74206465706f73697420746f6b656e49640000000000000060448201526064016104da565b6067546001600160a01b03166342842e0e30338989868181106106e257634e487b7160e01b600052603260045260246000fd5b905060200201356040518463ffffffff1660e01b8152600401610707939291906124c0565b600060405180830381600087803b15801561072157600080fd5b505af1158015610735573d6000803e3d6000fd5b5050336000908152606d6020526040812090925090508188888581811061076c57634e487b7160e01b600052603260045260246000fd5b90506020020135815260200190815260200160002060006101000a81548160ff02191690831515021790555080806107a39061271a565b91505061060e565b50336000908152606c602090815260408083208054825181850281018501909352808352919290919083018282801561080357602002820191906000526020600020905b8154815260200190600101908083116107ef575b5050336000908152606c6020526040812094955061082694935091506120d69050565b60005b81518110156108ec57336000908152606d60205260408120835190919084908490811061086657634e487b7160e01b600052603260045260246000fd5b60209081029190910181015182528101919091526040016000205460ff16156108da57336000908152606c6020526040902082518390839081106108ba57634e487b7160e01b600052603260045260246000fd5b602090810291909101810151825460018101845560009384529190922001555b806108e48161271a565b915050610829565b50336001600160a01b03167ff5dc7afcc745765435bf72e73e0e5e1155bdf5c2c4b51e4fbd4870df6307177a878760405161092892919061251b565b60405180910390a2505050505050565b336000908152606b602052604090205484116109965760405162461bcd60e51b815260206004820152601c60248201527f47616d653a204e6f2062616c616e636520746f2077697468647261770000000060448201526064016104da565b6065546066546040516001600160a01b03928316926109cb928792879287926105869261056b92339216908d906020016124c0565b6001600160a01b0316146109f15760405162461bcd60e51b81526004016104da90612626565b336000908152606b6020526040812054610a0b90866126d7565b90506000612710606f5483610a2091906126b8565b610a2a91906126a4565b6066549091506001600160a01b031663a9059cbb33610a4984866126d7565b6040516001600160e01b031960e085901b1681526001600160a01b0390921660048301526024820152604401602060405180830381600087803b158015610a8f57600080fd5b505af1158015610aa3573d6000803e3d6000fd5b505050506040513d601f19601f82011682018060405250810190610ac79190612337565b50606654606e5460405163a9059cbb60e01b81526001600160a01b0391821660048201526024810184905291169063a9059cbb90604401602060405180830381600087803b158015610b1857600080fd5b505af1158015610b2c573d6000803e3d6000fd5b505050506040513d601f19601f82011682018060405250810190610b509190612337565b50336000818152606b602090815260409182902089905581518981529081018590527f4f10e3103b9786d93a1c6bb3d50c809f2e1e58c54c13437a26204be19b573eee9101610928565b6033546001600160a01b03163314610bc45760405162461bcd60e51b81526004016104da906125a6565b606580546001600160a01b0319166001600160a01b0392909216919091179055565b336000908152606960205260409020548411610c445760405162461bcd60e51b815260206004820152601c60248201527f47616d653a204e6f2062616c616e636520746f2077697468647261770000000060448201526064016104da565b606554604080513360208201529081018690526001600160a01b0390911690610c79908590859085906105869060600161056b565b6001600160a01b031614610c9f5760405162461bcd60e51b81526004016104da90612626565b33600090815260696020526040812054610cb990866126d7565b90506000612710606f5483610cce91906126b8565b610cd891906126a4565b9050336108fc610ce883856126d7565b6040518115909202916000818181858888f19350505050158015610d10573d6000803e3d6000fd5b50606e546040516001600160a01b039091169082156108fc029083906000818181858888f19350505050158015610d4b573d6000803e3d6000fd5b503360008181526069602090815260409182902089905581518981529081018590527f5cb35f4e7dbc40dd34f0d58cec4f5548fc47638cb46d7964e4f07c48e97e4c7d9101610928565b6033546001600160a01b03163314610dbf5760405162461bcd60e51b81526004016104da906125a6565b610dc9600061178b565b565b336000908152606a602052604081208054839290610dea90849061268c565b9091555050606654610e07906001600160a01b03163330846117dd565b60405181815233907f4b47f8a5094fae3902f2b999e63742264cc861240347b837b9275e647dcf64789060200160405180910390a250565b336000908152606d6020908152604080832087820135845290915290205460ff16610eac5760405162461bcd60e51b815260206004820152601960248201527f47616d653a207573657220686173206e6f7420686f727365310000000000000060448201526064016104da565b336000908152606d602090815260408083206060880135845290915290205460ff16610f1a5760405162461bcd60e51b815260206004820152601960248201527f47616d653a207573657220686173206e6f7420686f727365320000000000000060448201526064016104da565b6065546040516001600160a01b0390911690610f48908590859085906105869061056b908b9060200161265d565b6001600160a01b031614610f6e5760405162461bcd60e51b81526004016104da90612626565b6067546000906001600160a01b031663691562a030610f9360a0890160808a0161240a565b6040516001600160e01b031960e085901b1681526001600160a01b03909216600483015260ff166024820152604401602060405180830381600087803b158015610fdc57600080fd5b505af1158015610ff0573d6000803e3d6000fd5b505050506040513d601f19601f8201168201806040525081019061101491906123b8565b9050606c60006110276020880188612168565b6001600160a01b0316815260208082019290925260400160009081208054600181810183559183528383200184905591606d919061106790890189612168565b6001600160a01b031681526020808201929092526040908101600090812085825290925290819020805460ff1916921515929092179091555133907f4c6e2e52c121822261780959c82ac1325229fc58975e0174b57f276bcfcff269906110d19088908590612671565b60405180910390a25050505050565b6001600160a01b0381166000908152606c602090815260409182902080548351818402810184019094528084526060939283018282801561114057602002820191906000526020600020905b81548152602001906001019080831161112c575b50505050509050919050565b600054610100900460ff166111675760005460ff161561116b565b303b155b6111ce5760405162461bcd60e51b815260206004820152602e60248201527f496e697469616c697a61626c653a20636f6e747261637420697320616c72656160448201526d191e481a5b9a5d1a585b1a5e995960921b60648201526084016104da565b600054610100900460ff161580156111f0576000805461ffff19166101011790555b6111f8611835565b606580546001600160a01b038087166001600160a01b0319928316179092556066805486841690831617905560678054928516929091169190911790558015611247576000805461ff00191690555b50505050565b336000908152606860205260408120805434929061126c90849061268c565b909155505060405134815233907f1d7216e1bbc8feb9e6575a2a6166c01e5393e33a975c4f31f9612fd226b568879060200160405180910390a2565b60005b818110156113ff576067546001600160a01b03166342842e0e33308686868181106112e657634e487b7160e01b600052603260045260246000fd5b905060200201356040518463ffffffff1660e01b815260040161130b939291906124c0565b600060405180830381600087803b15801561132557600080fd5b505af1158015611339573d6000803e3d6000fd5b5050336000908152606c602052604090209150849050838381811061136e57634e487b7160e01b600052603260045260246000fd5b8354600181810186556000958652602080872093810295909501359290910191909155338452606d909252506040822090918585858181106113c057634e487b7160e01b600052603260045260246000fd5b90506020020135815260200190815260200160002060006101000a81548160ff02191690831515021790555080806113f79061271a565b9150506112ab565b50336001600160a01b03167ff84acdfc917c91b8d4bb606329b4a6944fd2aa6ba68e7cee8a3e8d0f18ebd458838360405161143b92919061251b565b60405180910390a25050565b6033546001600160a01b031633146114715760405162461bcd60e51b81526004016104da906125a6565b6001600160a01b0381166114d65760405162461bcd60e51b815260206004820152602660248201527f4f776e61626c653a206e6577206f776e657220697320746865207a65726f206160448201526564647265737360d01b60648201526084016104da565b6114df8161178b565b50565b604080518082018252601081526f181899199a1a9b1b9c1cb0b131b232b360811b6020820152815182815260608181018452926000919060208201818036833701905050905060005b602081101561168e5782600486836020811061155757634e487b7160e01b600052603260045260246000fd5b1a60f81b6001600160f81b031916901c60f81c60ff168151811061158b57634e487b7160e01b600052603260045260246000fd5b01602001516001600160f81b031916826115a68360026126b8565b815181106115c457634e487b7160e01b600052603260045260246000fd5b60200101906001600160f81b031916908160001a905350828582602081106115fc57634e487b7160e01b600052603260045260246000fd5b825191901a600f1690811061162157634e487b7160e01b600052603260045260246000fd5b01602001516001600160f81b0319168261163c8360026126b8565b61164790600161268c565b8151811061166557634e487b7160e01b600052603260045260246000fd5b60200101906001600160f81b031916908160001a905350806116868161271a565b91505061152b565b509392505050565b600080859050600061170e6040518060400160405280601a81526020017f19457468657265756d205369676e6564204d6573736167653a0a0000000000008152506116e1845161186c565b6040805160008082526020820181815282840182815260608401928352608084019094528893909161198e565b90506001818051906020012087878760405160008152602001604052604051611753949392919093845260ff9290921660208401526040830152606082015260800190565b6020604051602081039080840390855afa158015611775573d6000803e3d6000fd5b5050604051601f19015198975050505050505050565b603380546001600160a01b038381166001600160a01b0319831681179093556040519116919082907f8be0079c531659141344cd1fd0a4f28419497f9722a3daafe3b4186f6b6457e090600090a35050565b611247846323b872dd60e01b8585856040516024016117fe939291906124c0565b60408051601f198184030181529190526020810180516001600160e01b03166001600160e01b031990931692909217909152611e2e565b600054610100900460ff1661185c5760405162461bcd60e51b81526004016104da906125db565b611864611f05565b610dc9611f2c565b6060816118905750506040805180820190915260018152600360fc1b602082015290565b8160005b81156118ba57806118a48161271a565b91506118b39050600a836126a4565b9150611894565b60008167ffffffffffffffff8111156118e357634e487b7160e01b600052604160045260246000fd5b6040519080825280601f01601f19166020018201604052801561190d576020820181803683370190505b5090505b8415611986576119226001836126d7565b915061192f600a86612735565b61193a90603061268c565b60f81b81838151811061195d57634e487b7160e01b600052603260045260246000fd5b60200101906001600160f81b031916908160001a90535061197f600a866126a4565b9450611911565b949350505050565b6060600082518451865188518a518c518e516119aa919061268c565b6119b4919061268c565b6119be919061268c565b6119c8919061268c565b6119d2919061268c565b6119dc919061268c565b67ffffffffffffffff811115611a0257634e487b7160e01b600052604160045260246000fd5b6040519080825280601f01601f191660200182016040528015611a2c576020820181803683370190505b5090506000805b8a51811015611abf578a8181518110611a5c57634e487b7160e01b600052603260045260246000fd5b01602001516001600160f81b0319168383611a768161271a565b945081518110611a9657634e487b7160e01b600052603260045260246000fd5b60200101906001600160f81b031916908160001a90535080611ab78161271a565b915050611a33565b5060005b8951811015611b4f57898181518110611aec57634e487b7160e01b600052603260045260246000fd5b01602001516001600160f81b0319168383611b068161271a565b945081518110611b2657634e487b7160e01b600052603260045260246000fd5b60200101906001600160f81b031916908160001a90535080611b478161271a565b915050611ac3565b5060005b8851811015611bdf57888181518110611b7c57634e487b7160e01b600052603260045260246000fd5b01602001516001600160f81b0319168383611b968161271a565b945081518110611bb657634e487b7160e01b600052603260045260246000fd5b60200101906001600160f81b031916908160001a90535080611bd78161271a565b915050611b53565b5060005b8751811015611c6f57878181518110611c0c57634e487b7160e01b600052603260045260246000fd5b01602001516001600160f81b0319168383611c268161271a565b945081518110611c4657634e487b7160e01b600052603260045260246000fd5b60200101906001600160f81b031916908160001a90535080611c678161271a565b915050611be3565b5060005b8651811015611cff57868181518110611c9c57634e487b7160e01b600052603260045260246000fd5b01602001516001600160f81b0319168383611cb68161271a565b945081518110611cd657634e487b7160e01b600052603260045260246000fd5b60200101906001600160f81b031916908160001a90535080611cf78161271a565b915050611c73565b5060005b8551811015611d8f57858181518110611d2c57634e487b7160e01b600052603260045260246000fd5b01602001516001600160f81b0319168383611d468161271a565b945081518110611d6657634e487b7160e01b600052603260045260246000fd5b60200101906001600160f81b031916908160001a90535080611d878161271a565b915050611d03565b5060005b8451811015611e1f57848181518110611dbc57634e487b7160e01b600052603260045260246000fd5b01602001516001600160f81b0319168383611dd68161271a565b945081518110611df657634e487b7160e01b600052603260045260246000fd5b60200101906001600160f81b031916908160001a90535080611e178161271a565b915050611d93565b50909998505050505050505050565b6000611e83826040518060400160405280602081526020017f5361666545524332303a206c6f772d6c6576656c2063616c6c206661696c6564815250856001600160a01b0316611f5c9092919063ffffffff16565b805190915015611f005780806020019051810190611ea19190612337565b611f005760405162461bcd60e51b815260206004820152602a60248201527f5361666545524332303a204552433230206f7065726174696f6e20646964206e6044820152691bdd081cdd58d8d9595960b21b60648201526084016104da565b505050565b600054610100900460ff16610dc95760405162461bcd60e51b81526004016104da906125db565b600054610100900460ff16611f535760405162461bcd60e51b81526004016104da906125db565b610dc93361178b565b6060611f6b8484600085611f75565b90505b9392505050565b606082471015611fd65760405162461bcd60e51b815260206004820152602660248201527f416464726573733a20696e73756666696369656e742062616c616e636520666f6044820152651c8818d85b1b60d21b60648201526084016104da565b843b6120245760405162461bcd60e51b815260206004820152601d60248201527f416464726573733a2063616c6c20746f206e6f6e2d636f6e747261637400000060448201526064016104da565b600080866001600160a01b0316858760405161204091906124a4565b60006040518083038185875af1925050503d806000811461207d576040519150601f19603f3d011682016040523d82523d6000602084013e612082565b606091505b509150915061209282828661209d565b979650505050505050565b606083156120ac575081611f6e565b8251156120bc5782518084602001fd5b8160405162461bcd60e51b81526004016104da9190612573565b50805460008255906000526020600020908101906114df91905b8082111561210457600081556001016120f0565b5090565b60008083601f840112612119578182fd5b50813567ffffffffffffffff811115612130578182fd5b6020830191508360208260051b850101111561214b57600080fd5b9250929050565b803560ff8116811461216357600080fd5b919050565b600060208284031215612179578081fd5b8135611f6e81612775565b60008060008060006080868803121561219b578081fd5b85356121a681612775565b945060208601356121b681612775565b935060408601359250606086013567ffffffffffffffff808211156121d9578283fd5b818801915088601f8301126121ec578283fd5b8135818111156121fa578384fd5b89602082850101111561220b578384fd5b9699959850939650602001949392505050565b600080600060608486031215612232578283fd5b833561223d81612775565b9250602084013561224d81612775565b9150604084013561225d81612775565b809150509250925092565b6000806040838503121561227a578182fd5b823561228581612775565b946020939093013593505050565b600080602083850312156122a5578182fd5b823567ffffffffffffffff8111156122bb578283fd5b6122c785828601612108565b90969095509350505050565b6000806000806000608086880312156122ea578081fd5b853567ffffffffffffffff811115612300578182fd5b61230c88828901612108565b909650945061231f905060208701612152565b94979396509394604081013594506060013592915050565b600060208284031215612348578081fd5b81518015158114611f6e578182fd5b60008060008084860361010081121561236e578485fd5b60a081121561237b578485fd5b5084935061238b60a08601612152565b939693955050505060c08201359160e0013590565b6000602082840312156123b1578081fd5b5035919050565b6000602082840312156123c9578081fd5b5051919050565b600080600080608085870312156123e5578182fd5b843593506123f560208601612152565b93969395505050506040820135916060013590565b60006020828403121561241b578081fd5b611f6e82612152565b81835260006001600160fb1b0383111561243c578081fd5b8260051b80836020870137939093016020019283525090919050565b803561246381612775565b6001600160a01b0316825260208181013590830152604080820135908301526060808201359083015260ff61249a60808301612152565b1660808301525050565b600082516124b68184602087016126ee565b9190910192915050565b6001600160a01b039384168152919092166020820152604081019190915260600190565b6001600160a01b038581168252841660208201526060604082018190526000906125119083018486612424565b9695505050505050565b602081526000611f6b602083018486612424565b6020808252825182820181905260009190848201906040850190845b818110156125675783518352928401929184019160010161254b565b50909695505050505050565b60208152600082518060208401526125928160408501602087016126ee565b601f01601f19169190910160400192915050565b6020808252818101527f4f776e61626c653a2063616c6c6572206973206e6f7420746865206f776e6572604082015260600190565b6020808252602b908201527f496e697469616c697a61626c653a20636f6e7472616374206973206e6f74206960408201526a6e697469616c697a696e6760a81b606082015260800190565b6020808252601c908201527f47616d653a207369676e617475726520766572696679206572726f7200000000604082015260600190565b60a0810161266b8284612458565b92915050565b60c0810161267f8285612458565b8260a08301529392505050565b6000821982111561269f5761269f612749565b500190565b6000826126b3576126b361275f565b500490565b60008160001904831182151516156126d2576126d2612749565b500290565b6000828210156126e9576126e9612749565b500390565b60005b838110156127095781810151838201526020016126f1565b838111156112475750506000910152565b600060001982141561272e5761272e612749565b5060010190565b6000826127445761274461275f565b500690565b634e487b7160e01b600052601160045260246000fd5b634e487b7160e01b600052601260045260246000fd5b6001600160a01b03811681146114df57600080fdfea164736f6c6343000804000a",
  "linkReferences": {},
  "deployedLinkReferences": {}
}