{
  "address": "0x7F8CB68c52c26b9E5e6d0eCd48351d5Fb2F7546F",
  "transactionHash": "0x60635029876344049e562923d3cffd3d79d9b7ad8a527a1d5804a1756e518334",
  "args": [
    "0x2Dc45fFC85A43Fa14345EBB851337598fCcC7919",
    "0x66c00E4B114cE1302E31a8e97C31214148351bbd",
    "0x713967412d60fe5a38442562c98E194BAfCEae5e"
  ],
  "_format": "hh-sol-artifact-1",
  "contractName": "Game",
  "sourceName": "contracts/Game.sol",
  "abi": [
    {
      "anonymous": false,
      "inputs": [
        {
          "indexed": true,
          "internalType": "address",
          "name": "account",
          "type": "address"
        },
        {
          "components": [
            {
              "internalType": "address",
              "name": "owner",
              "type": "address"
            },
            {
              "internalType": "uint256",
              "name": "salt",
              "type": "uint256"
            },
            {
              "internalType": "uint256",
              "name": "horse1",
              "type": "uint256"
            },
            {
              "internalType": "uint256",
              "name": "horse2",
              "type": "uint256"
            },
            {
              "internalType": "uint8",
              "name": "newType",
              "type": "uint8"
            }
          ],
          "indexed": false,
          "internalType": "struct Game.BreedData",
          "name": "breedData",
          "type": "tuple"
        },
        {
          "indexed": false,
          "internalType": "uint256",
          "name": "newHorse",
          "type": "uint256"
        }
      ],
      "name": "Breed",
      "type": "event"
    },
    {
      "anonymous": false,
      "inputs": [
        {
          "indexed": true,
          "internalType": "address",
          "name": "account",
          "type": "address"
        },
        {
          "indexed": false,
          "internalType": "uint256[]",
          "name": "tokenIds",
          "type": "uint256[]"
        }
      ],
      "name": "DepositHorse",
      "type": "event"
    },
    {
      "anonymous": false,
      "inputs": [
        {
          "indexed": true,
          "internalType": "address",
          "name": "account",
          "type": "address"
        },
        {
          "indexed": false,
          "internalType": "uint256",
          "name": "value",
          "type": "uint256"
        }
      ],
      "name": "DepositHrw",
      "type": "event"
    },
    {
      "anonymous": false,
      "inputs": [
        {
          "indexed": true,
          "internalType": "address",
          "name": "account",
          "type": "address"
        },
        {
          "indexed": false,
          "internalType": "uint256",
          "name": "value",
          "type": "uint256"
        }
      ],
      "name": "DepositNative",
      "type": "event"
    },
    {
      "anonymous": false,
      "inputs": [
        {
          "indexed": true,
          "internalType": "address",
          "name": "previousOwner",
          "type": "address"
        },
        {
          "indexed": true,
          "internalType": "address",
          "name": "newOwner",
          "type": "address"
        }
      ],
      "name": "OwnershipTransferred",
      "type": "event"
    },
    {
      "anonymous": false,
      "inputs": [
        {
          "indexed": true,
          "internalType": "address",
          "name": "account",
          "type": "address"
        },
        {
          "indexed": false,
          "internalType": "uint256[]",
          "name": "tokenIds",
          "type": "uint256[]"
        }
      ],
      "name": "WithdrawHorse",
      "type": "event"
    },
    {
      "anonymous": false,
      "inputs": [
        {
          "indexed": true,
          "internalType": "address",
          "name": "account",
          "type": "address"
        },
        {
          "indexed": false,
          "internalType": "uint256",
          "name": "total",
          "type": "uint256"
        },
        {
          "indexed": false,
          "internalType": "uint256",
          "name": "amount",
          "type": "uint256"
        }
      ],
      "name": "WithdrawHrw",
      "type": "event"
    },
    {
      "anonymous": false,
      "inputs": [
        {
          "indexed": true,
          "internalType": "address",
          "name": "account",
          "type": "address"
        },
        {
          "indexed": false,
          "internalType": "uint256",
          "name": "total",
          "type": "uint256"
        },
        {
          "indexed": false,
          "internalType": "uint256",
          "name": "amount",
          "type": "uint256"
        }
      ],
      "name": "WithdrawNative",
      "type": "event"
    },
    {
      "inputs": [
        {
          "components": [
            {
              "internalType": "address",
              "name": "owner",
              "type": "address"
            },
            {
              "internalType": "uint256",
              "name": "salt",
              "type": "uint256"
            },
            {
              "internalType": "uint256",
              "name": "horse1",
              "type": "uint256"
            },
            {
              "internalType": "uint256",
              "name": "horse2",
              "type": "uint256"
            },
            {
              "internalType": "uint8",
              "name": "newType",
              "type": "uint8"
            }
          ],
          "internalType": "struct Game.BreedData",
          "name": "breedData",
          "type": "tuple"
        },
        {
          "internalType": "uint8",
          "name": "v",
          "type": "uint8"
        },
        {
          "internalType": "bytes32",
          "name": "r",
          "type": "bytes32"
        },
        {
          "internalType": "bytes32",
          "name": "s",
          "type": "bytes32"
        }
      ],
      "name": "breed",
      "outputs": [],
      "stateMutability": "nonpayable",
      "type": "function"
    },
    {
      "inputs": [
        {
          "internalType": "uint256[]",
          "name": "tokenIds",
          "type": "uint256[]"
        }
      ],
      "name": "depositHorse",
      "outputs": [],
      "stateMutability": "payable",
      "type": "function"
    },
    {
      "inputs": [
        {
          "internalType": "uint256",
          "name": "amount",
          "type": "uint256"
        }
      ],
      "name": "depositHrw",
      "outputs": [],
      "stateMutability": "payable",
      "type": "function"
    },
    {
      "inputs": [],
      "name": "depositNative",
      "outputs": [],
      "stateMutability": "payable",
      "type": "function"
    },
    {
      "inputs": [
        {
          "internalType": "address",
          "name": "_signer",
          "type": "address"
        },
        {
          "internalType": "contract IERC20Upgradeable",
          "name": "_hrw",
          "type": "address"
        },
        {
          "internalType": "contract Horse",
          "name": "_horse",
          "type": "address"
        }
      ],
      "name": "initialize",
      "outputs": [],
      "stateMutability": "nonpayable",
      "type": "function"
    },
    {
      "inputs": [
        {
          "internalType": "address",
          "name": "operator",
          "type": "address"
        },
        {
          "internalType": "address",
          "name": "from",
          "type": "address"
        },
        {
          "internalType": "uint256",
          "name": "tokenId",
          "type": "uint256"
        },
        {
          "internalType": "bytes",
          "name": "data",
          "type": "bytes"
        }
      ],
      "name": "onERC721Received",
      "outputs": [
        {
          "internalType": "bytes4",
          "name": "",
          "type": "bytes4"
        }
      ],
      "stateMutability": "pure",
      "type": "function"
    },
    {
      "inputs": [],
      "name": "owner",
      "outputs": [
        {
          "internalType": "address",
          "name": "",
          "type": "address"
        }
      ],
      "stateMutability": "view",
      "type": "function"
    },
    {
      "inputs": [],
      "name": "renounceOwnership",
      "outputs": [],
      "stateMutability": "nonpayable",
      "type": "function"
    },
    {
      "inputs": [
        {
          "internalType": "address",
          "name": "_signer",
          "type": "address"
        }
      ],
      "name": "setSigner",
      "outputs": [],
      "stateMutability": "nonpayable",
      "type": "function"
    },
    {
      "inputs": [
        {
          "internalType": "address",
          "name": "newOwner",
          "type": "address"
        }
      ],
      "name": "transferOwnership",
      "outputs": [],
      "stateMutability": "nonpayable",
      "type": "function"
    },
    {
      "inputs": [
        {
          "internalType": "address",
          "name": "",
          "type": "address"
        },
        {
          "internalType": "uint256",
          "name": "",
          "type": "uint256"
        }
      ],
      "name": "userHorse",
      "outputs": [
        {
          "internalType": "uint256",
          "name": "",
          "type": "uint256"
        }
      ],
      "stateMutability": "view",
      "type": "function"
    },
    {
      "inputs": [
        {
          "internalType": "address",
          "name": "",
          "type": "address"
        },
        {
          "internalType": "uint256",
          "name": "",
          "type": "uint256"
        }
      ],
      "name": "userHorseMapping",
      "outputs": [
        {
          "internalType": "bool",
          "name": "",
          "type": "bool"
        }
      ],
      "stateMutability": "view",
      "type": "function"
    },
    {
      "inputs": [
        {
          "internalType": "address",
          "name": "account",
          "type": "address"
        }
      ],
      "name": "userHorses",
      "outputs": [
        {
          "internalType": "uint256[]",
          "name": "",
          "type": "uint256[]"
        }
      ],
      "stateMutability": "view",
      "type": "function"
    },
    {
      "inputs": [
        {
          "internalType": "address",
          "name": "",
          "type": "address"
        }
      ],
      "name": "userHrw",
      "outputs": [
        {
          "internalType": "uint256",
          "name": "",
          "type": "uint256"
        }
      ],
      "stateMutability": "view",
      "type": "function"
    },
    {
      "inputs": [
        {
          "internalType": "address",
          "name": "",
          "type": "address"
        }
      ],
      "name": "userNative",
      "outputs": [
        {
          "internalType": "uint256",
          "name": "",
          "type": "uint256"
        }
      ],
      "stateMutability": "view",
      "type": "function"
    },
    {
      "inputs": [
        {
          "internalType": "address",
          "name": "",
          "type": "address"
        }
      ],
      "name": "userWithdrawHrw",
      "outputs": [
        {
          "internalType": "uint256",
          "name": "",
          "type": "uint256"
        }
      ],
      "stateMutability": "view",
      "type": "function"
    },
    {
      "inputs": [
        {
          "internalType": "address",
          "name": "",
          "type": "address"
        }
      ],
      "name": "userWithdrawNative",
      "outputs": [
        {
          "internalType": "uint256",
          "name": "",
          "type": "uint256"
        }
      ],
      "stateMutability": "view",
      "type": "function"
    },
    {
      "inputs": [
        {
          "internalType": "uint256[]",
          "name": "tokenIds",
          "type": "uint256[]"
        },
        {
          "internalType": "uint8",
          "name": "v",
          "type": "uint8"
        },
        {
          "internalType": "bytes32",
          "name": "r",
          "type": "bytes32"
        },
        {
          "internalType": "bytes32",
          "name": "s",
          "type": "bytes32"
        }
      ],
      "name": "withdrawHorse",
      "outputs": [],
      "stateMutability": "payable",
      "type": "function"
    },
    {
      "inputs": [
        {
          "internalType": "uint256",
          "name": "value",
          "type": "uint256"
        },
        {
          "internalType": "uint8",
          "name": "v",
          "type": "uint8"
        },
        {
          "internalType": "bytes32",
          "name": "r",
          "type": "bytes32"
        },
        {
          "internalType": "bytes32",
          "name": "s",
          "type": "bytes32"
        }
      ],
      "name": "withdrawHrw",
      "outputs": [],
      "stateMutability": "nonpayable",
      "type": "function"
    },
    {
      "inputs": [
        {
          "internalType": "uint256",
          "name": "value",
          "type": "uint256"
        },
        {
          "internalType": "uint8",
          "name": "v",
          "type": "uint8"
        },
        {
          "internalType": "bytes32",
          "name": "r",
          "type": "bytes32"
        },
        {
          "internalType": "bytes32",
          "name": "s",
          "type": "bytes32"
        }
      ],
      "name": "withdrawNative",
      "outputs": [],
      "stateMutability": "nonpayable",
      "type": "function"
    }
  ],
  "bytecode": "0x608060405234801561001057600080fd5b50612596806100206000396000f3fe60806040526004361061011f5760003560e01c80637af59668116100a0578063ca298c4e11610064578063ca298c4e14610355578063db6b5246146103a0578063e0680aba146103a8578063e780da4a146103bb578063f2fde38b146103e857600080fd5b80637af59668146102935780638da5cb5b146102b3578063a0356ed7146102db578063b757c3bd14610308578063c0c53b8b1461033557600080fd5b80635cae4765116100e75780635cae47651461020b5780636c19e7831461022b5780636e0bf24f1461024b578063715018a61461026b5780637841135a1461028057600080fd5b806302b0b97714610124578063150b7a02146101575780632a2a80491461019c578063335b7263146101b157806340119382146101de575b600080fd5b34801561013057600080fd5b5061014461013f366004612067565b610408565b6040519081526020015b60405180910390f35b34801561016357600080fd5b50610183610172366004611f83565b630a85bd0160e11b95945050505050565b6040516001600160e01b0319909116815260200161014e565b6101af6101aa3660046120d2565b610439565b005b3480156101bd57600080fd5b506101446101cc366004611f67565b606a6020526000908152604090205481565b3480156101ea57600080fd5b506101446101f9366004611f67565b60696020526000908152604090205481565b34801561021757600080fd5b506101af6102263660046121cf565b610846565b34801561023757600080fd5b506101af610246366004611f67565b610a0a565b34801561025757600080fd5b506101af6102663660046121cf565b610a56565b34801561027757600080fd5b506101af610b94565b6101af61028e36600461219f565b610bca565b34801561029f57600080fd5b506101af6102ae366004612156565b610c3e565b3480156102bf57600080fd5b506033546040516001600160a01b03909116815260200161014e565b3480156102e757600080fd5b506102fb6102f6366004611f67565b610edf565b60405161014e919061232e565b34801561031457600080fd5b50610144610323366004611f67565b60686020526000908152604090205481565b34801561034157600080fd5b506101af61035036600461201d565b610f4b565b34801561036157600080fd5b50610390610370366004612067565b606d60209081526000928352604080842090915290825290205460ff1681565b604051901515815260200161014e565b6101af61104c565b6101af6103b6366004612092565b6110a7565b3480156103c757600080fd5b506101446103d6366004611f67565b606b6020526000908152604090205481565b3480156103f457600080fd5b506101af610403366004611f67565b611246565b606c602052816000526040600020818154811061042457600080fd5b90600052602060002001600091509150505481565b6065546067546040516001600160a01b03928316926104939287928792879261048b9261047092339216908e908e906020016122e3565b604051602081830303815290604052805190602001206112e1565b929190611495565b6001600160a01b0316146104c25760405162461bcd60e51b81526004016104b990612425565b60405180910390fd5b336000908152606c60205260409020548411156105195760405162461bcd60e51b815260206004820152601560248201527447616d653a206c656e67746820746f6f206c6f6e6760581b60448201526064016104b9565b60005b848110156106b957336000908152606d602052604081209087878481811061055457634e487b7160e01b600052603260045260246000fd5b602090810292909201358352508101919091526040016000205460ff166105bd5760405162461bcd60e51b815260206004820152601960248201527f47616d653a204e6f74206465706f73697420746f6b656e49640000000000000060448201526064016104b9565b6067546001600160a01b03166342842e0e30338989868181106105f057634e487b7160e01b600052603260045260246000fd5b905060200201356040518463ffffffff1660e01b8152600401610615939291906122bf565b600060405180830381600087803b15801561062f57600080fd5b505af1158015610643573d6000803e3d6000fd5b5050336000908152606d6020526040812090925090508188888581811061067a57634e487b7160e01b600052603260045260246000fd5b90506020020135815260200190815260200160002060006101000a81548160ff02191690831515021790555080806106b190612519565b91505061051c565b50336000908152606c602090815260408083208054825181850281018501909352808352919290919083018282801561071157602002820191906000526020600020905b8154815260200190600101908083116106fd575b5050336000908152606c602052604081209495506107349493509150611ed59050565b60005b81518110156107fa57336000908152606d60205260408120835190919084908490811061077457634e487b7160e01b600052603260045260246000fd5b60209081029190910181015182528101919091526040016000205460ff16156107e857336000908152606c6020526040902082518390839081106107c857634e487b7160e01b600052603260045260246000fd5b602090810291909101810151825460018101845560009384529190922001555b806107f281612519565b915050610737565b50336001600160a01b03167ff5dc7afcc745765435bf72e73e0e5e1155bdf5c2c4b51e4fbd4870df6307177a878760405161083692919061231a565b60405180910390a2505050505050565b336000908152606b602052604090205484116108a45760405162461bcd60e51b815260206004820152601c60248201527f47616d653a204e6f2062616c616e636520746f2077697468647261770000000060448201526064016104b9565b6065546066546040516001600160a01b03928316926108d99287928792879261048b9261047092339216908d906020016122bf565b6001600160a01b0316146108ff5760405162461bcd60e51b81526004016104b990612425565b606654336000818152606b60205260409020546001600160a01b039092169163a9059cbb919061092f90886124d6565b6040516001600160e01b031960e085901b1681526001600160a01b0390921660048301526024820152604401602060405180830381600087803b15801561097557600080fd5b505af1158015610989573d6000803e3d6000fd5b505050506040513d601f19601f820116820180604052508101906109ad9190612136565b50336000818152606b602052604090208590557f4f10e3103b9786d93a1c6bb3d50c809f2e1e58c54c13437a26204be19b573eee856109ec81806124d6565b6040805192835260208301919091520160405180910390a250505050565b6033546001600160a01b03163314610a345760405162461bcd60e51b81526004016104b9906123a5565b606580546001600160a01b0319166001600160a01b0392909216919091179055565b336000908152606960205260409020548411610ab45760405162461bcd60e51b815260206004820152601c60248201527f47616d653a204e6f2062616c616e636520746f2077697468647261770000000060448201526064016104b9565b606554604080513360208201529081018690526001600160a01b0390911690610ae99085908590859061048b90606001610470565b6001600160a01b031614610b0f5760405162461bcd60e51b81526004016104b990612425565b336000818152606960205260409020546108fc90610b2d90876124d6565b6040518115909202916000818181858888f19350505050158015610b55573d6000803e3d6000fd5b503360008181526069602052604090208590557f5cb35f4e7dbc40dd34f0d58cec4f5548fc47638cb46d7964e4f07c48e97e4c7d856109ec81806124d6565b6033546001600160a01b03163314610bbe5760405162461bcd60e51b81526004016104b9906123a5565b610bc8600061158a565b565b336000908152606a602052604081208054839290610be990849061248b565b9091555050606654610c06906001600160a01b03163330846115dc565b60405181815233907f4b47f8a5094fae3902f2b999e63742264cc861240347b837b9275e647dcf64789060200160405180910390a250565b336000908152606d6020908152604080832087820135845290915290205460ff16610cab5760405162461bcd60e51b815260206004820152601960248201527f47616d653a207573657220686173206e6f7420686f727365310000000000000060448201526064016104b9565b336000908152606d602090815260408083206060880135845290915290205460ff16610d195760405162461bcd60e51b815260206004820152601960248201527f47616d653a207573657220686173206e6f7420686f727365320000000000000060448201526064016104b9565b6065546040516001600160a01b0390911690610d479085908590859061048b90610470908b9060200161245c565b6001600160a01b031614610d6d5760405162461bcd60e51b81526004016104b990612425565b6067546000906001600160a01b031663691562a030610d9260a0890160808a01612209565b6040516001600160e01b031960e085901b1681526001600160a01b03909216600483015260ff166024820152604401602060405180830381600087803b158015610ddb57600080fd5b505af1158015610def573d6000803e3d6000fd5b505050506040513d601f19601f82011682018060405250810190610e1391906121b7565b9050606c6000610e266020880188611f67565b6001600160a01b0316815260208082019290925260400160009081208054600181810183559183528383200184905591606d9190610e6690890189611f67565b6001600160a01b031681526020808201929092526040908101600090812085825290925290819020805460ff1916921515929092179091555133907f4c6e2e52c121822261780959c82ac1325229fc58975e0174b57f276bcfcff26990610ed09088908590612470565b60405180910390a25050505050565b6001600160a01b0381166000908152606c6020908152604091829020805483518184028101840190945280845260609392830182828015610f3f57602002820191906000526020600020905b815481526020019060010190808311610f2b575b50505050509050919050565b600054610100900460ff16610f665760005460ff1615610f6a565b303b155b610fcd5760405162461bcd60e51b815260206004820152602e60248201527f496e697469616c697a61626c653a20636f6e747261637420697320616c72656160448201526d191e481a5b9a5d1a585b1a5e995960921b60648201526084016104b9565b600054610100900460ff16158015610fef576000805461ffff19166101011790555b610ff7611634565b606580546001600160a01b038087166001600160a01b0319928316179092556066805486841690831617905560678054928516929091169190911790558015611046576000805461ff00191690555b50505050565b336000908152606860205260408120805434929061106b90849061248b565b909155505060405134815233907f1d7216e1bbc8feb9e6575a2a6166c01e5393e33a975c4f31f9612fd226b568879060200160405180910390a2565b60005b818110156111fe576067546001600160a01b03166342842e0e33308686868181106110e557634e487b7160e01b600052603260045260246000fd5b905060200201356040518463ffffffff1660e01b815260040161110a939291906122bf565b600060405180830381600087803b15801561112457600080fd5b505af1158015611138573d6000803e3d6000fd5b5050336000908152606c602052604090209150849050838381811061116d57634e487b7160e01b600052603260045260246000fd5b8354600181810186556000958652602080872093810295909501359290910191909155338452606d909252506040822090918585858181106111bf57634e487b7160e01b600052603260045260246000fd5b90506020020135815260200190815260200160002060006101000a81548160ff02191690831515021790555080806111f690612519565b9150506110aa565b50336001600160a01b03167ff84acdfc917c91b8d4bb606329b4a6944fd2aa6ba68e7cee8a3e8d0f18ebd458838360405161123a92919061231a565b60405180910390a25050565b6033546001600160a01b031633146112705760405162461bcd60e51b81526004016104b9906123a5565b6001600160a01b0381166112d55760405162461bcd60e51b815260206004820152602660248201527f4f776e61626c653a206e6577206f776e657220697320746865207a65726f206160448201526564647265737360d01b60648201526084016104b9565b6112de8161158a565b50565b604080518082018252601081526f181899199a1a9b1b9c1cb0b131b232b360811b6020820152815182815260608181018452926000919060208201818036833701905050905060005b602081101561148d5782600486836020811061135657634e487b7160e01b600052603260045260246000fd5b1a60f81b6001600160f81b031916901c60f81c60ff168151811061138a57634e487b7160e01b600052603260045260246000fd5b01602001516001600160f81b031916826113a58360026124b7565b815181106113c357634e487b7160e01b600052603260045260246000fd5b60200101906001600160f81b031916908160001a905350828582602081106113fb57634e487b7160e01b600052603260045260246000fd5b825191901a600f1690811061142057634e487b7160e01b600052603260045260246000fd5b01602001516001600160f81b0319168261143b8360026124b7565b61144690600161248b565b8151811061146457634e487b7160e01b600052603260045260246000fd5b60200101906001600160f81b031916908160001a9053508061148581612519565b91505061132a565b509392505050565b600080859050600061150d6040518060400160405280601a81526020017f19457468657265756d205369676e6564204d6573736167653a0a0000000000008152506114e0845161166b565b6040805160008082526020820181815282840182815260608401928352608084019094528893909161178d565b90506001818051906020012087878760405160008152602001604052604051611552949392919093845260ff9290921660208401526040830152606082015260800190565b6020604051602081039080840390855afa158015611574573d6000803e3d6000fd5b5050604051601f19015198975050505050505050565b603380546001600160a01b038381166001600160a01b0319831681179093556040519116919082907f8be0079c531659141344cd1fd0a4f28419497f9722a3daafe3b4186f6b6457e090600090a35050565b611046846323b872dd60e01b8585856040516024016115fd939291906122bf565b60408051601f198184030181529190526020810180516001600160e01b03166001600160e01b031990931692909217909152611c2d565b600054610100900460ff1661165b5760405162461bcd60e51b81526004016104b9906123da565b611663611d04565b610bc8611d2b565b60608161168f5750506040805180820190915260018152600360fc1b602082015290565b8160005b81156116b957806116a381612519565b91506116b29050600a836124a3565b9150611693565b60008167ffffffffffffffff8111156116e257634e487b7160e01b600052604160045260246000fd5b6040519080825280601f01601f19166020018201604052801561170c576020820181803683370190505b5090505b8415611785576117216001836124d6565b915061172e600a86612534565b61173990603061248b565b60f81b81838151811061175c57634e487b7160e01b600052603260045260246000fd5b60200101906001600160f81b031916908160001a90535061177e600a866124a3565b9450611710565b949350505050565b6060600082518451865188518a518c518e516117a9919061248b565b6117b3919061248b565b6117bd919061248b565b6117c7919061248b565b6117d1919061248b565b6117db919061248b565b67ffffffffffffffff81111561180157634e487b7160e01b600052604160045260246000fd5b6040519080825280601f01601f19166020018201604052801561182b576020820181803683370190505b5090506000805b8a518110156118be578a818151811061185b57634e487b7160e01b600052603260045260246000fd5b01602001516001600160f81b031916838361187581612519565b94508151811061189557634e487b7160e01b600052603260045260246000fd5b60200101906001600160f81b031916908160001a905350806118b681612519565b915050611832565b5060005b895181101561194e578981815181106118eb57634e487b7160e01b600052603260045260246000fd5b01602001516001600160f81b031916838361190581612519565b94508151811061192557634e487b7160e01b600052603260045260246000fd5b60200101906001600160f81b031916908160001a9053508061194681612519565b9150506118c2565b5060005b88518110156119de5788818151811061197b57634e487b7160e01b600052603260045260246000fd5b01602001516001600160f81b031916838361199581612519565b9450815181106119b557634e487b7160e01b600052603260045260246000fd5b60200101906001600160f81b031916908160001a905350806119d681612519565b915050611952565b5060005b8751811015611a6e57878181518110611a0b57634e487b7160e01b600052603260045260246000fd5b01602001516001600160f81b0319168383611a2581612519565b945081518110611a4557634e487b7160e01b600052603260045260246000fd5b60200101906001600160f81b031916908160001a90535080611a6681612519565b9150506119e2565b5060005b8651811015611afe57868181518110611a9b57634e487b7160e01b600052603260045260246000fd5b01602001516001600160f81b0319168383611ab581612519565b945081518110611ad557634e487b7160e01b600052603260045260246000fd5b60200101906001600160f81b031916908160001a90535080611af681612519565b915050611a72565b5060005b8551811015611b8e57858181518110611b2b57634e487b7160e01b600052603260045260246000fd5b01602001516001600160f81b0319168383611b4581612519565b945081518110611b6557634e487b7160e01b600052603260045260246000fd5b60200101906001600160f81b031916908160001a90535080611b8681612519565b915050611b02565b5060005b8451811015611c1e57848181518110611bbb57634e487b7160e01b600052603260045260246000fd5b01602001516001600160f81b0319168383611bd581612519565b945081518110611bf557634e487b7160e01b600052603260045260246000fd5b60200101906001600160f81b031916908160001a90535080611c1681612519565b915050611b92565b50909998505050505050505050565b6000611c82826040518060400160405280602081526020017f5361666545524332303a206c6f772d6c6576656c2063616c6c206661696c6564815250856001600160a01b0316611d5b9092919063ffffffff16565b805190915015611cff5780806020019051810190611ca09190612136565b611cff5760405162461bcd60e51b815260206004820152602a60248201527f5361666545524332303a204552433230206f7065726174696f6e20646964206e6044820152691bdd081cdd58d8d9595960b21b60648201526084016104b9565b505050565b600054610100900460ff16610bc85760405162461bcd60e51b81526004016104b9906123da565b600054610100900460ff16611d525760405162461bcd60e51b81526004016104b9906123da565b610bc83361158a565b6060611d6a8484600085611d74565b90505b9392505050565b606082471015611dd55760405162461bcd60e51b815260206004820152602660248201527f416464726573733a20696e73756666696369656e742062616c616e636520666f6044820152651c8818d85b1b60d21b60648201526084016104b9565b843b611e235760405162461bcd60e51b815260206004820152601d60248201527f416464726573733a2063616c6c20746f206e6f6e2d636f6e747261637400000060448201526064016104b9565b600080866001600160a01b03168587604051611e3f91906122a3565b60006040518083038185875af1925050503d8060008114611e7c576040519150601f19603f3d011682016040523d82523d6000602084013e611e81565b606091505b5091509150611e91828286611e9c565b979650505050505050565b60608315611eab575081611d6d565b825115611ebb5782518084602001fd5b8160405162461bcd60e51b81526004016104b99190612372565b50805460008255906000526020600020908101906112de91905b80821115611f035760008155600101611eef565b5090565b60008083601f840112611f18578182fd5b50813567ffffffffffffffff811115611f2f578182fd5b6020830191508360208260051b8501011115611f4a57600080fd5b9250929050565b803560ff81168114611f6257600080fd5b919050565b600060208284031215611f78578081fd5b8135611d6d81612574565b600080600080600060808688031215611f9a578081fd5b8535611fa581612574565b94506020860135611fb581612574565b935060408601359250606086013567ffffffffffffffff80821115611fd8578283fd5b818801915088601f830112611feb578283fd5b813581811115611ff9578384fd5b89602082850101111561200a578384fd5b9699959850939650602001949392505050565b600080600060608486031215612031578283fd5b833561203c81612574565b9250602084013561204c81612574565b9150604084013561205c81612574565b809150509250925092565b60008060408385031215612079578182fd5b823561208481612574565b946020939093013593505050565b600080602083850312156120a4578182fd5b823567ffffffffffffffff8111156120ba578283fd5b6120c685828601611f07565b90969095509350505050565b6000806000806000608086880312156120e9578081fd5b853567ffffffffffffffff8111156120ff578182fd5b61210b88828901611f07565b909650945061211e905060208701611f51565b94979396509394604081013594506060013592915050565b600060208284031215612147578081fd5b81518015158114611d6d578182fd5b60008060008084860361010081121561216d578485fd5b60a081121561217a578485fd5b5084935061218a60a08601611f51565b939693955050505060c08201359160e0013590565b6000602082840312156121b0578081fd5b5035919050565b6000602082840312156121c8578081fd5b5051919050565b600080600080608085870312156121e4578384fd5b843593506121f460208601611f51565b93969395505050506040820135916060013590565b60006020828403121561221a578081fd5b611d6d82611f51565b81835260006001600160fb1b0383111561223b578081fd5b8260051b80836020870137939093016020019283525090919050565b803561226281612574565b6001600160a01b0316825260208181013590830152604080820135908301526060808201359083015260ff61229960808301611f51565b1660808301525050565b600082516122b58184602087016124ed565b9190910192915050565b6001600160a01b039384168152919092166020820152604081019190915260600190565b6001600160a01b038581168252841660208201526060604082018190526000906123109083018486612223565b9695505050505050565b602081526000611d6a602083018486612223565b6020808252825182820181905260009190848201906040850190845b818110156123665783518352928401929184019160010161234a565b50909695505050505050565b60208152600082518060208401526123918160408501602087016124ed565b601f01601f19169190910160400192915050565b6020808252818101527f4f776e61626c653a2063616c6c6572206973206e6f7420746865206f776e6572604082015260600190565b6020808252602b908201527f496e697469616c697a61626c653a20636f6e7472616374206973206e6f74206960408201526a6e697469616c697a696e6760a81b606082015260800190565b6020808252601c908201527f47616d653a207369676e617475726520766572696679206572726f7200000000604082015260600190565b60a0810161246a8284612257565b92915050565b60c0810161247e8285612257565b8260a08301529392505050565b6000821982111561249e5761249e612548565b500190565b6000826124b2576124b261255e565b500490565b60008160001904831182151516156124d1576124d1612548565b500290565b6000828210156124e8576124e8612548565b500390565b60005b838110156125085781810151838201526020016124f0565b838111156110465750506000910152565b600060001982141561252d5761252d612548565b5060010190565b6000826125435761254361255e565b500690565b634e487b7160e01b600052601160045260246000fd5b634e487b7160e01b600052601260045260246000fd5b6001600160a01b03811681146112de57600080fdfea164736f6c6343000804000a",
  "linkReferences": {},
  "deployedLinkReferences": {}
}