{
  "address": "0x713967412d60fe5a38442562c98E194BAfCEae5e",
  "transactionHash": "0xe8f98dcf45a242055a419b86bafb337d2d64b4043462c66ee0bcd3d4c5e6ea84",
  "args": [],
  "_format": "hh-sol-artifact-1",
  "contractName": "Horse",
  "sourceName": "contracts/Horse.sol",
  "abi": [
    {
      "anonymous": false,
      "inputs": [
        {
          "indexed": true,
          "internalType": "address",
          "name": "owner",
          "type": "address"
        },
        {
          "indexed": true,
          "internalType": "address",
          "name": "approved",
          "type": "address"
        },
        {
          "indexed": true,
          "internalType": "uint256",
          "name": "tokenId",
          "type": "uint256"
        }
      ],
      "name": "Approval",
      "type": "event"
    },
    {
      "anonymous": false,
      "inputs": [
        {
          "indexed": true,
          "internalType": "address",
          "name": "owner",
          "type": "address"
        },
        {
          "indexed": true,
          "internalType": "address",
          "name": "operator",
          "type": "address"
        },
        {
          "indexed": false,
          "internalType": "bool",
          "name": "approved",
          "type": "bool"
        }
      ],
      "name": "ApprovalForAll",
      "type": "event"
    },
    {
      "anonymous": false,
      "inputs": [
        {
          "indexed": true,
          "internalType": "address",
          "name": "previousOwner",
          "type": "address"
        },
        {
          "indexed": true,
          "internalType": "address",
          "name": "newOwner",
          "type": "address"
        }
      ],
      "name": "OwnershipTransferred",
      "type": "event"
    },
    {
      "anonymous": false,
      "inputs": [
        {
          "indexed": true,
          "internalType": "address",
          "name": "from",
          "type": "address"
        },
        {
          "indexed": true,
          "internalType": "address",
          "name": "to",
          "type": "address"
        },
        {
          "indexed": true,
          "internalType": "uint256",
          "name": "tokenId",
          "type": "uint256"
        }
      ],
      "name": "Transfer",
      "type": "event"
    },
    {
      "inputs": [
        {
          "internalType": "address[]",
          "name": "_minters",
          "type": "address[]"
        }
      ],
      "name": "addMinters",
      "outputs": [],
      "stateMutability": "nonpayable",
      "type": "function"
    },
    {
      "inputs": [
        {
          "internalType": "address",
          "name": "to",
          "type": "address"
        },
        {
          "internalType": "uint256",
          "name": "tokenId",
          "type": "uint256"
        }
      ],
      "name": "approve",
      "outputs": [],
      "stateMutability": "nonpayable",
      "type": "function"
    },
    {
      "inputs": [
        {
          "internalType": "address",
          "name": "owner",
          "type": "address"
        }
      ],
      "name": "balanceOf",
      "outputs": [
        {
          "internalType": "uint256",
          "name": "",
          "type": "uint256"
        }
      ],
      "stateMutability": "view",
      "type": "function"
    },
    {
      "inputs": [],
      "name": "baseURI",
      "outputs": [
        {
          "internalType": "string",
          "name": "",
          "type": "string"
        }
      ],
      "stateMutability": "view",
      "type": "function"
    },
    {
      "inputs": [],
      "name": "currentTokenId",
      "outputs": [
        {
          "internalType": "uint256",
          "name": "",
          "type": "uint256"
        }
      ],
      "stateMutability": "view",
      "type": "function"
    },
    {
      "inputs": [
        {
          "internalType": "uint256",
          "name": "tokenId",
          "type": "uint256"
        }
      ],
      "name": "getApproved",
      "outputs": [
        {
          "internalType": "address",
          "name": "",
          "type": "address"
        }
      ],
      "stateMutability": "view",
      "type": "function"
    },
    {
      "inputs": [],
      "name": "initialize",
      "outputs": [],
      "stateMutability": "nonpayable",
      "type": "function"
    },
    {
      "inputs": [
        {
          "internalType": "address",
          "name": "owner",
          "type": "address"
        },
        {
          "internalType": "address",
          "name": "operator",
          "type": "address"
        }
      ],
      "name": "isApprovedForAll",
      "outputs": [
        {
          "internalType": "bool",
          "name": "",
          "type": "bool"
        }
      ],
      "stateMutability": "view",
      "type": "function"
    },
    {
      "inputs": [
        {
          "internalType": "address",
          "name": "to",
          "type": "address"
        },
        {
          "internalType": "uint8",
          "name": "_type",
          "type": "uint8"
        }
      ],
      "name": "mint",
      "outputs": [
        {
          "internalType": "uint256",
          "name": "",
          "type": "uint256"
        }
      ],
      "stateMutability": "nonpayable",
      "type": "function"
    },
    {
      "inputs": [],
      "name": "name",
      "outputs": [
        {
          "internalType": "string",
          "name": "",
          "type": "string"
        }
      ],
      "stateMutability": "view",
      "type": "function"
    },
    {
      "inputs": [],
      "name": "owner",
      "outputs": [
        {
          "internalType": "address",
          "name": "",
          "type": "address"
        }
      ],
      "stateMutability": "view",
      "type": "function"
    },
    {
      "inputs": [
        {
          "internalType": "uint256",
          "name": "tokenId",
          "type": "uint256"
        }
      ],
      "name": "ownerOf",
      "outputs": [
        {
          "internalType": "address",
          "name": "",
          "type": "address"
        }
      ],
      "stateMutability": "view",
      "type": "function"
    },
    {
      "inputs": [
        {
          "internalType": "address[]",
          "name": "_minters",
          "type": "address[]"
        }
      ],
      "name": "removeMinters",
      "outputs": [],
      "stateMutability": "nonpayable",
      "type": "function"
    },
    {
      "inputs": [],
      "name": "renounceOwnership",
      "outputs": [],
      "stateMutability": "nonpayable",
      "type": "function"
    },
    {
      "inputs": [
        {
          "internalType": "address",
          "name": "from",
          "type": "address"
        },
        {
          "internalType": "address",
          "name": "to",
          "type": "address"
        },
        {
          "internalType": "uint256",
          "name": "tokenId",
          "type": "uint256"
        }
      ],
      "name": "safeTransferFrom",
      "outputs": [],
      "stateMutability": "nonpayable",
      "type": "function"
    },
    {
      "inputs": [
        {
          "internalType": "address",
          "name": "from",
          "type": "address"
        },
        {
          "internalType": "address",
          "name": "to",
          "type": "address"
        },
        {
          "internalType": "uint256",
          "name": "tokenId",
          "type": "uint256"
        },
        {
          "internalType": "bytes",
          "name": "_data",
          "type": "bytes"
        }
      ],
      "name": "safeTransferFrom",
      "outputs": [],
      "stateMutability": "nonpayable",
      "type": "function"
    },
    {
      "inputs": [
        {
          "internalType": "address",
          "name": "operator",
          "type": "address"
        },
        {
          "internalType": "bool",
          "name": "approved",
          "type": "bool"
        }
      ],
      "name": "setApprovalForAll",
      "outputs": [],
      "stateMutability": "nonpayable",
      "type": "function"
    },
    {
      "inputs": [
        {
          "internalType": "uint256[]",
          "name": "ids",
          "type": "uint256[]"
        },
        {
          "internalType": "string[]",
          "name": "uris",
          "type": "string[]"
        }
      ],
      "name": "setTokenURIs",
      "outputs": [],
      "stateMutability": "nonpayable",
      "type": "function"
    },
    {
      "inputs": [
        {
          "internalType": "bytes4",
          "name": "interfaceId",
          "type": "bytes4"
        }
      ],
      "name": "supportsInterface",
      "outputs": [
        {
          "internalType": "bool",
          "name": "",
          "type": "bool"
        }
      ],
      "stateMutability": "view",
      "type": "function"
    },
    {
      "inputs": [],
      "name": "symbol",
      "outputs": [
        {
          "internalType": "string",
          "name": "",
          "type": "string"
        }
      ],
      "stateMutability": "view",
      "type": "function"
    },
    {
      "inputs": [
        {
          "internalType": "uint256",
          "name": "tokenId",
          "type": "uint256"
        }
      ],
      "name": "tokenURI",
      "outputs": [
        {
          "internalType": "string",
          "name": "",
          "type": "string"
        }
      ],
      "stateMutability": "view",
      "type": "function"
    },
    {
      "inputs": [
        {
          "internalType": "address",
          "name": "from",
          "type": "address"
        },
        {
          "internalType": "address",
          "name": "to",
          "type": "address"
        },
        {
          "internalType": "uint256",
          "name": "tokenId",
          "type": "uint256"
        }
      ],
      "name": "transferFrom",
      "outputs": [],
      "stateMutability": "nonpayable",
      "type": "function"
    },
    {
      "inputs": [
        {
          "internalType": "address",
          "name": "newOwner",
          "type": "address"
        }
      ],
      "name": "transferOwnership",
      "outputs": [],
      "stateMutability": "nonpayable",
      "type": "function"
    },
    {
      "inputs": [
        {
          "internalType": "uint256",
          "name": "tokenId",
          "type": "uint256"
        }
      ],
      "name": "types",
      "outputs": [
        {
          "internalType": "uint8",
          "name": "",
          "type": "uint8"
        }
      ],
      "stateMutability": "view",
      "type": "function"
    }
  ],
  "bytecode": "0x608060405234801561001057600080fd5b50611da6806100206000396000f3fe608060405234801561001057600080fd5b50600436106101575760003560e01c8063715018a6116100c3578063b88d4fde1161007c578063b88d4fde146102d9578063c87b56dd146102ec578063cefbfa36146102ff578063db3e4c8414610324578063e985e9c514610337578063f2fde38b1461037357600080fd5b8063715018a61461028a57806371e2a657146102925780638129fc1c146102a55780638da5cb5b146102ad57806395d89b41146102be578063a22cb465146102c657600080fd5b806342842e0e1161011557806342842e0e146102035780635fc1964f146102165780636352211e14610229578063691562a01461023c5780636c0360eb1461024f57806370a082311461027757600080fd5b80629a9b7b1461015c57806301ffc9a71461017857806306fdde031461019b578063081812fc146101b0578063095ea7b3146101db57806323b872dd146101f0575b600080fd5b61016560cc5481565b6040519081526020015b60405180910390f35b61018b610186366004611a7f565b610386565b604051901515815260200161016f565b6101a36103d8565b60405161016f9190611b57565b6101c36101be366004611ab7565b61046a565b6040516001600160a01b03909116815260200161016f565b6101ee6101e936600461197d565b610504565b005b6101ee6101fe366004611833565b61061a565b6101ee610211366004611833565b61064b565b6101ee6102243660046119d6565b610666565b6101c3610237366004611ab7565b610710565b61016561024a3660046119a6565b610787565b60408051808201909152600c81526b697066733a2f2f697066732f60a01b60208201526101a3565b6101656102853660046117e0565b610839565b6101ee6108c0565b6101ee6102a03660046119d6565b6108f6565b6101ee6109a0565b6097546001600160a01b03166101c3565b6101a3610aa5565b6101ee6102d4366004611943565b610ab4565b6101ee6102e736600461186e565b610ac3565b6101a36102fa366004611ab7565b610afb565b61031261030d366004611ab7565b610c18565b60405160ff909116815260200161016f565b6101ee610332366004611a16565b610ca3565b61018b610345366004611801565b6001600160a01b039182166000908152606a6020908152604080832093909416825291909152205460ff1690565b6101ee6103813660046117e0565b610dc3565b60006001600160e01b031982166380ac58cd60e01b14806103b757506001600160e01b03198216635b5e139f60e01b145b806103d257506301ffc9a760e01b6001600160e01b03198316145b92915050565b6060606580546103e790611d01565b80601f016020809104026020016040519081016040528092919081815260200182805461041390611d01565b80156104605780601f1061043557610100808354040283529160200191610460565b820191906000526020600020905b81548152906001019060200180831161044357829003601f168201915b5050505050905090565b6000818152606760205260408120546001600160a01b03166104e85760405162461bcd60e51b815260206004820152602c60248201527f4552433732313a20617070726f76656420717565727920666f72206e6f6e657860448201526b34b9ba32b73a103a37b5b2b760a11b60648201526084015b60405180910390fd5b506000908152606960205260409020546001600160a01b031690565b600061050f82610710565b9050806001600160a01b0316836001600160a01b0316141561057d5760405162461bcd60e51b815260206004820152602160248201527f4552433732313a20617070726f76616c20746f2063757272656e74206f776e656044820152603960f91b60648201526084016104df565b336001600160a01b038216148061059957506105998133610345565b61060b5760405162461bcd60e51b815260206004820152603860248201527f4552433732313a20617070726f76652063616c6c6572206973206e6f74206f7760448201527f6e6572206e6f7220617070726f76656420666f7220616c6c000000000000000060648201526084016104df565b6106158383610e5b565b505050565b6106243382610ec9565b6106405760405162461bcd60e51b81526004016104df90611bf1565b610615838383610fc0565b61061583838360405180602001604052806000815250610ac3565b6097546001600160a01b031633146106905760405162461bcd60e51b81526004016104df90611bbc565b60005b8181101561061557600060c960008585858181106106c157634e487b7160e01b600052603260045260246000fd5b90506020020160208101906106d691906117e0565b6001600160a01b031681526020810191909152604001600020805460ff19169115159190911790558061070881611d3c565b915050610693565b6000818152606760205260408120546001600160a01b0316806103d25760405162461bcd60e51b815260206004820152602960248201527f4552433732313a206f776e657220717565727920666f72206e6f6e657869737460448201526832b73a103a37b5b2b760b91b60648201526084016104df565b33600090815260c9602052604081205460ff166107e65760405162461bcd60e51b815260206004820152601760248201527f486f7273653a204f6e6c79206d696e7465722063616c6c00000000000000000060448201526064016104df565b600060cc5460016107f79190611cd2565b90506108038482611160565b600081815260cb60205260408120805460ff191660ff861617905560cc80549161082c83611d3c565b9091555090949350505050565b60006001600160a01b0382166108a45760405162461bcd60e51b815260206004820152602a60248201527f4552433732313a2062616c616e636520717565727920666f7220746865207a65604482015269726f206164647265737360b01b60648201526084016104df565b506001600160a01b031660009081526068602052604090205490565b6097546001600160a01b031633146108ea5760405162461bcd60e51b81526004016104df90611bbc565b6108f4600061117a565b565b6097546001600160a01b031633146109205760405162461bcd60e51b81526004016104df90611bbc565b60005b8181101561061557600160c9600085858581811061095157634e487b7160e01b600052603260045260246000fd5b905060200201602081019061096691906117e0565b6001600160a01b031681526020810191909152604001600020805460ff19169115159190911790558061099881611d3c565b915050610923565b600054610100900460ff166109bb5760005460ff16156109bf565b303b155b610a225760405162461bcd60e51b815260206004820152602e60248201527f496e697469616c697a61626c653a20636f6e747261637420697320616c72656160448201526d191e481a5b9a5d1a585b1a5e995960921b60648201526084016104df565b600054610100900460ff16158015610a44576000805461ffff19166101011790555b610a8860405180604001604052806005815260200164486f72736560d81b81525060405180604001604052806005815260200164486f72736560d81b8152506111cc565b610a9061120d565b8015610aa2576000805461ff00191690555b50565b6060606680546103e790611d01565b610abf338383611244565b5050565b610acd3383610ec9565b610ae95760405162461bcd60e51b81526004016104df90611bf1565b610af584848484611313565b50505050565b6000818152606760205260409020546060906001600160a01b0316610b7a5760405162461bcd60e51b815260206004820152602f60248201527f4552433732314d657461646174613a2055524920717565727920666f72206e6f60448201526e3732bc34b9ba32b73a103a37b5b2b760891b60648201526084016104df565b600082815260ca602052604090208054610b9390611d01565b80601f0160208091040260200160405190810160405280929190818152602001828054610bbf90611d01565b8015610c0c5780601f10610be157610100808354040283529160200191610c0c565b820191906000526020600020905b815481529060010190602001808311610bef57829003601f168201915b50505050509050919050565b6000818152606760205260408120546001600160a01b0316610c8d5760405162461bcd60e51b815260206004820152602860248201527f486f7273653a20747970657320717565727920666f72206e6f6e657869737465604482015267373a103a37b5b2b760c11b60648201526084016104df565b50600090815260cb602052604090205460ff1690565b6097546001600160a01b03163314610ccd5760405162461bcd60e51b81526004016104df90611bbc565b828114610d265760405162461bcd60e51b815260206004820152602160248201527f486f7273653a206964732e6c656e677468206e657120757269732e6c656e67746044820152600d60fb1b60648201526084016104df565b60005b83811015610dbc57828282818110610d5157634e487b7160e01b600052603260045260246000fd5b9050602002810190610d639190611c8d565b60ca6000888886818110610d8757634e487b7160e01b600052603260045260246000fd5b9050602002013581526020019081526020016000209190610da992919061166d565b5080610db481611d3c565b915050610d29565b5050505050565b6097546001600160a01b03163314610ded5760405162461bcd60e51b81526004016104df90611bbc565b6001600160a01b038116610e525760405162461bcd60e51b815260206004820152602660248201527f4f776e61626c653a206e6577206f776e657220697320746865207a65726f206160448201526564647265737360d01b60648201526084016104df565b610aa28161117a565b600081815260696020526040902080546001600160a01b0319166001600160a01b0384169081179091558190610e9082610710565b6001600160a01b03167f8c5be1e5ebec7d5bd14f71427d1e84f3dd0314c0f7b2291e5b200ac8c7c3b92560405160405180910390a45050565b6000818152606760205260408120546001600160a01b0316610f425760405162461bcd60e51b815260206004820152602c60248201527f4552433732313a206f70657261746f7220717565727920666f72206e6f6e657860448201526b34b9ba32b73a103a37b5b2b760a11b60648201526084016104df565b6000610f4d83610710565b9050806001600160a01b0316846001600160a01b03161480610f885750836001600160a01b0316610f7d8461046a565b6001600160a01b0316145b80610fb857506001600160a01b038082166000908152606a602090815260408083209388168352929052205460ff165b949350505050565b826001600160a01b0316610fd382610710565b6001600160a01b03161461103b5760405162461bcd60e51b815260206004820152602960248201527f4552433732313a207472616e73666572206f6620746f6b656e2074686174206960448201526839903737ba1037bbb760b91b60648201526084016104df565b6001600160a01b03821661109d5760405162461bcd60e51b8152602060048201526024808201527f4552433732313a207472616e7366657220746f20746865207a65726f206164646044820152637265737360e01b60648201526084016104df565b6110a8600082610e5b565b6001600160a01b03831660009081526068602052604081208054600192906110d1908490611cea565b90915550506001600160a01b03821660009081526068602052604081208054600192906110ff908490611cd2565b909155505060008181526067602052604080822080546001600160a01b0319166001600160a01b0386811691821790925591518493918716917fddf252ad1be2c89b69c2b068fc378daa952ba7f163c4a11628f55a4df523b3ef91a4505050565b610abf828260405180602001604052806000815250611346565b609780546001600160a01b038381166001600160a01b0319831681179093556040519116919082907f8be0079c531659141344cd1fd0a4f28419497f9722a3daafe3b4186f6b6457e090600090a35050565b600054610100900460ff166111f35760405162461bcd60e51b81526004016104df90611c42565b6111fb611379565b611203611379565b610abf82826113a0565b600054610100900460ff166112345760405162461bcd60e51b81526004016104df90611c42565b61123c611379565b6108f46113ee565b816001600160a01b0316836001600160a01b031614156112a65760405162461bcd60e51b815260206004820152601960248201527f4552433732313a20617070726f766520746f2063616c6c65720000000000000060448201526064016104df565b6001600160a01b038381166000818152606a6020908152604080832094871680845294825291829020805460ff191686151590811790915591519182527f17307eab39ab6107e8899845ad3d59bd9653f200f220920489ca2b5937696c31910160405180910390a3505050565b61131e848484610fc0565b61132a8484848461141e565b610af55760405162461bcd60e51b81526004016104df90611b6a565b611350838361152b565b61135d600084848461141e565b6106155760405162461bcd60e51b81526004016104df90611b6a565b600054610100900460ff166108f45760405162461bcd60e51b81526004016104df90611c42565b600054610100900460ff166113c75760405162461bcd60e51b81526004016104df90611c42565b81516113da9060659060208501906116f1565b5080516106159060669060208401906116f1565b600054610100900460ff166114155760405162461bcd60e51b81526004016104df90611c42565b6108f43361117a565b60006001600160a01b0384163b1561152057604051630a85bd0160e11b81526001600160a01b0385169063150b7a0290611462903390899088908890600401611b1a565b602060405180830381600087803b15801561147c57600080fd5b505af19250505080156114ac575060408051601f3d908101601f191682019092526114a991810190611a9b565b60015b611506573d8080156114da576040519150601f19603f3d011682016040523d82523d6000602084013e6114df565b606091505b5080516114fe5760405162461bcd60e51b81526004016104df90611b6a565b805181602001fd5b6001600160e01b031916630a85bd0160e11b149050610fb8565b506001949350505050565b6001600160a01b0382166115815760405162461bcd60e51b815260206004820181905260248201527f4552433732313a206d696e7420746f20746865207a65726f206164647265737360448201526064016104df565b6000818152606760205260409020546001600160a01b0316156115e65760405162461bcd60e51b815260206004820152601c60248201527f4552433732313a20746f6b656e20616c7265616479206d696e7465640000000060448201526064016104df565b6001600160a01b038216600090815260686020526040812080546001929061160f908490611cd2565b909155505060008181526067602052604080822080546001600160a01b0319166001600160a01b03861690811790915590518392907fddf252ad1be2c89b69c2b068fc378daa952ba7f163c4a11628f55a4df523b3ef908290a45050565b82805461167990611d01565b90600052602060002090601f01602090048101928261169b57600085556116e1565b82601f106116b45782800160ff198235161785556116e1565b828001600101855582156116e1579182015b828111156116e15782358255916020019190600101906116c6565b506116ed929150611765565b5090565b8280546116fd90611d01565b90600052602060002090601f01602090048101928261171f57600085556116e1565b82601f1061173857805160ff19168380011785556116e1565b828001600101855582156116e1579182015b828111156116e157825182559160200191906001019061174a565b5b808211156116ed5760008155600101611766565b80356001600160a01b038116811461179157600080fd5b919050565b60008083601f8401126117a7578081fd5b50813567ffffffffffffffff8111156117be578182fd5b6020830191508360208260051b85010111156117d957600080fd5b9250929050565b6000602082840312156117f1578081fd5b6117fa8261177a565b9392505050565b60008060408385031215611813578081fd5b61181c8361177a565b915061182a6020840161177a565b90509250929050565b600080600060608486031215611847578081fd5b6118508461177a565b925061185e6020850161177a565b9150604084013590509250925092565b60008060008060808587031215611883578081fd5b61188c8561177a565b935061189a6020860161177a565b925060408501359150606085013567ffffffffffffffff808211156118bd578283fd5b818701915087601f8301126118d0578283fd5b8135818111156118e2576118e2611d6d565b604051601f8201601f19908116603f0116810190838211818310171561190a5761190a611d6d565b816040528281528a6020848701011115611922578586fd5b82602086016020830137918201602001949094529598949750929550505050565b60008060408385031215611955578182fd5b61195e8361177a565b915060208301358015158114611972578182fd5b809150509250929050565b6000806040838503121561198f578182fd5b6119988361177a565b946020939093013593505050565b600080604083850312156119b8578182fd5b6119c18361177a565b9150602083013560ff81168114611972578182fd5b600080602083850312156119e8578182fd5b823567ffffffffffffffff8111156119fe578283fd5b611a0a85828601611796565b90969095509350505050565b60008060008060408587031215611a2b578384fd5b843567ffffffffffffffff80821115611a42578586fd5b611a4e88838901611796565b90965094506020870135915080821115611a66578384fd5b50611a7387828801611796565b95989497509550505050565b600060208284031215611a90578081fd5b81356117fa81611d83565b600060208284031215611aac578081fd5b81516117fa81611d83565b600060208284031215611ac8578081fd5b5035919050565b60008151808452815b81811015611af457602081850181015186830182015201611ad8565b81811115611b055782602083870101525b50601f01601f19169290920160200192915050565b6001600160a01b0385811682528416602082015260408101839052608060608201819052600090611b4d90830184611acf565b9695505050505050565b6020815260006117fa6020830184611acf565b60208082526032908201527f4552433732313a207472616e7366657220746f206e6f6e20455243373231526560408201527131b2b4bb32b91034b6b83632b6b2b73a32b960711b606082015260800190565b6020808252818101527f4f776e61626c653a2063616c6c6572206973206e6f7420746865206f776e6572604082015260600190565b60208082526031908201527f4552433732313a207472616e736665722063616c6c6572206973206e6f74206f6040820152701ddb995c881b9bdc88185c1c1c9bdd9959607a1b606082015260800190565b6020808252602b908201527f496e697469616c697a61626c653a20636f6e7472616374206973206e6f74206960408201526a6e697469616c697a696e6760a81b606082015260800190565b6000808335601e19843603018112611ca3578283fd5b83018035915067ffffffffffffffff821115611cbd578283fd5b6020019150368190038213156117d957600080fd5b60008219821115611ce557611ce5611d57565b500190565b600082821015611cfc57611cfc611d57565b500390565b600181811c90821680611d1557607f821691505b60208210811415611d3657634e487b7160e01b600052602260045260246000fd5b50919050565b6000600019821415611d5057611d50611d57565b5060010190565b634e487b7160e01b600052601160045260246000fd5b634e487b7160e01b600052604160045260246000fd5b6001600160e01b031981168114610aa257600080fdfea164736f6c6343000804000a",
  "linkReferences": {},
  "deployedLinkReferences": {}
}