{
  "address": "0x5b88aaCdec4AEfF96fDC6A236cB87B64516EDbb1",
  "transactionHash": "0xd37de30ee40600f3e43b5c0f79d0e6cabf568552d7399741b985f1a7a85d80f8",
  "args": [],
  "_format": "hh-sol-artifact-1",
  "contractName": "Multisend",
  "sourceName": "contracts/Multisend.sol",
  "abi": [
    {
      "anonymous": false,
      "inputs": [
        {
          "indexed": true,
          "internalType": "address",
          "name": "previousOwner",
          "type": "address"
        },
        {
          "indexed": true,
          "internalType": "address",
          "name": "newOwner",
          "type": "address"
        }
      ],
      "name": "OwnershipTransferred",
      "type": "event"
    },
    {
      "inputs": [],
      "name": "initialize",
      "outputs": [],
      "stateMutability": "nonpayable",
      "type": "function"
    },
    {
      "inputs": [],
      "name": "owner",
      "outputs": [
        {
          "internalType": "address",
          "name": "",
          "type": "address"
        }
      ],
      "stateMutability": "view",
      "type": "function"
    },
    {
      "inputs": [],
      "name": "renounceOwnership",
      "outputs": [],
      "stateMutability": "nonpayable",
      "type": "function"
    },
    {
      "inputs": [
        {
          "components": [
            {
              "internalType": "address",
              "name": "receipt",
              "type": "address"
            },
            {
              "internalType": "uint256",
              "name": "value",
              "type": "uint256"
            }
          ],
          "internalType": "struct Multisend.Balance[]",
          "name": "balances",
          "type": "tuple[]"
        }
      ],
      "name": "sendEther",
      "outputs": [],
      "stateMutability": "payable",
      "type": "function"
    },
    {
      "inputs": [
        {
          "internalType": "address",
          "name": "addr",
          "type": "address"
        },
        {
          "internalType": "address",
          "name": "owner",
          "type": "address"
        },
        {
          "components": [
            {
              "internalType": "address",
              "name": "receipt",
              "type": "address"
            },
            {
              "internalType": "uint256",
              "name": "tokenId",
              "type": "uint256"
            }
          ],
          "internalType": "struct Multisend.ERC721Data[]",
          "name": "data",
          "type": "tuple[]"
        }
      ],
      "name": "transferErc721",
      "outputs": [],
      "stateMutability": "nonpayable",
      "type": "function"
    },
    {
      "inputs": [
        {
          "internalType": "address",
          "name": "addr",
          "type": "address"
        },
        {
          "components": [
            {
              "internalType": "address",
              "name": "receipt",
              "type": "address"
            },
            {
              "internalType": "uint256",
              "name": "tokenId",
              "type": "uint256"
            }
          ],
          "internalType": "struct Multisend.ERC721Data[]",
          "name": "data",
          "type": "tuple[]"
        }
      ],
      "name": "transferErc721Mine",
      "outputs": [],
      "stateMutability": "nonpayable",
      "type": "function"
    },
    {
      "inputs": [
        {
          "internalType": "address",
          "name": "newOwner",
          "type": "address"
        }
      ],
      "name": "transferOwnership",
      "outputs": [],
      "stateMutability": "nonpayable",
      "type": "function"
    }
  ],
  "bytecode": "0x608060405234801561001057600080fd5b506108f0806100206000396000f3fe6080604052600436106100705760003560e01c80638da5cb5b1161004e5780638da5cb5b146100c15780639b0d3a08146100ed578063ba87cc291461010d578063f2fde38b1461012057600080fd5b8063645a137114610075578063715018a6146100975780638129fc1c146100ac575b600080fd5b34801561008157600080fd5b50610095610090366004610731565b610140565b005b3480156100a357600080fd5b50610095610246565b3480156100b857600080fd5b5061009561027c565b3480156100cd57600080fd5b50603354604080516001600160a01b039092168252519081900360200190f35b3480156100f957600080fd5b50610095610108366004610790565b61033d565b61009561011b3660046107e1565b61040d565b34801561012c57600080fd5b5061009561013b366004610710565b6104d4565b6033546001600160a01b031633146101735760405162461bcd60e51b815260040161016a9061083c565b60405180910390fd5b60005b8181101561023f5760008383838181106101a057634e487b7160e01b600052603260045260246000fd5b9050604002018036038101906101b69190610821565b80516020820151604051632142170760e11b81526001600160a01b038981166004830152928316602482015260448101919091529192508716906342842e0e90606401600060405180830381600087803b15801561021357600080fd5b505af1158015610227573d6000803e3d6000fd5b50505050508080610237906108bc565b915050610176565b5050505050565b6033546001600160a01b031633146102705760405162461bcd60e51b815260040161016a9061083c565b61027a6000610568565b565b600054610100900460ff166102975760005460ff161561029b565b303b155b6102fe5760405162461bcd60e51b815260206004820152602e60248201527f496e697469616c697a61626c653a20636f6e747261637420697320616c72656160448201526d191e481a5b9a5d1a585b1a5e995960921b606482015260840161016a565b600054610100900460ff16158015610320576000805461ffff19166101011790555b6103286105ba565b801561033a576000805461ff00191690555b50565b60005b8181101561040757600083838381811061036a57634e487b7160e01b600052603260045260246000fd5b9050604002018036038101906103809190610821565b80516020820151604051632142170760e11b81523360048201526001600160a01b03928316602482015260448101919091529192508616906342842e0e90606401600060405180830381600087803b1580156103db57600080fd5b505af11580156103ef573d6000803e3d6000fd5b505050505080806103ff906108bc565b915050610340565b50505050565b6033546001600160a01b031633146104375760405162461bcd60e51b815260040161016a9061083c565b60005b818110156104cf57600083838381811061046457634e487b7160e01b600052603260045260246000fd5b90506040020180360381019061047a9190610821565b805160208201516040519293506001600160a01b039091169181156108fc0291906000818181858888f193505050501580156104ba573d6000803e3d6000fd5b505080806104c7906108bc565b91505061043a565b505050565b6033546001600160a01b031633146104fe5760405162461bcd60e51b815260040161016a9061083c565b6001600160a01b0381166105635760405162461bcd60e51b815260206004820152602660248201527f4f776e61626c653a206e6577206f776e657220697320746865207a65726f206160448201526564647265737360d01b606482015260840161016a565b61033a815b603380546001600160a01b038381166001600160a01b0319831681179093556040519116919082907f8be0079c531659141344cd1fd0a4f28419497f9722a3daafe3b4186f6b6457e090600090a35050565b600054610100900460ff166105e15760405162461bcd60e51b815260040161016a90610871565b6105e96105f1565b61027a610618565b600054610100900460ff1661027a5760405162461bcd60e51b815260040161016a90610871565b600054610100900460ff1661063f5760405162461bcd60e51b815260040161016a90610871565b61027a33610568565b80356001600160a01b038116811461065f57600080fd5b919050565b60008083601f840112610675578182fd5b50813567ffffffffffffffff81111561068c578182fd5b6020830191508360208260061b85010111156106a757600080fd5b9250929050565b6000604082840312156106bf578081fd5b6040516040810181811067ffffffffffffffff821117156106ee57634e487b7160e01b83526041600452602483fd5b6040529050806106fd83610648565b8152602083013560208201525092915050565b600060208284031215610721578081fd5b61072a82610648565b9392505050565b60008060008060608587031215610746578283fd5b61074f85610648565b935061075d60208601610648565b9250604085013567ffffffffffffffff811115610778578283fd5b61078487828801610664565b95989497509550505050565b6000806000604084860312156107a4578283fd5b6107ad84610648565b9250602084013567ffffffffffffffff8111156107c8578283fd5b6107d486828701610664565b9497909650939450505050565b600080602083850312156107f3578182fd5b823567ffffffffffffffff811115610809578283fd5b61081585828601610664565b90969095509350505050565b600060408284031215610832578081fd5b61072a83836106ae565b6020808252818101527f4f776e61626c653a2063616c6c6572206973206e6f7420746865206f776e6572604082015260600190565b6020808252602b908201527f496e697469616c697a61626c653a20636f6e7472616374206973206e6f74206960408201526a6e697469616c697a696e6760a81b606082015260800190565b60006000198214156108dc57634e487b7160e01b81526011600452602481fd5b506001019056fea164736f6c6343000804000a",
  "linkReferences": {},
  "deployedLinkReferences": {}
}