{
  "address": "0x5b88aaCdec4AEfF96fDC6A236cB87B64516EDbb1",
  "transactionHash": "0x4717e15323e19d68afcc260631ec74c638cd93ace96df0321884208a1f9e6be7",
  "args": [],
  "_format": "hh-sol-artifact-1",
  "contractName": "Multisend",
  "sourceName": "contracts/Multisend.sol",
  "abi": [
    {
      "anonymous": false,
      "inputs": [
        {
          "indexed": true,
          "internalType": "address",
          "name": "previousOwner",
          "type": "address"
        },
        {
          "indexed": true,
          "internalType": "address",
          "name": "newOwner",
          "type": "address"
        }
      ],
      "name": "OwnershipTransferred",
      "type": "event"
    },
    {
      "inputs": [],
      "name": "initialize",
      "outputs": [],
      "stateMutability": "nonpayable",
      "type": "function"
    },
    {
      "inputs": [],
      "name": "owner",
      "outputs": [
        {
          "internalType": "address",
          "name": "",
          "type": "address"
        }
      ],
      "stateMutability": "view",
      "type": "function"
    },
    {
      "inputs": [],
      "name": "renounceOwnership",
      "outputs": [],
      "stateMutability": "nonpayable",
      "type": "function"
    },
    {
      "inputs": [
        {
          "components": [
            {
              "internalType": "address",
              "name": "receipt",
              "type": "address"
            },
            {
              "internalType": "uint256",
              "name": "value",
              "type": "uint256"
            }
          ],
          "internalType": "struct Multisend.Balance[]",
          "name": "balances",
          "type": "tuple[]"
        }
      ],
      "name": "sendEther",
      "outputs": [],
      "stateMutability": "payable",
      "type": "function"
    },
    {
      "inputs": [
        {
          "internalType": "address",
          "name": "addr",
          "type": "address"
        },
        {
          "internalType": "address",
          "name": "owner",
          "type": "address"
        },
        {
          "components": [
            {
              "internalType": "address",
              "name": "receipt",
              "type": "address"
            },
            {
              "internalType": "uint256",
              "name": "tokenId",
              "type": "uint256"
            }
          ],
          "internalType": "struct Multisend.ERC721Data[]",
          "name": "data",
          "type": "tuple[]"
        }
      ],
      "name": "transferErc721",
      "outputs": [],
      "stateMutability": "nonpayable",
      "type": "function"
    },
    {
      "inputs": [
        {
          "internalType": "address",
          "name": "newOwner",
          "type": "address"
        }
      ],
      "name": "transferOwnership",
      "outputs": [],
      "stateMutability": "nonpayable",
      "type": "function"
    }
  ],
  "bytecode": "0x608060405234801561001057600080fd5b50610794806100206000396000f3fe6080604052600436106100555760003560e01c8063645a13711461005a578063715018a61461007c5780638129fc1c146100915780638da5cb5b146100a6578063ba87cc29146100d2578063f2fde38b146100e5575b600080fd5b34801561006657600080fd5b5061007a610075366004610626565b610105565b005b34801561008857600080fd5b5061007a61020b565b34801561009d57600080fd5b5061007a610241565b3480156100b257600080fd5b50603354604080516001600160a01b039092168252519081900360200190f35b61007a6100e0366004610685565b610302565b3480156100f157600080fd5b5061007a610100366004610605565b6103c9565b6033546001600160a01b031633146101385760405162461bcd60e51b815260040161012f906106e0565b60405180910390fd5b60005b8181101561020457600083838381811061016557634e487b7160e01b600052603260045260246000fd5b90506040020180360381019061017b91906106c5565b80516020820151604051632142170760e11b81526001600160a01b038981166004830152928316602482015260448101919091529192508716906342842e0e90606401600060405180830381600087803b1580156101d857600080fd5b505af11580156101ec573d6000803e3d6000fd5b505050505080806101fc90610760565b91505061013b565b5050505050565b6033546001600160a01b031633146102355760405162461bcd60e51b815260040161012f906106e0565b61023f600061045d565b565b600054610100900460ff1661025c5760005460ff1615610260565b303b155b6102c35760405162461bcd60e51b815260206004820152602e60248201527f496e697469616c697a61626c653a20636f6e747261637420697320616c72656160448201526d191e481a5b9a5d1a585b1a5e995960921b606482015260840161012f565b600054610100900460ff161580156102e5576000805461ffff19166101011790555b6102ed6104af565b80156102ff576000805461ff00191690555b50565b6033546001600160a01b0316331461032c5760405162461bcd60e51b815260040161012f906106e0565b60005b818110156103c457600083838381811061035957634e487b7160e01b600052603260045260246000fd5b90506040020180360381019061036f91906106c5565b805160208201516040519293506001600160a01b039091169181156108fc0291906000818181858888f193505050501580156103af573d6000803e3d6000fd5b505080806103bc90610760565b91505061032f565b505050565b6033546001600160a01b031633146103f35760405162461bcd60e51b815260040161012f906106e0565b6001600160a01b0381166104585760405162461bcd60e51b815260206004820152602660248201527f4f776e61626c653a206e6577206f776e657220697320746865207a65726f206160448201526564647265737360d01b606482015260840161012f565b6102ff815b603380546001600160a01b038381166001600160a01b0319831681179093556040519116919082907f8be0079c531659141344cd1fd0a4f28419497f9722a3daafe3b4186f6b6457e090600090a35050565b600054610100900460ff166104d65760405162461bcd60e51b815260040161012f90610715565b6104de6104e6565b61023f61050d565b600054610100900460ff1661023f5760405162461bcd60e51b815260040161012f90610715565b600054610100900460ff166105345760405162461bcd60e51b815260040161012f90610715565b61023f3361045d565b80356001600160a01b038116811461055457600080fd5b919050565b60008083601f84011261056a578182fd5b50813567ffffffffffffffff811115610581578182fd5b6020830191508360208260061b850101111561059c57600080fd5b9250929050565b6000604082840312156105b4578081fd5b6040516040810181811067ffffffffffffffff821117156105e357634e487b7160e01b83526041600452602483fd5b6040529050806105f28361053d565b8152602083013560208201525092915050565b600060208284031215610616578081fd5b61061f8261053d565b9392505050565b6000806000806060858703121561063b578283fd5b6106448561053d565b93506106526020860161053d565b9250604085013567ffffffffffffffff81111561066d578283fd5b61067987828801610559565b95989497509550505050565b60008060208385031215610697578182fd5b823567ffffffffffffffff8111156106ad578283fd5b6106b985828601610559565b90969095509350505050565b6000604082840312156106d6578081fd5b61061f83836105a3565b6020808252818101527f4f776e61626c653a2063616c6c6572206973206e6f7420746865206f776e6572604082015260600190565b6020808252602b908201527f496e697469616c697a61626c653a20636f6e7472616374206973206e6f74206960408201526a6e697469616c697a696e6760a81b606082015260800190565b600060001982141561078057634e487b7160e01b81526011600452602481fd5b506001019056fea164736f6c6343000804000a",
  "linkReferences": {},
  "deployedLinkReferences": {}
}