{
  "address": "0xCa07Cd5dF8dCBDc6A55305E80573F1CDB90aCaCd",
  "transactionHash": "0x8345bdb3effd4d95364f5b64a78bafa69e1b5c9754ab9677d7980bfeb03b0eaf",
  "args": [
    "0x0Fc0c315F3b38ca5a3bb7118fa689B9682eeA1E9"
  ],
  "_format": "hh-sol-artifact-1",
  "contractName": "BlindBox",
  "sourceName": "contracts/BlindBox.sol",
  "abi": [
    {
      "anonymous": false,
      "inputs": [
        {
          "indexed": true,
          "internalType": "address",
          "name": "owner",
          "type": "address"
        },
        {
          "indexed": true,
          "internalType": "address",
          "name": "approved",
          "type": "address"
        },
        {
          "indexed": true,
          "internalType": "uint256",
          "name": "tokenId",
          "type": "uint256"
        }
      ],
      "name": "Approval",
      "type": "event"
    },
    {
      "anonymous": false,
      "inputs": [
        {
          "indexed": true,
          "internalType": "address",
          "name": "owner",
          "type": "address"
        },
        {
          "indexed": true,
          "internalType": "address",
          "name": "operator",
          "type": "address"
        },
        {
          "indexed": false,
          "internalType": "bool",
          "name": "approved",
          "type": "bool"
        }
      ],
      "name": "ApprovalForAll",
      "type": "event"
    },
    {
      "anonymous": false,
      "inputs": [
        {
          "indexed": true,
          "internalType": "address",
          "name": "user",
          "type": "address"
        },
        {
          "indexed": false,
          "internalType": "uint256",
          "name": "amount",
          "type": "uint256"
        }
      ],
      "name": "Buy",
      "type": "event"
    },
    {
      "anonymous": false,
      "inputs": [
        {
          "indexed": true,
          "internalType": "address",
          "name": "previousOwner",
          "type": "address"
        },
        {
          "indexed": true,
          "internalType": "address",
          "name": "newOwner",
          "type": "address"
        }
      ],
      "name": "OwnershipTransferred",
      "type": "event"
    },
    {
      "anonymous": false,
      "inputs": [
        {
          "indexed": true,
          "internalType": "address",
          "name": "from",
          "type": "address"
        },
        {
          "indexed": true,
          "internalType": "address",
          "name": "to",
          "type": "address"
        },
        {
          "indexed": true,
          "internalType": "uint256",
          "name": "tokenId",
          "type": "uint256"
        }
      ],
      "name": "Transfer",
      "type": "event"
    },
    {
      "inputs": [],
      "name": "AMOUNT_PER_USER",
      "outputs": [
        {
          "internalType": "uint256",
          "name": "",
          "type": "uint256"
        }
      ],
      "stateMutability": "view",
      "type": "function"
    },
    {
      "inputs": [],
      "name": "MAX_TOKEN_ID",
      "outputs": [
        {
          "internalType": "uint256",
          "name": "",
          "type": "uint256"
        }
      ],
      "stateMutability": "view",
      "type": "function"
    },
    {
      "inputs": [],
      "name": "OPEN_FEES",
      "outputs": [
        {
          "internalType": "uint256",
          "name": "",
          "type": "uint256"
        }
      ],
      "stateMutability": "view",
      "type": "function"
    },
    {
      "inputs": [
        {
          "components": [
            {
              "internalType": "uint256",
              "name": "price",
              "type": "uint256"
            },
            {
              "internalType": "uint256",
              "name": "solds",
              "type": "uint256"
            },
            {
              "internalType": "uint256",
              "name": "startTime",
              "type": "uint256"
            },
            {
              "internalType": "uint256",
              "name": "endTime",
              "type": "uint256"
            }
          ],
          "internalType": "struct BlindBox.Pool",
          "name": "pool",
          "type": "tuple"
        }
      ],
      "name": "addPool",
      "outputs": [],
      "stateMutability": "nonpayable",
      "type": "function"
    },
    {
      "inputs": [
        {
          "internalType": "address",
          "name": "to",
          "type": "address"
        },
        {
          "internalType": "uint256",
          "name": "tokenId",
          "type": "uint256"
        }
      ],
      "name": "approve",
      "outputs": [],
      "stateMutability": "nonpayable",
      "type": "function"
    },
    {
      "inputs": [
        {
          "internalType": "address",
          "name": "owner",
          "type": "address"
        }
      ],
      "name": "balanceOf",
      "outputs": [
        {
          "internalType": "uint256",
          "name": "",
          "type": "uint256"
        }
      ],
      "stateMutability": "view",
      "type": "function"
    },
    {
      "inputs": [],
      "name": "baseURI",
      "outputs": [
        {
          "internalType": "string",
          "name": "",
          "type": "string"
        }
      ],
      "stateMutability": "view",
      "type": "function"
    },
    {
      "inputs": [
        {
          "internalType": "uint256",
          "name": "amount",
          "type": "uint256"
        },
        {
          "internalType": "address",
          "name": "addr",
          "type": "address"
        }
      ],
      "name": "batchMint",
      "outputs": [],
      "stateMutability": "nonpayable",
      "type": "function"
    },
    {
      "inputs": [
        {
          "internalType": "uint256[]",
          "name": "tokenIds",
          "type": "uint256[]"
        }
      ],
      "name": "batchOpen",
      "outputs": [],
      "stateMutability": "payable",
      "type": "function"
    },
    {
      "inputs": [
        {
          "internalType": "address[]",
          "name": "froms",
          "type": "address[]"
        },
        {
          "internalType": "address[]",
          "name": "tos",
          "type": "address[]"
        },
        {
          "internalType": "uint256[]",
          "name": "tokenIds",
          "type": "uint256[]"
        }
      ],
      "name": "batchTransferFrom",
      "outputs": [],
      "stateMutability": "nonpayable",
      "type": "function"
    },
    {
      "inputs": [],
      "name": "beneficiary",
      "outputs": [
        {
          "internalType": "address payable",
          "name": "",
          "type": "address"
        }
      ],
      "stateMutability": "view",
      "type": "function"
    },
    {
      "inputs": [
        {
          "internalType": "uint256",
          "name": "pid",
          "type": "uint256"
        },
        {
          "internalType": "uint256",
          "name": "amount",
          "type": "uint256"
        }
      ],
      "name": "buy",
      "outputs": [],
      "stateMutability": "payable",
      "type": "function"
    },
    {
      "inputs": [],
      "name": "currentTokenId",
      "outputs": [
        {
          "internalType": "uint256",
          "name": "",
          "type": "uint256"
        }
      ],
      "stateMutability": "view",
      "type": "function"
    },
    {
      "inputs": [
        {
          "internalType": "uint256",
          "name": "tokenId",
          "type": "uint256"
        }
      ],
      "name": "getApproved",
      "outputs": [
        {
          "internalType": "address",
          "name": "",
          "type": "address"
        }
      ],
      "stateMutability": "view",
      "type": "function"
    },
    {
      "inputs": [
        {
          "internalType": "uint256",
          "name": "pid",
          "type": "uint256"
        },
        {
          "internalType": "address",
          "name": "account",
          "type": "address"
        }
      ],
      "name": "getUserBuyed",
      "outputs": [
        {
          "internalType": "uint256",
          "name": "",
          "type": "uint256"
        }
      ],
      "stateMutability": "view",
      "type": "function"
    },
    {
      "inputs": [],
      "name": "horse",
      "outputs": [
        {
          "internalType": "address",
          "name": "",
          "type": "address"
        }
      ],
      "stateMutability": "view",
      "type": "function"
    },
    {
      "inputs": [
        {
          "internalType": "address payable",
          "name": "beneficiary_",
          "type": "address"
        }
      ],
      "name": "initialize",
      "outputs": [],
      "stateMutability": "nonpayable",
      "type": "function"
    },
    {
      "inputs": [
        {
          "internalType": "address",
          "name": "owner",
          "type": "address"
        },
        {
          "internalType": "address",
          "name": "operator",
          "type": "address"
        }
      ],
      "name": "isApprovedForAll",
      "outputs": [
        {
          "internalType": "bool",
          "name": "",
          "type": "bool"
        }
      ],
      "stateMutability": "view",
      "type": "function"
    },
    {
      "inputs": [],
      "name": "name",
      "outputs": [
        {
          "internalType": "string",
          "name": "",
          "type": "string"
        }
      ],
      "stateMutability": "view",
      "type": "function"
    },
    {
      "inputs": [
        {
          "internalType": "uint256",
          "name": "tokenId",
          "type": "uint256"
        }
      ],
      "name": "open",
      "outputs": [],
      "stateMutability": "payable",
      "type": "function"
    },
    {
      "inputs": [],
      "name": "openStart",
      "outputs": [
        {
          "internalType": "bool",
          "name": "",
          "type": "bool"
        }
      ],
      "stateMutability": "view",
      "type": "function"
    },
    {
      "inputs": [],
      "name": "owner",
      "outputs": [
        {
          "internalType": "address",
          "name": "",
          "type": "address"
        }
      ],
      "stateMutability": "view",
      "type": "function"
    },
    {
      "inputs": [
        {
          "internalType": "uint256",
          "name": "tokenId",
          "type": "uint256"
        }
      ],
      "name": "ownerOf",
      "outputs": [
        {
          "internalType": "address",
          "name": "",
          "type": "address"
        }
      ],
      "stateMutability": "view",
      "type": "function"
    },
    {
      "inputs": [],
      "name": "poolLength",
      "outputs": [
        {
          "internalType": "uint256",
          "name": "",
          "type": "uint256"
        }
      ],
      "stateMutability": "view",
      "type": "function"
    },
    {
      "inputs": [
        {
          "internalType": "uint256",
          "name": "",
          "type": "uint256"
        }
      ],
      "name": "pools",
      "outputs": [
        {
          "internalType": "uint256",
          "name": "price",
          "type": "uint256"
        },
        {
          "internalType": "uint256",
          "name": "solds",
          "type": "uint256"
        },
        {
          "internalType": "uint256",
          "name": "startTime",
          "type": "uint256"
        },
        {
          "internalType": "uint256",
          "name": "endTime",
          "type": "uint256"
        }
      ],
      "stateMutability": "view",
      "type": "function"
    },
    {
      "inputs": [],
      "name": "price",
      "outputs": [
        {
          "internalType": "uint256",
          "name": "",
          "type": "uint256"
        }
      ],
      "stateMutability": "view",
      "type": "function"
    },
    {
      "inputs": [],
      "name": "renounceOwnership",
      "outputs": [],
      "stateMutability": "nonpayable",
      "type": "function"
    },
    {
      "inputs": [
        {
          "internalType": "uint256[]",
          "name": "type_1",
          "type": "uint256[]"
        },
        {
          "internalType": "uint256[]",
          "name": "type_2",
          "type": "uint256[]"
        },
        {
          "internalType": "uint256[]",
          "name": "type_3",
          "type": "uint256[]"
        },
        {
          "internalType": "uint256[]",
          "name": "type_4",
          "type": "uint256[]"
        }
      ],
      "name": "resetTypes",
      "outputs": [],
      "stateMutability": "nonpayable",
      "type": "function"
    },
    {
      "inputs": [
        {
          "internalType": "address",
          "name": "from",
          "type": "address"
        },
        {
          "internalType": "address",
          "name": "to",
          "type": "address"
        },
        {
          "internalType": "uint256",
          "name": "tokenId",
          "type": "uint256"
        }
      ],
      "name": "safeTransferFrom",
      "outputs": [],
      "stateMutability": "nonpayable",
      "type": "function"
    },
    {
      "inputs": [
        {
          "internalType": "address",
          "name": "from",
          "type": "address"
        },
        {
          "internalType": "address",
          "name": "to",
          "type": "address"
        },
        {
          "internalType": "uint256",
          "name": "tokenId",
          "type": "uint256"
        },
        {
          "internalType": "bytes",
          "name": "_data",
          "type": "bytes"
        }
      ],
      "name": "safeTransferFrom",
      "outputs": [],
      "stateMutability": "nonpayable",
      "type": "function"
    },
    {
      "inputs": [
        {
          "internalType": "address",
          "name": "operator",
          "type": "address"
        },
        {
          "internalType": "bool",
          "name": "approved",
          "type": "bool"
        }
      ],
      "name": "setApprovalForAll",
      "outputs": [],
      "stateMutability": "nonpayable",
      "type": "function"
    },
    {
      "inputs": [
        {
          "internalType": "address payable",
          "name": "newBeneficiary",
          "type": "address"
        }
      ],
      "name": "setBeneficiary",
      "outputs": [],
      "stateMutability": "nonpayable",
      "type": "function"
    },
    {
      "inputs": [
        {
          "internalType": "address",
          "name": "addr",
          "type": "address"
        }
      ],
      "name": "setHorse",
      "outputs": [],
      "stateMutability": "nonpayable",
      "type": "function"
    },
    {
      "inputs": [
        {
          "internalType": "bool",
          "name": "started",
          "type": "bool"
        }
      ],
      "name": "setOpenStart",
      "outputs": [],
      "stateMutability": "nonpayable",
      "type": "function"
    },
    {
      "inputs": [
        {
          "internalType": "uint256",
          "name": "pid",
          "type": "uint256"
        },
        {
          "components": [
            {
              "internalType": "uint256",
              "name": "price",
              "type": "uint256"
            },
            {
              "internalType": "uint256",
              "name": "solds",
              "type": "uint256"
            },
            {
              "internalType": "uint256",
              "name": "startTime",
              "type": "uint256"
            },
            {
              "internalType": "uint256",
              "name": "endTime",
              "type": "uint256"
            }
          ],
          "internalType": "struct BlindBox.Pool",
          "name": "pool",
          "type": "tuple"
        }
      ],
      "name": "setPool",
      "outputs": [],
      "stateMutability": "nonpayable",
      "type": "function"
    },
    {
      "inputs": [],
      "name": "solds",
      "outputs": [
        {
          "internalType": "uint256",
          "name": "",
          "type": "uint256"
        }
      ],
      "stateMutability": "view",
      "type": "function"
    },
    {
      "inputs": [
        {
          "internalType": "bytes4",
          "name": "interfaceId",
          "type": "bytes4"
        }
      ],
      "name": "supportsInterface",
      "outputs": [
        {
          "internalType": "bool",
          "name": "",
          "type": "bool"
        }
      ],
      "stateMutability": "view",
      "type": "function"
    },
    {
      "inputs": [],
      "name": "symbol",
      "outputs": [
        {
          "internalType": "string",
          "name": "",
          "type": "string"
        }
      ],
      "stateMutability": "view",
      "type": "function"
    },
    {
      "inputs": [
        {
          "internalType": "uint256",
          "name": "tokenId",
          "type": "uint256"
        }
      ],
      "name": "tokenURI",
      "outputs": [
        {
          "internalType": "string",
          "name": "",
          "type": "string"
        }
      ],
      "stateMutability": "view",
      "type": "function"
    },
    {
      "inputs": [
        {
          "internalType": "address",
          "name": "from",
          "type": "address"
        },
        {
          "internalType": "address",
          "name": "to",
          "type": "address"
        },
        {
          "internalType": "uint256",
          "name": "tokenId",
          "type": "uint256"
        }
      ],
      "name": "transferFrom",
      "outputs": [],
      "stateMutability": "nonpayable",
      "type": "function"
    },
    {
      "inputs": [
        {
          "internalType": "address",
          "name": "newOwner",
          "type": "address"
        }
      ],
      "name": "transferOwnership",
      "outputs": [],
      "stateMutability": "nonpayable",
      "type": "function"
    },
    {
      "inputs": [
        {
          "internalType": "address",
          "name": "",
          "type": "address"
        }
      ],
      "name": "userBuys",
      "outputs": [
        {
          "internalType": "uint256",
          "name": "",
          "type": "uint256"
        }
      ],
      "stateMutability": "view",
      "type": "function"
    }
  ],
  "bytecode": "0x608060405234801561001057600080fd5b50612e61806100206000396000f3fe6080604052600436106102505760003560e01c80636da612d811610139578063b818f9e4116100b6578063c87b56dd1161007a578063c87b56dd1461070a578063d6febde81461072a578063d6ffd7a71461073d578063e985e9c514610757578063f2fde38b146107a0578063f5366b31146107c057600080fd5b8063b818f9e414610675578063b835871514610695578063b88d4fde146106aa578063c2f637dc146106ca578063c4d66de8146106ea57600080fd5b80639567d13f116100fd5780639567d13f146105ac57806395d89b41146105c8578063a035b1fe146105dd578063a22cb465146105f3578063ac4afa381461061357600080fd5b80636da612d81461052357806370a0823114610539578063715018a61461055957806372b94bbb1461056e5780638da5cb5b1461058e57600080fd5b806338af3eed116101d2578063521d14f511610196578063521d14f514610456578063623b08a81461047657806362c0be10146104965780636352211e146104bb578063690e7c09146104db5780636c0360eb146104ee57600080fd5b806338af3eed146103b35780633c51199f146103d357806342842e0e146103e9578063473017f71461040957806348d2df481461042957600080fd5b8063081e3eda11610219578063081e3eda1461032a578063095ea7b3146103405780631969160b146103605780631c31f7101461037357806323b872dd1461039357600080fd5b80629a9b7b1461025557806301ffc9a71461027e5780630492524b146102ae57806306fdde03146102d0578063081812fc146102f2575b600080fd5b34801561026157600080fd5b5061026b60c95481565b6040519081526020015b60405180910390f35b34801561028a57600080fd5b5061029e610299366004612a54565b6107e0565b6040519015158152602001610275565b3480156102ba57600080fd5b506102ce6102c9366004612a3a565b610832565b005b3480156102dc57600080fd5b506102e5610878565b6040516102759190612bbf565b3480156102fe57600080fd5b5061031261030d366004612aa7565b61090a565b6040516001600160a01b039091168152602001610275565b34801561033657600080fd5b5061026b60cf5481565b34801561034c57600080fd5b506102ce61035b36600461287a565b61099f565b6102ce61036e36600461293b565b610ab5565b34801561037f57600080fd5b506102ce61038e3660046126d9565b610bdf565b34801561039f57600080fd5b506102ce6103ae36600461272d565b610c2b565b3480156103bf57600080fd5b5060cb54610312906001600160a01b031681565b3480156103df57600080fd5b5061026b60cc5481565b3480156103f557600080fd5b506102ce61040436600461272d565b610c5c565b34801561041557600080fd5b5061026b610424366004612abf565b610c77565b34801561043557600080fd5b5061026b6104443660046126d9565b60ca6020526000908152604090205481565b34801561046257600080fd5b506102ce610471366004612a8c565b610cea565b34801561048257600080fd5b506102ce61049136600461297b565b610d70565b3480156104a257600080fd5b5060ce546103129061010090046001600160a01b031681565b3480156104c757600080fd5b506103126104d6366004612aa7565b610f6c565b6102ce6104e9366004612aa7565b610fe3565b3480156104fa57600080fd5b5060408051808201909152600c81526b697066733a2f2f697066732f60a01b60208201526102e5565b34801561052f57600080fd5b5061026b61138881565b34801561054557600080fd5b5061026b6105543660046126d9565b6110c4565b34801561056557600080fd5b506102ce61114b565b34801561057a57600080fd5b506102ce6105893660046126d9565b611181565b34801561059a57600080fd5b506097546001600160a01b0316610312565b3480156105b857600080fd5b5061026b67077e772392b6000081565b3480156105d457600080fd5b506102e56111d3565b3480156105e957600080fd5b5061026b60cd5481565b3480156105ff57600080fd5b506102ce61060e366004612846565b6111e2565b34801561061f57600080fd5b5061065561062e366004612aa7565b60d06020526000908152604090208054600182015460028301546003909301549192909184565b604080519485526020850193909352918301526060820152608001610275565b34801561068157600080fd5b506102ce6106903660046128a5565b6111ed565b3480156106a157600080fd5b5061026b600581565b3480156106b657600080fd5b506102ce6106c536600461276d565b61132c565b3480156106d657600080fd5b506102ce6106e5366004612abf565b611364565b3480156106f657600080fd5b506102ce6107053660046126d9565b61143e565b34801561071657600080fd5b506102e5610725366004612aa7565b611573565b6102ce610738366004612b06565b61166f565b34801561074957600080fd5b5060ce5461029e9060ff1681565b34801561076357600080fd5b5061029e6107723660046126f5565b6001600160a01b039182166000908152606a6020908152604080832093909416825291909152205460ff1690565b3480156107ac57600080fd5b506102ce6107bb3660046126d9565b6119ae565b3480156107cc57600080fd5b506102ce6107db366004612ae3565b611a49565b60006001600160e01b031982166380ac58cd60e01b148061081157506001600160e01b03198216635b5e139f60e01b145b8061082c57506301ffc9a760e01b6001600160e01b03198316145b92915050565b6097546001600160a01b031633146108655760405162461bcd60e51b815260040161085c90612c24565b60405180910390fd5b60ce805460ff1916911515919091179055565b60606065805461088790612d83565b80601f01602080910402602001604051908101604052809291908181526020018280546108b390612d83565b80156109005780601f106108d557610100808354040283529160200191610900565b820191906000526020600020905b8154815290600101906020018083116108e357829003601f168201915b5050505050905090565b6000818152606760205260408120546001600160a01b03166109835760405162461bcd60e51b815260206004820152602c60248201527f4552433732313a20617070726f76656420717565727920666f72206e6f6e657860448201526b34b9ba32b73a103a37b5b2b760a11b606482015260840161085c565b506000908152606960205260409020546001600160a01b031690565b60006109aa82610f6c565b9050806001600160a01b0316836001600160a01b03161415610a185760405162461bcd60e51b815260206004820152602160248201527f4552433732313a20617070726f76616c20746f2063757272656e74206f776e656044820152603960f91b606482015260840161085c565b336001600160a01b0382161480610a345750610a348133610772565b610aa65760405162461bcd60e51b815260206004820152603860248201527f4552433732313a20617070726f76652063616c6c6572206973206e6f74206f7760448201527f6e6572206e6f7220617070726f76656420666f7220616c6c0000000000000000606482015260840161085c565b610ab08383611aae565b505050565b60ce5460ff16610afd5760405162461bcd60e51b8152602060048201526013602482015272109b1a5b99109bde0e88139bdd081cdd185c9d606a1b604482015260640161085c565b610b0f8167077e772392b60000612d21565b3414610b595760405162461bcd60e51b8152602060048201526019602482015278109b1a5b99109bde0e88199959481b9bdd0818dbdc9c9958dd603a1b604482015260640161085c565b60005b81811015610ba557610b93838383818110610b8757634e487b7160e01b600052603260045260246000fd5b90506020020135611b1c565b80610b9d81612db8565b915050610b5c565b5060cb546040516001600160a01b03909116904780156108fc02916000818181858888f19350505050158015610ab0573d6000803e3d6000fd5b6097546001600160a01b03163314610c095760405162461bcd60e51b815260040161085c90612c24565b60cb80546001600160a01b0319166001600160a01b0392909216919091179055565b610c353382611c71565b610c515760405162461bcd60e51b815260040161085c90612c59565b610ab0838383611d68565b610ab08383836040518060200160405280600081525061132c565b600060cf548310610cc15760405162461bcd60e51b8152602060048201526014602482015273109b1a5b99109bde0e88195b5c1d1e481c1bdbdb60621b604482015260640161085c565b50600091825260d1602090815260408084206001600160a01b0393909316845291905290205490565b6097546001600160a01b03163314610d145760405162461bcd60e51b815260040161085c90612c24565b60cf54600090815260d0602052604090208190610d528282813581556020820135600182015560408201356002820155606082013560038201555050565b905050600160cf6000828254610d689190612cf5565b909155505050565b6097546001600160a01b03163314610d9a5760405162461bcd60e51b815260040161085c90612c24565b60005b87811015610e0b57600160d260008b8b85818110610dcb57634e487b7160e01b600052603260045260246000fd5b90506020020135815260200190815260200160002060006101000a81548160ff021916908360ff1602179055508080610e0390612db8565b915050610d9d565b5060005b85811015610e7d57600260d26000898985818110610e3d57634e487b7160e01b600052603260045260246000fd5b90506020020135815260200190815260200160002060006101000a81548160ff021916908360ff1602179055508080610e7590612db8565b915050610e0f565b5060005b83811015610eef57600360d26000878785818110610eaf57634e487b7160e01b600052603260045260246000fd5b90506020020135815260200190815260200160002060006101000a81548160ff021916908360ff1602179055508080610ee790612db8565b915050610e81565b5060005b81811015610f6157600460d26000858585818110610f2157634e487b7160e01b600052603260045260246000fd5b90506020020135815260200190815260200160002060006101000a81548160ff021916908360ff1602179055508080610f5990612db8565b915050610ef3565b505050505050505050565b6000818152606760205260408120546001600160a01b03168061082c5760405162461bcd60e51b815260206004820152602960248201527f4552433732313a206f776e657220717565727920666f72206e6f6e657869737460448201526832b73a103a37b5b2b760b91b606482015260840161085c565b60ce5460ff1661102b5760405162461bcd60e51b8152602060048201526013602482015272109b1a5b99109bde0e88139bdd081cdd185c9d606a1b604482015260640161085c565b67077e772392b60000341461107e5760405162461bcd60e51b8152602060048201526019602482015278109b1a5b99109bde0e88199959481b9bdd0818dbdc9c9958dd603a1b604482015260640161085c565b61108781611b1c565b60cb546040516001600160a01b03909116904780156108fc02916000818181858888f193505050501580156110c0573d6000803e3d6000fd5b5050565b60006001600160a01b03821661112f5760405162461bcd60e51b815260206004820152602a60248201527f4552433732313a2062616c616e636520717565727920666f7220746865207a65604482015269726f206164647265737360b01b606482015260840161085c565b506001600160a01b031660009081526068602052604090205490565b6097546001600160a01b031633146111755760405162461bcd60e51b815260040161085c90612c24565b61117f6000611f08565b565b6097546001600160a01b031633146111ab5760405162461bcd60e51b815260040161085c90612c24565b60ce80546001600160a01b0390921661010002610100600160a81b0319909216919091179055565b60606066805461088790612d83565b6110c0338383611f5a565b82811480156111fb57508085145b61126d5760405162461bcd60e51b815260206004820152603960248201527f426c696e64426f783a20746f732e6c656e677468206e657120746f6b656e496460448201527f732e6c656e677468206e65712066726f6d732e6c656e67746800000000000000606482015260840161085c565b60005b838110156113235761131187878381811061129b57634e487b7160e01b600052603260045260246000fd5b90506020020160208101906112b091906126d9565b8686848181106112d057634e487b7160e01b600052603260045260246000fd5b90506020020160208101906112e591906126d9565b85858581811061130557634e487b7160e01b600052603260045260246000fd5b90506020020135610c2b565b8061131b81612db8565b915050611270565b50505050505050565b6113363383611c71565b6113525760405162461bcd60e51b815260040161085c90612c59565b61135e84848484612029565b50505050565b6097546001600160a01b0316331461138e5760405162461bcd60e51b815260040161085c90612c24565b6113888260c95461139f9190612cf5565b11156113ed5760405162461bcd60e51b815260206004820152601d60248201527f426c696e64426f783a20746f6b656e4964206d61782069732035303030000000604482015260640161085c565b60c9545b8260c9546113ff9190612cf5565b81101561142257611410828261205c565b8061141a81612db8565b9150506113f1565b508160c960008282546114359190612cf5565b90915550505050565b600054610100900460ff166114595760005460ff161561145d565b303b155b6114c05760405162461bcd60e51b815260206004820152602e60248201527f496e697469616c697a61626c653a20636f6e747261637420697320616c72656160448201526d191e481a5b9a5d1a585b1a5e995960921b606482015260840161085c565b600054610100900460ff161580156114e2576000805461ffff19166101011790555b61153660405180604001604052806016815260200175090dee4e6ca40a4c2c6d2dcce4084d8d2dcc84084def60531b815250604051806040016040528060048152602001632429212160e11b815250612076565b61153e6120b7565b60cb80546001600160a01b0319166001600160a01b038416179055600160c95580156110c0576000805461ff00191690555050565b6000818152606760205260409020546060906001600160a01b03166115f25760405162461bcd60e51b815260206004820152602f60248201527f4552433732314d657461646174613a2055524920717565727920666f72206e6f60448201526e3732bc34b9ba32b73a103a37b5b2b760891b606482015260840161085c565b600061161d60408051808201909152600c81526b697066733a2f2f697066732f60a01b602082015290565b9050600081511161163d5760405180602001604052806000815250611668565b80611647846120ee565b604051602001611658929190612b53565b6040516020818303038152906040525b9392505050565b60cf5482106116b75760405162461bcd60e51b8152602060048201526014602482015273109b1a5b99109bde0e88195b5c1d1e481c1bdbdb60621b604482015260640161085c565b600082815260d0602090815260409182902082516080810184528154815260018201549281019290925260028101549282018390526003015460608201529042101561173b5760405162461bcd60e51b8152602060048201526013602482015272109b1a5b99109bde0e881b9bdd081cdd185c9d606a1b604482015260640161085c565b80606001514211156117815760405162461bcd60e51b815260206004820152600f60248201526e109b1a5b99109bde0e88195b991959608a1b604482015260640161085c565b8051349061178f9084612d21565b146117e75760405162461bcd60e51b815260206004820152602260248201527f426c696e64426f783a206d73672e76616c7565206973206e6f7420636f72726560448201526118dd60f21b606482015260840161085c565b806020015160018360c9546117fc9190612cf5565b6118069190612d40565b11156118495760405162461bcd60e51b8152602060048201526012602482015271109b1a5b99109bde0e8814dbdb190813dd5d60721b604482015260640161085c565b600083815260d160209081526040808320338452909152902054600590611871908490612cf5565b11156118bf5760405162461bcd60e51b815260206004820152601d60248201527f426c696e64426f783a2075736572206f6e6c7920627579206669766573000000604482015260640161085c565b60c9545b8260c9546118d19190612cf5565b8110156118f4576118e2338261205c565b806118ec81612db8565b9150506118c3565b508160c960008282546119079190612cf5565b9091555050600083815260d16020908152604080832033845290915281208054849290611935908490612cf5565b909155505060cb546040516001600160a01b03909116904780156108fc02916000818181858888f19350505050158015611973573d6000803e3d6000fd5b5060405182815233907fe3d4187f6ca4248660cc0ac8b8056515bac4a8132be2eca31d6d0cc170722a7e9060200160405180910390a2505050565b6097546001600160a01b031633146119d85760405162461bcd60e51b815260040161085c90612c24565b6001600160a01b038116611a3d5760405162461bcd60e51b815260206004820152602660248201527f4f776e61626c653a206e6577206f776e657220697320746865207a65726f206160448201526564647265737360d01b606482015260840161085c565b611a4681611f08565b50565b6097546001600160a01b03163314611a735760405162461bcd60e51b815260040161085c90612c24565b600082815260d060205260409020819061135e8282813581556020820135600182015560408201356002820155606082013560038201555050565b600081815260696020526040902080546001600160a01b0319166001600160a01b0384169081179091558190611ae382610f6c565b6001600160a01b03167f8c5be1e5ebec7d5bd14f71427d1e84f3dd0314c0f7b2291e5b200ac8c7c3b92560405160405180910390a45050565b33611b2682610f6c565b6001600160a01b031614611b745760405162461bcd60e51b8152602060048201526015602482015274213634b7322137bc1d103737ba10309037bbb732b960591b604482015260640161085c565b600081815260d2602052604090205460ff1615801590611ba75750600081815260d26020526040902054600560ff909116105b611bea5760405162461bcd60e51b8152602060048201526014602482015273213634b7322137bc1d103a3cb8329032b93937b960611b604482015260640161085c565b611bf381612208565b60ce54600082815260d2602052604090819020549051630348ab1560e51b815233600482015260ff90911660248201526101009091046001600160a01b03169063691562a090604401600060405180830381600087803b158015611c5657600080fd5b505af1158015611c6a573d6000803e3d6000fd5b5050505050565b6000818152606760205260408120546001600160a01b0316611cea5760405162461bcd60e51b815260206004820152602c60248201527f4552433732313a206f70657261746f7220717565727920666f72206e6f6e657860448201526b34b9ba32b73a103a37b5b2b760a11b606482015260840161085c565b6000611cf583610f6c565b9050806001600160a01b0316846001600160a01b03161480611d305750836001600160a01b0316611d258461090a565b6001600160a01b0316145b80611d6057506001600160a01b038082166000908152606a602090815260408083209388168352929052205460ff165b949350505050565b826001600160a01b0316611d7b82610f6c565b6001600160a01b031614611de35760405162461bcd60e51b815260206004820152602960248201527f4552433732313a207472616e73666572206f6620746f6b656e2074686174206960448201526839903737ba1037bbb760b91b606482015260840161085c565b6001600160a01b038216611e455760405162461bcd60e51b8152602060048201526024808201527f4552433732313a207472616e7366657220746f20746865207a65726f206164646044820152637265737360e01b606482015260840161085c565b611e50600082611aae565b6001600160a01b0383166000908152606860205260408120805460019290611e79908490612d40565b90915550506001600160a01b0382166000908152606860205260408120805460019290611ea7908490612cf5565b909155505060008181526067602052604080822080546001600160a01b0319166001600160a01b0386811691821790925591518493918716917fddf252ad1be2c89b69c2b068fc378daa952ba7f163c4a11628f55a4df523b3ef91a4505050565b609780546001600160a01b038381166001600160a01b0319831681179093556040519116919082907f8be0079c531659141344cd1fd0a4f28419497f9722a3daafe3b4186f6b6457e090600090a35050565b816001600160a01b0316836001600160a01b03161415611fbc5760405162461bcd60e51b815260206004820152601960248201527f4552433732313a20617070726f766520746f2063616c6c657200000000000000604482015260640161085c565b6001600160a01b038381166000818152606a6020908152604080832094871680845294825291829020805460ff191686151590811790915591519182527f17307eab39ab6107e8899845ad3d59bd9653f200f220920489ca2b5937696c31910160405180910390a3505050565b612034848484611d68565b612040848484846122a3565b61135e5760405162461bcd60e51b815260040161085c90612bd2565b6110c08282604051806020016040528060008152506123b0565b600054610100900460ff1661209d5760405162461bcd60e51b815260040161085c90612caa565b6120a56123e3565b6120ad6123e3565b6110c0828261240a565b600054610100900460ff166120de5760405162461bcd60e51b815260040161085c90612caa565b6120e66123e3565b61117f612458565b6060816121125750506040805180820190915260018152600360fc1b602082015290565b8160005b811561213c578061212681612db8565b91506121359050600a83612d0d565b9150612116565b60008167ffffffffffffffff81111561216557634e487b7160e01b600052604160045260246000fd5b6040519080825280601f01601f19166020018201604052801561218f576020820181803683370190505b5090505b8415611d60576121a4600183612d40565b91506121b1600a86612dd3565b6121bc906030612cf5565b60f81b8183815181106121df57634e487b7160e01b600052603260045260246000fd5b60200101906001600160f81b031916908160001a905350612201600a86612d0d565b9450612193565b600061221382610f6c565b9050612220600083611aae565b6001600160a01b0381166000908152606860205260408120805460019290612249908490612d40565b909155505060008281526067602052604080822080546001600160a01b0319169055518391906001600160a01b038416907fddf252ad1be2c89b69c2b068fc378daa952ba7f163c4a11628f55a4df523b3ef908390a45050565b60006001600160a01b0384163b156123a557604051630a85bd0160e11b81526001600160a01b0385169063150b7a02906122e7903390899088908890600401612b82565b602060405180830381600087803b15801561230157600080fd5b505af1925050508015612331575060408051601f3d908101601f1916820190925261232e91810190612a70565b60015b61238b573d80801561235f576040519150601f19603f3d011682016040523d82523d6000602084013e612364565b606091505b5080516123835760405162461bcd60e51b815260040161085c90612bd2565b805181602001fd5b6001600160e01b031916630a85bd0160e11b149050611d60565b506001949350505050565b6123ba8383612488565b6123c760008484846122a3565b610ab05760405162461bcd60e51b815260040161085c90612bd2565b600054610100900460ff1661117f5760405162461bcd60e51b815260040161085c90612caa565b600054610100900460ff166124315760405162461bcd60e51b815260040161085c90612caa565b81516124449060659060208501906125ca565b508051610ab09060669060208401906125ca565b600054610100900460ff1661247f5760405162461bcd60e51b815260040161085c90612caa565b61117f33611f08565b6001600160a01b0382166124de5760405162461bcd60e51b815260206004820181905260248201527f4552433732313a206d696e7420746f20746865207a65726f2061646472657373604482015260640161085c565b6000818152606760205260409020546001600160a01b0316156125435760405162461bcd60e51b815260206004820152601c60248201527f4552433732313a20746f6b656e20616c7265616479206d696e74656400000000604482015260640161085c565b6001600160a01b038216600090815260686020526040812080546001929061256c908490612cf5565b909155505060008181526067602052604080822080546001600160a01b0319166001600160a01b03861690811790915590518392907fddf252ad1be2c89b69c2b068fc378daa952ba7f163c4a11628f55a4df523b3ef908290a45050565b8280546125d690612d83565b90600052602060002090601f0160209004810192826125f8576000855561263e565b82601f1061261157805160ff191683800117855561263e565b8280016001018555821561263e579182015b8281111561263e578251825591602001919060010190612623565b5061264a92915061264e565b5090565b5b8082111561264a576000815560010161264f565b60008083601f840112612674578081fd5b50813567ffffffffffffffff81111561268b578182fd5b6020830191508360208260051b85010111156126a657600080fd5b9250929050565b803580151581146126bd57600080fd5b919050565b6000608082840312156126d3578081fd5b50919050565b6000602082840312156126ea578081fd5b813561166881612e29565b60008060408385031215612707578081fd5b823561271281612e29565b9150602083013561272281612e29565b809150509250929050565b600080600060608486031215612741578081fd5b833561274c81612e29565b9250602084013561275c81612e29565b929592945050506040919091013590565b60008060008060808587031215612782578081fd5b843561278d81612e29565b9350602085013561279d81612e29565b925060408501359150606085013567ffffffffffffffff808211156127c0578283fd5b818701915087601f8301126127d3578283fd5b8135818111156127e5576127e5612e13565b604051601f8201601f19908116603f0116810190838211818310171561280d5761280d612e13565b816040528281528a6020848701011115612825578586fd5b82602086016020830137918201602001949094529598949750929550505050565b60008060408385031215612858578182fd5b823561286381612e29565b9150612871602084016126ad565b90509250929050565b6000806040838503121561288c578182fd5b823561289781612e29565b946020939093013593505050565b600080600080600080606087890312156128bd578182fd5b863567ffffffffffffffff808211156128d4578384fd5b6128e08a838b01612663565b909850965060208901359150808211156128f8578384fd5b6129048a838b01612663565b9096509450604089013591508082111561291c578384fd5b5061292989828a01612663565b979a9699509497509295939492505050565b6000806020838503121561294d578182fd5b823567ffffffffffffffff811115612963578283fd5b61296f85828601612663565b90969095509350505050565b6000806000806000806000806080898b031215612996578182fd5b883567ffffffffffffffff808211156129ad578384fd5b6129b98c838d01612663565b909a50985060208b01359150808211156129d1578384fd5b6129dd8c838d01612663565b909850965060408b01359150808211156129f5578384fd5b612a018c838d01612663565b909650945060608b0135915080821115612a19578384fd5b50612a268b828c01612663565b999c989b5096995094979396929594505050565b600060208284031215612a4b578081fd5b611668826126ad565b600060208284031215612a65578081fd5b813561166881612e3e565b600060208284031215612a81578081fd5b815161166881612e3e565b600060808284031215612a9d578081fd5b61166883836126c2565b600060208284031215612ab8578081fd5b5035919050565b60008060408385031215612ad1578182fd5b82359150602083013561272281612e29565b60008060a08385031215612af5578182fd5b8235915061287184602085016126c2565b60008060408385031215612b18578182fd5b50508035926020909101359150565b60008151808452612b3f816020860160208601612d57565b601f01601f19169290920160200192915050565b60008351612b65818460208801612d57565b835190830190612b79818360208801612d57565b01949350505050565b6001600160a01b0385811682528416602082015260408101839052608060608201819052600090612bb590830184612b27565b9695505050505050565b6020815260006116686020830184612b27565b60208082526032908201527f4552433732313a207472616e7366657220746f206e6f6e20455243373231526560408201527131b2b4bb32b91034b6b83632b6b2b73a32b960711b606082015260800190565b6020808252818101527f4f776e61626c653a2063616c6c6572206973206e6f7420746865206f776e6572604082015260600190565b60208082526031908201527f4552433732313a207472616e736665722063616c6c6572206973206e6f74206f6040820152701ddb995c881b9bdc88185c1c1c9bdd9959607a1b606082015260800190565b6020808252602b908201527f496e697469616c697a61626c653a20636f6e7472616374206973206e6f74206960408201526a6e697469616c697a696e6760a81b606082015260800190565b60008219821115612d0857612d08612de7565b500190565b600082612d1c57612d1c612dfd565b500490565b6000816000190483118215151615612d3b57612d3b612de7565b500290565b600082821015612d5257612d52612de7565b500390565b60005b83811015612d72578181015183820152602001612d5a565b8381111561135e5750506000910152565b600181811c90821680612d9757607f821691505b602082108114156126d357634e487b7160e01b600052602260045260246000fd5b6000600019821415612dcc57612dcc612de7565b5060010190565b600082612de257612de2612dfd565b500690565b634e487b7160e01b600052601160045260246000fd5b634e487b7160e01b600052601260045260246000fd5b634e487b7160e01b600052604160045260246000fd5b6001600160a01b0381168114611a4657600080fd5b6001600160e01b031981168114611a4657600080fdfea164736f6c6343000804000a",
  "linkReferences": {},
  "deployedLinkReferences": {}
}