{
  "address": "0xCa07Cd5dF8dCBDc6A55305E80573F1CDB90aCaCd",
  "transactionHash": "0x80c0b222df18c91a48e0b9dda6190275853f34e69c5bc558c15fa166d7e9ba57",
  "args": [
    "0x0Fc0c315F3b38ca5a3bb7118fa689B9682eeA1E9"
  ],
  "_format": "hh-sol-artifact-1",
  "contractName": "BlindBox",
  "sourceName": "contracts/BlindBox.sol",
  "abi": [
    {
      "anonymous": false,
      "inputs": [
        {
          "indexed": true,
          "internalType": "address",
          "name": "owner",
          "type": "address"
        },
        {
          "indexed": true,
          "internalType": "address",
          "name": "approved",
          "type": "address"
        },
        {
          "indexed": true,
          "internalType": "uint256",
          "name": "tokenId",
          "type": "uint256"
        }
      ],
      "name": "Approval",
      "type": "event"
    },
    {
      "anonymous": false,
      "inputs": [
        {
          "indexed": true,
          "internalType": "address",
          "name": "owner",
          "type": "address"
        },
        {
          "indexed": true,
          "internalType": "address",
          "name": "operator",
          "type": "address"
        },
        {
          "indexed": false,
          "internalType": "bool",
          "name": "approved",
          "type": "bool"
        }
      ],
      "name": "ApprovalForAll",
      "type": "event"
    },
    {
      "anonymous": false,
      "inputs": [
        {
          "indexed": true,
          "internalType": "address",
          "name": "user",
          "type": "address"
        },
        {
          "indexed": false,
          "internalType": "uint256",
          "name": "amount",
          "type": "uint256"
        }
      ],
      "name": "Buy",
      "type": "event"
    },
    {
      "anonymous": false,
      "inputs": [
        {
          "indexed": true,
          "internalType": "address",
          "name": "previousOwner",
          "type": "address"
        },
        {
          "indexed": true,
          "internalType": "address",
          "name": "newOwner",
          "type": "address"
        }
      ],
      "name": "OwnershipTransferred",
      "type": "event"
    },
    {
      "anonymous": false,
      "inputs": [
        {
          "indexed": true,
          "internalType": "address",
          "name": "from",
          "type": "address"
        },
        {
          "indexed": true,
          "internalType": "address",
          "name": "to",
          "type": "address"
        },
        {
          "indexed": true,
          "internalType": "uint256",
          "name": "tokenId",
          "type": "uint256"
        }
      ],
      "name": "Transfer",
      "type": "event"
    },
    {
      "inputs": [],
      "name": "AMOUNT_PER_USER",
      "outputs": [
        {
          "internalType": "uint256",
          "name": "",
          "type": "uint256"
        }
      ],
      "stateMutability": "view",
      "type": "function"
    },
    {
      "inputs": [],
      "name": "MAX_TOKEN_ID",
      "outputs": [
        {
          "internalType": "uint256",
          "name": "",
          "type": "uint256"
        }
      ],
      "stateMutability": "view",
      "type": "function"
    },
    {
      "inputs": [
        {
          "components": [
            {
              "internalType": "uint256",
              "name": "price",
              "type": "uint256"
            },
            {
              "internalType": "uint256",
              "name": "solds",
              "type": "uint256"
            },
            {
              "internalType": "uint256",
              "name": "startTime",
              "type": "uint256"
            },
            {
              "internalType": "uint256",
              "name": "endTime",
              "type": "uint256"
            }
          ],
          "internalType": "struct BlindBox.Pool",
          "name": "pool",
          "type": "tuple"
        }
      ],
      "name": "addPool",
      "outputs": [],
      "stateMutability": "nonpayable",
      "type": "function"
    },
    {
      "inputs": [
        {
          "internalType": "address",
          "name": "to",
          "type": "address"
        },
        {
          "internalType": "uint256",
          "name": "tokenId",
          "type": "uint256"
        }
      ],
      "name": "approve",
      "outputs": [],
      "stateMutability": "nonpayable",
      "type": "function"
    },
    {
      "inputs": [
        {
          "internalType": "address",
          "name": "owner",
          "type": "address"
        }
      ],
      "name": "balanceOf",
      "outputs": [
        {
          "internalType": "uint256",
          "name": "",
          "type": "uint256"
        }
      ],
      "stateMutability": "view",
      "type": "function"
    },
    {
      "inputs": [],
      "name": "baseURI",
      "outputs": [
        {
          "internalType": "string",
          "name": "",
          "type": "string"
        }
      ],
      "stateMutability": "view",
      "type": "function"
    },
    {
      "inputs": [
        {
          "internalType": "uint256",
          "name": "amount",
          "type": "uint256"
        },
        {
          "internalType": "address",
          "name": "addr",
          "type": "address"
        }
      ],
      "name": "batchMint",
      "outputs": [],
      "stateMutability": "nonpayable",
      "type": "function"
    },
    {
      "inputs": [
        {
          "internalType": "uint256[]",
          "name": "tokenIds",
          "type": "uint256[]"
        }
      ],
      "name": "batchOpen",
      "outputs": [],
      "stateMutability": "payable",
      "type": "function"
    },
    {
      "inputs": [
        {
          "internalType": "address[]",
          "name": "froms",
          "type": "address[]"
        },
        {
          "internalType": "address[]",
          "name": "tos",
          "type": "address[]"
        },
        {
          "internalType": "uint256[]",
          "name": "tokenIds",
          "type": "uint256[]"
        }
      ],
      "name": "batchTransferFrom",
      "outputs": [],
      "stateMutability": "nonpayable",
      "type": "function"
    },
    {
      "inputs": [],
      "name": "beneficiary",
      "outputs": [
        {
          "internalType": "address payable",
          "name": "",
          "type": "address"
        }
      ],
      "stateMutability": "view",
      "type": "function"
    },
    {
      "inputs": [
        {
          "internalType": "uint256",
          "name": "pid",
          "type": "uint256"
        },
        {
          "internalType": "uint256",
          "name": "amount",
          "type": "uint256"
        }
      ],
      "name": "buy",
      "outputs": [],
      "stateMutability": "payable",
      "type": "function"
    },
    {
      "inputs": [],
      "name": "currentTokenId",
      "outputs": [
        {
          "internalType": "uint256",
          "name": "",
          "type": "uint256"
        }
      ],
      "stateMutability": "view",
      "type": "function"
    },
    {
      "inputs": [
        {
          "internalType": "uint256",
          "name": "tokenId",
          "type": "uint256"
        }
      ],
      "name": "getApproved",
      "outputs": [
        {
          "internalType": "address",
          "name": "",
          "type": "address"
        }
      ],
      "stateMutability": "view",
      "type": "function"
    },
    {
      "inputs": [
        {
          "internalType": "uint256",
          "name": "pid",
          "type": "uint256"
        },
        {
          "internalType": "address",
          "name": "account",
          "type": "address"
        }
      ],
      "name": "getUserBuyed",
      "outputs": [
        {
          "internalType": "uint256",
          "name": "",
          "type": "uint256"
        }
      ],
      "stateMutability": "view",
      "type": "function"
    },
    {
      "inputs": [],
      "name": "horse",
      "outputs": [
        {
          "internalType": "address",
          "name": "",
          "type": "address"
        }
      ],
      "stateMutability": "view",
      "type": "function"
    },
    {
      "inputs": [
        {
          "internalType": "address payable",
          "name": "beneficiary_",
          "type": "address"
        }
      ],
      "name": "initialize",
      "outputs": [],
      "stateMutability": "nonpayable",
      "type": "function"
    },
    {
      "inputs": [
        {
          "internalType": "address",
          "name": "owner",
          "type": "address"
        },
        {
          "internalType": "address",
          "name": "operator",
          "type": "address"
        }
      ],
      "name": "isApprovedForAll",
      "outputs": [
        {
          "internalType": "bool",
          "name": "",
          "type": "bool"
        }
      ],
      "stateMutability": "view",
      "type": "function"
    },
    {
      "inputs": [],
      "name": "name",
      "outputs": [
        {
          "internalType": "string",
          "name": "",
          "type": "string"
        }
      ],
      "stateMutability": "view",
      "type": "function"
    },
    {
      "inputs": [
        {
          "internalType": "uint256",
          "name": "tokenId",
          "type": "uint256"
        }
      ],
      "name": "open",
      "outputs": [],
      "stateMutability": "payable",
      "type": "function"
    },
    {
      "inputs": [],
      "name": "openFees",
      "outputs": [
        {
          "internalType": "uint256",
          "name": "",
          "type": "uint256"
        }
      ],
      "stateMutability": "view",
      "type": "function"
    },
    {
      "inputs": [],
      "name": "openStart",
      "outputs": [
        {
          "internalType": "bool",
          "name": "",
          "type": "bool"
        }
      ],
      "stateMutability": "view",
      "type": "function"
    },
    {
      "inputs": [],
      "name": "owner",
      "outputs": [
        {
          "internalType": "address",
          "name": "",
          "type": "address"
        }
      ],
      "stateMutability": "view",
      "type": "function"
    },
    {
      "inputs": [
        {
          "internalType": "uint256",
          "name": "tokenId",
          "type": "uint256"
        }
      ],
      "name": "ownerOf",
      "outputs": [
        {
          "internalType": "address",
          "name": "",
          "type": "address"
        }
      ],
      "stateMutability": "view",
      "type": "function"
    },
    {
      "inputs": [],
      "name": "poolLength",
      "outputs": [
        {
          "internalType": "uint256",
          "name": "",
          "type": "uint256"
        }
      ],
      "stateMutability": "view",
      "type": "function"
    },
    {
      "inputs": [
        {
          "internalType": "uint256",
          "name": "",
          "type": "uint256"
        }
      ],
      "name": "pools",
      "outputs": [
        {
          "internalType": "uint256",
          "name": "price",
          "type": "uint256"
        },
        {
          "internalType": "uint256",
          "name": "solds",
          "type": "uint256"
        },
        {
          "internalType": "uint256",
          "name": "startTime",
          "type": "uint256"
        },
        {
          "internalType": "uint256",
          "name": "endTime",
          "type": "uint256"
        }
      ],
      "stateMutability": "view",
      "type": "function"
    },
    {
      "inputs": [],
      "name": "price",
      "outputs": [
        {
          "internalType": "uint256",
          "name": "",
          "type": "uint256"
        }
      ],
      "stateMutability": "view",
      "type": "function"
    },
    {
      "inputs": [],
      "name": "renounceOwnership",
      "outputs": [],
      "stateMutability": "nonpayable",
      "type": "function"
    },
    {
      "inputs": [
        {
          "internalType": "uint256[]",
          "name": "type_1",
          "type": "uint256[]"
        },
        {
          "internalType": "uint256[]",
          "name": "type_2",
          "type": "uint256[]"
        },
        {
          "internalType": "uint256[]",
          "name": "type_3",
          "type": "uint256[]"
        },
        {
          "internalType": "uint256[]",
          "name": "type_4",
          "type": "uint256[]"
        }
      ],
      "name": "resetTypes",
      "outputs": [],
      "stateMutability": "nonpayable",
      "type": "function"
    },
    {
      "inputs": [
        {
          "internalType": "address",
          "name": "from",
          "type": "address"
        },
        {
          "internalType": "address",
          "name": "to",
          "type": "address"
        },
        {
          "internalType": "uint256",
          "name": "tokenId",
          "type": "uint256"
        }
      ],
      "name": "safeTransferFrom",
      "outputs": [],
      "stateMutability": "nonpayable",
      "type": "function"
    },
    {
      "inputs": [
        {
          "internalType": "address",
          "name": "from",
          "type": "address"
        },
        {
          "internalType": "address",
          "name": "to",
          "type": "address"
        },
        {
          "internalType": "uint256",
          "name": "tokenId",
          "type": "uint256"
        },
        {
          "internalType": "bytes",
          "name": "_data",
          "type": "bytes"
        }
      ],
      "name": "safeTransferFrom",
      "outputs": [],
      "stateMutability": "nonpayable",
      "type": "function"
    },
    {
      "inputs": [
        {
          "internalType": "address",
          "name": "operator",
          "type": "address"
        },
        {
          "internalType": "bool",
          "name": "approved",
          "type": "bool"
        }
      ],
      "name": "setApprovalForAll",
      "outputs": [],
      "stateMutability": "nonpayable",
      "type": "function"
    },
    {
      "inputs": [
        {
          "internalType": "address payable",
          "name": "newBeneficiary",
          "type": "address"
        }
      ],
      "name": "setBeneficiary",
      "outputs": [],
      "stateMutability": "nonpayable",
      "type": "function"
    },
    {
      "inputs": [
        {
          "internalType": "address",
          "name": "addr",
          "type": "address"
        }
      ],
      "name": "setHorse",
      "outputs": [],
      "stateMutability": "nonpayable",
      "type": "function"
    },
    {
      "inputs": [
        {
          "internalType": "uint256",
          "name": "_fees",
          "type": "uint256"
        }
      ],
      "name": "setOpenFees",
      "outputs": [],
      "stateMutability": "nonpayable",
      "type": "function"
    },
    {
      "inputs": [
        {
          "internalType": "bool",
          "name": "started",
          "type": "bool"
        }
      ],
      "name": "setOpenStart",
      "outputs": [],
      "stateMutability": "nonpayable",
      "type": "function"
    },
    {
      "inputs": [
        {
          "internalType": "uint256",
          "name": "pid",
          "type": "uint256"
        },
        {
          "components": [
            {
              "internalType": "uint256",
              "name": "price",
              "type": "uint256"
            },
            {
              "internalType": "uint256",
              "name": "solds",
              "type": "uint256"
            },
            {
              "internalType": "uint256",
              "name": "startTime",
              "type": "uint256"
            },
            {
              "internalType": "uint256",
              "name": "endTime",
              "type": "uint256"
            }
          ],
          "internalType": "struct BlindBox.Pool",
          "name": "pool",
          "type": "tuple"
        }
      ],
      "name": "setPool",
      "outputs": [],
      "stateMutability": "nonpayable",
      "type": "function"
    },
    {
      "inputs": [],
      "name": "solds",
      "outputs": [
        {
          "internalType": "uint256",
          "name": "",
          "type": "uint256"
        }
      ],
      "stateMutability": "view",
      "type": "function"
    },
    {
      "inputs": [
        {
          "internalType": "bytes4",
          "name": "interfaceId",
          "type": "bytes4"
        }
      ],
      "name": "supportsInterface",
      "outputs": [
        {
          "internalType": "bool",
          "name": "",
          "type": "bool"
        }
      ],
      "stateMutability": "view",
      "type": "function"
    },
    {
      "inputs": [],
      "name": "symbol",
      "outputs": [
        {
          "internalType": "string",
          "name": "",
          "type": "string"
        }
      ],
      "stateMutability": "view",
      "type": "function"
    },
    {
      "inputs": [
        {
          "internalType": "uint256",
          "name": "tokenId",
          "type": "uint256"
        }
      ],
      "name": "tokenURI",
      "outputs": [
        {
          "internalType": "string",
          "name": "",
          "type": "string"
        }
      ],
      "stateMutability": "view",
      "type": "function"
    },
    {
      "inputs": [
        {
          "internalType": "address",
          "name": "from",
          "type": "address"
        },
        {
          "internalType": "address",
          "name": "to",
          "type": "address"
        },
        {
          "internalType": "uint256",
          "name": "tokenId",
          "type": "uint256"
        }
      ],
      "name": "transferFrom",
      "outputs": [],
      "stateMutability": "nonpayable",
      "type": "function"
    },
    {
      "inputs": [
        {
          "internalType": "address",
          "name": "newOwner",
          "type": "address"
        }
      ],
      "name": "transferOwnership",
      "outputs": [],
      "stateMutability": "nonpayable",
      "type": "function"
    },
    {
      "inputs": [
        {
          "internalType": "address",
          "name": "",
          "type": "address"
        }
      ],
      "name": "userBuys",
      "outputs": [
        {
          "internalType": "uint256",
          "name": "",
          "type": "uint256"
        }
      ],
      "stateMutability": "view",
      "type": "function"
    }
  ],
  "bytecode": "0x608060405234801561001057600080fd5b50612eab806100206000396000f3fe60806040526004361061025b5760003560e01c80636c0360eb11610144578063b818f9e4116100b6578063c87b56dd1161007a578063c87b56dd1461072f578063d6febde81461074f578063d6ffd7a714610762578063e985e9c51461077c578063f2fde38b146107c5578063f5366b31146107e557600080fd5b8063b818f9e41461069a578063b8358715146106ba578063b88d4fde146106cf578063c2f637dc146106ef578063c4d66de81461070f57600080fd5b80638da5cb5b116101085780638da5cb5b146105af57806394ec22d0146105cd57806395d89b41146105ed578063a035b1fe14610602578063a22cb46514610618578063ac4afa381461063857600080fd5b80636c0360eb1461050f5780636da612d81461054457806370a082311461055a578063715018a61461057a57806372b94bbb1461058f57600080fd5b806323b872dd116101dd57806348d2df48116101a157806348d2df481461044a578063521d14f514610477578063623b08a81461049757806362c0be10146104b75780636352211e146104dc578063690e7c09146104fc57600080fd5b806323b872dd146103b457806338af3eed146103d45780633c51199f146103f457806342842e0e1461040a578063473017f71461042a57600080fd5b8063081812fc11610224578063081812fc14610313578063081e3eda1461034b578063095ea7b3146103615780631969160b146103815780631c31f7101461039457600080fd5b80629a9b7b1461026057806301ffc9a7146102895780630492524b146102b957806306fdde03146102db57806308101d29146102fd575b600080fd5b34801561026c57600080fd5b5061027660c95481565b6040519081526020015b60405180910390f35b34801561029557600080fd5b506102a96102a4366004612a9e565b610805565b6040519015158152602001610280565b3480156102c557600080fd5b506102d96102d4366004612a84565b610857565b005b3480156102e757600080fd5b506102f061089d565b6040516102809190612c09565b34801561030957600080fd5b5061027660d35481565b34801561031f57600080fd5b5061033361032e366004612af1565b61092f565b6040516001600160a01b039091168152602001610280565b34801561035757600080fd5b5061027660cf5481565b34801561036d57600080fd5b506102d961037c3660046128c4565b6109c4565b6102d961038f366004612985565b610ada565b3480156103a057600080fd5b506102d96103af366004612723565b610c00565b3480156103c057600080fd5b506102d96103cf366004612777565b610c4c565b3480156103e057600080fd5b5060cb54610333906001600160a01b031681565b34801561040057600080fd5b5061027660cc5481565b34801561041657600080fd5b506102d9610425366004612777565b610c7d565b34801561043657600080fd5b50610276610445366004612b09565b610c98565b34801561045657600080fd5b50610276610465366004612723565b60ca6020526000908152604090205481565b34801561048357600080fd5b506102d9610492366004612ad6565b610d0b565b3480156104a357600080fd5b506102d96104b23660046129c5565b610d91565b3480156104c357600080fd5b5060ce546103339061010090046001600160a01b031681565b3480156104e857600080fd5b506103336104f7366004612af1565b610f8d565b6102d961050a366004612af1565b611004565b34801561051b57600080fd5b5060408051808201909152600c81526b697066733a2f2f697066732f60a01b60208201526102f0565b34801561055057600080fd5b5061027661138881565b34801561056657600080fd5b50610276610575366004612723565b6110df565b34801561058657600080fd5b506102d9611166565b34801561059b57600080fd5b506102d96105aa366004612723565b61119c565b3480156105bb57600080fd5b506097546001600160a01b0316610333565b3480156105d957600080fd5b506102d96105e8366004612af1565b6111ee565b3480156105f957600080fd5b506102f061121d565b34801561060e57600080fd5b5061027660cd5481565b34801561062457600080fd5b506102d9610633366004612890565b61122c565b34801561064457600080fd5b5061067a610653366004612af1565b60d06020526000908152604090208054600182015460028301546003909301549192909184565b604080519485526020850193909352918301526060820152608001610280565b3480156106a657600080fd5b506102d96106b53660046128ef565b611237565b3480156106c657600080fd5b50610276600581565b3480156106db57600080fd5b506102d96106ea3660046127b7565b611376565b3480156106fb57600080fd5b506102d961070a366004612b09565b6113ae565b34801561071b57600080fd5b506102d961072a366004612723565b611488565b34801561073b57600080fd5b506102f061074a366004612af1565b6115bd565b6102d961075d366004612b50565b6116b9565b34801561076e57600080fd5b5060ce546102a99060ff1681565b34801561078857600080fd5b506102a961079736600461273f565b6001600160a01b039182166000908152606a6020908152604080832093909416825291909152205460ff1690565b3480156107d157600080fd5b506102d96107e0366004612723565b6119f8565b3480156107f157600080fd5b506102d9610800366004612b2d565b611a93565b60006001600160e01b031982166380ac58cd60e01b148061083657506001600160e01b03198216635b5e139f60e01b145b8061085157506301ffc9a760e01b6001600160e01b03198316145b92915050565b6097546001600160a01b0316331461088a5760405162461bcd60e51b815260040161088190612c6e565b60405180910390fd5b60ce805460ff1916911515919091179055565b6060606580546108ac90612dcd565b80601f01602080910402602001604051908101604052809291908181526020018280546108d890612dcd565b80156109255780601f106108fa57610100808354040283529160200191610925565b820191906000526020600020905b81548152906001019060200180831161090857829003601f168201915b5050505050905090565b6000818152606760205260408120546001600160a01b03166109a85760405162461bcd60e51b815260206004820152602c60248201527f4552433732313a20617070726f76656420717565727920666f72206e6f6e657860448201526b34b9ba32b73a103a37b5b2b760a11b6064820152608401610881565b506000908152606960205260409020546001600160a01b031690565b60006109cf82610f8d565b9050806001600160a01b0316836001600160a01b03161415610a3d5760405162461bcd60e51b815260206004820152602160248201527f4552433732313a20617070726f76616c20746f2063757272656e74206f776e656044820152603960f91b6064820152608401610881565b336001600160a01b0382161480610a595750610a598133610797565b610acb5760405162461bcd60e51b815260206004820152603860248201527f4552433732313a20617070726f76652063616c6c6572206973206e6f74206f7760448201527f6e6572206e6f7220617070726f76656420666f7220616c6c00000000000000006064820152608401610881565b610ad58383611af8565b505050565b60ce5460ff16610b225760405162461bcd60e51b8152602060048201526013602482015272109b1a5b99109bde0e88139bdd081cdd185c9d606a1b6044820152606401610881565b60d354610b30908290612d6b565b3414610b7a5760405162461bcd60e51b8152602060048201526019602482015278109b1a5b99109bde0e88199959481b9bdd0818dbdc9c9958dd603a1b6044820152606401610881565b60005b81811015610bc657610bb4838383818110610ba857634e487b7160e01b600052603260045260246000fd5b90506020020135611b66565b80610bbe81612e02565b915050610b7d565b5060cb546040516001600160a01b03909116904780156108fc02916000818181858888f19350505050158015610ad5573d6000803e3d6000fd5b6097546001600160a01b03163314610c2a5760405162461bcd60e51b815260040161088190612c6e565b60cb80546001600160a01b0319166001600160a01b0392909216919091179055565b610c563382611cbb565b610c725760405162461bcd60e51b815260040161088190612ca3565b610ad5838383611db2565b610ad583838360405180602001604052806000815250611376565b600060cf548310610ce25760405162461bcd60e51b8152602060048201526014602482015273109b1a5b99109bde0e88195b5c1d1e481c1bdbdb60621b6044820152606401610881565b50600091825260d1602090815260408084206001600160a01b0393909316845291905290205490565b6097546001600160a01b03163314610d355760405162461bcd60e51b815260040161088190612c6e565b60cf54600090815260d0602052604090208190610d738282813581556020820135600182015560408201356002820155606082013560038201555050565b905050600160cf6000828254610d899190612d3f565b909155505050565b6097546001600160a01b03163314610dbb5760405162461bcd60e51b815260040161088190612c6e565b60005b87811015610e2c57600160d260008b8b85818110610dec57634e487b7160e01b600052603260045260246000fd5b90506020020135815260200190815260200160002060006101000a81548160ff021916908360ff1602179055508080610e2490612e02565b915050610dbe565b5060005b85811015610e9e57600260d26000898985818110610e5e57634e487b7160e01b600052603260045260246000fd5b90506020020135815260200190815260200160002060006101000a81548160ff021916908360ff1602179055508080610e9690612e02565b915050610e30565b5060005b83811015610f1057600360d26000878785818110610ed057634e487b7160e01b600052603260045260246000fd5b90506020020135815260200190815260200160002060006101000a81548160ff021916908360ff1602179055508080610f0890612e02565b915050610ea2565b5060005b81811015610f8257600460d26000858585818110610f4257634e487b7160e01b600052603260045260246000fd5b90506020020135815260200190815260200160002060006101000a81548160ff021916908360ff1602179055508080610f7a90612e02565b915050610f14565b505050505050505050565b6000818152606760205260408120546001600160a01b0316806108515760405162461bcd60e51b815260206004820152602960248201527f4552433732313a206f776e657220717565727920666f72206e6f6e657869737460448201526832b73a103a37b5b2b760b91b6064820152608401610881565b60ce5460ff1661104c5760405162461bcd60e51b8152602060048201526013602482015272109b1a5b99109bde0e88139bdd081cdd185c9d606a1b6044820152606401610881565b60d35434146110995760405162461bcd60e51b8152602060048201526019602482015278109b1a5b99109bde0e88199959481b9bdd0818dbdc9c9958dd603a1b6044820152606401610881565b6110a281611b66565b60cb546040516001600160a01b03909116904780156108fc02916000818181858888f193505050501580156110db573d6000803e3d6000fd5b5050565b60006001600160a01b03821661114a5760405162461bcd60e51b815260206004820152602a60248201527f4552433732313a2062616c616e636520717565727920666f7220746865207a65604482015269726f206164647265737360b01b6064820152608401610881565b506001600160a01b031660009081526068602052604090205490565b6097546001600160a01b031633146111905760405162461bcd60e51b815260040161088190612c6e565b61119a6000611f52565b565b6097546001600160a01b031633146111c65760405162461bcd60e51b815260040161088190612c6e565b60ce80546001600160a01b0390921661010002610100600160a81b0319909216919091179055565b6097546001600160a01b031633146112185760405162461bcd60e51b815260040161088190612c6e565b60d355565b6060606680546108ac90612dcd565b6110db338383611fa4565b828114801561124557508085145b6112b75760405162461bcd60e51b815260206004820152603960248201527f426c696e64426f783a20746f732e6c656e677468206e657120746f6b656e496460448201527f732e6c656e677468206e65712066726f6d732e6c656e677468000000000000006064820152608401610881565b60005b8381101561136d5761135b8787838181106112e557634e487b7160e01b600052603260045260246000fd5b90506020020160208101906112fa9190612723565b86868481811061131a57634e487b7160e01b600052603260045260246000fd5b905060200201602081019061132f9190612723565b85858581811061134f57634e487b7160e01b600052603260045260246000fd5b90506020020135610c4c565b8061136581612e02565b9150506112ba565b50505050505050565b6113803383611cbb565b61139c5760405162461bcd60e51b815260040161088190612ca3565b6113a884848484612073565b50505050565b6097546001600160a01b031633146113d85760405162461bcd60e51b815260040161088190612c6e565b6113888260c9546113e99190612d3f565b11156114375760405162461bcd60e51b815260206004820152601d60248201527f426c696e64426f783a20746f6b656e4964206d617820697320353030300000006044820152606401610881565b60c9545b8260c9546114499190612d3f565b81101561146c5761145a82826120a6565b8061146481612e02565b91505061143b565b508160c9600082825461147f9190612d3f565b90915550505050565b600054610100900460ff166114a35760005460ff16156114a7565b303b155b61150a5760405162461bcd60e51b815260206004820152602e60248201527f496e697469616c697a61626c653a20636f6e747261637420697320616c72656160448201526d191e481a5b9a5d1a585b1a5e995960921b6064820152608401610881565b600054610100900460ff1615801561152c576000805461ffff19166101011790555b61158060405180604001604052806016815260200175090dee4e6ca40a4c2c6d2dcce4084d8d2dcc84084def60531b815250604051806040016040528060048152602001632429212160e11b8152506120c0565b611588612101565b60cb80546001600160a01b0319166001600160a01b038416179055600160c95580156110db576000805461ff00191690555050565b6000818152606760205260409020546060906001600160a01b031661163c5760405162461bcd60e51b815260206004820152602f60248201527f4552433732314d657461646174613a2055524920717565727920666f72206e6f60448201526e3732bc34b9ba32b73a103a37b5b2b760891b6064820152608401610881565b600061166760408051808201909152600c81526b697066733a2f2f697066732f60a01b602082015290565b9050600081511161168757604051806020016040528060008152506116b2565b8061169184612138565b6040516020016116a2929190612b9d565b6040516020818303038152906040525b9392505050565b60cf5482106117015760405162461bcd60e51b8152602060048201526014602482015273109b1a5b99109bde0e88195b5c1d1e481c1bdbdb60621b6044820152606401610881565b600082815260d060209081526040918290208251608081018452815481526001820154928101929092526002810154928201839052600301546060820152904210156117855760405162461bcd60e51b8152602060048201526013602482015272109b1a5b99109bde0e881b9bdd081cdd185c9d606a1b6044820152606401610881565b80606001514211156117cb5760405162461bcd60e51b815260206004820152600f60248201526e109b1a5b99109bde0e88195b991959608a1b6044820152606401610881565b805134906117d99084612d6b565b146118315760405162461bcd60e51b815260206004820152602260248201527f426c696e64426f783a206d73672e76616c7565206973206e6f7420636f72726560448201526118dd60f21b6064820152608401610881565b806020015160018360c9546118469190612d3f565b6118509190612d8a565b11156118935760405162461bcd60e51b8152602060048201526012602482015271109b1a5b99109bde0e8814dbdb190813dd5d60721b6044820152606401610881565b600083815260d1602090815260408083203384529091529020546005906118bb908490612d3f565b11156119095760405162461bcd60e51b815260206004820152601d60248201527f426c696e64426f783a2075736572206f6e6c79206275792066697665730000006044820152606401610881565b60c9545b8260c95461191b9190612d3f565b81101561193e5761192c33826120a6565b8061193681612e02565b91505061190d565b508160c960008282546119519190612d3f565b9091555050600083815260d1602090815260408083203384529091528120805484929061197f908490612d3f565b909155505060cb546040516001600160a01b03909116904780156108fc02916000818181858888f193505050501580156119bd573d6000803e3d6000fd5b5060405182815233907fe3d4187f6ca4248660cc0ac8b8056515bac4a8132be2eca31d6d0cc170722a7e9060200160405180910390a2505050565b6097546001600160a01b03163314611a225760405162461bcd60e51b815260040161088190612c6e565b6001600160a01b038116611a875760405162461bcd60e51b815260206004820152602660248201527f4f776e61626c653a206e6577206f776e657220697320746865207a65726f206160448201526564647265737360d01b6064820152608401610881565b611a9081611f52565b50565b6097546001600160a01b03163314611abd5760405162461bcd60e51b815260040161088190612c6e565b600082815260d06020526040902081906113a88282813581556020820135600182015560408201356002820155606082013560038201555050565b600081815260696020526040902080546001600160a01b0319166001600160a01b0384169081179091558190611b2d82610f8d565b6001600160a01b03167f8c5be1e5ebec7d5bd14f71427d1e84f3dd0314c0f7b2291e5b200ac8c7c3b92560405160405180910390a45050565b33611b7082610f8d565b6001600160a01b031614611bbe5760405162461bcd60e51b8152602060048201526015602482015274213634b7322137bc1d103737ba10309037bbb732b960591b6044820152606401610881565b600081815260d2602052604090205460ff1615801590611bf15750600081815260d26020526040902054600560ff909116105b611c345760405162461bcd60e51b8152602060048201526014602482015273213634b7322137bc1d103a3cb8329032b93937b960611b6044820152606401610881565b611c3d81612252565b60ce54600082815260d2602052604090819020549051630348ab1560e51b815233600482015260ff90911660248201526101009091046001600160a01b03169063691562a090604401600060405180830381600087803b158015611ca057600080fd5b505af1158015611cb4573d6000803e3d6000fd5b5050505050565b6000818152606760205260408120546001600160a01b0316611d345760405162461bcd60e51b815260206004820152602c60248201527f4552433732313a206f70657261746f7220717565727920666f72206e6f6e657860448201526b34b9ba32b73a103a37b5b2b760a11b6064820152608401610881565b6000611d3f83610f8d565b9050806001600160a01b0316846001600160a01b03161480611d7a5750836001600160a01b0316611d6f8461092f565b6001600160a01b0316145b80611daa57506001600160a01b038082166000908152606a602090815260408083209388168352929052205460ff165b949350505050565b826001600160a01b0316611dc582610f8d565b6001600160a01b031614611e2d5760405162461bcd60e51b815260206004820152602960248201527f4552433732313a207472616e73666572206f6620746f6b656e2074686174206960448201526839903737ba1037bbb760b91b6064820152608401610881565b6001600160a01b038216611e8f5760405162461bcd60e51b8152602060048201526024808201527f4552433732313a207472616e7366657220746f20746865207a65726f206164646044820152637265737360e01b6064820152608401610881565b611e9a600082611af8565b6001600160a01b0383166000908152606860205260408120805460019290611ec3908490612d8a565b90915550506001600160a01b0382166000908152606860205260408120805460019290611ef1908490612d3f565b909155505060008181526067602052604080822080546001600160a01b0319166001600160a01b0386811691821790925591518493918716917fddf252ad1be2c89b69c2b068fc378daa952ba7f163c4a11628f55a4df523b3ef91a4505050565b609780546001600160a01b038381166001600160a01b0319831681179093556040519116919082907f8be0079c531659141344cd1fd0a4f28419497f9722a3daafe3b4186f6b6457e090600090a35050565b816001600160a01b0316836001600160a01b031614156120065760405162461bcd60e51b815260206004820152601960248201527f4552433732313a20617070726f766520746f2063616c6c6572000000000000006044820152606401610881565b6001600160a01b038381166000818152606a6020908152604080832094871680845294825291829020805460ff191686151590811790915591519182527f17307eab39ab6107e8899845ad3d59bd9653f200f220920489ca2b5937696c31910160405180910390a3505050565b61207e848484611db2565b61208a848484846122ed565b6113a85760405162461bcd60e51b815260040161088190612c1c565b6110db8282604051806020016040528060008152506123fa565b600054610100900460ff166120e75760405162461bcd60e51b815260040161088190612cf4565b6120ef61242d565b6120f761242d565b6110db8282612454565b600054610100900460ff166121285760405162461bcd60e51b815260040161088190612cf4565b61213061242d565b61119a6124a2565b60608161215c5750506040805180820190915260018152600360fc1b602082015290565b8160005b8115612186578061217081612e02565b915061217f9050600a83612d57565b9150612160565b60008167ffffffffffffffff8111156121af57634e487b7160e01b600052604160045260246000fd5b6040519080825280601f01601f1916602001820160405280156121d9576020820181803683370190505b5090505b8415611daa576121ee600183612d8a565b91506121fb600a86612e1d565b612206906030612d3f565b60f81b81838151811061222957634e487b7160e01b600052603260045260246000fd5b60200101906001600160f81b031916908160001a90535061224b600a86612d57565b94506121dd565b600061225d82610f8d565b905061226a600083611af8565b6001600160a01b0381166000908152606860205260408120805460019290612293908490612d8a565b909155505060008281526067602052604080822080546001600160a01b0319169055518391906001600160a01b038416907fddf252ad1be2c89b69c2b068fc378daa952ba7f163c4a11628f55a4df523b3ef908390a45050565b60006001600160a01b0384163b156123ef57604051630a85bd0160e11b81526001600160a01b0385169063150b7a0290612331903390899088908890600401612bcc565b602060405180830381600087803b15801561234b57600080fd5b505af192505050801561237b575060408051601f3d908101601f1916820190925261237891810190612aba565b60015b6123d5573d8080156123a9576040519150601f19603f3d011682016040523d82523d6000602084013e6123ae565b606091505b5080516123cd5760405162461bcd60e51b815260040161088190612c1c565b805181602001fd5b6001600160e01b031916630a85bd0160e11b149050611daa565b506001949350505050565b61240483836124d2565b61241160008484846122ed565b610ad55760405162461bcd60e51b815260040161088190612c1c565b600054610100900460ff1661119a5760405162461bcd60e51b815260040161088190612cf4565b600054610100900460ff1661247b5760405162461bcd60e51b815260040161088190612cf4565b815161248e906065906020850190612614565b508051610ad5906066906020840190612614565b600054610100900460ff166124c95760405162461bcd60e51b815260040161088190612cf4565b61119a33611f52565b6001600160a01b0382166125285760405162461bcd60e51b815260206004820181905260248201527f4552433732313a206d696e7420746f20746865207a65726f20616464726573736044820152606401610881565b6000818152606760205260409020546001600160a01b03161561258d5760405162461bcd60e51b815260206004820152601c60248201527f4552433732313a20746f6b656e20616c7265616479206d696e746564000000006044820152606401610881565b6001600160a01b03821660009081526068602052604081208054600192906125b6908490612d3f565b909155505060008181526067602052604080822080546001600160a01b0319166001600160a01b03861690811790915590518392907fddf252ad1be2c89b69c2b068fc378daa952ba7f163c4a11628f55a4df523b3ef908290a45050565b82805461262090612dcd565b90600052602060002090601f0160209004810192826126425760008555612688565b82601f1061265b57805160ff1916838001178555612688565b82800160010185558215612688579182015b8281111561268857825182559160200191906001019061266d565b50612694929150612698565b5090565b5b808211156126945760008155600101612699565b60008083601f8401126126be578081fd5b50813567ffffffffffffffff8111156126d5578182fd5b6020830191508360208260051b85010111156126f057600080fd5b9250929050565b8035801515811461270757600080fd5b919050565b60006080828403121561271d578081fd5b50919050565b600060208284031215612734578081fd5b81356116b281612e73565b60008060408385031215612751578081fd5b823561275c81612e73565b9150602083013561276c81612e73565b809150509250929050565b60008060006060848603121561278b578081fd5b833561279681612e73565b925060208401356127a681612e73565b929592945050506040919091013590565b600080600080608085870312156127cc578081fd5b84356127d781612e73565b935060208501356127e781612e73565b925060408501359150606085013567ffffffffffffffff8082111561280a578283fd5b818701915087601f83011261281d578283fd5b81358181111561282f5761282f612e5d565b604051601f8201601f19908116603f0116810190838211818310171561285757612857612e5d565b816040528281528a602084870101111561286f578586fd5b82602086016020830137918201602001949094529598949750929550505050565b600080604083850312156128a2578182fd5b82356128ad81612e73565b91506128bb602084016126f7565b90509250929050565b600080604083850312156128d6578182fd5b82356128e181612e73565b946020939093013593505050565b60008060008060008060608789031215612907578182fd5b863567ffffffffffffffff8082111561291e578384fd5b61292a8a838b016126ad565b90985096506020890135915080821115612942578384fd5b61294e8a838b016126ad565b90965094506040890135915080821115612966578384fd5b5061297389828a016126ad565b979a9699509497509295939492505050565b60008060208385031215612997578182fd5b823567ffffffffffffffff8111156129ad578283fd5b6129b9858286016126ad565b90969095509350505050565b6000806000806000806000806080898b0312156129e0578182fd5b883567ffffffffffffffff808211156129f7578384fd5b612a038c838d016126ad565b909a50985060208b0135915080821115612a1b578384fd5b612a278c838d016126ad565b909850965060408b0135915080821115612a3f578384fd5b612a4b8c838d016126ad565b909650945060608b0135915080821115612a63578384fd5b50612a708b828c016126ad565b999c989b5096995094979396929594505050565b600060208284031215612a95578081fd5b6116b2826126f7565b600060208284031215612aaf578081fd5b81356116b281612e88565b600060208284031215612acb578081fd5b81516116b281612e88565b600060808284031215612ae7578081fd5b6116b2838361270c565b600060208284031215612b02578081fd5b5035919050565b60008060408385031215612b1b578182fd5b82359150602083013561276c81612e73565b60008060a08385031215612b3f578182fd5b823591506128bb846020850161270c565b60008060408385031215612b62578182fd5b50508035926020909101359150565b60008151808452612b89816020860160208601612da1565b601f01601f19169290920160200192915050565b60008351612baf818460208801612da1565b835190830190612bc3818360208801612da1565b01949350505050565b6001600160a01b0385811682528416602082015260408101839052608060608201819052600090612bff90830184612b71565b9695505050505050565b6020815260006116b26020830184612b71565b60208082526032908201527f4552433732313a207472616e7366657220746f206e6f6e20455243373231526560408201527131b2b4bb32b91034b6b83632b6b2b73a32b960711b606082015260800190565b6020808252818101527f4f776e61626c653a2063616c6c6572206973206e6f7420746865206f776e6572604082015260600190565b60208082526031908201527f4552433732313a207472616e736665722063616c6c6572206973206e6f74206f6040820152701ddb995c881b9bdc88185c1c1c9bdd9959607a1b606082015260800190565b6020808252602b908201527f496e697469616c697a61626c653a20636f6e7472616374206973206e6f74206960408201526a6e697469616c697a696e6760a81b606082015260800190565b60008219821115612d5257612d52612e31565b500190565b600082612d6657612d66612e47565b500490565b6000816000190483118215151615612d8557612d85612e31565b500290565b600082821015612d9c57612d9c612e31565b500390565b60005b83811015612dbc578181015183820152602001612da4565b838111156113a85750506000910152565b600181811c90821680612de157607f821691505b6020821081141561271d57634e487b7160e01b600052602260045260246000fd5b6000600019821415612e1657612e16612e31565b5060010190565b600082612e2c57612e2c612e47565b500690565b634e487b7160e01b600052601160045260246000fd5b634e487b7160e01b600052601260045260246000fd5b634e487b7160e01b600052604160045260246000fd5b6001600160a01b0381168114611a9057600080fd5b6001600160e01b031981168114611a9057600080fdfea164736f6c6343000804000a",
  "linkReferences": {},
  "deployedLinkReferences": {}
}