{
  "address": "0xCa07Cd5dF8dCBDc6A55305E80573F1CDB90aCaCd",
  "transactionHash": "0xd6a04c52e94dc0558af2afb6379e1a0e432913c9fae4b954627b880cdf6f722f",
  "args": [
    "0x0Fc0c315F3b38ca5a3bb7118fa689B9682eeA1E9"
  ],
  "_format": "hh-sol-artifact-1",
  "contractName": "BlindBox",
  "sourceName": "contracts/BlindBox.sol",
  "abi": [
    {
      "anonymous": false,
      "inputs": [
        {
          "indexed": true,
          "internalType": "address",
          "name": "owner",
          "type": "address"
        },
        {
          "indexed": true,
          "internalType": "address",
          "name": "approved",
          "type": "address"
        },
        {
          "indexed": true,
          "internalType": "uint256",
          "name": "tokenId",
          "type": "uint256"
        }
      ],
      "name": "Approval",
      "type": "event"
    },
    {
      "anonymous": false,
      "inputs": [
        {
          "indexed": true,
          "internalType": "address",
          "name": "owner",
          "type": "address"
        },
        {
          "indexed": true,
          "internalType": "address",
          "name": "operator",
          "type": "address"
        },
        {
          "indexed": false,
          "internalType": "bool",
          "name": "approved",
          "type": "bool"
        }
      ],
      "name": "ApprovalForAll",
      "type": "event"
    },
    {
      "anonymous": false,
      "inputs": [
        {
          "indexed": true,
          "internalType": "address",
          "name": "user",
          "type": "address"
        },
        {
          "indexed": false,
          "internalType": "uint256",
          "name": "amount",
          "type": "uint256"
        }
      ],
      "name": "Buy",
      "type": "event"
    },
    {
      "anonymous": false,
      "inputs": [
        {
          "indexed": true,
          "internalType": "address",
          "name": "previousOwner",
          "type": "address"
        },
        {
          "indexed": true,
          "internalType": "address",
          "name": "newOwner",
          "type": "address"
        }
      ],
      "name": "OwnershipTransferred",
      "type": "event"
    },
    {
      "anonymous": false,
      "inputs": [
        {
          "indexed": true,
          "internalType": "address",
          "name": "from",
          "type": "address"
        },
        {
          "indexed": true,
          "internalType": "address",
          "name": "to",
          "type": "address"
        },
        {
          "indexed": true,
          "internalType": "uint256",
          "name": "tokenId",
          "type": "uint256"
        }
      ],
      "name": "Transfer",
      "type": "event"
    },
    {
      "inputs": [],
      "name": "AMOUNT_PER_USER",
      "outputs": [
        {
          "internalType": "uint256",
          "name": "",
          "type": "uint256"
        }
      ],
      "stateMutability": "view",
      "type": "function"
    },
    {
      "inputs": [],
      "name": "MAX_TOKEN_ID",
      "outputs": [
        {
          "internalType": "uint256",
          "name": "",
          "type": "uint256"
        }
      ],
      "stateMutability": "view",
      "type": "function"
    },
    {
      "inputs": [
        {
          "components": [
            {
              "internalType": "uint256",
              "name": "price",
              "type": "uint256"
            },
            {
              "internalType": "uint256",
              "name": "solds",
              "type": "uint256"
            },
            {
              "internalType": "uint256",
              "name": "startTime",
              "type": "uint256"
            },
            {
              "internalType": "uint256",
              "name": "endTime",
              "type": "uint256"
            }
          ],
          "internalType": "struct BlindBox.Pool",
          "name": "pool",
          "type": "tuple"
        }
      ],
      "name": "addPool",
      "outputs": [],
      "stateMutability": "nonpayable",
      "type": "function"
    },
    {
      "inputs": [
        {
          "internalType": "address",
          "name": "to",
          "type": "address"
        },
        {
          "internalType": "uint256",
          "name": "tokenId",
          "type": "uint256"
        }
      ],
      "name": "approve",
      "outputs": [],
      "stateMutability": "nonpayable",
      "type": "function"
    },
    {
      "inputs": [
        {
          "internalType": "address",
          "name": "owner",
          "type": "address"
        }
      ],
      "name": "balanceOf",
      "outputs": [
        {
          "internalType": "uint256",
          "name": "",
          "type": "uint256"
        }
      ],
      "stateMutability": "view",
      "type": "function"
    },
    {
      "inputs": [],
      "name": "baseURI",
      "outputs": [
        {
          "internalType": "string",
          "name": "",
          "type": "string"
        }
      ],
      "stateMutability": "view",
      "type": "function"
    },
    {
      "inputs": [
        {
          "internalType": "uint256",
          "name": "amount",
          "type": "uint256"
        },
        {
          "internalType": "address",
          "name": "addr",
          "type": "address"
        }
      ],
      "name": "batchMint",
      "outputs": [],
      "stateMutability": "nonpayable",
      "type": "function"
    },
    {
      "inputs": [
        {
          "internalType": "uint256[]",
          "name": "tokenIds",
          "type": "uint256[]"
        }
      ],
      "name": "batchOpen",
      "outputs": [],
      "stateMutability": "nonpayable",
      "type": "function"
    },
    {
      "inputs": [
        {
          "internalType": "address[]",
          "name": "froms",
          "type": "address[]"
        },
        {
          "internalType": "address[]",
          "name": "tos",
          "type": "address[]"
        },
        {
          "internalType": "uint256[]",
          "name": "tokenIds",
          "type": "uint256[]"
        }
      ],
      "name": "batchTransferFrom",
      "outputs": [],
      "stateMutability": "nonpayable",
      "type": "function"
    },
    {
      "inputs": [],
      "name": "beneficiary",
      "outputs": [
        {
          "internalType": "address payable",
          "name": "",
          "type": "address"
        }
      ],
      "stateMutability": "view",
      "type": "function"
    },
    {
      "inputs": [
        {
          "internalType": "uint256",
          "name": "pid",
          "type": "uint256"
        },
        {
          "internalType": "uint256",
          "name": "amount",
          "type": "uint256"
        }
      ],
      "name": "buy",
      "outputs": [],
      "stateMutability": "payable",
      "type": "function"
    },
    {
      "inputs": [],
      "name": "currentTokenId",
      "outputs": [
        {
          "internalType": "uint256",
          "name": "",
          "type": "uint256"
        }
      ],
      "stateMutability": "view",
      "type": "function"
    },
    {
      "inputs": [
        {
          "internalType": "uint256",
          "name": "tokenId",
          "type": "uint256"
        }
      ],
      "name": "getApproved",
      "outputs": [
        {
          "internalType": "address",
          "name": "",
          "type": "address"
        }
      ],
      "stateMutability": "view",
      "type": "function"
    },
    {
      "inputs": [
        {
          "internalType": "uint256",
          "name": "pid",
          "type": "uint256"
        },
        {
          "internalType": "address",
          "name": "account",
          "type": "address"
        }
      ],
      "name": "getUserBuyed",
      "outputs": [
        {
          "internalType": "uint256",
          "name": "",
          "type": "uint256"
        }
      ],
      "stateMutability": "view",
      "type": "function"
    },
    {
      "inputs": [],
      "name": "horse",
      "outputs": [
        {
          "internalType": "address",
          "name": "",
          "type": "address"
        }
      ],
      "stateMutability": "view",
      "type": "function"
    },
    {
      "inputs": [
        {
          "internalType": "address payable",
          "name": "beneficiary_",
          "type": "address"
        }
      ],
      "name": "initialize",
      "outputs": [],
      "stateMutability": "nonpayable",
      "type": "function"
    },
    {
      "inputs": [
        {
          "internalType": "address",
          "name": "owner",
          "type": "address"
        },
        {
          "internalType": "address",
          "name": "operator",
          "type": "address"
        }
      ],
      "name": "isApprovedForAll",
      "outputs": [
        {
          "internalType": "bool",
          "name": "",
          "type": "bool"
        }
      ],
      "stateMutability": "view",
      "type": "function"
    },
    {
      "inputs": [],
      "name": "name",
      "outputs": [
        {
          "internalType": "string",
          "name": "",
          "type": "string"
        }
      ],
      "stateMutability": "view",
      "type": "function"
    },
    {
      "inputs": [
        {
          "internalType": "uint256",
          "name": "tokenId",
          "type": "uint256"
        }
      ],
      "name": "open",
      "outputs": [],
      "stateMutability": "nonpayable",
      "type": "function"
    },
    {
      "inputs": [],
      "name": "openStart",
      "outputs": [
        {
          "internalType": "bool",
          "name": "",
          "type": "bool"
        }
      ],
      "stateMutability": "view",
      "type": "function"
    },
    {
      "inputs": [],
      "name": "owner",
      "outputs": [
        {
          "internalType": "address",
          "name": "",
          "type": "address"
        }
      ],
      "stateMutability": "view",
      "type": "function"
    },
    {
      "inputs": [
        {
          "internalType": "uint256",
          "name": "tokenId",
          "type": "uint256"
        }
      ],
      "name": "ownerOf",
      "outputs": [
        {
          "internalType": "address",
          "name": "",
          "type": "address"
        }
      ],
      "stateMutability": "view",
      "type": "function"
    },
    {
      "inputs": [],
      "name": "poolLength",
      "outputs": [
        {
          "internalType": "uint256",
          "name": "",
          "type": "uint256"
        }
      ],
      "stateMutability": "view",
      "type": "function"
    },
    {
      "inputs": [
        {
          "internalType": "uint256",
          "name": "",
          "type": "uint256"
        }
      ],
      "name": "pools",
      "outputs": [
        {
          "internalType": "uint256",
          "name": "price",
          "type": "uint256"
        },
        {
          "internalType": "uint256",
          "name": "solds",
          "type": "uint256"
        },
        {
          "internalType": "uint256",
          "name": "startTime",
          "type": "uint256"
        },
        {
          "internalType": "uint256",
          "name": "endTime",
          "type": "uint256"
        }
      ],
      "stateMutability": "view",
      "type": "function"
    },
    {
      "inputs": [],
      "name": "price",
      "outputs": [
        {
          "internalType": "uint256",
          "name": "",
          "type": "uint256"
        }
      ],
      "stateMutability": "view",
      "type": "function"
    },
    {
      "inputs": [],
      "name": "renounceOwnership",
      "outputs": [],
      "stateMutability": "nonpayable",
      "type": "function"
    },
    {
      "inputs": [
        {
          "internalType": "address",
          "name": "from",
          "type": "address"
        },
        {
          "internalType": "address",
          "name": "to",
          "type": "address"
        },
        {
          "internalType": "uint256",
          "name": "tokenId",
          "type": "uint256"
        }
      ],
      "name": "safeTransferFrom",
      "outputs": [],
      "stateMutability": "nonpayable",
      "type": "function"
    },
    {
      "inputs": [
        {
          "internalType": "address",
          "name": "from",
          "type": "address"
        },
        {
          "internalType": "address",
          "name": "to",
          "type": "address"
        },
        {
          "internalType": "uint256",
          "name": "tokenId",
          "type": "uint256"
        },
        {
          "internalType": "bytes",
          "name": "_data",
          "type": "bytes"
        }
      ],
      "name": "safeTransferFrom",
      "outputs": [],
      "stateMutability": "nonpayable",
      "type": "function"
    },
    {
      "inputs": [
        {
          "internalType": "address",
          "name": "operator",
          "type": "address"
        },
        {
          "internalType": "bool",
          "name": "approved",
          "type": "bool"
        }
      ],
      "name": "setApprovalForAll",
      "outputs": [],
      "stateMutability": "nonpayable",
      "type": "function"
    },
    {
      "inputs": [
        {
          "internalType": "address payable",
          "name": "newBeneficiary",
          "type": "address"
        }
      ],
      "name": "setBeneficiary",
      "outputs": [],
      "stateMutability": "nonpayable",
      "type": "function"
    },
    {
      "inputs": [
        {
          "internalType": "address",
          "name": "addr",
          "type": "address"
        }
      ],
      "name": "setHorse",
      "outputs": [],
      "stateMutability": "nonpayable",
      "type": "function"
    },
    {
      "inputs": [
        {
          "internalType": "bool",
          "name": "started",
          "type": "bool"
        }
      ],
      "name": "setOpenStart",
      "outputs": [],
      "stateMutability": "nonpayable",
      "type": "function"
    },
    {
      "inputs": [],
      "name": "solds",
      "outputs": [
        {
          "internalType": "uint256",
          "name": "",
          "type": "uint256"
        }
      ],
      "stateMutability": "view",
      "type": "function"
    },
    {
      "inputs": [
        {
          "internalType": "bytes4",
          "name": "interfaceId",
          "type": "bytes4"
        }
      ],
      "name": "supportsInterface",
      "outputs": [
        {
          "internalType": "bool",
          "name": "",
          "type": "bool"
        }
      ],
      "stateMutability": "view",
      "type": "function"
    },
    {
      "inputs": [],
      "name": "symbol",
      "outputs": [
        {
          "internalType": "string",
          "name": "",
          "type": "string"
        }
      ],
      "stateMutability": "view",
      "type": "function"
    },
    {
      "inputs": [
        {
          "internalType": "uint256",
          "name": "tokenId",
          "type": "uint256"
        }
      ],
      "name": "tokenURI",
      "outputs": [
        {
          "internalType": "string",
          "name": "",
          "type": "string"
        }
      ],
      "stateMutability": "view",
      "type": "function"
    },
    {
      "inputs": [
        {
          "internalType": "address",
          "name": "from",
          "type": "address"
        },
        {
          "internalType": "address",
          "name": "to",
          "type": "address"
        },
        {
          "internalType": "uint256",
          "name": "tokenId",
          "type": "uint256"
        }
      ],
      "name": "transferFrom",
      "outputs": [],
      "stateMutability": "nonpayable",
      "type": "function"
    },
    {
      "inputs": [
        {
          "internalType": "address",
          "name": "newOwner",
          "type": "address"
        }
      ],
      "name": "transferOwnership",
      "outputs": [],
      "stateMutability": "nonpayable",
      "type": "function"
    },
    {
      "inputs": [
        {
          "internalType": "address",
          "name": "",
          "type": "address"
        }
      ],
      "name": "userBuys",
      "outputs": [
        {
          "internalType": "uint256",
          "name": "",
          "type": "uint256"
        }
      ],
      "stateMutability": "view",
      "type": "function"
    }
  ],
  "bytecode": "0x608060405234801561001057600080fd5b506128f5806100206000396000f3fe60806040526004361061022f5760003560e01c80636c0360eb1161012e578063b818f9e4116100ab578063c87b56dd1161006f578063c87b56dd146106c7578063d6febde8146106e7578063d6ffd7a7146106fa578063e985e9c514610714578063f2fde38b1461075d57600080fd5b8063b818f9e414610632578063b835871514610652578063b88d4fde14610667578063c2f637dc14610687578063c4d66de8146106a757600080fd5b80638da5cb5b116100f25780638da5cb5b1461056757806395d89b4114610585578063a035b1fe1461059a578063a22cb465146105b0578063ac4afa38146105d057600080fd5b80636c0360eb146104c75780636da612d8146104fc57806370a0823114610512578063715018a61461053257806372b94bbb1461054757600080fd5b806323b872dd116101bc57806348d2df481161018057806348d2df4814610415578063521d14f51461044257806362c0be10146104625780636352211e14610487578063690e7c09146104a757600080fd5b806323b872dd1461037f57806338af3eed1461039f5780633c51199f146103bf57806342842e0e146103d5578063473017f7146103f557600080fd5b8063081812fc11610203578063081812fc146102d1578063081e3eda14610309578063095ea7b31461031f5780631969160b1461033f5780631c31f7101461035f57600080fd5b80629a9b7b1461023457806301ffc9a71461025d5780630492524b1461028d57806306fdde03146102af575b600080fd5b34801561024057600080fd5b5061024a60c95481565b6040519081526020015b60405180910390f35b34801561026957600080fd5b5061027d61027836600461250f565b61077d565b6040519015158152602001610254565b34801561029957600080fd5b506102ad6102a83660046124f5565b6107cf565b005b3480156102bb57600080fd5b506102c4610815565b6040516102549190612653565b3480156102dd57600080fd5b506102f16102ec36600461255e565b6108a7565b6040516001600160a01b039091168152602001610254565b34801561031557600080fd5b5061024a60cf5481565b34801561032b57600080fd5b506102ad61033a3660046123f4565b61093c565b34801561034b57600080fd5b506102ad61035a3660046124b5565b610a52565b34801561036b57600080fd5b506102ad61037a366004612253565b610ae6565b34801561038b57600080fd5b506102ad61039a3660046122a7565b610b32565b3480156103ab57600080fd5b5060cb546102f1906001600160a01b031681565b3480156103cb57600080fd5b5061024a60cc5481565b3480156103e157600080fd5b506102ad6103f03660046122a7565b610b63565b34801561040157600080fd5b5061024a610410366004612576565b610b7e565b34801561042157600080fd5b5061024a610430366004612253565b60ca6020526000908152604090205481565b34801561044e57600080fd5b506102ad61045d366004612547565b610bf1565b34801561046e57600080fd5b5060ce546102f19061010090046001600160a01b031681565b34801561049357600080fd5b506102f16104a236600461255e565b610c77565b3480156104b357600080fd5b506102ad6104c236600461255e565b610cee565b3480156104d357600080fd5b5060408051808201909152600c81526b697066733a2f2f697066732f60a01b60208201526102c4565b34801561050857600080fd5b5061024a61138881565b34801561051e57600080fd5b5061024a61052d366004612253565b610d42565b34801561053e57600080fd5b506102ad610dc9565b34801561055357600080fd5b506102ad610562366004612253565b610dff565b34801561057357600080fd5b506097546001600160a01b03166102f1565b34801561059157600080fd5b506102c4610e51565b3480156105a657600080fd5b5061024a60cd5481565b3480156105bc57600080fd5b506102ad6105cb3660046123c0565b610e60565b3480156105dc57600080fd5b506106126105eb36600461255e565b60d06020526000908152604090208054600182015460028301546003909301549192909184565b604080519485526020850193909352918301526060820152608001610254565b34801561063e57600080fd5b506102ad61064d36600461241f565b610e6f565b34801561065e57600080fd5b5061024a600581565b34801561067357600080fd5b506102ad6106823660046122e7565b610fae565b34801561069357600080fd5b506102ad6106a2366004612576565b610fe6565b3480156106b357600080fd5b506102ad6106c2366004612253565b6110c0565b3480156106d357600080fd5b506102c46106e236600461255e565b6111f5565b6102ad6106f536600461259a565b6112f1565b34801561070657600080fd5b5060ce5461027d9060ff1681565b34801561072057600080fd5b5061027d61072f36600461226f565b6001600160a01b039182166000908152606a6020908152604080832093909416825291909152205460ff1690565b34801561076957600080fd5b506102ad610778366004612253565b611630565b60006001600160e01b031982166380ac58cd60e01b14806107ae57506001600160e01b03198216635b5e139f60e01b145b806107c957506301ffc9a760e01b6001600160e01b03198316145b92915050565b6097546001600160a01b031633146108025760405162461bcd60e51b81526004016107f9906126b8565b60405180910390fd5b60ce805460ff1916911515919091179055565b60606065805461082490612817565b80601f016020809104026020016040519081016040528092919081815260200182805461085090612817565b801561089d5780601f106108725761010080835404028352916020019161089d565b820191906000526020600020905b81548152906001019060200180831161088057829003601f168201915b5050505050905090565b6000818152606760205260408120546001600160a01b03166109205760405162461bcd60e51b815260206004820152602c60248201527f4552433732313a20617070726f76656420717565727920666f72206e6f6e657860448201526b34b9ba32b73a103a37b5b2b760a11b60648201526084016107f9565b506000908152606960205260409020546001600160a01b031690565b600061094782610c77565b9050806001600160a01b0316836001600160a01b031614156109b55760405162461bcd60e51b815260206004820152602160248201527f4552433732313a20617070726f76616c20746f2063757272656e74206f776e656044820152603960f91b60648201526084016107f9565b336001600160a01b03821614806109d157506109d1813361072f565b610a435760405162461bcd60e51b815260206004820152603860248201527f4552433732313a20617070726f76652063616c6c6572206973206e6f74206f7760448201527f6e6572206e6f7220617070726f76656420666f7220616c6c000000000000000060648201526084016107f9565b610a4d83836116c8565b505050565b60ce5460ff16610a9a5760405162461bcd60e51b8152602060048201526013602482015272109b1a5b99109bde0e88139bdd081cdd185c9d606a1b60448201526064016107f9565b60005b81811015610a4d57610ad4838383818110610ac857634e487b7160e01b600052603260045260246000fd5b90506020020135611736565b80610ade8161284c565b915050610a9d565b6097546001600160a01b03163314610b105760405162461bcd60e51b81526004016107f9906126b8565b60cb80546001600160a01b0319166001600160a01b0392909216919091179055565b610b3c3382611802565b610b585760405162461bcd60e51b81526004016107f9906126ed565b610a4d8383836118f9565b610a4d83838360405180602001604052806000815250610fae565b600060cf548310610bc85760405162461bcd60e51b8152602060048201526014602482015273109b1a5b99109bde0e88195b5c1d1e481c1bdbdb60621b60448201526064016107f9565b50600091825260d1602090815260408084206001600160a01b0393909316845291905290205490565b6097546001600160a01b03163314610c1b5760405162461bcd60e51b81526004016107f9906126b8565b60cf54600090815260d0602052604090208190610c598282813581556020820135600182015560408201356002820155606082013560038201555050565b905050600160cf6000828254610c6f9190612789565b909155505050565b6000818152606760205260408120546001600160a01b0316806107c95760405162461bcd60e51b815260206004820152602960248201527f4552433732313a206f776e657220717565727920666f72206e6f6e657869737460448201526832b73a103a37b5b2b760b91b60648201526084016107f9565b60ce5460ff16610d365760405162461bcd60e51b8152602060048201526013602482015272109b1a5b99109bde0e88139bdd081cdd185c9d606a1b60448201526064016107f9565b610d3f81611736565b50565b60006001600160a01b038216610dad5760405162461bcd60e51b815260206004820152602a60248201527f4552433732313a2062616c616e636520717565727920666f7220746865207a65604482015269726f206164647265737360b01b60648201526084016107f9565b506001600160a01b031660009081526068602052604090205490565b6097546001600160a01b03163314610df35760405162461bcd60e51b81526004016107f9906126b8565b610dfd6000611a99565b565b6097546001600160a01b03163314610e295760405162461bcd60e51b81526004016107f9906126b8565b60ce80546001600160a01b0390921661010002610100600160a81b0319909216919091179055565b60606066805461082490612817565b610e6b338383611aeb565b5050565b8281148015610e7d57508085145b610eef5760405162461bcd60e51b815260206004820152603960248201527f426c696e64426f783a20746f732e6c656e677468206e657120746f6b656e496460448201527f732e6c656e677468206e65712066726f6d732e6c656e6774680000000000000060648201526084016107f9565b60005b83811015610fa557610f93878783818110610f1d57634e487b7160e01b600052603260045260246000fd5b9050602002016020810190610f329190612253565b868684818110610f5257634e487b7160e01b600052603260045260246000fd5b9050602002016020810190610f679190612253565b858585818110610f8757634e487b7160e01b600052603260045260246000fd5b90506020020135610b32565b80610f9d8161284c565b915050610ef2565b50505050505050565b610fb83383611802565b610fd45760405162461bcd60e51b81526004016107f9906126ed565b610fe084848484611bba565b50505050565b6097546001600160a01b031633146110105760405162461bcd60e51b81526004016107f9906126b8565b6113888260c9546110219190612789565b111561106f5760405162461bcd60e51b815260206004820152601d60248201527f426c696e64426f783a20746f6b656e4964206d6178206973203530303000000060448201526064016107f9565b60c9545b8260c9546110819190612789565b8110156110a4576110928282611bed565b8061109c8161284c565b915050611073565b508160c960008282546110b79190612789565b90915550505050565b600054610100900460ff166110db5760005460ff16156110df565b303b155b6111425760405162461bcd60e51b815260206004820152602e60248201527f496e697469616c697a61626c653a20636f6e747261637420697320616c72656160448201526d191e481a5b9a5d1a585b1a5e995960921b60648201526084016107f9565b600054610100900460ff16158015611164576000805461ffff19166101011790555b6111b860405180604001604052806016815260200175090dee4e6ca40a4c2c6d2dcce4084d8d2dcc84084def60531b815250604051806040016040528060048152602001632429212160e11b815250611c07565b6111c0611c48565b60cb80546001600160a01b0319166001600160a01b038416179055600160c9558015610e6b576000805461ff00191690555050565b6000818152606760205260409020546060906001600160a01b03166112745760405162461bcd60e51b815260206004820152602f60248201527f4552433732314d657461646174613a2055524920717565727920666f72206e6f60448201526e3732bc34b9ba32b73a103a37b5b2b760891b60648201526084016107f9565b600061129f60408051808201909152600c81526b697066733a2f2f697066732f60a01b602082015290565b905060008151116112bf57604051806020016040528060008152506112ea565b806112c984611c7f565b6040516020016112da9291906125e7565b6040516020818303038152906040525b9392505050565b60cf5482106113395760405162461bcd60e51b8152602060048201526014602482015273109b1a5b99109bde0e88195b5c1d1e481c1bdbdb60621b60448201526064016107f9565b600082815260d060209081526040918290208251608081018452815481526001820154928101929092526002810154928201839052600301546060820152904210156113bd5760405162461bcd60e51b8152602060048201526013602482015272109b1a5b99109bde0e881b9bdd081cdd185c9d606a1b60448201526064016107f9565b80606001514211156114035760405162461bcd60e51b815260206004820152600f60248201526e109b1a5b99109bde0e88195b991959608a1b60448201526064016107f9565b8051349061141190846127b5565b146114695760405162461bcd60e51b815260206004820152602260248201527f426c696e64426f783a206d73672e76616c7565206973206e6f7420636f72726560448201526118dd60f21b60648201526084016107f9565b806020015160018360c95461147e9190612789565b61148891906127d4565b11156114cb5760405162461bcd60e51b8152602060048201526012602482015271109b1a5b99109bde0e8814dbdb190813dd5d60721b60448201526064016107f9565b600083815260d1602090815260408083203384529091529020546005906114f3908490612789565b11156115415760405162461bcd60e51b815260206004820152601d60248201527f426c696e64426f783a2075736572206f6e6c792062757920666976657300000060448201526064016107f9565b60c9545b8260c9546115539190612789565b811015611576576115643382611bed565b8061156e8161284c565b915050611545565b508160c960008282546115899190612789565b9091555050600083815260d160209081526040808320338452909152812080548492906115b7908490612789565b909155505060cb546040516001600160a01b03909116904780156108fc02916000818181858888f193505050501580156115f5573d6000803e3d6000fd5b5060405182815233907fe3d4187f6ca4248660cc0ac8b8056515bac4a8132be2eca31d6d0cc170722a7e9060200160405180910390a2505050565b6097546001600160a01b0316331461165a5760405162461bcd60e51b81526004016107f9906126b8565b6001600160a01b0381166116bf5760405162461bcd60e51b815260206004820152602660248201527f4f776e61626c653a206e6577206f776e657220697320746865207a65726f206160448201526564647265737360d01b60648201526084016107f9565b610d3f81611a99565b600081815260696020526040902080546001600160a01b0319166001600160a01b03841690811790915581906116fd82610c77565b6001600160a01b03167f8c5be1e5ebec7d5bd14f71427d1e84f3dd0314c0f7b2291e5b200ac8c7c3b92560405160405180910390a45050565b3361174082610c77565b6001600160a01b03161461178e5760405162461bcd60e51b8152602060048201526015602482015274213634b7322137bc1d103737ba10309037bbb732b960591b60448201526064016107f9565b61179781611d99565b60ce546040516340c10f1960e01b8152336004820152602481018390526101009091046001600160a01b0316906340c10f1990604401600060405180830381600087803b1580156117e757600080fd5b505af11580156117fb573d6000803e3d6000fd5b5050505050565b6000818152606760205260408120546001600160a01b031661187b5760405162461bcd60e51b815260206004820152602c60248201527f4552433732313a206f70657261746f7220717565727920666f72206e6f6e657860448201526b34b9ba32b73a103a37b5b2b760a11b60648201526084016107f9565b600061188683610c77565b9050806001600160a01b0316846001600160a01b031614806118c15750836001600160a01b03166118b6846108a7565b6001600160a01b0316145b806118f157506001600160a01b038082166000908152606a602090815260408083209388168352929052205460ff165b949350505050565b826001600160a01b031661190c82610c77565b6001600160a01b0316146119745760405162461bcd60e51b815260206004820152602960248201527f4552433732313a207472616e73666572206f6620746f6b656e2074686174206960448201526839903737ba1037bbb760b91b60648201526084016107f9565b6001600160a01b0382166119d65760405162461bcd60e51b8152602060048201526024808201527f4552433732313a207472616e7366657220746f20746865207a65726f206164646044820152637265737360e01b60648201526084016107f9565b6119e16000826116c8565b6001600160a01b0383166000908152606860205260408120805460019290611a0a9084906127d4565b90915550506001600160a01b0382166000908152606860205260408120805460019290611a38908490612789565b909155505060008181526067602052604080822080546001600160a01b0319166001600160a01b0386811691821790925591518493918716917fddf252ad1be2c89b69c2b068fc378daa952ba7f163c4a11628f55a4df523b3ef91a4505050565b609780546001600160a01b038381166001600160a01b0319831681179093556040519116919082907f8be0079c531659141344cd1fd0a4f28419497f9722a3daafe3b4186f6b6457e090600090a35050565b816001600160a01b0316836001600160a01b03161415611b4d5760405162461bcd60e51b815260206004820152601960248201527f4552433732313a20617070726f766520746f2063616c6c65720000000000000060448201526064016107f9565b6001600160a01b038381166000818152606a6020908152604080832094871680845294825291829020805460ff191686151590811790915591519182527f17307eab39ab6107e8899845ad3d59bd9653f200f220920489ca2b5937696c31910160405180910390a3505050565b611bc58484846118f9565b611bd184848484611e34565b610fe05760405162461bcd60e51b81526004016107f990612666565b610e6b828260405180602001604052806000815250611f41565b600054610100900460ff16611c2e5760405162461bcd60e51b81526004016107f99061273e565b611c36611f74565b611c3e611f74565b610e6b8282611f9b565b600054610100900460ff16611c6f5760405162461bcd60e51b81526004016107f99061273e565b611c77611f74565b610dfd611fe9565b606081611ca35750506040805180820190915260018152600360fc1b602082015290565b8160005b8115611ccd5780611cb78161284c565b9150611cc69050600a836127a1565b9150611ca7565b60008167ffffffffffffffff811115611cf657634e487b7160e01b600052604160045260246000fd5b6040519080825280601f01601f191660200182016040528015611d20576020820181803683370190505b5090505b84156118f157611d356001836127d4565b9150611d42600a86612867565b611d4d906030612789565b60f81b818381518110611d7057634e487b7160e01b600052603260045260246000fd5b60200101906001600160f81b031916908160001a905350611d92600a866127a1565b9450611d24565b6000611da482610c77565b9050611db16000836116c8565b6001600160a01b0381166000908152606860205260408120805460019290611dda9084906127d4565b909155505060008281526067602052604080822080546001600160a01b0319169055518391906001600160a01b038416907fddf252ad1be2c89b69c2b068fc378daa952ba7f163c4a11628f55a4df523b3ef908390a45050565b60006001600160a01b0384163b15611f3657604051630a85bd0160e11b81526001600160a01b0385169063150b7a0290611e78903390899088908890600401612616565b602060405180830381600087803b158015611e9257600080fd5b505af1925050508015611ec2575060408051601f3d908101601f19168201909252611ebf9181019061252b565b60015b611f1c573d808015611ef0576040519150601f19603f3d011682016040523d82523d6000602084013e611ef5565b606091505b508051611f145760405162461bcd60e51b81526004016107f990612666565b805181602001fd5b6001600160e01b031916630a85bd0160e11b1490506118f1565b506001949350505050565b611f4b8383612019565b611f586000848484611e34565b610a4d5760405162461bcd60e51b81526004016107f990612666565b600054610100900460ff16610dfd5760405162461bcd60e51b81526004016107f99061273e565b600054610100900460ff16611fc25760405162461bcd60e51b81526004016107f99061273e565b8151611fd590606590602085019061215b565b508051610a4d90606690602084019061215b565b600054610100900460ff166120105760405162461bcd60e51b81526004016107f99061273e565b610dfd33611a99565b6001600160a01b03821661206f5760405162461bcd60e51b815260206004820181905260248201527f4552433732313a206d696e7420746f20746865207a65726f206164647265737360448201526064016107f9565b6000818152606760205260409020546001600160a01b0316156120d45760405162461bcd60e51b815260206004820152601c60248201527f4552433732313a20746f6b656e20616c7265616479206d696e7465640000000060448201526064016107f9565b6001600160a01b03821660009081526068602052604081208054600192906120fd908490612789565b909155505060008181526067602052604080822080546001600160a01b0319166001600160a01b03861690811790915590518392907fddf252ad1be2c89b69c2b068fc378daa952ba7f163c4a11628f55a4df523b3ef908290a45050565b82805461216790612817565b90600052602060002090601f01602090048101928261218957600085556121cf565b82601f106121a257805160ff19168380011785556121cf565b828001600101855582156121cf579182015b828111156121cf5782518255916020019190600101906121b4565b506121db9291506121df565b5090565b5b808211156121db57600081556001016121e0565b60008083601f840112612205578081fd5b50813567ffffffffffffffff81111561221c578182fd5b6020830191508360208260051b850101111561223757600080fd5b9250929050565b8035801515811461224e57600080fd5b919050565b600060208284031215612264578081fd5b81356112ea816128bd565b60008060408385031215612281578081fd5b823561228c816128bd565b9150602083013561229c816128bd565b809150509250929050565b6000806000606084860312156122bb578081fd5b83356122c6816128bd565b925060208401356122d6816128bd565b929592945050506040919091013590565b600080600080608085870312156122fc578081fd5b8435612307816128bd565b93506020850135612317816128bd565b925060408501359150606085013567ffffffffffffffff8082111561233a578283fd5b818701915087601f83011261234d578283fd5b81358181111561235f5761235f6128a7565b604051601f8201601f19908116603f01168101908382118183101715612387576123876128a7565b816040528281528a602084870101111561239f578586fd5b82602086016020830137918201602001949094529598949750929550505050565b600080604083850312156123d2578182fd5b82356123dd816128bd565b91506123eb6020840161223e565b90509250929050565b60008060408385031215612406578182fd5b8235612411816128bd565b946020939093013593505050565b60008060008060008060608789031215612437578182fd5b863567ffffffffffffffff8082111561244e578384fd5b61245a8a838b016121f4565b90985096506020890135915080821115612472578384fd5b61247e8a838b016121f4565b90965094506040890135915080821115612496578384fd5b506124a389828a016121f4565b979a9699509497509295939492505050565b600080602083850312156124c7578182fd5b823567ffffffffffffffff8111156124dd578283fd5b6124e9858286016121f4565b90969095509350505050565b600060208284031215612506578081fd5b6112ea8261223e565b600060208284031215612520578081fd5b81356112ea816128d2565b60006020828403121561253c578081fd5b81516112ea816128d2565b600060808284031215612558578081fd5b50919050565b60006020828403121561256f578081fd5b5035919050565b60008060408385031215612588578182fd5b82359150602083013561229c816128bd565b600080604083850312156125ac578182fd5b50508035926020909101359150565b600081518084526125d38160208601602086016127eb565b601f01601f19169290920160200192915050565b600083516125f98184602088016127eb565b83519083019061260d8183602088016127eb565b01949350505050565b6001600160a01b0385811682528416602082015260408101839052608060608201819052600090612649908301846125bb565b9695505050505050565b6020815260006112ea60208301846125bb565b60208082526032908201527f4552433732313a207472616e7366657220746f206e6f6e20455243373231526560408201527131b2b4bb32b91034b6b83632b6b2b73a32b960711b606082015260800190565b6020808252818101527f4f776e61626c653a2063616c6c6572206973206e6f7420746865206f776e6572604082015260600190565b60208082526031908201527f4552433732313a207472616e736665722063616c6c6572206973206e6f74206f6040820152701ddb995c881b9bdc88185c1c1c9bdd9959607a1b606082015260800190565b6020808252602b908201527f496e697469616c697a61626c653a20636f6e7472616374206973206e6f74206960408201526a6e697469616c697a696e6760a81b606082015260800190565b6000821982111561279c5761279c61287b565b500190565b6000826127b0576127b0612891565b500490565b60008160001904831182151516156127cf576127cf61287b565b500290565b6000828210156127e6576127e661287b565b500390565b60005b838110156128065781810151838201526020016127ee565b83811115610fe05750506000910152565b600181811c9082168061282b57607f821691505b6020821081141561255857634e487b7160e01b600052602260045260246000fd5b60006000198214156128605761286061287b565b5060010190565b60008261287657612876612891565b500690565b634e487b7160e01b600052601160045260246000fd5b634e487b7160e01b600052601260045260246000fd5b634e487b7160e01b600052604160045260246000fd5b6001600160a01b0381168114610d3f57600080fd5b6001600160e01b031981168114610d3f57600080fdfea164736f6c6343000804000a",
  "linkReferences": {},
  "deployedLinkReferences": {}
}