{
  "address": "0xF32C3e02512342532721D6672c2a6B536F1163d9",
  "transactionHash": "0xc0857a6cb8b652a857e6e318d99b8eee269e68d8eb0d36016c1042df4e08d505",
  "args": [
    "0x2Dc45fFC85A43Fa14345EBB851337598fCcC7919",
    "0x5654e7eED584375C21Bb0c1E9B7359121832dD9C",
    "0x7041755821EEEB96aA89b5d0A351EfD3720eF0E1"
  ],
  "_format": "hh-sol-artifact-1",
  "contractName": "Game",
  "sourceName": "contracts/Game.sol",
  "abi": [
    {
      "anonymous": false,
      "inputs": [
        {
          "indexed": true,
          "internalType": "address",
          "name": "account",
          "type": "address"
        },
        {
          "components": [
            {
              "internalType": "address",
              "name": "owner",
              "type": "address"
            },
            {
              "internalType": "uint256",
              "name": "salt",
              "type": "uint256"
            },
            {
              "internalType": "uint256",
              "name": "horse1",
              "type": "uint256"
            },
            {
              "internalType": "uint256",
              "name": "horse2",
              "type": "uint256"
            },
            {
              "internalType": "uint256",
              "name": "newHorse",
              "type": "uint256"
            },
            {
              "internalType": "uint8",
              "name": "newType",
              "type": "uint8"
            }
          ],
          "indexed": false,
          "internalType": "struct Game.BreedData",
          "name": "breedData",
          "type": "tuple"
        }
      ],
      "name": "Breed",
      "type": "event"
    },
    {
      "anonymous": false,
      "inputs": [
        {
          "indexed": true,
          "internalType": "address",
          "name": "account",
          "type": "address"
        },
        {
          "indexed": false,
          "internalType": "uint256[]",
          "name": "tokenIds",
          "type": "uint256[]"
        }
      ],
      "name": "DepositHorse",
      "type": "event"
    },
    {
      "anonymous": false,
      "inputs": [
        {
          "indexed": true,
          "internalType": "address",
          "name": "account",
          "type": "address"
        },
        {
          "indexed": false,
          "internalType": "uint256",
          "name": "value",
          "type": "uint256"
        }
      ],
      "name": "DepositHrw",
      "type": "event"
    },
    {
      "anonymous": false,
      "inputs": [
        {
          "indexed": true,
          "internalType": "address",
          "name": "account",
          "type": "address"
        },
        {
          "indexed": false,
          "internalType": "uint256",
          "name": "value",
          "type": "uint256"
        }
      ],
      "name": "DepositNative",
      "type": "event"
    },
    {
      "anonymous": false,
      "inputs": [
        {
          "indexed": true,
          "internalType": "address",
          "name": "previousOwner",
          "type": "address"
        },
        {
          "indexed": true,
          "internalType": "address",
          "name": "newOwner",
          "type": "address"
        }
      ],
      "name": "OwnershipTransferred",
      "type": "event"
    },
    {
      "anonymous": false,
      "inputs": [
        {
          "indexed": true,
          "internalType": "address",
          "name": "account",
          "type": "address"
        },
        {
          "indexed": false,
          "internalType": "uint256[]",
          "name": "tokenIds",
          "type": "uint256[]"
        }
      ],
      "name": "WithdrawHorse",
      "type": "event"
    },
    {
      "anonymous": false,
      "inputs": [
        {
          "indexed": true,
          "internalType": "address",
          "name": "account",
          "type": "address"
        },
        {
          "indexed": false,
          "internalType": "uint256",
          "name": "total",
          "type": "uint256"
        },
        {
          "indexed": false,
          "internalType": "uint256",
          "name": "amount",
          "type": "uint256"
        }
      ],
      "name": "WithdrawHrw",
      "type": "event"
    },
    {
      "anonymous": false,
      "inputs": [
        {
          "indexed": true,
          "internalType": "address",
          "name": "account",
          "type": "address"
        },
        {
          "indexed": false,
          "internalType": "uint256",
          "name": "total",
          "type": "uint256"
        },
        {
          "indexed": false,
          "internalType": "uint256",
          "name": "amount",
          "type": "uint256"
        }
      ],
      "name": "WithdrawNative",
      "type": "event"
    },
    {
      "inputs": [
        {
          "components": [
            {
              "internalType": "address",
              "name": "owner",
              "type": "address"
            },
            {
              "internalType": "uint256",
              "name": "salt",
              "type": "uint256"
            },
            {
              "internalType": "uint256",
              "name": "horse1",
              "type": "uint256"
            },
            {
              "internalType": "uint256",
              "name": "horse2",
              "type": "uint256"
            },
            {
              "internalType": "uint256",
              "name": "newHorse",
              "type": "uint256"
            },
            {
              "internalType": "uint8",
              "name": "newType",
              "type": "uint8"
            }
          ],
          "internalType": "struct Game.BreedData",
          "name": "breedData",
          "type": "tuple"
        },
        {
          "internalType": "uint8",
          "name": "v",
          "type": "uint8"
        },
        {
          "internalType": "bytes32",
          "name": "r",
          "type": "bytes32"
        },
        {
          "internalType": "bytes32",
          "name": "s",
          "type": "bytes32"
        }
      ],
      "name": "breed",
      "outputs": [],
      "stateMutability": "nonpayable",
      "type": "function"
    },
    {
      "inputs": [
        {
          "internalType": "uint256[]",
          "name": "tokenIds",
          "type": "uint256[]"
        }
      ],
      "name": "depositHorse",
      "outputs": [],
      "stateMutability": "payable",
      "type": "function"
    },
    {
      "inputs": [
        {
          "internalType": "uint256",
          "name": "amount",
          "type": "uint256"
        }
      ],
      "name": "depositHrw",
      "outputs": [],
      "stateMutability": "payable",
      "type": "function"
    },
    {
      "inputs": [],
      "name": "depositNative",
      "outputs": [],
      "stateMutability": "payable",
      "type": "function"
    },
    {
      "inputs": [
        {
          "internalType": "address",
          "name": "_signer",
          "type": "address"
        },
        {
          "internalType": "contract IERC20Upgradeable",
          "name": "_hrw",
          "type": "address"
        },
        {
          "internalType": "contract Horse",
          "name": "_horse",
          "type": "address"
        }
      ],
      "name": "initialize",
      "outputs": [],
      "stateMutability": "nonpayable",
      "type": "function"
    },
    {
      "inputs": [],
      "name": "owner",
      "outputs": [
        {
          "internalType": "address",
          "name": "",
          "type": "address"
        }
      ],
      "stateMutability": "view",
      "type": "function"
    },
    {
      "inputs": [],
      "name": "renounceOwnership",
      "outputs": [],
      "stateMutability": "nonpayable",
      "type": "function"
    },
    {
      "inputs": [
        {
          "internalType": "address",
          "name": "_signer",
          "type": "address"
        }
      ],
      "name": "setSigner",
      "outputs": [],
      "stateMutability": "nonpayable",
      "type": "function"
    },
    {
      "inputs": [
        {
          "internalType": "address",
          "name": "newOwner",
          "type": "address"
        }
      ],
      "name": "transferOwnership",
      "outputs": [],
      "stateMutability": "nonpayable",
      "type": "function"
    },
    {
      "inputs": [
        {
          "internalType": "address",
          "name": "",
          "type": "address"
        },
        {
          "internalType": "uint256",
          "name": "",
          "type": "uint256"
        }
      ],
      "name": "userHorse",
      "outputs": [
        {
          "internalType": "uint256",
          "name": "",
          "type": "uint256"
        }
      ],
      "stateMutability": "view",
      "type": "function"
    },
    {
      "inputs": [
        {
          "internalType": "address",
          "name": "",
          "type": "address"
        },
        {
          "internalType": "uint256",
          "name": "",
          "type": "uint256"
        }
      ],
      "name": "userHorseMapping",
      "outputs": [
        {
          "internalType": "bool",
          "name": "",
          "type": "bool"
        }
      ],
      "stateMutability": "view",
      "type": "function"
    },
    {
      "inputs": [
        {
          "internalType": "address",
          "name": "",
          "type": "address"
        }
      ],
      "name": "userHrw",
      "outputs": [
        {
          "internalType": "uint256",
          "name": "",
          "type": "uint256"
        }
      ],
      "stateMutability": "view",
      "type": "function"
    },
    {
      "inputs": [
        {
          "internalType": "address",
          "name": "",
          "type": "address"
        }
      ],
      "name": "userNative",
      "outputs": [
        {
          "internalType": "uint256",
          "name": "",
          "type": "uint256"
        }
      ],
      "stateMutability": "view",
      "type": "function"
    },
    {
      "inputs": [
        {
          "internalType": "address",
          "name": "",
          "type": "address"
        }
      ],
      "name": "userWithdrawHrw",
      "outputs": [
        {
          "internalType": "uint256",
          "name": "",
          "type": "uint256"
        }
      ],
      "stateMutability": "view",
      "type": "function"
    },
    {
      "inputs": [
        {
          "internalType": "address",
          "name": "",
          "type": "address"
        }
      ],
      "name": "userWithdrawNative",
      "outputs": [
        {
          "internalType": "uint256",
          "name": "",
          "type": "uint256"
        }
      ],
      "stateMutability": "view",
      "type": "function"
    },
    {
      "inputs": [
        {
          "internalType": "uint256[]",
          "name": "tokenIds",
          "type": "uint256[]"
        },
        {
          "internalType": "uint8",
          "name": "v",
          "type": "uint8"
        },
        {
          "internalType": "bytes32",
          "name": "r",
          "type": "bytes32"
        },
        {
          "internalType": "bytes32",
          "name": "s",
          "type": "bytes32"
        }
      ],
      "name": "withdrawHorse",
      "outputs": [],
      "stateMutability": "payable",
      "type": "function"
    },
    {
      "inputs": [
        {
          "internalType": "uint256",
          "name": "value",
          "type": "uint256"
        },
        {
          "internalType": "uint8",
          "name": "v",
          "type": "uint8"
        },
        {
          "internalType": "bytes32",
          "name": "r",
          "type": "bytes32"
        },
        {
          "internalType": "bytes32",
          "name": "s",
          "type": "bytes32"
        }
      ],
      "name": "withdrawHrw",
      "outputs": [],
      "stateMutability": "nonpayable",
      "type": "function"
    },
    {
      "inputs": [
        {
          "internalType": "uint256",
          "name": "value",
          "type": "uint256"
        },
        {
          "internalType": "uint8",
          "name": "v",
          "type": "uint8"
        },
        {
          "internalType": "bytes32",
          "name": "r",
          "type": "bytes32"
        },
        {
          "internalType": "bytes32",
          "name": "s",
          "type": "bytes32"
        }
      ],
      "name": "withdrawNative",
      "outputs": [],
      "stateMutability": "nonpayable",
      "type": "function"
    }
  ],
  "bytecode": "0x608060405234801561001057600080fd5b50612427806100206000396000f3fe6080604052600436106101095760003560e01c80638da5cb5b11610095578063db6b524611610064578063db6b5246146102f8578063e0680aba14610300578063e44979c814610313578063e780da4a14610333578063f2fde38b1461036057600080fd5b80638da5cb5b14610238578063b757c3bd14610260578063c0c53b8b1461028d578063ca298c4e146102ad57600080fd5b80635cae4765116100dc5780635cae4765146101b05780636c19e783146101d05780636e0bf24f146101f0578063715018a6146102105780637841135a1461022557600080fd5b806302b0b9771461010e5780632a2a804914610141578063335b7263146101565780634011938214610183575b600080fd5b34801561011a57600080fd5b5061012e610129366004611f72565b610380565b6040519081526020015b60405180910390f35b61015461014f366004611fdd565b6103b1565b005b34801561016257600080fd5b5061012e610171366004611f0c565b606a6020526000908152604090205481565b34801561018f57600080fd5b5061012e61019e366004611f0c565b60696020526000908152604090205481565b3480156101bc57600080fd5b506101546101cb3660046120c3565b610846565b3480156101dc57600080fd5b506101546101eb366004611f0c565b610a0a565b3480156101fc57600080fd5b5061015461020b3660046120c3565b610a56565b34801561021c57600080fd5b50610154610b95565b6101546102333660046120ab565b610bcb565b34801561024457600080fd5b506033546040516001600160a01b039091168152602001610138565b34801561026c57600080fd5b5061012e61027b366004611f0c565b60686020526000908152604090205481565b34801561029957600080fd5b506101546102a8366004611f28565b610c3f565b3480156102b957600080fd5b506102e86102c8366004611f72565b606d60209081526000928352604080842090915290825290205460ff1681565b6040519015158152602001610138565b610154610d40565b61015461030e366004611f9d565b610d9b565b34801561031f57600080fd5b5061015461032e366004612061565b610f3a565b34801561033f57600080fd5b5061012e61034e366004611f0c565b606b6020526000908152604090205481565b34801561036c57600080fd5b5061015461037b366004611f0c565b6111bd565b606c602052816000526040600020818154811061039c57600080fd5b90600052602060002001600091509150505481565b6065546067546040516001600160a01b039283169261040b92879287928792610403926103e892339216908e908e9060200161218b565b60405160208183030381529060405280519060200120611258565b92919061140c565b6001600160a01b03161461043a5760405162461bcd60e51b815260040161043190612289565b60405180910390fd5b336000908152606c60205260409020548411156104915760405162461bcd60e51b815260206004820152601560248201527447616d653a206c656e67746820746f6f206c6f6e6760581b6044820152606401610431565b60005b8481101561067957336000908152606d60205260408120908787848181106104cc57634e487b7160e01b600052603260045260246000fd5b602090810292909201358352508101919091526040016000205460ff166105355760405162461bcd60e51b815260206004820152601960248201527f47616d653a204e6f74206465706f73697420746f6b656e4964000000000000006044820152606401610431565b6067546001600160a01b03166342842e0e303389898681811061056857634e487b7160e01b600052603260045260246000fd5b905060200201356040518463ffffffff1660e01b815260040161058d93929190612167565b600060405180830381600087803b1580156105a757600080fd5b505af11580156105bb573d6000803e3d6000fd5b5050336000908152606c60205260409020915087905086838181106105f057634e487b7160e01b600052603260045260246000fd5b835460018101855560009485526020808620928102949094013591015550338252606d9052604081208188888581811061063a57634e487b7160e01b600052603260045260246000fd5b90506020020135815260200190815260200160002060006101000a81548160ff0219169083151502179055508080610671906123aa565b915050610494565b50336000908152606c60209081526040808320805482518185028101850190935280835291929091908301828280156106d157602002820191906000526020600020905b8154815260200190600101908083116106bd575b505050505090506000805b336000908152606c60205260409020548110156107d857336000908152606d60209081526040808320606c909252822080549192918490811061072f57634e487b7160e01b600052603260045260246000fd5b6000918252602080832090910154835282019290925260400190205460ff16156107c657336000908152606c6020526040902080548290811061078257634e487b7160e01b600052603260045260246000fd5b9060005260206000200154838380610799906123aa565b9450815181106107b957634e487b7160e01b600052603260045260246000fd5b6020026020010181815250505b806107d0816123aa565b9150506106dc565b50336000908152606c6020908152604090912083516107f992850190611e4c565b50336001600160a01b03167ff5dc7afcc745765435bf72e73e0e5e1155bdf5c2c4b51e4fbd4870df6307177a88886040516108359291906121c2565b60405180910390a250505050505050565b336000908152606b602052604090205484116108a45760405162461bcd60e51b815260206004820152601c60248201527f47616d653a204e6f2062616c616e636520746f207769746864726177000000006044820152606401610431565b6065546066546040516001600160a01b03928316926108d992879287928792610403926103e892339216908d90602001612167565b6001600160a01b0316146108ff5760405162461bcd60e51b815260040161043190612289565b336000818152606b602052604090208590556066546001600160a01b03169063a9059cbb9061092e8780612367565b6040516001600160e01b031960e085901b1681526001600160a01b0390921660048301526024820152604401602060405180830381600087803b15801561097457600080fd5b505af1158015610988573d6000803e3d6000fd5b505050506040513d601f19601f820116820180604052508101906109ac9190612041565b50336000818152606b60205260409020547f4f10e3103b9786d93a1c6bb3d50c809f2e1e58c54c13437a26204be19b573eee9086906109eb9082612367565b604080519283526020830191909152015b60405180910390a250505050565b6033546001600160a01b03163314610a345760405162461bcd60e51b815260040161043190612209565b606580546001600160a01b0319166001600160a01b0392909216919091179055565b336000908152606960205260409020548411610ab45760405162461bcd60e51b815260206004820152601c60248201527f47616d653a204e6f2062616c616e636520746f207769746864726177000000006044820152606401610431565b606554604080513360208201529081018690526001600160a01b0390911690610ae990859085908590610403906060016103e8565b6001600160a01b031614610b0f5760405162461bcd60e51b815260040161043190612289565b3360008181526069602052604090208590556108fc610b2e8680612367565b6040518115909202916000818181858888f19350505050158015610b56573d6000803e3d6000fd5b50336000818152606960205260409020547f5cb35f4e7dbc40dd34f0d58cec4f5548fc47638cb46d7964e4f07c48e97e4c7d9086906109eb9082612367565b6033546001600160a01b03163314610bbf5760405162461bcd60e51b815260040161043190612209565b610bc96000611501565b565b336000908152606a602052604081208054839290610bea90849061231c565b9091555050606654610c07906001600160a01b0316333084611553565b60405181815233907f4b47f8a5094fae3902f2b999e63742264cc861240347b837b9275e647dcf64789060200160405180910390a250565b600054610100900460ff16610c5a5760005460ff1615610c5e565b303b155b610cc15760405162461bcd60e51b815260206004820152602e60248201527f496e697469616c697a61626c653a20636f6e747261637420697320616c72656160448201526d191e481a5b9a5d1a585b1a5e995960921b6064820152608401610431565b600054610100900460ff16158015610ce3576000805461ffff19166101011790555b610ceb6115ab565b606580546001600160a01b038087166001600160a01b0319928316179092556066805486841690831617905560678054928516929091169190911790558015610d3a576000805461ff00191690555b50505050565b3360009081526068602052604081208054349290610d5f90849061231c565b909155505060405134815233907f1d7216e1bbc8feb9e6575a2a6166c01e5393e33a975c4f31f9612fd226b568879060200160405180910390a2565b60005b81811015610ef2576067546001600160a01b03166342842e0e3330868686818110610dd957634e487b7160e01b600052603260045260246000fd5b905060200201356040518463ffffffff1660e01b8152600401610dfe93929190612167565b600060405180830381600087803b158015610e1857600080fd5b505af1158015610e2c573d6000803e3d6000fd5b5050336000908152606c6020526040902091508490508383818110610e6157634e487b7160e01b600052603260045260246000fd5b8354600181810186556000958652602080872093810295909501359290910191909155338452606d90925250604082209091858585818110610eb357634e487b7160e01b600052603260045260246000fd5b90506020020135815260200190815260200160002060006101000a81548160ff0219169083151502179055508080610eea906123aa565b915050610d9e565b50336001600160a01b03167ff84acdfc917c91b8d4bb606329b4a6944fd2aa6ba68e7cee8a3e8d0f18ebd4588383604051610f2e9291906121c2565b60405180910390a25050565b336000908152606d6020908152604080832087820135845290915290205460ff16610fa75760405162461bcd60e51b815260206004820152601960248201527f47616d653a207573657220686173206e6f7420686f72736531000000000000006044820152606401610431565b336000908152606d602090815260408083206060880135845290915290205460ff166110155760405162461bcd60e51b815260206004820152601960248201527f47616d653a207573657220686173206e6f7420686f72736532000000000000006044820152606401610431565b6065546040516001600160a01b039091169061104390859085908590610403906103e8908b906020016122c0565b6001600160a01b0316146110695760405162461bcd60e51b815260040161043190612289565b6067546001600160a01b0316636112e8ac30608087013561109060c0890160a08a016120fd565b6040516001600160e01b031960e086901b1681526001600160a01b039093166004840152602483019190915260ff166044820152606401600060405180830381600087803b1580156110e157600080fd5b505af11580156110f5573d6000803e3d6000fd5b50606c92506000915061110d90506020870187611f0c565b6001600160a01b031681526020808201929092526040016000908120805460018181018355918352838320608089013591015591606d919061115190880188611f0c565b6001600160a01b03168152602080820192909252604090810160009081206080890135825290925290819020805460ff1916921515929092179091555133907f50104c124779f0f0b30a1b633157d570764ccfee549df3569920a04695f4c45b906109fc9087906122c0565b6033546001600160a01b031633146111e75760405162461bcd60e51b815260040161043190612209565b6001600160a01b03811661124c5760405162461bcd60e51b815260206004820152602660248201527f4f776e61626c653a206e6577206f776e657220697320746865207a65726f206160448201526564647265737360d01b6064820152608401610431565b61125581611501565b50565b604080518082018252601081526f181899199a1a9b1b9c1cb0b131b232b360811b6020820152815182815260608181018452926000919060208201818036833701905050905060005b6020811015611404578260048683602081106112cd57634e487b7160e01b600052603260045260246000fd5b1a60f81b6001600160f81b031916901c60f81c60ff168151811061130157634e487b7160e01b600052603260045260246000fd5b01602001516001600160f81b0319168261131c836002612348565b8151811061133a57634e487b7160e01b600052603260045260246000fd5b60200101906001600160f81b031916908160001a9053508285826020811061137257634e487b7160e01b600052603260045260246000fd5b825191901a600f1690811061139757634e487b7160e01b600052603260045260246000fd5b01602001516001600160f81b031916826113b2836002612348565b6113bd90600161231c565b815181106113db57634e487b7160e01b600052603260045260246000fd5b60200101906001600160f81b031916908160001a905350806113fc816123aa565b9150506112a1565b509392505050565b60008085905060006114846040518060400160405280601a81526020017f19457468657265756d205369676e6564204d6573736167653a0a00000000000081525061145784516115e2565b60408051600080825260208201818152828401828152606084019283526080840190945288939091611704565b905060018180519060200120878787604051600081526020016040526040516114c9949392919093845260ff9290921660208401526040830152606082015260800190565b6020604051602081039080840390855afa1580156114eb573d6000803e3d6000fd5b5050604051601f19015198975050505050505050565b603380546001600160a01b038381166001600160a01b0319831681179093556040519116919082907f8be0079c531659141344cd1fd0a4f28419497f9722a3daafe3b4186f6b6457e090600090a35050565b610d3a846323b872dd60e01b85858560405160240161157493929190612167565b60408051601f198184030181529190526020810180516001600160e01b03166001600160e01b031990931692909217909152611ba4565b600054610100900460ff166115d25760405162461bcd60e51b81526004016104319061223e565b6115da611c7b565b610bc9611ca2565b6060816116065750506040805180820190915260018152600360fc1b602082015290565b8160005b8115611630578061161a816123aa565b91506116299050600a83612334565b915061160a565b60008167ffffffffffffffff81111561165957634e487b7160e01b600052604160045260246000fd5b6040519080825280601f01601f191660200182016040528015611683576020820181803683370190505b5090505b84156116fc57611698600183612367565b91506116a5600a866123c5565b6116b090603061231c565b60f81b8183815181106116d357634e487b7160e01b600052603260045260246000fd5b60200101906001600160f81b031916908160001a9053506116f5600a86612334565b9450611687565b949350505050565b6060600082518451865188518a518c518e51611720919061231c565b61172a919061231c565b611734919061231c565b61173e919061231c565b611748919061231c565b611752919061231c565b67ffffffffffffffff81111561177857634e487b7160e01b600052604160045260246000fd5b6040519080825280601f01601f1916602001820160405280156117a2576020820181803683370190505b5090506000805b8a51811015611835578a81815181106117d257634e487b7160e01b600052603260045260246000fd5b01602001516001600160f81b03191683836117ec816123aa565b94508151811061180c57634e487b7160e01b600052603260045260246000fd5b60200101906001600160f81b031916908160001a9053508061182d816123aa565b9150506117a9565b5060005b89518110156118c55789818151811061186257634e487b7160e01b600052603260045260246000fd5b01602001516001600160f81b031916838361187c816123aa565b94508151811061189c57634e487b7160e01b600052603260045260246000fd5b60200101906001600160f81b031916908160001a905350806118bd816123aa565b915050611839565b5060005b8851811015611955578881815181106118f257634e487b7160e01b600052603260045260246000fd5b01602001516001600160f81b031916838361190c816123aa565b94508151811061192c57634e487b7160e01b600052603260045260246000fd5b60200101906001600160f81b031916908160001a9053508061194d816123aa565b9150506118c9565b5060005b87518110156119e55787818151811061198257634e487b7160e01b600052603260045260246000fd5b01602001516001600160f81b031916838361199c816123aa565b9450815181106119bc57634e487b7160e01b600052603260045260246000fd5b60200101906001600160f81b031916908160001a905350806119dd816123aa565b915050611959565b5060005b8651811015611a7557868181518110611a1257634e487b7160e01b600052603260045260246000fd5b01602001516001600160f81b0319168383611a2c816123aa565b945081518110611a4c57634e487b7160e01b600052603260045260246000fd5b60200101906001600160f81b031916908160001a90535080611a6d816123aa565b9150506119e9565b5060005b8551811015611b0557858181518110611aa257634e487b7160e01b600052603260045260246000fd5b01602001516001600160f81b0319168383611abc816123aa565b945081518110611adc57634e487b7160e01b600052603260045260246000fd5b60200101906001600160f81b031916908160001a90535080611afd816123aa565b915050611a79565b5060005b8451811015611b9557848181518110611b3257634e487b7160e01b600052603260045260246000fd5b01602001516001600160f81b0319168383611b4c816123aa565b945081518110611b6c57634e487b7160e01b600052603260045260246000fd5b60200101906001600160f81b031916908160001a90535080611b8d816123aa565b915050611b09565b50909998505050505050505050565b6000611bf9826040518060400160405280602081526020017f5361666545524332303a206c6f772d6c6576656c2063616c6c206661696c6564815250856001600160a01b0316611cd29092919063ffffffff16565b805190915015611c765780806020019051810190611c179190612041565b611c765760405162461bcd60e51b815260206004820152602a60248201527f5361666545524332303a204552433230206f7065726174696f6e20646964206e6044820152691bdd081cdd58d8d9595960b21b6064820152608401610431565b505050565b600054610100900460ff16610bc95760405162461bcd60e51b81526004016104319061223e565b600054610100900460ff16611cc95760405162461bcd60e51b81526004016104319061223e565b610bc933611501565b6060611ce18484600085611ceb565b90505b9392505050565b606082471015611d4c5760405162461bcd60e51b815260206004820152602660248201527f416464726573733a20696e73756666696369656e742062616c616e636520666f6044820152651c8818d85b1b60d21b6064820152608401610431565b843b611d9a5760405162461bcd60e51b815260206004820152601d60248201527f416464726573733a2063616c6c20746f206e6f6e2d636f6e74726163740000006044820152606401610431565b600080866001600160a01b03168587604051611db6919061214b565b60006040518083038185875af1925050503d8060008114611df3576040519150601f19603f3d011682016040523d82523d6000602084013e611df8565b606091505b5091509150611e08828286611e13565b979650505050505050565b60608315611e22575081611ce4565b825115611e325782518084602001fd5b8160405162461bcd60e51b815260040161043191906121d6565b828054828255906000526020600020908101928215611e87579160200282015b82811115611e87578251825591602001919060010190611e6c565b50611e93929150611e97565b5090565b5b80821115611e935760008155600101611e98565b60008083601f840112611ebd578182fd5b50813567ffffffffffffffff811115611ed4578182fd5b6020830191508360208260051b8501011115611eef57600080fd5b9250929050565b803560ff81168114611f0757600080fd5b919050565b600060208284031215611f1d578081fd5b8135611ce481612405565b600080600060608486031215611f3c578182fd5b8335611f4781612405565b92506020840135611f5781612405565b91506040840135611f6781612405565b809150509250925092565b60008060408385031215611f84578182fd5b8235611f8f81612405565b946020939093013593505050565b60008060208385031215611faf578182fd5b823567ffffffffffffffff811115611fc5578283fd5b611fd185828601611eac565b90969095509350505050565b600080600080600060808688031215611ff4578081fd5b853567ffffffffffffffff81111561200a578182fd5b61201688828901611eac565b9096509450612029905060208701611ef6565b94979396509394604081013594506060013592915050565b600060208284031215612052578081fd5b81518015158114611ce4578182fd5b600080600080848603610120811215612078578485fd5b60c0811215612085578485fd5b5084935061209560c08601611ef6565b939693955050505060e082013591610100013590565b6000602082840312156120bc578081fd5b5035919050565b600080600080608085870312156120d8578384fd5b843593506120e860208601611ef6565b93969395505050506040820135916060013590565b60006020828403121561210e578081fd5b611ce482611ef6565b81835260006001600160fb1b0383111561212f578081fd5b8260051b80836020870137939093016020019283525090919050565b6000825161215d81846020870161237e565b9190910192915050565b6001600160a01b039384168152919092166020820152604081019190915260600190565b6001600160a01b038581168252841660208201526060604082018190526000906121b89083018486612117565b9695505050505050565b602081526000611ce1602083018486612117565b60208152600082518060208401526121f581604085016020870161237e565b601f01601f19169190910160400192915050565b6020808252818101527f4f776e61626c653a2063616c6c6572206973206e6f7420746865206f776e6572604082015260600190565b6020808252602b908201527f496e697469616c697a61626c653a20636f6e7472616374206973206e6f74206960408201526a6e697469616c697a696e6760a81b606082015260800190565b6020808252601c908201527f47616d653a207369676e617475726520766572696679206572726f7200000000604082015260600190565b60c0810182356122cf81612405565b6001600160a01b031682526020838101359083015260408084013590830152606080840135908301526080808401359083015260ff61231060a08501611ef6565b1660a083015292915050565b6000821982111561232f5761232f6123d9565b500190565b600082612343576123436123ef565b500490565b6000816000190483118215151615612362576123626123d9565b500290565b600082821015612379576123796123d9565b500390565b60005b83811015612399578181015183820152602001612381565b83811115610d3a5750506000910152565b60006000198214156123be576123be6123d9565b5060010190565b6000826123d4576123d46123ef565b500690565b634e487b7160e01b600052601160045260246000fd5b634e487b7160e01b600052601260045260246000fd5b6001600160a01b038116811461125557600080fdfea164736f6c6343000804000a",
  "linkReferences": {},
  "deployedLinkReferences": {}
}