{
  "address": "0xF32C3e02512342532721D6672c2a6B536F1163d9",
  "transactionHash": "0x223bf6ffc00de27d811120d1d726b27cd02cbe2462901951f1545ce1137e9811",
  "args": [
    "0x2Dc45fFC85A43Fa14345EBB851337598fCcC7919",
    "0x5654e7eED584375C21Bb0c1E9B7359121832dD9C",
    "0x7041755821EEEB96aA89b5d0A351EfD3720eF0E1"
  ],
  "_format": "hh-sol-artifact-1",
  "contractName": "Game",
  "sourceName": "contracts/Game.sol",
  "abi": [
    {
      "anonymous": false,
      "inputs": [
        {
          "indexed": true,
          "internalType": "address",
          "name": "account",
          "type": "address"
        },
        {
          "components": [
            {
              "internalType": "address",
              "name": "owner",
              "type": "address"
            },
            {
              "internalType": "uint256",
              "name": "salt",
              "type": "uint256"
            },
            {
              "internalType": "uint256",
              "name": "horse1",
              "type": "uint256"
            },
            {
              "internalType": "uint256",
              "name": "horse2",
              "type": "uint256"
            },
            {
              "internalType": "uint8",
              "name": "newType",
              "type": "uint8"
            }
          ],
          "indexed": false,
          "internalType": "struct Game.BreedData",
          "name": "breedData",
          "type": "tuple"
        },
        {
          "indexed": false,
          "internalType": "uint256",
          "name": "newHorse",
          "type": "uint256"
        },
        {
          "indexed": false,
          "internalType": "address",
          "name": "horseAddr",
          "type": "address"
        }
      ],
      "name": "Breed",
      "type": "event"
    },
    {
      "anonymous": false,
      "inputs": [
        {
          "indexed": true,
          "internalType": "address",
          "name": "account",
          "type": "address"
        },
        {
          "indexed": false,
          "internalType": "uint256[]",
          "name": "tokenIds",
          "type": "uint256[]"
        }
      ],
      "name": "DepositHorse",
      "type": "event"
    },
    {
      "anonymous": false,
      "inputs": [
        {
          "indexed": true,
          "internalType": "address",
          "name": "account",
          "type": "address"
        },
        {
          "indexed": false,
          "internalType": "uint256",
          "name": "value",
          "type": "uint256"
        }
      ],
      "name": "DepositHrw",
      "type": "event"
    },
    {
      "anonymous": false,
      "inputs": [
        {
          "indexed": true,
          "internalType": "address",
          "name": "account",
          "type": "address"
        },
        {
          "indexed": false,
          "internalType": "uint256",
          "name": "value",
          "type": "uint256"
        }
      ],
      "name": "DepositNative",
      "type": "event"
    },
    {
      "anonymous": false,
      "inputs": [
        {
          "indexed": true,
          "internalType": "address",
          "name": "previousOwner",
          "type": "address"
        },
        {
          "indexed": true,
          "internalType": "address",
          "name": "newOwner",
          "type": "address"
        }
      ],
      "name": "OwnershipTransferred",
      "type": "event"
    },
    {
      "anonymous": false,
      "inputs": [
        {
          "indexed": true,
          "internalType": "address",
          "name": "account",
          "type": "address"
        },
        {
          "indexed": false,
          "internalType": "uint256[]",
          "name": "tokenIds",
          "type": "uint256[]"
        }
      ],
      "name": "WithdrawHorse",
      "type": "event"
    },
    {
      "anonymous": false,
      "inputs": [
        {
          "indexed": true,
          "internalType": "address",
          "name": "account",
          "type": "address"
        },
        {
          "indexed": false,
          "internalType": "uint256",
          "name": "total",
          "type": "uint256"
        },
        {
          "indexed": false,
          "internalType": "uint256",
          "name": "amount",
          "type": "uint256"
        }
      ],
      "name": "WithdrawHrw",
      "type": "event"
    },
    {
      "anonymous": false,
      "inputs": [
        {
          "indexed": true,
          "internalType": "address",
          "name": "account",
          "type": "address"
        },
        {
          "indexed": false,
          "internalType": "uint256",
          "name": "total",
          "type": "uint256"
        },
        {
          "indexed": false,
          "internalType": "uint256",
          "name": "amount",
          "type": "uint256"
        }
      ],
      "name": "WithdrawNative",
      "type": "event"
    },
    {
      "inputs": [
        {
          "components": [
            {
              "internalType": "address",
              "name": "owner",
              "type": "address"
            },
            {
              "internalType": "uint256",
              "name": "salt",
              "type": "uint256"
            },
            {
              "internalType": "uint256",
              "name": "horse1",
              "type": "uint256"
            },
            {
              "internalType": "uint256",
              "name": "horse2",
              "type": "uint256"
            },
            {
              "internalType": "uint8",
              "name": "newType",
              "type": "uint8"
            }
          ],
          "internalType": "struct Game.BreedData",
          "name": "breedData",
          "type": "tuple"
        },
        {
          "internalType": "uint8",
          "name": "v",
          "type": "uint8"
        },
        {
          "internalType": "bytes32",
          "name": "r",
          "type": "bytes32"
        },
        {
          "internalType": "bytes32",
          "name": "s",
          "type": "bytes32"
        }
      ],
      "name": "breed",
      "outputs": [],
      "stateMutability": "nonpayable",
      "type": "function"
    },
    {
      "inputs": [
        {
          "internalType": "uint256[]",
          "name": "tokenIds",
          "type": "uint256[]"
        }
      ],
      "name": "depositHorse",
      "outputs": [],
      "stateMutability": "payable",
      "type": "function"
    },
    {
      "inputs": [
        {
          "internalType": "uint256",
          "name": "amount",
          "type": "uint256"
        }
      ],
      "name": "depositHrw",
      "outputs": [],
      "stateMutability": "payable",
      "type": "function"
    },
    {
      "inputs": [],
      "name": "depositNative",
      "outputs": [],
      "stateMutability": "payable",
      "type": "function"
    },
    {
      "inputs": [
        {
          "internalType": "address",
          "name": "_signer",
          "type": "address"
        },
        {
          "internalType": "contract IERC20Upgradeable",
          "name": "_hrw",
          "type": "address"
        },
        {
          "internalType": "contract Horse",
          "name": "_horse",
          "type": "address"
        }
      ],
      "name": "initialize",
      "outputs": [],
      "stateMutability": "nonpayable",
      "type": "function"
    },
    {
      "inputs": [
        {
          "internalType": "address",
          "name": "operator",
          "type": "address"
        },
        {
          "internalType": "address",
          "name": "from",
          "type": "address"
        },
        {
          "internalType": "uint256",
          "name": "tokenId",
          "type": "uint256"
        },
        {
          "internalType": "bytes",
          "name": "data",
          "type": "bytes"
        }
      ],
      "name": "onERC721Received",
      "outputs": [
        {
          "internalType": "bytes4",
          "name": "",
          "type": "bytes4"
        }
      ],
      "stateMutability": "pure",
      "type": "function"
    },
    {
      "inputs": [],
      "name": "owner",
      "outputs": [
        {
          "internalType": "address",
          "name": "",
          "type": "address"
        }
      ],
      "stateMutability": "view",
      "type": "function"
    },
    {
      "inputs": [
        {
          "internalType": "address",
          "name": "receipt",
          "type": "address"
        },
        {
          "internalType": "uint256",
          "name": "amount",
          "type": "uint256"
        }
      ],
      "name": "ownerTransfer",
      "outputs": [],
      "stateMutability": "nonpayable",
      "type": "function"
    },
    {
      "inputs": [],
      "name": "renounceOwnership",
      "outputs": [],
      "stateMutability": "nonpayable",
      "type": "function"
    },
    {
      "inputs": [
        {
          "internalType": "address payable",
          "name": "_beneficiary",
          "type": "address"
        }
      ],
      "name": "setBeneficiary",
      "outputs": [],
      "stateMutability": "nonpayable",
      "type": "function"
    },
    {
      "inputs": [
        {
          "internalType": "address",
          "name": "_caller",
          "type": "address"
        }
      ],
      "name": "setCaller",
      "outputs": [],
      "stateMutability": "nonpayable",
      "type": "function"
    },
    {
      "inputs": [
        {
          "internalType": "address",
          "name": "_signer",
          "type": "address"
        }
      ],
      "name": "setSigner",
      "outputs": [],
      "stateMutability": "nonpayable",
      "type": "function"
    },
    {
      "inputs": [
        {
          "internalType": "uint256",
          "name": "_fees",
          "type": "uint256"
        }
      ],
      "name": "setWithdrawFees",
      "outputs": [],
      "stateMutability": "nonpayable",
      "type": "function"
    },
    {
      "inputs": [
        {
          "internalType": "address",
          "name": "receipt",
          "type": "address"
        },
        {
          "internalType": "uint256",
          "name": "amount",
          "type": "uint256"
        }
      ],
      "name": "transferHrw",
      "outputs": [],
      "stateMutability": "nonpayable",
      "type": "function"
    },
    {
      "inputs": [
        {
          "internalType": "address",
          "name": "receipt",
          "type": "address"
        },
        {
          "internalType": "uint256",
          "name": "amount",
          "type": "uint256"
        }
      ],
      "name": "transferNative",
      "outputs": [],
      "stateMutability": "nonpayable",
      "type": "function"
    },
    {
      "inputs": [
        {
          "internalType": "address",
          "name": "newOwner",
          "type": "address"
        }
      ],
      "name": "transferOwnership",
      "outputs": [],
      "stateMutability": "nonpayable",
      "type": "function"
    },
    {
      "inputs": [
        {
          "internalType": "address",
          "name": "",
          "type": "address"
        },
        {
          "internalType": "uint256",
          "name": "",
          "type": "uint256"
        }
      ],
      "name": "userHorse",
      "outputs": [
        {
          "internalType": "uint256",
          "name": "",
          "type": "uint256"
        }
      ],
      "stateMutability": "view",
      "type": "function"
    },
    {
      "inputs": [
        {
          "internalType": "address",
          "name": "",
          "type": "address"
        },
        {
          "internalType": "uint256",
          "name": "",
          "type": "uint256"
        }
      ],
      "name": "userHorseMapping",
      "outputs": [
        {
          "internalType": "bool",
          "name": "",
          "type": "bool"
        }
      ],
      "stateMutability": "view",
      "type": "function"
    },
    {
      "inputs": [
        {
          "internalType": "address",
          "name": "account",
          "type": "address"
        }
      ],
      "name": "userHorses",
      "outputs": [
        {
          "internalType": "uint256[]",
          "name": "",
          "type": "uint256[]"
        }
      ],
      "stateMutability": "view",
      "type": "function"
    },
    {
      "inputs": [
        {
          "internalType": "address",
          "name": "",
          "type": "address"
        }
      ],
      "name": "userHrw",
      "outputs": [
        {
          "internalType": "uint256",
          "name": "",
          "type": "uint256"
        }
      ],
      "stateMutability": "view",
      "type": "function"
    },
    {
      "inputs": [
        {
          "internalType": "address",
          "name": "",
          "type": "address"
        }
      ],
      "name": "userNative",
      "outputs": [
        {
          "internalType": "uint256",
          "name": "",
          "type": "uint256"
        }
      ],
      "stateMutability": "view",
      "type": "function"
    },
    {
      "inputs": [
        {
          "internalType": "address",
          "name": "",
          "type": "address"
        }
      ],
      "name": "userWithdrawHrw",
      "outputs": [
        {
          "internalType": "uint256",
          "name": "",
          "type": "uint256"
        }
      ],
      "stateMutability": "view",
      "type": "function"
    },
    {
      "inputs": [
        {
          "internalType": "address",
          "name": "",
          "type": "address"
        }
      ],
      "name": "userWithdrawNative",
      "outputs": [
        {
          "internalType": "uint256",
          "name": "",
          "type": "uint256"
        }
      ],
      "stateMutability": "view",
      "type": "function"
    },
    {
      "inputs": [],
      "name": "withdrawFees",
      "outputs": [
        {
          "internalType": "uint256",
          "name": "",
          "type": "uint256"
        }
      ],
      "stateMutability": "view",
      "type": "function"
    },
    {
      "inputs": [
        {
          "internalType": "uint256[]",
          "name": "tokenIds",
          "type": "uint256[]"
        },
        {
          "internalType": "uint8",
          "name": "v",
          "type": "uint8"
        },
        {
          "internalType": "bytes32",
          "name": "r",
          "type": "bytes32"
        },
        {
          "internalType": "bytes32",
          "name": "s",
          "type": "bytes32"
        }
      ],
      "name": "withdrawHorse",
      "outputs": [],
      "stateMutability": "payable",
      "type": "function"
    }
  ],
  "bytecode": "0x608060405234801561001057600080fd5b50612a14806100206000396000f3fe6080604052600436106101665760003560e01c80637d2e90c2116100d1578063c0c53b8b1161008a578063db6b524611610064578063db6b52461461047d578063e0680aba14610485578063e780da4a14610498578063f2fde38b146104c557600080fd5b8063c0c53b8b146103f2578063ca298c4e14610412578063d85c89661461045d57600080fd5b80637d2e90c2146103105780638da5cb5b146103305780638f98a45814610358578063a0356ed714610378578063b757c3bd146103a5578063beb92f55146103d257600080fd5b806340119382116101235780634011938214610265578063476343ee146102925780636c19e783146102a8578063715018a6146102c85780637841135a146102dd5780637af59668146102f057600080fd5b806302b0b9771461016b57806305d1c3711461019e578063150b7a02146101c05780631c31f710146102055780632a2a804914610225578063335b726314610238575b600080fd5b34801561017757600080fd5b5061018b610186366004612568565b6104e5565b6040519081526020015b60405180910390f35b3480156101aa57600080fd5b506101be6101b93660046126a0565b610516565b005b3480156101cc57600080fd5b506101ec6101db366004612484565b630a85bd0160e11b95945050505050565b6040516001600160e01b03199091168152602001610195565b34801561021157600080fd5b506101be610220366004612468565b61054e565b6101be6102333660046125d3565b61059a565b34801561024457600080fd5b5061018b610253366004612468565b606a6020526000908152604090205481565b34801561027157600080fd5b5061018b610280366004612468565b60696020526000908152604090205481565b34801561029e57600080fd5b5061018b606f5481565b3480156102b457600080fd5b506101be6102c3366004612468565b6109e6565b3480156102d457600080fd5b506101be610a32565b6101be6102eb3660046126a0565b610a68565b3480156102fc57600080fd5b506101be61030b366004612657565b610adc565b34801561031c57600080fd5b506101be61032b366004612568565b610db5565b34801561033c57600080fd5b506033546040516001600160a01b039091168152602001610195565b34801561036457600080fd5b506101be610373366004612568565b610fda565b34801561038457600080fd5b50610398610393366004612468565b61131a565b60405161019591906127d1565b3480156103b157600080fd5b5061018b6103c0366004612468565b60686020526000908152604090205481565b3480156103de57600080fd5b506101be6103ed366004612468565b611386565b3480156103fe57600080fd5b506101be61040d36600461251e565b6113d2565b34801561041e57600080fd5b5061044d61042d366004612568565b606d60209081526000928352604080842090915290825290205460ff1681565b6040519015158152602001610195565b34801561046957600080fd5b506101be610478366004612568565b6114d3565b6101be611538565b6101be610493366004612593565b611593565b3480156104a457600080fd5b5061018b6104b3366004612468565b606b6020526000908152604090205481565b3480156104d157600080fd5b506101be6104e0366004612468565b61174a565b606c602052816000526040600020818154811061050157600080fd5b90600052602060002001600091509150505481565b6033546001600160a01b031633146105495760405162461bcd60e51b815260040161054090612848565b60405180910390fd5b606f55565b6033546001600160a01b031633146105785760405162461bcd60e51b815260040161054090612848565b606e80546001600160a01b0319166001600160a01b0392909216919091179055565b6065546067546040516001600160a01b03928316926105f4928792879287926105ec926105d192339216908e908e90602001612786565b604051602081830303815290604052805190602001206117e5565b929190611999565b6001600160a01b03161461064a5760405162461bcd60e51b815260206004820152601c60248201527f47616d653a207369676e617475726520766572696679206572726f72000000006044820152606401610540565b336000908152606c60205260409020548411156106a15760405162461bcd60e51b815260206004820152601560248201527447616d653a206c656e67746820746f6f206c6f6e6760581b6044820152606401610540565b60005b8481101561085957336000908152606d60205260408120908787848181106106dc57634e487b7160e01b600052603260045260246000fd5b602090810292909201358352508101919091526040016000205460ff166107455760405162461bcd60e51b815260206004820152601960248201527f47616d653a204e6f74206465706f73697420746f6b656e4964000000000000006044820152606401610540565b6067546001600160a01b03166342842e0e303389898681811061077857634e487b7160e01b600052603260045260246000fd5b6040516001600160e01b031960e088901b1681526001600160a01b03958616600482015294909316602485015250602090910201356044820152606401600060405180830381600087803b1580156107cf57600080fd5b505af11580156107e3573d6000803e3d6000fd5b5050336000908152606d6020526040812090925090508188888581811061081a57634e487b7160e01b600052603260045260246000fd5b90506020020135815260200190815260200160002060006101000a81548160ff021916908315150217905550808061085190612997565b9150506106a4565b50336000908152606c60209081526040808320805482518185028101850190935280835291929091908301828280156108b157602002820191906000526020600020905b81548152602001906001019080831161089d575b5050336000908152606c602052604081209495506108d494935091506123d69050565b60005b815181101561099a57336000908152606d60205260408120835190919084908490811061091457634e487b7160e01b600052603260045260246000fd5b60209081029190910181015182528101919091526040016000205460ff161561098857336000908152606c60205260409020825183908390811061096857634e487b7160e01b600052603260045260246000fd5b602090810291909101810151825460018101845560009384529190922001555b8061099281612997565b9150506108d7565b50336001600160a01b03167ff5dc7afcc745765435bf72e73e0e5e1155bdf5c2c4b51e4fbd4870df6307177a87876040516109d69291906127bd565b60405180910390a2505050505050565b6033546001600160a01b03163314610a105760405162461bcd60e51b815260040161054090612848565b606580546001600160a01b0319166001600160a01b0392909216919091179055565b6033546001600160a01b03163314610a5c5760405162461bcd60e51b815260040161054090612848565b610a666000611a8e565b565b336000908152606a602052604081208054839290610a87908490612909565b9091555050606654610aa4906001600160a01b0316333084611ae0565b60405181815233907f4b47f8a5094fae3902f2b999e63742264cc861240347b837b9275e647dcf64789060200160405180910390a250565b336000908152606d6020908152604080832087820135845290915290205460ff16610b495760405162461bcd60e51b815260206004820152601960248201527f47616d653a207573657220686173206e6f7420686f72736531000000000000006044820152606401610540565b336000908152606d602090815260408083206060880135845290915290205460ff16610bb75760405162461bcd60e51b815260206004820152601960248201527f47616d653a207573657220686173206e6f7420686f72736532000000000000006044820152606401610540565b6065546040516001600160a01b0390911690610be5908590859085906105ec906105d1908b906020016128c8565b6001600160a01b031614610c3b5760405162461bcd60e51b815260206004820152601c60248201527f47616d653a207369676e617475726520766572696679206572726f72000000006044820152606401610540565b6067546000906001600160a01b031663691562a030610c6060a0890160808a016126d0565b6040516001600160e01b031960e085901b1681526001600160a01b03909216600483015260ff166024820152604401602060405180830381600087803b158015610ca957600080fd5b505af1158015610cbd573d6000803e3d6000fd5b505050506040513d601f19601f82011682018060405250810190610ce191906126b8565b9050606c6000610cf46020880188612468565b6001600160a01b0316815260208082019290925260400160009081208054600181810183559183528383200184905591606d9190610d3490890189612468565b6001600160a01b0390811682526020808301939093526040918201600090812086825290935291819020805460ff191693151593909317909255606754915133927f0ee8b1a6967d1d9b69de06e29a535a7e69563c14825a78247ba0db7b76a0b34b92610da6928a92879216906128dc565b60405180910390a25050505050565b6070546001600160a01b03163314610e085760405162461bcd60e51b815260206004820152601660248201527511d85b594e881bdb9b1e4818d85b1b195c8818d85b1b60521b6044820152606401610540565b6001600160a01b0382166000908152606960205260409020548111610e6f5760405162461bcd60e51b815260206004820152601c60248201527f47616d653a204e6f2062616c616e636520746f207769746864726177000000006044820152606401610540565b6001600160a01b038216600090815260696020526040812054610e929083612954565b905080471015610ee45760405162461bcd60e51b815260206004820152601960248201527f47616d653a2042616c616e6365206e6f7420656e6f75676874000000000000006044820152606401610540565b6000612710606f5483610ef79190612935565b610f019190612921565b90506001600160a01b0384166108fc610f1a8385612954565b6040518115909202916000818181858888f19350505050158015610f42573d6000803e3d6000fd5b50606e546040516001600160a01b039091169082156108fc029083906000818181858888f19350505050158015610f7d573d6000803e3d6000fd5b506001600160a01b03841660008181526069602090815260409182902086905581518681529081018590527f5cb35f4e7dbc40dd34f0d58cec4f5548fc47638cb46d7964e4f07c48e97e4c7d91015b60405180910390a250505050565b6070546001600160a01b0316331461102d5760405162461bcd60e51b815260206004820152601660248201527511d85b594e881bdb9b1e4818d85b1b195c8818d85b1b60521b6044820152606401610540565b6001600160a01b0382166000908152606b602052604090205481116110945760405162461bcd60e51b815260206004820181905260248201527f47616d653a204e6f204852572062616c616e636520746f2077697468647261776044820152606401610540565b6001600160a01b0382166000908152606b60205260408120546110b79083612954565b6066546040516370a0823160e01b815230600482015291925082916001600160a01b03909116906370a082319060240160206040518083038186803b1580156110ff57600080fd5b505afa158015611113573d6000803e3d6000fd5b505050506040513d601f19601f8201168201806040525081019061113791906126b8565b116111845760405162461bcd60e51b815260206004820152601d60248201527f47616d653a204852572062616c616e6365206e6f7420656e6f756768740000006044820152606401610540565b6000612710606f54836111979190612935565b6111a19190612921565b6066549091506001600160a01b031663a9059cbb856111c08486612954565b6040516001600160e01b031960e085901b1681526001600160a01b0390921660048301526024820152604401602060405180830381600087803b15801561120657600080fd5b505af115801561121a573d6000803e3d6000fd5b505050506040513d601f19601f8201168201806040525081019061123e9190612637565b50606654606e5460405163a9059cbb60e01b81526001600160a01b0391821660048201526024810184905291169063a9059cbb90604401602060405180830381600087803b15801561128f57600080fd5b505af11580156112a3573d6000803e3d6000fd5b505050506040513d601f19601f820116820180604052508101906112c79190612637565b506001600160a01b0384166000818152606b602090815260409182902086905581518681529081018590527f4f10e3103b9786d93a1c6bb3d50c809f2e1e58c54c13437a26204be19b573eee9101610fcc565b6001600160a01b0381166000908152606c602090815260409182902080548351818402810184019094528084526060939283018282801561137a57602002820191906000526020600020905b815481526020019060010190808311611366575b50505050509050919050565b6033546001600160a01b031633146113b05760405162461bcd60e51b815260040161054090612848565b607080546001600160a01b0319166001600160a01b0392909216919091179055565b600054610100900460ff166113ed5760005460ff16156113f1565b303b155b6114545760405162461bcd60e51b815260206004820152602e60248201527f496e697469616c697a61626c653a20636f6e747261637420697320616c72656160448201526d191e481a5b9a5d1a585b1a5e995960921b6064820152608401610540565b600054610100900460ff16158015611476576000805461ffff19166101011790555b61147e611b3a565b606580546001600160a01b038087166001600160a01b03199283161790925560668054868416908316179055606780549285169290911691909117905580156114cd576000805461ff00191690555b50505050565b6033546001600160a01b031633146114fd5760405162461bcd60e51b815260040161054090612848565b6040516001600160a01b0383169082156108fc029083906000818181858888f19350505050158015611533573d6000803e3d6000fd5b505050565b3360009081526068602052604081208054349290611557908490612909565b909155505060405134815233907f1d7216e1bbc8feb9e6575a2a6166c01e5393e33a975c4f31f9612fd226b568879060200160405180910390a2565b60005b81811015611702576067546001600160a01b03166342842e0e33308686868181106115d157634e487b7160e01b600052603260045260246000fd5b6040516001600160e01b031960e088901b1681526001600160a01b03958616600482015294909316602485015250602090910201356044820152606401600060405180830381600087803b15801561162857600080fd5b505af115801561163c573d6000803e3d6000fd5b5050336000908152606c602052604090209150849050838381811061167157634e487b7160e01b600052603260045260246000fd5b8354600181810186556000958652602080872093810295909501359290910191909155338452606d909252506040822090918585858181106116c357634e487b7160e01b600052603260045260246000fd5b90506020020135815260200190815260200160002060006101000a81548160ff02191690831515021790555080806116fa90612997565b915050611596565b50336001600160a01b03167ff84acdfc917c91b8d4bb606329b4a6944fd2aa6ba68e7cee8a3e8d0f18ebd458838360405161173e9291906127bd565b60405180910390a25050565b6033546001600160a01b031633146117745760405162461bcd60e51b815260040161054090612848565b6001600160a01b0381166117d95760405162461bcd60e51b815260206004820152602660248201527f4f776e61626c653a206e6577206f776e657220697320746865207a65726f206160448201526564647265737360d01b6064820152608401610540565b6117e281611a8e565b50565b604080518082018252601081526f181899199a1a9b1b9c1cb0b131b232b360811b6020820152815182815260608181018452926000919060208201818036833701905050905060005b60208110156119915782600486836020811061185a57634e487b7160e01b600052603260045260246000fd5b1a60f81b6001600160f81b031916901c60f81c60ff168151811061188e57634e487b7160e01b600052603260045260246000fd5b01602001516001600160f81b031916826118a9836002612935565b815181106118c757634e487b7160e01b600052603260045260246000fd5b60200101906001600160f81b031916908160001a905350828582602081106118ff57634e487b7160e01b600052603260045260246000fd5b825191901a600f1690811061192457634e487b7160e01b600052603260045260246000fd5b01602001516001600160f81b0319168261193f836002612935565b61194a906001612909565b8151811061196857634e487b7160e01b600052603260045260246000fd5b60200101906001600160f81b031916908160001a9053508061198981612997565b91505061182e565b509392505050565b6000808590506000611a116040518060400160405280601a81526020017f19457468657265756d205369676e6564204d6573736167653a0a0000000000008152506119e48451611b71565b60408051600080825260208201818152828401828152606084019283526080840190945288939091611c93565b90506001818051906020012087878760405160008152602001604052604051611a56949392919093845260ff9290921660208401526040830152606082015260800190565b6020604051602081039080840390855afa158015611a78573d6000803e3d6000fd5b5050604051601f19015198975050505050505050565b603380546001600160a01b038381166001600160a01b0319831681179093556040519116919082907f8be0079c531659141344cd1fd0a4f28419497f9722a3daafe3b4186f6b6457e090600090a35050565b604080516001600160a01b0385811660248301528416604482015260648082018490528251808303909101815260849091019091526020810180516001600160e01b03166323b872dd60e01b1790526114cd908590612133565b600054610100900460ff16611b615760405162461bcd60e51b81526004016105409061287d565b611b69612205565b610a6661222c565b606081611b955750506040805180820190915260018152600360fc1b602082015290565b8160005b8115611bbf5780611ba981612997565b9150611bb89050600a83612921565b9150611b99565b60008167ffffffffffffffff811115611be857634e487b7160e01b600052604160045260246000fd5b6040519080825280601f01601f191660200182016040528015611c12576020820181803683370190505b5090505b8415611c8b57611c27600183612954565b9150611c34600a866129b2565b611c3f906030612909565b60f81b818381518110611c6257634e487b7160e01b600052603260045260246000fd5b60200101906001600160f81b031916908160001a905350611c84600a86612921565b9450611c16565b949350505050565b6060600082518451865188518a518c518e51611caf9190612909565b611cb99190612909565b611cc39190612909565b611ccd9190612909565b611cd79190612909565b611ce19190612909565b67ffffffffffffffff811115611d0757634e487b7160e01b600052604160045260246000fd5b6040519080825280601f01601f191660200182016040528015611d31576020820181803683370190505b5090506000805b8a51811015611dc4578a8181518110611d6157634e487b7160e01b600052603260045260246000fd5b01602001516001600160f81b0319168383611d7b81612997565b945081518110611d9b57634e487b7160e01b600052603260045260246000fd5b60200101906001600160f81b031916908160001a90535080611dbc81612997565b915050611d38565b5060005b8951811015611e5457898181518110611df157634e487b7160e01b600052603260045260246000fd5b01602001516001600160f81b0319168383611e0b81612997565b945081518110611e2b57634e487b7160e01b600052603260045260246000fd5b60200101906001600160f81b031916908160001a90535080611e4c81612997565b915050611dc8565b5060005b8851811015611ee457888181518110611e8157634e487b7160e01b600052603260045260246000fd5b01602001516001600160f81b0319168383611e9b81612997565b945081518110611ebb57634e487b7160e01b600052603260045260246000fd5b60200101906001600160f81b031916908160001a90535080611edc81612997565b915050611e58565b5060005b8751811015611f7457878181518110611f1157634e487b7160e01b600052603260045260246000fd5b01602001516001600160f81b0319168383611f2b81612997565b945081518110611f4b57634e487b7160e01b600052603260045260246000fd5b60200101906001600160f81b031916908160001a90535080611f6c81612997565b915050611ee8565b5060005b865181101561200457868181518110611fa157634e487b7160e01b600052603260045260246000fd5b01602001516001600160f81b0319168383611fbb81612997565b945081518110611fdb57634e487b7160e01b600052603260045260246000fd5b60200101906001600160f81b031916908160001a90535080611ffc81612997565b915050611f78565b5060005b85518110156120945785818151811061203157634e487b7160e01b600052603260045260246000fd5b01602001516001600160f81b031916838361204b81612997565b94508151811061206b57634e487b7160e01b600052603260045260246000fd5b60200101906001600160f81b031916908160001a9053508061208c81612997565b915050612008565b5060005b8451811015612124578481815181106120c157634e487b7160e01b600052603260045260246000fd5b01602001516001600160f81b03191683836120db81612997565b9450815181106120fb57634e487b7160e01b600052603260045260246000fd5b60200101906001600160f81b031916908160001a9053508061211c81612997565b915050612098565b50909998505050505050505050565b6000612188826040518060400160405280602081526020017f5361666545524332303a206c6f772d6c6576656c2063616c6c206661696c6564815250856001600160a01b031661225c9092919063ffffffff16565b80519091501561153357808060200190518101906121a69190612637565b6115335760405162461bcd60e51b815260206004820152602a60248201527f5361666545524332303a204552433230206f7065726174696f6e20646964206e6044820152691bdd081cdd58d8d9595960b21b6064820152608401610540565b600054610100900460ff16610a665760405162461bcd60e51b81526004016105409061287d565b600054610100900460ff166122535760405162461bcd60e51b81526004016105409061287d565b610a6633611a8e565b606061226b8484600085612275565b90505b9392505050565b6060824710156122d65760405162461bcd60e51b815260206004820152602660248201527f416464726573733a20696e73756666696369656e742062616c616e636520666f6044820152651c8818d85b1b60d21b6064820152608401610540565b843b6123245760405162461bcd60e51b815260206004820152601d60248201527f416464726573733a2063616c6c20746f206e6f6e2d636f6e74726163740000006044820152606401610540565b600080866001600160a01b03168587604051612340919061276a565b60006040518083038185875af1925050503d806000811461237d576040519150601f19603f3d011682016040523d82523d6000602084013e612382565b606091505b509150915061239282828661239d565b979650505050505050565b606083156123ac57508161226e565b8251156123bc5782518084602001fd5b8160405162461bcd60e51b81526004016105409190612815565b50805460008255906000526020600020908101906117e291905b8082111561240457600081556001016123f0565b5090565b60008083601f840112612419578182fd5b50813567ffffffffffffffff811115612430578182fd5b6020830191508360208260051b850101111561244b57600080fd5b9250929050565b803560ff8116811461246357600080fd5b919050565b600060208284031215612479578081fd5b813561226e816129f2565b60008060008060006080868803121561249b578081fd5b85356124a6816129f2565b945060208601356124b6816129f2565b935060408601359250606086013567ffffffffffffffff808211156124d9578283fd5b818801915088601f8301126124ec578283fd5b8135818111156124fa578384fd5b89602082850101111561250b578384fd5b9699959850939650602001949392505050565b600080600060608486031215612532578283fd5b833561253d816129f2565b9250602084013561254d816129f2565b9150604084013561255d816129f2565b809150509250925092565b6000806040838503121561257a578182fd5b8235612585816129f2565b946020939093013593505050565b600080602083850312156125a5578182fd5b823567ffffffffffffffff8111156125bb578283fd5b6125c785828601612408565b90969095509350505050565b6000806000806000608086880312156125ea578081fd5b853567ffffffffffffffff811115612600578182fd5b61260c88828901612408565b909650945061261f905060208701612452565b94979396509394604081013594506060013592915050565b600060208284031215612648578081fd5b8151801515811461226e578182fd5b60008060008084860361010081121561266e578485fd5b60a081121561267b578485fd5b5084935061268b60a08601612452565b939693955050505060c08201359160e0013590565b6000602082840312156126b1578081fd5b5035919050565b6000602082840312156126c9578081fd5b5051919050565b6000602082840312156126e1578081fd5b61226e82612452565b81835260006001600160fb1b03831115612702578081fd5b8260051b80836020870137939093016020019283525090919050565b8035612729816129f2565b6001600160a01b0316825260208181013590830152604080820135908301526060808201359083015260ff61276060808301612452565b1660808301525050565b6000825161277c81846020870161296b565b9190910192915050565b6001600160a01b038581168252841660208201526060604082018190526000906127b390830184866126ea565b9695505050505050565b60208152600061226b6020830184866126ea565b6020808252825182820181905260009190848201906040850190845b81811015612809578351835292840192918401916001016127ed565b50909695505050505050565b602081526000825180602084015261283481604085016020870161296b565b601f01601f19169190910160400192915050565b6020808252818101527f4f776e61626c653a2063616c6c6572206973206e6f7420746865206f776e6572604082015260600190565b6020808252602b908201527f496e697469616c697a61626c653a20636f6e7472616374206973206e6f74206960408201526a6e697469616c697a696e6760a81b606082015260800190565b60a081016128d6828461271e565b92915050565b60e081016128ea828661271e565b60a08201939093526001600160a01b039190911660c090910152919050565b6000821982111561291c5761291c6129c6565b500190565b600082612930576129306129dc565b500490565b600081600019048311821515161561294f5761294f6129c6565b500290565b600082821015612966576129666129c6565b500390565b60005b8381101561298657818101518382015260200161296e565b838111156114cd5750506000910152565b60006000198214156129ab576129ab6129c6565b5060010190565b6000826129c1576129c16129dc565b500690565b634e487b7160e01b600052601160045260246000fd5b634e487b7160e01b600052601260045260246000fd5b6001600160a01b03811681146117e257600080fdfea164736f6c6343000804000a",
  "linkReferences": {},
  "deployedLinkReferences": {}
}