{
  "address": "0xF32C3e02512342532721D6672c2a6B536F1163d9",
  "transactionHash": "0x0fdb71a90de9442a4b3df03d56cddb4b7b94fd39b13801c1f56104407046d554",
  "args": [
    "0x2Dc45fFC85A43Fa14345EBB851337598fCcC7919",
    "0x5654e7eED584375C21Bb0c1E9B7359121832dD9C",
    "0x7041755821EEEB96aA89b5d0A351EfD3720eF0E1"
  ],
  "_format": "hh-sol-artifact-1",
  "contractName": "Game",
  "sourceName": "contracts/Game.sol",
  "abi": [
    {
      "anonymous": false,
      "inputs": [
        {
          "indexed": true,
          "internalType": "address",
          "name": "account",
          "type": "address"
        },
        {
          "components": [
            {
              "internalType": "address",
              "name": "owner",
              "type": "address"
            },
            {
              "internalType": "uint256",
              "name": "salt",
              "type": "uint256"
            },
            {
              "internalType": "uint256",
              "name": "horse1",
              "type": "uint256"
            },
            {
              "internalType": "uint256",
              "name": "horse2",
              "type": "uint256"
            },
            {
              "internalType": "uint8",
              "name": "newType",
              "type": "uint8"
            }
          ],
          "indexed": false,
          "internalType": "struct Game.BreedData",
          "name": "breedData",
          "type": "tuple"
        },
        {
          "indexed": false,
          "internalType": "uint256",
          "name": "newHorse",
          "type": "uint256"
        }
      ],
      "name": "Breed",
      "type": "event"
    },
    {
      "anonymous": false,
      "inputs": [
        {
          "indexed": true,
          "internalType": "address",
          "name": "account",
          "type": "address"
        },
        {
          "indexed": false,
          "internalType": "uint256[]",
          "name": "tokenIds",
          "type": "uint256[]"
        }
      ],
      "name": "DepositHorse",
      "type": "event"
    },
    {
      "anonymous": false,
      "inputs": [
        {
          "indexed": true,
          "internalType": "address",
          "name": "account",
          "type": "address"
        },
        {
          "indexed": false,
          "internalType": "uint256",
          "name": "value",
          "type": "uint256"
        }
      ],
      "name": "DepositHrw",
      "type": "event"
    },
    {
      "anonymous": false,
      "inputs": [
        {
          "indexed": true,
          "internalType": "address",
          "name": "account",
          "type": "address"
        },
        {
          "indexed": false,
          "internalType": "uint256",
          "name": "value",
          "type": "uint256"
        }
      ],
      "name": "DepositNative",
      "type": "event"
    },
    {
      "anonymous": false,
      "inputs": [
        {
          "indexed": true,
          "internalType": "address",
          "name": "previousOwner",
          "type": "address"
        },
        {
          "indexed": true,
          "internalType": "address",
          "name": "newOwner",
          "type": "address"
        }
      ],
      "name": "OwnershipTransferred",
      "type": "event"
    },
    {
      "anonymous": false,
      "inputs": [
        {
          "indexed": true,
          "internalType": "address",
          "name": "account",
          "type": "address"
        },
        {
          "indexed": false,
          "internalType": "uint256[]",
          "name": "tokenIds",
          "type": "uint256[]"
        }
      ],
      "name": "WithdrawHorse",
      "type": "event"
    },
    {
      "anonymous": false,
      "inputs": [
        {
          "indexed": true,
          "internalType": "address",
          "name": "account",
          "type": "address"
        },
        {
          "indexed": false,
          "internalType": "uint256",
          "name": "total",
          "type": "uint256"
        },
        {
          "indexed": false,
          "internalType": "uint256",
          "name": "amount",
          "type": "uint256"
        }
      ],
      "name": "WithdrawHrw",
      "type": "event"
    },
    {
      "anonymous": false,
      "inputs": [
        {
          "indexed": true,
          "internalType": "address",
          "name": "account",
          "type": "address"
        },
        {
          "indexed": false,
          "internalType": "uint256",
          "name": "total",
          "type": "uint256"
        },
        {
          "indexed": false,
          "internalType": "uint256",
          "name": "amount",
          "type": "uint256"
        }
      ],
      "name": "WithdrawNative",
      "type": "event"
    },
    {
      "inputs": [
        {
          "components": [
            {
              "internalType": "address",
              "name": "owner",
              "type": "address"
            },
            {
              "internalType": "uint256",
              "name": "salt",
              "type": "uint256"
            },
            {
              "internalType": "uint256",
              "name": "horse1",
              "type": "uint256"
            },
            {
              "internalType": "uint256",
              "name": "horse2",
              "type": "uint256"
            },
            {
              "internalType": "uint8",
              "name": "newType",
              "type": "uint8"
            }
          ],
          "internalType": "struct Game.BreedData",
          "name": "breedData",
          "type": "tuple"
        },
        {
          "internalType": "uint8",
          "name": "v",
          "type": "uint8"
        },
        {
          "internalType": "bytes32",
          "name": "r",
          "type": "bytes32"
        },
        {
          "internalType": "bytes32",
          "name": "s",
          "type": "bytes32"
        }
      ],
      "name": "breed",
      "outputs": [],
      "stateMutability": "nonpayable",
      "type": "function"
    },
    {
      "inputs": [
        {
          "internalType": "uint256[]",
          "name": "tokenIds",
          "type": "uint256[]"
        }
      ],
      "name": "depositHorse",
      "outputs": [],
      "stateMutability": "payable",
      "type": "function"
    },
    {
      "inputs": [
        {
          "internalType": "uint256",
          "name": "amount",
          "type": "uint256"
        }
      ],
      "name": "depositHrw",
      "outputs": [],
      "stateMutability": "payable",
      "type": "function"
    },
    {
      "inputs": [],
      "name": "depositNative",
      "outputs": [],
      "stateMutability": "payable",
      "type": "function"
    },
    {
      "inputs": [
        {
          "internalType": "address",
          "name": "_signer",
          "type": "address"
        },
        {
          "internalType": "contract IERC20Upgradeable",
          "name": "_hrw",
          "type": "address"
        },
        {
          "internalType": "contract Horse",
          "name": "_horse",
          "type": "address"
        }
      ],
      "name": "initialize",
      "outputs": [],
      "stateMutability": "nonpayable",
      "type": "function"
    },
    {
      "inputs": [
        {
          "internalType": "address",
          "name": "operator",
          "type": "address"
        },
        {
          "internalType": "address",
          "name": "from",
          "type": "address"
        },
        {
          "internalType": "uint256",
          "name": "tokenId",
          "type": "uint256"
        },
        {
          "internalType": "bytes",
          "name": "data",
          "type": "bytes"
        }
      ],
      "name": "onERC721Received",
      "outputs": [
        {
          "internalType": "bytes4",
          "name": "",
          "type": "bytes4"
        }
      ],
      "stateMutability": "pure",
      "type": "function"
    },
    {
      "inputs": [],
      "name": "owner",
      "outputs": [
        {
          "internalType": "address",
          "name": "",
          "type": "address"
        }
      ],
      "stateMutability": "view",
      "type": "function"
    },
    {
      "inputs": [],
      "name": "renounceOwnership",
      "outputs": [],
      "stateMutability": "nonpayable",
      "type": "function"
    },
    {
      "inputs": [
        {
          "internalType": "address",
          "name": "_signer",
          "type": "address"
        }
      ],
      "name": "setSigner",
      "outputs": [],
      "stateMutability": "nonpayable",
      "type": "function"
    },
    {
      "inputs": [
        {
          "internalType": "address",
          "name": "newOwner",
          "type": "address"
        }
      ],
      "name": "transferOwnership",
      "outputs": [],
      "stateMutability": "nonpayable",
      "type": "function"
    },
    {
      "inputs": [
        {
          "internalType": "address",
          "name": "",
          "type": "address"
        },
        {
          "internalType": "uint256",
          "name": "",
          "type": "uint256"
        }
      ],
      "name": "userHorse",
      "outputs": [
        {
          "internalType": "uint256",
          "name": "",
          "type": "uint256"
        }
      ],
      "stateMutability": "view",
      "type": "function"
    },
    {
      "inputs": [
        {
          "internalType": "address",
          "name": "",
          "type": "address"
        },
        {
          "internalType": "uint256",
          "name": "",
          "type": "uint256"
        }
      ],
      "name": "userHorseMapping",
      "outputs": [
        {
          "internalType": "bool",
          "name": "",
          "type": "bool"
        }
      ],
      "stateMutability": "view",
      "type": "function"
    },
    {
      "inputs": [
        {
          "internalType": "address",
          "name": "account",
          "type": "address"
        }
      ],
      "name": "userHorses",
      "outputs": [
        {
          "internalType": "uint256[]",
          "name": "",
          "type": "uint256[]"
        }
      ],
      "stateMutability": "view",
      "type": "function"
    },
    {
      "inputs": [
        {
          "internalType": "address",
          "name": "",
          "type": "address"
        }
      ],
      "name": "userHrw",
      "outputs": [
        {
          "internalType": "uint256",
          "name": "",
          "type": "uint256"
        }
      ],
      "stateMutability": "view",
      "type": "function"
    },
    {
      "inputs": [
        {
          "internalType": "address",
          "name": "",
          "type": "address"
        }
      ],
      "name": "userNative",
      "outputs": [
        {
          "internalType": "uint256",
          "name": "",
          "type": "uint256"
        }
      ],
      "stateMutability": "view",
      "type": "function"
    },
    {
      "inputs": [
        {
          "internalType": "address",
          "name": "",
          "type": "address"
        }
      ],
      "name": "userWithdrawHrw",
      "outputs": [
        {
          "internalType": "uint256",
          "name": "",
          "type": "uint256"
        }
      ],
      "stateMutability": "view",
      "type": "function"
    },
    {
      "inputs": [
        {
          "internalType": "address",
          "name": "",
          "type": "address"
        }
      ],
      "name": "userWithdrawNative",
      "outputs": [
        {
          "internalType": "uint256",
          "name": "",
          "type": "uint256"
        }
      ],
      "stateMutability": "view",
      "type": "function"
    },
    {
      "inputs": [
        {
          "internalType": "uint256[]",
          "name": "tokenIds",
          "type": "uint256[]"
        },
        {
          "internalType": "uint8",
          "name": "v",
          "type": "uint8"
        },
        {
          "internalType": "bytes32",
          "name": "r",
          "type": "bytes32"
        },
        {
          "internalType": "bytes32",
          "name": "s",
          "type": "bytes32"
        }
      ],
      "name": "withdrawHorse",
      "outputs": [],
      "stateMutability": "payable",
      "type": "function"
    },
    {
      "inputs": [
        {
          "internalType": "uint256",
          "name": "value",
          "type": "uint256"
        },
        {
          "internalType": "uint8",
          "name": "v",
          "type": "uint8"
        },
        {
          "internalType": "bytes32",
          "name": "r",
          "type": "bytes32"
        },
        {
          "internalType": "bytes32",
          "name": "s",
          "type": "bytes32"
        }
      ],
      "name": "withdrawHrw",
      "outputs": [],
      "stateMutability": "nonpayable",
      "type": "function"
    },
    {
      "inputs": [
        {
          "internalType": "uint256",
          "name": "value",
          "type": "uint256"
        },
        {
          "internalType": "uint8",
          "name": "v",
          "type": "uint8"
        },
        {
          "internalType": "bytes32",
          "name": "r",
          "type": "bytes32"
        },
        {
          "internalType": "bytes32",
          "name": "s",
          "type": "bytes32"
        }
      ],
      "name": "withdrawNative",
      "outputs": [],
      "stateMutability": "nonpayable",
      "type": "function"
    }
  ],
  "bytecode": "0x608060405234801561001057600080fd5b506125a8806100206000396000f3fe60806040526004361061011f5760003560e01c80637af59668116100a0578063ca298c4e11610064578063ca298c4e14610355578063db6b5246146103a0578063e0680aba146103a8578063e780da4a146103bb578063f2fde38b146103e857600080fd5b80637af59668146102935780638da5cb5b146102b3578063a0356ed7146102db578063b757c3bd14610308578063c0c53b8b1461033557600080fd5b80635cae4765116100e75780635cae47651461020b5780636c19e7831461022b5780636e0bf24f1461024b578063715018a61461026b5780637841135a1461028057600080fd5b806302b0b97714610124578063150b7a02146101575780632a2a80491461019c578063335b7263146101b157806340119382146101de575b600080fd5b34801561013057600080fd5b5061014461013f366004612079565b610408565b6040519081526020015b60405180910390f35b34801561016357600080fd5b50610183610172366004611f95565b630a85bd0160e11b95945050505050565b6040516001600160e01b0319909116815260200161014e565b6101af6101aa3660046120e4565b610439565b005b3480156101bd57600080fd5b506101446101cc366004611f79565b606a6020526000908152604090205481565b3480156101ea57600080fd5b506101446101f9366004611f79565b60696020526000908152604090205481565b34801561021757600080fd5b506101af6102263660046121e1565b61082a565b34801561023757600080fd5b506101af610246366004611f79565b6109ee565b34801561025757600080fd5b506101af6102663660046121e1565b610a3a565b34801561027757600080fd5b506101af610b78565b6101af61028e3660046121b1565b610bae565b34801561029f57600080fd5b506101af6102ae366004612168565b610c22565b3480156102bf57600080fd5b506033546040516001600160a01b03909116815260200161014e565b3480156102e757600080fd5b506102fb6102f6366004611f79565b610ec3565b60405161014e9190612340565b34801561031457600080fd5b50610144610323366004611f79565b60686020526000908152604090205481565b34801561034157600080fd5b506101af61035036600461202f565b610f2f565b34801561036157600080fd5b50610390610370366004612079565b606d60209081526000928352604080842090915290825290205460ff1681565b604051901515815260200161014e565b6101af611030565b6101af6103b63660046120a4565b61108b565b3480156103c757600080fd5b506101446103d6366004611f79565b606b6020526000908152604090205481565b3480156103f457600080fd5b506101af610403366004611f79565b61122a565b606c602052816000526040600020818154811061042457600080fd5b90600052602060002001600091509150505481565b6065546067546040516001600160a01b03928316926104939287928792879261048b9261047092339216908e908e906020016122f5565b604051602081830303815290604052805190602001206112c5565b929190611479565b6001600160a01b0316146104c25760405162461bcd60e51b81526004016104b990612437565b60405180910390fd5b336000908152606c60205260409020548411156105195760405162461bcd60e51b815260206004820152601560248201527447616d653a206c656e67746820746f6f206c6f6e6760581b60448201526064016104b9565b60005b848110156106b957336000908152606d602052604081209087878481811061055457634e487b7160e01b600052603260045260246000fd5b602090810292909201358352508101919091526040016000205460ff166105bd5760405162461bcd60e51b815260206004820152601960248201527f47616d653a204e6f74206465706f73697420746f6b656e49640000000000000060448201526064016104b9565b6067546001600160a01b03166342842e0e30338989868181106105f057634e487b7160e01b600052603260045260246000fd5b905060200201356040518463ffffffff1660e01b8152600401610615939291906122d1565b600060405180830381600087803b15801561062f57600080fd5b505af1158015610643573d6000803e3d6000fd5b5050336000908152606d6020526040812090925090508188888581811061067a57634e487b7160e01b600052603260045260246000fd5b90506020020135815260200190815260200160002060006101000a81548160ff02191690831515021790555080806106b19061252b565b91505061051c565b5060606000805b336000908152606c60205260409020548110156107bc57336000908152606d60209081526040808320606c909252822080549192918490811061071357634e487b7160e01b600052603260045260246000fd5b6000918252602080832090910154835282019290925260400190205460ff16156107aa57336000908152606c6020526040902080548290811061076657634e487b7160e01b600052603260045260246000fd5b906000526020600020015483838061077d9061252b565b94508151811061079d57634e487b7160e01b600052603260045260246000fd5b6020026020010181815250505b806107b48161252b565b9150506106c0565b50336000908152606c6020908152604090912083516107dd92850190611eb9565b50336001600160a01b03167ff5dc7afcc745765435bf72e73e0e5e1155bdf5c2c4b51e4fbd4870df6307177a888860405161081992919061232c565b60405180910390a250505050505050565b336000908152606b602052604090205484116108885760405162461bcd60e51b815260206004820152601c60248201527f47616d653a204e6f2062616c616e636520746f2077697468647261770000000060448201526064016104b9565b6065546066546040516001600160a01b03928316926108bd9287928792879261048b9261047092339216908d906020016122d1565b6001600160a01b0316146108e35760405162461bcd60e51b81526004016104b990612437565b606654336000818152606b60205260409020546001600160a01b039092169163a9059cbb919061091390886124e8565b6040516001600160e01b031960e085901b1681526001600160a01b0390921660048301526024820152604401602060405180830381600087803b15801561095957600080fd5b505af115801561096d573d6000803e3d6000fd5b505050506040513d601f19601f820116820180604052508101906109919190612148565b50336000818152606b602052604090208590557f4f10e3103b9786d93a1c6bb3d50c809f2e1e58c54c13437a26204be19b573eee856109d081806124e8565b6040805192835260208301919091520160405180910390a250505050565b6033546001600160a01b03163314610a185760405162461bcd60e51b81526004016104b9906123b7565b606580546001600160a01b0319166001600160a01b0392909216919091179055565b336000908152606960205260409020548411610a985760405162461bcd60e51b815260206004820152601c60248201527f47616d653a204e6f2062616c616e636520746f2077697468647261770000000060448201526064016104b9565b606554604080513360208201529081018690526001600160a01b0390911690610acd9085908590859061048b90606001610470565b6001600160a01b031614610af35760405162461bcd60e51b81526004016104b990612437565b336000818152606960205260409020546108fc90610b1190876124e8565b6040518115909202916000818181858888f19350505050158015610b39573d6000803e3d6000fd5b503360008181526069602052604090208590557f5cb35f4e7dbc40dd34f0d58cec4f5548fc47638cb46d7964e4f07c48e97e4c7d856109d081806124e8565b6033546001600160a01b03163314610ba25760405162461bcd60e51b81526004016104b9906123b7565b610bac600061156e565b565b336000908152606a602052604081208054839290610bcd90849061249d565b9091555050606654610bea906001600160a01b03163330846115c0565b60405181815233907f4b47f8a5094fae3902f2b999e63742264cc861240347b837b9275e647dcf64789060200160405180910390a250565b336000908152606d6020908152604080832087820135845290915290205460ff16610c8f5760405162461bcd60e51b815260206004820152601960248201527f47616d653a207573657220686173206e6f7420686f727365310000000000000060448201526064016104b9565b336000908152606d602090815260408083206060880135845290915290205460ff16610cfd5760405162461bcd60e51b815260206004820152601960248201527f47616d653a207573657220686173206e6f7420686f727365320000000000000060448201526064016104b9565b6065546040516001600160a01b0390911690610d2b9085908590859061048b90610470908b9060200161246e565b6001600160a01b031614610d515760405162461bcd60e51b81526004016104b990612437565b6067546000906001600160a01b031663691562a030610d7660a0890160808a0161221b565b6040516001600160e01b031960e085901b1681526001600160a01b03909216600483015260ff166024820152604401602060405180830381600087803b158015610dbf57600080fd5b505af1158015610dd3573d6000803e3d6000fd5b505050506040513d601f19601f82011682018060405250810190610df791906121c9565b9050606c6000610e0a6020880188611f79565b6001600160a01b0316815260208082019290925260400160009081208054600181810183559183528383200184905591606d9190610e4a90890189611f79565b6001600160a01b031681526020808201929092526040908101600090812085825290925290819020805460ff1916921515929092179091555133907f4c6e2e52c121822261780959c82ac1325229fc58975e0174b57f276bcfcff26990610eb49088908590612482565b60405180910390a25050505050565b6001600160a01b0381166000908152606c6020908152604091829020805483518184028101840190945280845260609392830182828015610f2357602002820191906000526020600020905b815481526020019060010190808311610f0f575b50505050509050919050565b600054610100900460ff16610f4a5760005460ff1615610f4e565b303b155b610fb15760405162461bcd60e51b815260206004820152602e60248201527f496e697469616c697a61626c653a20636f6e747261637420697320616c72656160448201526d191e481a5b9a5d1a585b1a5e995960921b60648201526084016104b9565b600054610100900460ff16158015610fd3576000805461ffff19166101011790555b610fdb611618565b606580546001600160a01b038087166001600160a01b031992831617909255606680548684169083161790556067805492851692909116919091179055801561102a576000805461ff00191690555b50505050565b336000908152606860205260408120805434929061104f90849061249d565b909155505060405134815233907f1d7216e1bbc8feb9e6575a2a6166c01e5393e33a975c4f31f9612fd226b568879060200160405180910390a2565b60005b818110156111e2576067546001600160a01b03166342842e0e33308686868181106110c957634e487b7160e01b600052603260045260246000fd5b905060200201356040518463ffffffff1660e01b81526004016110ee939291906122d1565b600060405180830381600087803b15801561110857600080fd5b505af115801561111c573d6000803e3d6000fd5b5050336000908152606c602052604090209150849050838381811061115157634e487b7160e01b600052603260045260246000fd5b8354600181810186556000958652602080872093810295909501359290910191909155338452606d909252506040822090918585858181106111a357634e487b7160e01b600052603260045260246000fd5b90506020020135815260200190815260200160002060006101000a81548160ff02191690831515021790555080806111da9061252b565b91505061108e565b50336001600160a01b03167ff84acdfc917c91b8d4bb606329b4a6944fd2aa6ba68e7cee8a3e8d0f18ebd458838360405161121e92919061232c565b60405180910390a25050565b6033546001600160a01b031633146112545760405162461bcd60e51b81526004016104b9906123b7565b6001600160a01b0381166112b95760405162461bcd60e51b815260206004820152602660248201527f4f776e61626c653a206e6577206f776e657220697320746865207a65726f206160448201526564647265737360d01b60648201526084016104b9565b6112c28161156e565b50565b604080518082018252601081526f181899199a1a9b1b9c1cb0b131b232b360811b6020820152815182815260608181018452926000919060208201818036833701905050905060005b60208110156114715782600486836020811061133a57634e487b7160e01b600052603260045260246000fd5b1a60f81b6001600160f81b031916901c60f81c60ff168151811061136e57634e487b7160e01b600052603260045260246000fd5b01602001516001600160f81b031916826113898360026124c9565b815181106113a757634e487b7160e01b600052603260045260246000fd5b60200101906001600160f81b031916908160001a905350828582602081106113df57634e487b7160e01b600052603260045260246000fd5b825191901a600f1690811061140457634e487b7160e01b600052603260045260246000fd5b01602001516001600160f81b0319168261141f8360026124c9565b61142a90600161249d565b8151811061144857634e487b7160e01b600052603260045260246000fd5b60200101906001600160f81b031916908160001a905350806114698161252b565b91505061130e565b509392505050565b60008085905060006114f16040518060400160405280601a81526020017f19457468657265756d205369676e6564204d6573736167653a0a0000000000008152506114c4845161164f565b60408051600080825260208201818152828401828152606084019283526080840190945288939091611771565b90506001818051906020012087878760405160008152602001604052604051611536949392919093845260ff9290921660208401526040830152606082015260800190565b6020604051602081039080840390855afa158015611558573d6000803e3d6000fd5b5050604051601f19015198975050505050505050565b603380546001600160a01b038381166001600160a01b0319831681179093556040519116919082907f8be0079c531659141344cd1fd0a4f28419497f9722a3daafe3b4186f6b6457e090600090a35050565b61102a846323b872dd60e01b8585856040516024016115e1939291906122d1565b60408051601f198184030181529190526020810180516001600160e01b03166001600160e01b031990931692909217909152611c11565b600054610100900460ff1661163f5760405162461bcd60e51b81526004016104b9906123ec565b611647611ce8565b610bac611d0f565b6060816116735750506040805180820190915260018152600360fc1b602082015290565b8160005b811561169d57806116878161252b565b91506116969050600a836124b5565b9150611677565b60008167ffffffffffffffff8111156116c657634e487b7160e01b600052604160045260246000fd5b6040519080825280601f01601f1916602001820160405280156116f0576020820181803683370190505b5090505b8415611769576117056001836124e8565b9150611712600a86612546565b61171d90603061249d565b60f81b81838151811061174057634e487b7160e01b600052603260045260246000fd5b60200101906001600160f81b031916908160001a905350611762600a866124b5565b94506116f4565b949350505050565b6060600082518451865188518a518c518e5161178d919061249d565b611797919061249d565b6117a1919061249d565b6117ab919061249d565b6117b5919061249d565b6117bf919061249d565b67ffffffffffffffff8111156117e557634e487b7160e01b600052604160045260246000fd5b6040519080825280601f01601f19166020018201604052801561180f576020820181803683370190505b5090506000805b8a518110156118a2578a818151811061183f57634e487b7160e01b600052603260045260246000fd5b01602001516001600160f81b03191683836118598161252b565b94508151811061187957634e487b7160e01b600052603260045260246000fd5b60200101906001600160f81b031916908160001a9053508061189a8161252b565b915050611816565b5060005b8951811015611932578981815181106118cf57634e487b7160e01b600052603260045260246000fd5b01602001516001600160f81b03191683836118e98161252b565b94508151811061190957634e487b7160e01b600052603260045260246000fd5b60200101906001600160f81b031916908160001a9053508061192a8161252b565b9150506118a6565b5060005b88518110156119c25788818151811061195f57634e487b7160e01b600052603260045260246000fd5b01602001516001600160f81b03191683836119798161252b565b94508151811061199957634e487b7160e01b600052603260045260246000fd5b60200101906001600160f81b031916908160001a905350806119ba8161252b565b915050611936565b5060005b8751811015611a52578781815181106119ef57634e487b7160e01b600052603260045260246000fd5b01602001516001600160f81b0319168383611a098161252b565b945081518110611a2957634e487b7160e01b600052603260045260246000fd5b60200101906001600160f81b031916908160001a90535080611a4a8161252b565b9150506119c6565b5060005b8651811015611ae257868181518110611a7f57634e487b7160e01b600052603260045260246000fd5b01602001516001600160f81b0319168383611a998161252b565b945081518110611ab957634e487b7160e01b600052603260045260246000fd5b60200101906001600160f81b031916908160001a90535080611ada8161252b565b915050611a56565b5060005b8551811015611b7257858181518110611b0f57634e487b7160e01b600052603260045260246000fd5b01602001516001600160f81b0319168383611b298161252b565b945081518110611b4957634e487b7160e01b600052603260045260246000fd5b60200101906001600160f81b031916908160001a90535080611b6a8161252b565b915050611ae6565b5060005b8451811015611c0257848181518110611b9f57634e487b7160e01b600052603260045260246000fd5b01602001516001600160f81b0319168383611bb98161252b565b945081518110611bd957634e487b7160e01b600052603260045260246000fd5b60200101906001600160f81b031916908160001a90535080611bfa8161252b565b915050611b76565b50909998505050505050505050565b6000611c66826040518060400160405280602081526020017f5361666545524332303a206c6f772d6c6576656c2063616c6c206661696c6564815250856001600160a01b0316611d3f9092919063ffffffff16565b805190915015611ce35780806020019051810190611c849190612148565b611ce35760405162461bcd60e51b815260206004820152602a60248201527f5361666545524332303a204552433230206f7065726174696f6e20646964206e6044820152691bdd081cdd58d8d9595960b21b60648201526084016104b9565b505050565b600054610100900460ff16610bac5760405162461bcd60e51b81526004016104b9906123ec565b600054610100900460ff16611d365760405162461bcd60e51b81526004016104b9906123ec565b610bac3361156e565b6060611d4e8484600085611d58565b90505b9392505050565b606082471015611db95760405162461bcd60e51b815260206004820152602660248201527f416464726573733a20696e73756666696369656e742062616c616e636520666f6044820152651c8818d85b1b60d21b60648201526084016104b9565b843b611e075760405162461bcd60e51b815260206004820152601d60248201527f416464726573733a2063616c6c20746f206e6f6e2d636f6e747261637400000060448201526064016104b9565b600080866001600160a01b03168587604051611e2391906122b5565b60006040518083038185875af1925050503d8060008114611e60576040519150601f19603f3d011682016040523d82523d6000602084013e611e65565b606091505b5091509150611e75828286611e80565b979650505050505050565b60608315611e8f575081611d51565b825115611e9f5782518084602001fd5b8160405162461bcd60e51b81526004016104b99190612384565b828054828255906000526020600020908101928215611ef4579160200282015b82811115611ef4578251825591602001919060010190611ed9565b50611f00929150611f04565b5090565b5b80821115611f005760008155600101611f05565b60008083601f840112611f2a578182fd5b50813567ffffffffffffffff811115611f41578182fd5b6020830191508360208260051b8501011115611f5c57600080fd5b9250929050565b803560ff81168114611f7457600080fd5b919050565b600060208284031215611f8a578081fd5b8135611d5181612586565b600080600080600060808688031215611fac578081fd5b8535611fb781612586565b94506020860135611fc781612586565b935060408601359250606086013567ffffffffffffffff80821115611fea578283fd5b818801915088601f830112611ffd578283fd5b81358181111561200b578384fd5b89602082850101111561201c578384fd5b9699959850939650602001949392505050565b600080600060608486031215612043578283fd5b833561204e81612586565b9250602084013561205e81612586565b9150604084013561206e81612586565b809150509250925092565b6000806040838503121561208b578182fd5b823561209681612586565b946020939093013593505050565b600080602083850312156120b6578182fd5b823567ffffffffffffffff8111156120cc578283fd5b6120d885828601611f19565b90969095509350505050565b6000806000806000608086880312156120fb578081fd5b853567ffffffffffffffff811115612111578182fd5b61211d88828901611f19565b9096509450612130905060208701611f63565b94979396509394604081013594506060013592915050565b600060208284031215612159578081fd5b81518015158114611d51578182fd5b60008060008084860361010081121561217f578485fd5b60a081121561218c578485fd5b5084935061219c60a08601611f63565b939693955050505060c08201359160e0013590565b6000602082840312156121c2578081fd5b5035919050565b6000602082840312156121da578081fd5b5051919050565b600080600080608085870312156121f6578384fd5b8435935061220660208601611f63565b93969395505050506040820135916060013590565b60006020828403121561222c578081fd5b611d5182611f63565b81835260006001600160fb1b0383111561224d578081fd5b8260051b80836020870137939093016020019283525090919050565b803561227481612586565b6001600160a01b0316825260208181013590830152604080820135908301526060808201359083015260ff6122ab60808301611f63565b1660808301525050565b600082516122c78184602087016124ff565b9190910192915050565b6001600160a01b039384168152919092166020820152604081019190915260600190565b6001600160a01b038581168252841660208201526060604082018190526000906123229083018486612235565b9695505050505050565b602081526000611d4e602083018486612235565b6020808252825182820181905260009190848201906040850190845b818110156123785783518352928401929184019160010161235c565b50909695505050505050565b60208152600082518060208401526123a38160408501602087016124ff565b601f01601f19169190910160400192915050565b6020808252818101527f4f776e61626c653a2063616c6c6572206973206e6f7420746865206f776e6572604082015260600190565b6020808252602b908201527f496e697469616c697a61626c653a20636f6e7472616374206973206e6f74206960408201526a6e697469616c697a696e6760a81b606082015260800190565b6020808252601c908201527f47616d653a207369676e617475726520766572696679206572726f7200000000604082015260600190565b60a0810161247c8284612269565b92915050565b60c081016124908285612269565b8260a08301529392505050565b600082198211156124b0576124b061255a565b500190565b6000826124c4576124c4612570565b500490565b60008160001904831182151516156124e3576124e361255a565b500290565b6000828210156124fa576124fa61255a565b500390565b60005b8381101561251a578181015183820152602001612502565b8381111561102a5750506000910152565b600060001982141561253f5761253f61255a565b5060010190565b60008261255557612555612570565b500690565b634e487b7160e01b600052601160045260246000fd5b634e487b7160e01b600052601260045260246000fd5b6001600160a01b03811681146112c257600080fdfea164736f6c6343000804000a",
  "linkReferences": {},
  "deployedLinkReferences": {}
}