{
  "address": "0xF32C3e02512342532721D6672c2a6B536F1163d9",
  "transactionHash": "0xfb78117e4ac996c212812e9098e6b8ea386cfacfbe307caba42304c3db36103b",
  "args": [
    "0x2Dc45fFC85A43Fa14345EBB851337598fCcC7919",
    "0x5654e7eED584375C21Bb0c1E9B7359121832dD9C",
    "0x7041755821EEEB96aA89b5d0A351EfD3720eF0E1"
  ],
  "_format": "hh-sol-artifact-1",
  "contractName": "Game",
  "sourceName": "contracts/Game.sol",
  "abi": [
    {
      "anonymous": false,
      "inputs": [
        {
          "indexed": true,
          "internalType": "address",
          "name": "account",
          "type": "address"
        },
        {
          "components": [
            {
              "internalType": "address",
              "name": "owner",
              "type": "address"
            },
            {
              "internalType": "uint256",
              "name": "salt",
              "type": "uint256"
            },
            {
              "internalType": "uint256",
              "name": "horse1",
              "type": "uint256"
            },
            {
              "internalType": "uint256",
              "name": "horse2",
              "type": "uint256"
            },
            {
              "internalType": "uint8",
              "name": "newType",
              "type": "uint8"
            }
          ],
          "indexed": false,
          "internalType": "struct Game.BreedData",
          "name": "breedData",
          "type": "tuple"
        },
        {
          "indexed": false,
          "internalType": "uint256",
          "name": "newHorse",
          "type": "uint256"
        }
      ],
      "name": "Breed",
      "type": "event"
    },
    {
      "anonymous": false,
      "inputs": [
        {
          "indexed": true,
          "internalType": "address",
          "name": "account",
          "type": "address"
        },
        {
          "indexed": false,
          "internalType": "uint256[]",
          "name": "tokenIds",
          "type": "uint256[]"
        }
      ],
      "name": "DepositHorse",
      "type": "event"
    },
    {
      "anonymous": false,
      "inputs": [
        {
          "indexed": true,
          "internalType": "address",
          "name": "account",
          "type": "address"
        },
        {
          "indexed": false,
          "internalType": "uint256",
          "name": "value",
          "type": "uint256"
        }
      ],
      "name": "DepositHrw",
      "type": "event"
    },
    {
      "anonymous": false,
      "inputs": [
        {
          "indexed": true,
          "internalType": "address",
          "name": "account",
          "type": "address"
        },
        {
          "indexed": false,
          "internalType": "uint256",
          "name": "value",
          "type": "uint256"
        }
      ],
      "name": "DepositNative",
      "type": "event"
    },
    {
      "anonymous": false,
      "inputs": [
        {
          "indexed": true,
          "internalType": "address",
          "name": "previousOwner",
          "type": "address"
        },
        {
          "indexed": true,
          "internalType": "address",
          "name": "newOwner",
          "type": "address"
        }
      ],
      "name": "OwnershipTransferred",
      "type": "event"
    },
    {
      "anonymous": false,
      "inputs": [
        {
          "indexed": true,
          "internalType": "address",
          "name": "account",
          "type": "address"
        },
        {
          "indexed": false,
          "internalType": "uint256[]",
          "name": "tokenIds",
          "type": "uint256[]"
        }
      ],
      "name": "WithdrawHorse",
      "type": "event"
    },
    {
      "anonymous": false,
      "inputs": [
        {
          "indexed": true,
          "internalType": "address",
          "name": "account",
          "type": "address"
        },
        {
          "indexed": false,
          "internalType": "uint256",
          "name": "total",
          "type": "uint256"
        },
        {
          "indexed": false,
          "internalType": "uint256",
          "name": "amount",
          "type": "uint256"
        }
      ],
      "name": "WithdrawHrw",
      "type": "event"
    },
    {
      "anonymous": false,
      "inputs": [
        {
          "indexed": true,
          "internalType": "address",
          "name": "account",
          "type": "address"
        },
        {
          "indexed": false,
          "internalType": "uint256",
          "name": "total",
          "type": "uint256"
        },
        {
          "indexed": false,
          "internalType": "uint256",
          "name": "amount",
          "type": "uint256"
        }
      ],
      "name": "WithdrawNative",
      "type": "event"
    },
    {
      "inputs": [
        {
          "components": [
            {
              "internalType": "address",
              "name": "owner",
              "type": "address"
            },
            {
              "internalType": "uint256",
              "name": "salt",
              "type": "uint256"
            },
            {
              "internalType": "uint256",
              "name": "horse1",
              "type": "uint256"
            },
            {
              "internalType": "uint256",
              "name": "horse2",
              "type": "uint256"
            },
            {
              "internalType": "uint8",
              "name": "newType",
              "type": "uint8"
            }
          ],
          "internalType": "struct Game.BreedData",
          "name": "breedData",
          "type": "tuple"
        },
        {
          "internalType": "uint8",
          "name": "v",
          "type": "uint8"
        },
        {
          "internalType": "bytes32",
          "name": "r",
          "type": "bytes32"
        },
        {
          "internalType": "bytes32",
          "name": "s",
          "type": "bytes32"
        }
      ],
      "name": "breed",
      "outputs": [],
      "stateMutability": "nonpayable",
      "type": "function"
    },
    {
      "inputs": [
        {
          "internalType": "uint256[]",
          "name": "tokenIds",
          "type": "uint256[]"
        }
      ],
      "name": "depositHorse",
      "outputs": [],
      "stateMutability": "payable",
      "type": "function"
    },
    {
      "inputs": [
        {
          "internalType": "uint256",
          "name": "amount",
          "type": "uint256"
        }
      ],
      "name": "depositHrw",
      "outputs": [],
      "stateMutability": "payable",
      "type": "function"
    },
    {
      "inputs": [],
      "name": "depositNative",
      "outputs": [],
      "stateMutability": "payable",
      "type": "function"
    },
    {
      "inputs": [
        {
          "internalType": "address",
          "name": "_signer",
          "type": "address"
        },
        {
          "internalType": "contract IERC20Upgradeable",
          "name": "_hrw",
          "type": "address"
        },
        {
          "internalType": "contract Horse",
          "name": "_horse",
          "type": "address"
        }
      ],
      "name": "initialize",
      "outputs": [],
      "stateMutability": "nonpayable",
      "type": "function"
    },
    {
      "inputs": [],
      "name": "owner",
      "outputs": [
        {
          "internalType": "address",
          "name": "",
          "type": "address"
        }
      ],
      "stateMutability": "view",
      "type": "function"
    },
    {
      "inputs": [],
      "name": "renounceOwnership",
      "outputs": [],
      "stateMutability": "nonpayable",
      "type": "function"
    },
    {
      "inputs": [
        {
          "internalType": "address",
          "name": "_signer",
          "type": "address"
        }
      ],
      "name": "setSigner",
      "outputs": [],
      "stateMutability": "nonpayable",
      "type": "function"
    },
    {
      "inputs": [
        {
          "internalType": "address",
          "name": "newOwner",
          "type": "address"
        }
      ],
      "name": "transferOwnership",
      "outputs": [],
      "stateMutability": "nonpayable",
      "type": "function"
    },
    {
      "inputs": [
        {
          "internalType": "address",
          "name": "",
          "type": "address"
        },
        {
          "internalType": "uint256",
          "name": "",
          "type": "uint256"
        }
      ],
      "name": "userHorse",
      "outputs": [
        {
          "internalType": "uint256",
          "name": "",
          "type": "uint256"
        }
      ],
      "stateMutability": "view",
      "type": "function"
    },
    {
      "inputs": [
        {
          "internalType": "address",
          "name": "",
          "type": "address"
        },
        {
          "internalType": "uint256",
          "name": "",
          "type": "uint256"
        }
      ],
      "name": "userHorseMapping",
      "outputs": [
        {
          "internalType": "bool",
          "name": "",
          "type": "bool"
        }
      ],
      "stateMutability": "view",
      "type": "function"
    },
    {
      "inputs": [
        {
          "internalType": "address",
          "name": "",
          "type": "address"
        }
      ],
      "name": "userHrw",
      "outputs": [
        {
          "internalType": "uint256",
          "name": "",
          "type": "uint256"
        }
      ],
      "stateMutability": "view",
      "type": "function"
    },
    {
      "inputs": [
        {
          "internalType": "address",
          "name": "",
          "type": "address"
        }
      ],
      "name": "userNative",
      "outputs": [
        {
          "internalType": "uint256",
          "name": "",
          "type": "uint256"
        }
      ],
      "stateMutability": "view",
      "type": "function"
    },
    {
      "inputs": [
        {
          "internalType": "address",
          "name": "",
          "type": "address"
        }
      ],
      "name": "userWithdrawHrw",
      "outputs": [
        {
          "internalType": "uint256",
          "name": "",
          "type": "uint256"
        }
      ],
      "stateMutability": "view",
      "type": "function"
    },
    {
      "inputs": [
        {
          "internalType": "address",
          "name": "",
          "type": "address"
        }
      ],
      "name": "userWithdrawNative",
      "outputs": [
        {
          "internalType": "uint256",
          "name": "",
          "type": "uint256"
        }
      ],
      "stateMutability": "view",
      "type": "function"
    },
    {
      "inputs": [
        {
          "internalType": "uint256[]",
          "name": "tokenIds",
          "type": "uint256[]"
        },
        {
          "internalType": "uint8",
          "name": "v",
          "type": "uint8"
        },
        {
          "internalType": "bytes32",
          "name": "r",
          "type": "bytes32"
        },
        {
          "internalType": "bytes32",
          "name": "s",
          "type": "bytes32"
        }
      ],
      "name": "withdrawHorse",
      "outputs": [],
      "stateMutability": "payable",
      "type": "function"
    },
    {
      "inputs": [
        {
          "internalType": "uint256",
          "name": "value",
          "type": "uint256"
        },
        {
          "internalType": "uint8",
          "name": "v",
          "type": "uint8"
        },
        {
          "internalType": "bytes32",
          "name": "r",
          "type": "bytes32"
        },
        {
          "internalType": "bytes32",
          "name": "s",
          "type": "bytes32"
        }
      ],
      "name": "withdrawHrw",
      "outputs": [],
      "stateMutability": "nonpayable",
      "type": "function"
    },
    {
      "inputs": [
        {
          "internalType": "uint256",
          "name": "value",
          "type": "uint256"
        },
        {
          "internalType": "uint8",
          "name": "v",
          "type": "uint8"
        },
        {
          "internalType": "bytes32",
          "name": "r",
          "type": "bytes32"
        },
        {
          "internalType": "bytes32",
          "name": "s",
          "type": "bytes32"
        }
      ],
      "name": "withdrawNative",
      "outputs": [],
      "stateMutability": "nonpayable",
      "type": "function"
    }
  ],
  "bytecode": "0x608060405234801561001057600080fd5b5061247a806100206000396000f3fe6080604052600436106101095760003560e01c80637af5966811610095578063ca298c4e11610064578063ca298c4e146102cd578063db6b524614610318578063e0680aba14610320578063e780da4a14610333578063f2fde38b1461036057600080fd5b80637af59668146102385780638da5cb5b14610258578063b757c3bd14610280578063c0c53b8b146102ad57600080fd5b80635cae4765116100dc5780635cae4765146101b05780636c19e783146101d05780636e0bf24f146101f0578063715018a6146102105780637841135a1461022557600080fd5b806302b0b9771461010e5780632a2a804914610141578063335b7263146101565780634011938214610183575b600080fd5b34801561011a57600080fd5b5061012e610129366004611f8f565b610380565b6040519081526020015b60405180910390f35b61015461014f366004611ffa565b6103b1565b005b34801561016257600080fd5b5061012e610171366004611f29565b606a6020526000908152604090205481565b34801561018f57600080fd5b5061012e61019e366004611f29565b60696020526000908152604090205481565b3480156101bc57600080fd5b506101546101cb3660046120f7565b610846565b3480156101dc57600080fd5b506101546101eb366004611f29565b610a09565b3480156101fc57600080fd5b5061015461020b3660046120f7565b610a55565b34801561021c57600080fd5b50610154610b94565b6101546102333660046120c7565b610bca565b34801561024457600080fd5b5061015461025336600461207e565b610c3e565b34801561026457600080fd5b506033546040516001600160a01b039091168152602001610138565b34801561028c57600080fd5b5061012e61029b366004611f29565b60686020526000908152604090205481565b3480156102b957600080fd5b506101546102c8366004611f45565b610edf565b3480156102d957600080fd5b506103086102e8366004611f8f565b606d60209081526000928352604080842090915290825290205460ff1681565b6040519015158152602001610138565b610154610fe0565b61015461032e366004611fba565b61103b565b34801561033f57600080fd5b5061012e61034e366004611f29565b606b6020526000908152604090205481565b34801561036c57600080fd5b5061015461037b366004611f29565b6111da565b606c602052816000526040600020818154811061039c57600080fd5b90600052602060002001600091509150505481565b6065546067546040516001600160a01b039283169261040b92879287928792610403926103e892339216908e908e9060200161220b565b60405160208183030381529060405280519060200120611275565b929190611429565b6001600160a01b03161461043a5760405162461bcd60e51b815260040161043190612309565b60405180910390fd5b336000908152606c60205260409020548411156104915760405162461bcd60e51b815260206004820152601560248201527447616d653a206c656e67746820746f6f206c6f6e6760581b6044820152606401610431565b60005b8481101561067957336000908152606d60205260408120908787848181106104cc57634e487b7160e01b600052603260045260246000fd5b602090810292909201358352508101919091526040016000205460ff166105355760405162461bcd60e51b815260206004820152601960248201527f47616d653a204e6f74206465706f73697420746f6b656e4964000000000000006044820152606401610431565b6067546001600160a01b03166342842e0e303389898681811061056857634e487b7160e01b600052603260045260246000fd5b905060200201356040518463ffffffff1660e01b815260040161058d939291906121e7565b600060405180830381600087803b1580156105a757600080fd5b505af11580156105bb573d6000803e3d6000fd5b5050336000908152606c60205260409020915087905086838181106105f057634e487b7160e01b600052603260045260246000fd5b835460018101855560009485526020808620928102949094013591015550338252606d9052604081208188888581811061063a57634e487b7160e01b600052603260045260246000fd5b90506020020135815260200190815260200160002060006101000a81548160ff0219169083151502179055508080610671906123fd565b915050610494565b50336000908152606c60209081526040808320805482518185028101850190935280835291929091908301828280156106d157602002820191906000526020600020905b8154815260200190600101908083116106bd575b505050505090506000805b336000908152606c60205260409020548110156107d857336000908152606d60209081526040808320606c909252822080549192918490811061072f57634e487b7160e01b600052603260045260246000fd5b6000918252602080832090910154835282019290925260400190205460ff16156107c657336000908152606c6020526040902080548290811061078257634e487b7160e01b600052603260045260246000fd5b9060005260206000200154838380610799906123fd565b9450815181106107b957634e487b7160e01b600052603260045260246000fd5b6020026020010181815250505b806107d0816123fd565b9150506106dc565b50336000908152606c6020908152604090912083516107f992850190611e69565b50336001600160a01b03167ff5dc7afcc745765435bf72e73e0e5e1155bdf5c2c4b51e4fbd4870df6307177a8888604051610835929190612242565b60405180910390a250505050505050565b336000908152606b602052604090205484116108a45760405162461bcd60e51b815260206004820152601c60248201527f47616d653a204e6f2062616c616e636520746f207769746864726177000000006044820152606401610431565b6065546066546040516001600160a01b03928316926108d992879287928792610403926103e892339216908d906020016121e7565b6001600160a01b0316146108ff5760405162461bcd60e51b815260040161043190612309565b336000818152606b602052604090208590556066546001600160a01b03169063a9059cbb9061092e87806123ba565b6040516001600160e01b031960e085901b1681526001600160a01b0390921660048301526024820152604401602060405180830381600087803b15801561097457600080fd5b505af1158015610988573d6000803e3d6000fd5b505050506040513d601f19601f820116820180604052508101906109ac919061205e565b50336000818152606b60205260409020547f4f10e3103b9786d93a1c6bb3d50c809f2e1e58c54c13437a26204be19b573eee9086906109eb90826123ba565b6040805192835260208301919091520160405180910390a250505050565b6033546001600160a01b03163314610a335760405162461bcd60e51b815260040161043190612289565b606580546001600160a01b0319166001600160a01b0392909216919091179055565b336000908152606960205260409020548411610ab35760405162461bcd60e51b815260206004820152601c60248201527f47616d653a204e6f2062616c616e636520746f207769746864726177000000006044820152606401610431565b606554604080513360208201529081018690526001600160a01b0390911690610ae890859085908590610403906060016103e8565b6001600160a01b031614610b0e5760405162461bcd60e51b815260040161043190612309565b3360008181526069602052604090208590556108fc610b2d86806123ba565b6040518115909202916000818181858888f19350505050158015610b55573d6000803e3d6000fd5b50336000818152606960205260409020547f5cb35f4e7dbc40dd34f0d58cec4f5548fc47638cb46d7964e4f07c48e97e4c7d9086906109eb90826123ba565b6033546001600160a01b03163314610bbe5760405162461bcd60e51b815260040161043190612289565b610bc8600061151e565b565b336000908152606a602052604081208054839290610be990849061236f565b9091555050606654610c06906001600160a01b0316333084611570565b60405181815233907f4b47f8a5094fae3902f2b999e63742264cc861240347b837b9275e647dcf64789060200160405180910390a250565b336000908152606d6020908152604080832087820135845290915290205460ff16610cab5760405162461bcd60e51b815260206004820152601960248201527f47616d653a207573657220686173206e6f7420686f72736531000000000000006044820152606401610431565b336000908152606d602090815260408083206060880135845290915290205460ff16610d195760405162461bcd60e51b815260206004820152601960248201527f47616d653a207573657220686173206e6f7420686f72736532000000000000006044820152606401610431565b6065546040516001600160a01b0390911690610d4790859085908590610403906103e8908b90602001612340565b6001600160a01b031614610d6d5760405162461bcd60e51b815260040161043190612309565b6067546000906001600160a01b031663691562a030610d9260a0890160808a01612131565b6040516001600160e01b031960e085901b1681526001600160a01b03909216600483015260ff166024820152604401602060405180830381600087803b158015610ddb57600080fd5b505af1158015610def573d6000803e3d6000fd5b505050506040513d601f19601f82011682018060405250810190610e1391906120df565b9050606c6000610e266020880188611f29565b6001600160a01b0316815260208082019290925260400160009081208054600181810183559183528383200184905591606d9190610e6690890189611f29565b6001600160a01b031681526020808201929092526040908101600090812085825290925290819020805460ff1916921515929092179091555133907f4c6e2e52c121822261780959c82ac1325229fc58975e0174b57f276bcfcff26990610ed09088908590612354565b60405180910390a25050505050565b600054610100900460ff16610efa5760005460ff1615610efe565b303b155b610f615760405162461bcd60e51b815260206004820152602e60248201527f496e697469616c697a61626c653a20636f6e747261637420697320616c72656160448201526d191e481a5b9a5d1a585b1a5e995960921b6064820152608401610431565b600054610100900460ff16158015610f83576000805461ffff19166101011790555b610f8b6115c8565b606580546001600160a01b038087166001600160a01b0319928316179092556066805486841690831617905560678054928516929091169190911790558015610fda576000805461ff00191690555b50505050565b3360009081526068602052604081208054349290610fff90849061236f565b909155505060405134815233907f1d7216e1bbc8feb9e6575a2a6166c01e5393e33a975c4f31f9612fd226b568879060200160405180910390a2565b60005b81811015611192576067546001600160a01b03166342842e0e333086868681811061107957634e487b7160e01b600052603260045260246000fd5b905060200201356040518463ffffffff1660e01b815260040161109e939291906121e7565b600060405180830381600087803b1580156110b857600080fd5b505af11580156110cc573d6000803e3d6000fd5b5050336000908152606c602052604090209150849050838381811061110157634e487b7160e01b600052603260045260246000fd5b8354600181810186556000958652602080872093810295909501359290910191909155338452606d9092525060408220909185858581811061115357634e487b7160e01b600052603260045260246000fd5b90506020020135815260200190815260200160002060006101000a81548160ff021916908315150217905550808061118a906123fd565b91505061103e565b50336001600160a01b03167ff84acdfc917c91b8d4bb606329b4a6944fd2aa6ba68e7cee8a3e8d0f18ebd45883836040516111ce929190612242565b60405180910390a25050565b6033546001600160a01b031633146112045760405162461bcd60e51b815260040161043190612289565b6001600160a01b0381166112695760405162461bcd60e51b815260206004820152602660248201527f4f776e61626c653a206e6577206f776e657220697320746865207a65726f206160448201526564647265737360d01b6064820152608401610431565b6112728161151e565b50565b604080518082018252601081526f181899199a1a9b1b9c1cb0b131b232b360811b6020820152815182815260608181018452926000919060208201818036833701905050905060005b6020811015611421578260048683602081106112ea57634e487b7160e01b600052603260045260246000fd5b1a60f81b6001600160f81b031916901c60f81c60ff168151811061131e57634e487b7160e01b600052603260045260246000fd5b01602001516001600160f81b0319168261133983600261239b565b8151811061135757634e487b7160e01b600052603260045260246000fd5b60200101906001600160f81b031916908160001a9053508285826020811061138f57634e487b7160e01b600052603260045260246000fd5b825191901a600f169081106113b457634e487b7160e01b600052603260045260246000fd5b01602001516001600160f81b031916826113cf83600261239b565b6113da90600161236f565b815181106113f857634e487b7160e01b600052603260045260246000fd5b60200101906001600160f81b031916908160001a90535080611419816123fd565b9150506112be565b509392505050565b60008085905060006114a16040518060400160405280601a81526020017f19457468657265756d205369676e6564204d6573736167653a0a00000000000081525061147484516115ff565b60408051600080825260208201818152828401828152606084019283526080840190945288939091611721565b905060018180519060200120878787604051600081526020016040526040516114e6949392919093845260ff9290921660208401526040830152606082015260800190565b6020604051602081039080840390855afa158015611508573d6000803e3d6000fd5b5050604051601f19015198975050505050505050565b603380546001600160a01b038381166001600160a01b0319831681179093556040519116919082907f8be0079c531659141344cd1fd0a4f28419497f9722a3daafe3b4186f6b6457e090600090a35050565b610fda846323b872dd60e01b858585604051602401611591939291906121e7565b60408051601f198184030181529190526020810180516001600160e01b03166001600160e01b031990931692909217909152611bc1565b600054610100900460ff166115ef5760405162461bcd60e51b8152600401610431906122be565b6115f7611c98565b610bc8611cbf565b6060816116235750506040805180820190915260018152600360fc1b602082015290565b8160005b811561164d5780611637816123fd565b91506116469050600a83612387565b9150611627565b60008167ffffffffffffffff81111561167657634e487b7160e01b600052604160045260246000fd5b6040519080825280601f01601f1916602001820160405280156116a0576020820181803683370190505b5090505b8415611719576116b56001836123ba565b91506116c2600a86612418565b6116cd90603061236f565b60f81b8183815181106116f057634e487b7160e01b600052603260045260246000fd5b60200101906001600160f81b031916908160001a905350611712600a86612387565b94506116a4565b949350505050565b6060600082518451865188518a518c518e5161173d919061236f565b611747919061236f565b611751919061236f565b61175b919061236f565b611765919061236f565b61176f919061236f565b67ffffffffffffffff81111561179557634e487b7160e01b600052604160045260246000fd5b6040519080825280601f01601f1916602001820160405280156117bf576020820181803683370190505b5090506000805b8a51811015611852578a81815181106117ef57634e487b7160e01b600052603260045260246000fd5b01602001516001600160f81b0319168383611809816123fd565b94508151811061182957634e487b7160e01b600052603260045260246000fd5b60200101906001600160f81b031916908160001a9053508061184a816123fd565b9150506117c6565b5060005b89518110156118e25789818151811061187f57634e487b7160e01b600052603260045260246000fd5b01602001516001600160f81b0319168383611899816123fd565b9450815181106118b957634e487b7160e01b600052603260045260246000fd5b60200101906001600160f81b031916908160001a905350806118da816123fd565b915050611856565b5060005b88518110156119725788818151811061190f57634e487b7160e01b600052603260045260246000fd5b01602001516001600160f81b0319168383611929816123fd565b94508151811061194957634e487b7160e01b600052603260045260246000fd5b60200101906001600160f81b031916908160001a9053508061196a816123fd565b9150506118e6565b5060005b8751811015611a025787818151811061199f57634e487b7160e01b600052603260045260246000fd5b01602001516001600160f81b03191683836119b9816123fd565b9450815181106119d957634e487b7160e01b600052603260045260246000fd5b60200101906001600160f81b031916908160001a905350806119fa816123fd565b915050611976565b5060005b8651811015611a9257868181518110611a2f57634e487b7160e01b600052603260045260246000fd5b01602001516001600160f81b0319168383611a49816123fd565b945081518110611a6957634e487b7160e01b600052603260045260246000fd5b60200101906001600160f81b031916908160001a90535080611a8a816123fd565b915050611a06565b5060005b8551811015611b2257858181518110611abf57634e487b7160e01b600052603260045260246000fd5b01602001516001600160f81b0319168383611ad9816123fd565b945081518110611af957634e487b7160e01b600052603260045260246000fd5b60200101906001600160f81b031916908160001a90535080611b1a816123fd565b915050611a96565b5060005b8451811015611bb257848181518110611b4f57634e487b7160e01b600052603260045260246000fd5b01602001516001600160f81b0319168383611b69816123fd565b945081518110611b8957634e487b7160e01b600052603260045260246000fd5b60200101906001600160f81b031916908160001a90535080611baa816123fd565b915050611b26565b50909998505050505050505050565b6000611c16826040518060400160405280602081526020017f5361666545524332303a206c6f772d6c6576656c2063616c6c206661696c6564815250856001600160a01b0316611cef9092919063ffffffff16565b805190915015611c935780806020019051810190611c34919061205e565b611c935760405162461bcd60e51b815260206004820152602a60248201527f5361666545524332303a204552433230206f7065726174696f6e20646964206e6044820152691bdd081cdd58d8d9595960b21b6064820152608401610431565b505050565b600054610100900460ff16610bc85760405162461bcd60e51b8152600401610431906122be565b600054610100900460ff16611ce65760405162461bcd60e51b8152600401610431906122be565b610bc83361151e565b6060611cfe8484600085611d08565b90505b9392505050565b606082471015611d695760405162461bcd60e51b815260206004820152602660248201527f416464726573733a20696e73756666696369656e742062616c616e636520666f6044820152651c8818d85b1b60d21b6064820152608401610431565b843b611db75760405162461bcd60e51b815260206004820152601d60248201527f416464726573733a2063616c6c20746f206e6f6e2d636f6e74726163740000006044820152606401610431565b600080866001600160a01b03168587604051611dd391906121cb565b60006040518083038185875af1925050503d8060008114611e10576040519150601f19603f3d011682016040523d82523d6000602084013e611e15565b606091505b5091509150611e25828286611e30565b979650505050505050565b60608315611e3f575081611d01565b825115611e4f5782518084602001fd5b8160405162461bcd60e51b81526004016104319190612256565b828054828255906000526020600020908101928215611ea4579160200282015b82811115611ea4578251825591602001919060010190611e89565b50611eb0929150611eb4565b5090565b5b80821115611eb05760008155600101611eb5565b60008083601f840112611eda578182fd5b50813567ffffffffffffffff811115611ef1578182fd5b6020830191508360208260051b8501011115611f0c57600080fd5b9250929050565b803560ff81168114611f2457600080fd5b919050565b600060208284031215611f3a578081fd5b8135611d0181612458565b600080600060608486031215611f59578182fd5b8335611f6481612458565b92506020840135611f7481612458565b91506040840135611f8481612458565b809150509250925092565b60008060408385031215611fa1578182fd5b8235611fac81612458565b946020939093013593505050565b60008060208385031215611fcc578182fd5b823567ffffffffffffffff811115611fe2578283fd5b611fee85828601611ec9565b90969095509350505050565b600080600080600060808688031215612011578081fd5b853567ffffffffffffffff811115612027578182fd5b61203388828901611ec9565b9096509450612046905060208701611f13565b94979396509394604081013594506060013592915050565b60006020828403121561206f578081fd5b81518015158114611d01578182fd5b600080600080848603610100811215612095578485fd5b60a08112156120a2578485fd5b508493506120b260a08601611f13565b939693955050505060c08201359160e0013590565b6000602082840312156120d8578081fd5b5035919050565b6000602082840312156120f0578081fd5b5051919050565b6000806000806080858703121561210c578384fd5b8435935061211c60208601611f13565b93969395505050506040820135916060013590565b600060208284031215612142578081fd5b611d0182611f13565b81835260006001600160fb1b03831115612163578081fd5b8260051b80836020870137939093016020019283525090919050565b803561218a81612458565b6001600160a01b0316825260208181013590830152604080820135908301526060808201359083015260ff6121c160808301611f13565b1660808301525050565b600082516121dd8184602087016123d1565b9190910192915050565b6001600160a01b039384168152919092166020820152604081019190915260600190565b6001600160a01b03858116825284166020820152606060408201819052600090612238908301848661214b565b9695505050505050565b602081526000611cfe60208301848661214b565b60208152600082518060208401526122758160408501602087016123d1565b601f01601f19169190910160400192915050565b6020808252818101527f4f776e61626c653a2063616c6c6572206973206e6f7420746865206f776e6572604082015260600190565b6020808252602b908201527f496e697469616c697a61626c653a20636f6e7472616374206973206e6f74206960408201526a6e697469616c697a696e6760a81b606082015260800190565b6020808252601c908201527f47616d653a207369676e617475726520766572696679206572726f7200000000604082015260600190565b60a0810161234e828461217f565b92915050565b60c08101612362828561217f565b8260a08301529392505050565b600082198211156123825761238261242c565b500190565b60008261239657612396612442565b500490565b60008160001904831182151516156123b5576123b561242c565b500290565b6000828210156123cc576123cc61242c565b500390565b60005b838110156123ec5781810151838201526020016123d4565b83811115610fda5750506000910152565b60006000198214156124115761241161242c565b5060010190565b60008261242757612427612442565b500690565b634e487b7160e01b600052601160045260246000fd5b634e487b7160e01b600052601260045260246000fd5b6001600160a01b038116811461127257600080fdfea164736f6c6343000804000a",
  "linkReferences": {},
  "deployedLinkReferences": {}
}