{
  "address": "0x7041755821EEEB96aA89b5d0A351EfD3720eF0E1",
  "transactionHash": "0xbbc9200b8c9e9014139911a22e5f6d7f63c803a59f16be5a9e01649f0145abac",
  "args": [],
  "_format": "hh-sol-artifact-1",
  "contractName": "Horse",
  "sourceName": "contracts/Horse.sol",
  "abi": [
    {
      "anonymous": false,
      "inputs": [
        {
          "indexed": true,
          "internalType": "address",
          "name": "owner",
          "type": "address"
        },
        {
          "indexed": true,
          "internalType": "address",
          "name": "approved",
          "type": "address"
        },
        {
          "indexed": true,
          "internalType": "uint256",
          "name": "tokenId",
          "type": "uint256"
        }
      ],
      "name": "Approval",
      "type": "event"
    },
    {
      "anonymous": false,
      "inputs": [
        {
          "indexed": true,
          "internalType": "address",
          "name": "owner",
          "type": "address"
        },
        {
          "indexed": true,
          "internalType": "address",
          "name": "operator",
          "type": "address"
        },
        {
          "indexed": false,
          "internalType": "bool",
          "name": "approved",
          "type": "bool"
        }
      ],
      "name": "ApprovalForAll",
      "type": "event"
    },
    {
      "anonymous": false,
      "inputs": [
        {
          "indexed": true,
          "internalType": "address",
          "name": "previousOwner",
          "type": "address"
        },
        {
          "indexed": true,
          "internalType": "address",
          "name": "newOwner",
          "type": "address"
        }
      ],
      "name": "OwnershipTransferred",
      "type": "event"
    },
    {
      "anonymous": false,
      "inputs": [
        {
          "indexed": true,
          "internalType": "address",
          "name": "from",
          "type": "address"
        },
        {
          "indexed": true,
          "internalType": "address",
          "name": "to",
          "type": "address"
        },
        {
          "indexed": true,
          "internalType": "uint256",
          "name": "tokenId",
          "type": "uint256"
        }
      ],
      "name": "Transfer",
      "type": "event"
    },
    {
      "inputs": [
        {
          "internalType": "address[]",
          "name": "_minters",
          "type": "address[]"
        }
      ],
      "name": "addMinters",
      "outputs": [],
      "stateMutability": "nonpayable",
      "type": "function"
    },
    {
      "inputs": [
        {
          "internalType": "address",
          "name": "to",
          "type": "address"
        },
        {
          "internalType": "uint256",
          "name": "tokenId",
          "type": "uint256"
        }
      ],
      "name": "approve",
      "outputs": [],
      "stateMutability": "nonpayable",
      "type": "function"
    },
    {
      "inputs": [
        {
          "internalType": "address",
          "name": "owner",
          "type": "address"
        }
      ],
      "name": "balanceOf",
      "outputs": [
        {
          "internalType": "uint256",
          "name": "",
          "type": "uint256"
        }
      ],
      "stateMutability": "view",
      "type": "function"
    },
    {
      "inputs": [],
      "name": "baseURI",
      "outputs": [
        {
          "internalType": "string",
          "name": "",
          "type": "string"
        }
      ],
      "stateMutability": "view",
      "type": "function"
    },
    {
      "inputs": [
        {
          "internalType": "uint256",
          "name": "tokenId",
          "type": "uint256"
        }
      ],
      "name": "getApproved",
      "outputs": [
        {
          "internalType": "address",
          "name": "",
          "type": "address"
        }
      ],
      "stateMutability": "view",
      "type": "function"
    },
    {
      "inputs": [],
      "name": "initialize",
      "outputs": [],
      "stateMutability": "nonpayable",
      "type": "function"
    },
    {
      "inputs": [
        {
          "internalType": "address",
          "name": "owner",
          "type": "address"
        },
        {
          "internalType": "address",
          "name": "operator",
          "type": "address"
        }
      ],
      "name": "isApprovedForAll",
      "outputs": [
        {
          "internalType": "bool",
          "name": "",
          "type": "bool"
        }
      ],
      "stateMutability": "view",
      "type": "function"
    },
    {
      "inputs": [
        {
          "internalType": "address",
          "name": "to",
          "type": "address"
        },
        {
          "internalType": "uint256",
          "name": "tokenId",
          "type": "uint256"
        },
        {
          "internalType": "uint8",
          "name": "_type",
          "type": "uint8"
        }
      ],
      "name": "mint",
      "outputs": [],
      "stateMutability": "nonpayable",
      "type": "function"
    },
    {
      "inputs": [],
      "name": "name",
      "outputs": [
        {
          "internalType": "string",
          "name": "",
          "type": "string"
        }
      ],
      "stateMutability": "view",
      "type": "function"
    },
    {
      "inputs": [],
      "name": "owner",
      "outputs": [
        {
          "internalType": "address",
          "name": "",
          "type": "address"
        }
      ],
      "stateMutability": "view",
      "type": "function"
    },
    {
      "inputs": [
        {
          "internalType": "uint256",
          "name": "tokenId",
          "type": "uint256"
        }
      ],
      "name": "ownerOf",
      "outputs": [
        {
          "internalType": "address",
          "name": "",
          "type": "address"
        }
      ],
      "stateMutability": "view",
      "type": "function"
    },
    {
      "inputs": [
        {
          "internalType": "address[]",
          "name": "_minters",
          "type": "address[]"
        }
      ],
      "name": "removeMinters",
      "outputs": [],
      "stateMutability": "nonpayable",
      "type": "function"
    },
    {
      "inputs": [],
      "name": "renounceOwnership",
      "outputs": [],
      "stateMutability": "nonpayable",
      "type": "function"
    },
    {
      "inputs": [
        {
          "internalType": "address",
          "name": "from",
          "type": "address"
        },
        {
          "internalType": "address",
          "name": "to",
          "type": "address"
        },
        {
          "internalType": "uint256",
          "name": "tokenId",
          "type": "uint256"
        }
      ],
      "name": "safeTransferFrom",
      "outputs": [],
      "stateMutability": "nonpayable",
      "type": "function"
    },
    {
      "inputs": [
        {
          "internalType": "address",
          "name": "from",
          "type": "address"
        },
        {
          "internalType": "address",
          "name": "to",
          "type": "address"
        },
        {
          "internalType": "uint256",
          "name": "tokenId",
          "type": "uint256"
        },
        {
          "internalType": "bytes",
          "name": "_data",
          "type": "bytes"
        }
      ],
      "name": "safeTransferFrom",
      "outputs": [],
      "stateMutability": "nonpayable",
      "type": "function"
    },
    {
      "inputs": [
        {
          "internalType": "address",
          "name": "operator",
          "type": "address"
        },
        {
          "internalType": "bool",
          "name": "approved",
          "type": "bool"
        }
      ],
      "name": "setApprovalForAll",
      "outputs": [],
      "stateMutability": "nonpayable",
      "type": "function"
    },
    {
      "inputs": [
        {
          "internalType": "uint256[]",
          "name": "ids",
          "type": "uint256[]"
        },
        {
          "internalType": "string[]",
          "name": "uris",
          "type": "string[]"
        }
      ],
      "name": "setTokenURIs",
      "outputs": [],
      "stateMutability": "nonpayable",
      "type": "function"
    },
    {
      "inputs": [
        {
          "internalType": "bytes4",
          "name": "interfaceId",
          "type": "bytes4"
        }
      ],
      "name": "supportsInterface",
      "outputs": [
        {
          "internalType": "bool",
          "name": "",
          "type": "bool"
        }
      ],
      "stateMutability": "view",
      "type": "function"
    },
    {
      "inputs": [],
      "name": "symbol",
      "outputs": [
        {
          "internalType": "string",
          "name": "",
          "type": "string"
        }
      ],
      "stateMutability": "view",
      "type": "function"
    },
    {
      "inputs": [
        {
          "internalType": "uint256",
          "name": "tokenId",
          "type": "uint256"
        }
      ],
      "name": "tokenURI",
      "outputs": [
        {
          "internalType": "string",
          "name": "",
          "type": "string"
        }
      ],
      "stateMutability": "view",
      "type": "function"
    },
    {
      "inputs": [
        {
          "internalType": "address",
          "name": "from",
          "type": "address"
        },
        {
          "internalType": "address",
          "name": "to",
          "type": "address"
        },
        {
          "internalType": "uint256",
          "name": "tokenId",
          "type": "uint256"
        }
      ],
      "name": "transferFrom",
      "outputs": [],
      "stateMutability": "nonpayable",
      "type": "function"
    },
    {
      "inputs": [
        {
          "internalType": "address",
          "name": "newOwner",
          "type": "address"
        }
      ],
      "name": "transferOwnership",
      "outputs": [],
      "stateMutability": "nonpayable",
      "type": "function"
    },
    {
      "inputs": [
        {
          "internalType": "uint256",
          "name": "tokenId",
          "type": "uint256"
        }
      ],
      "name": "types",
      "outputs": [
        {
          "internalType": "uint8",
          "name": "",
          "type": "uint8"
        }
      ],
      "stateMutability": "view",
      "type": "function"
    }
  ],
  "bytecode": "0x608060405234801561001057600080fd5b50611d81806100206000396000f3fe608060405234801561001057600080fd5b506004361061014d5760003560e01c8063715018a6116100c3578063b88d4fde1161007c578063b88d4fde146102c6578063c87b56dd146102d9578063cefbfa36146102ec578063db3e4c8414610311578063e985e9c514610324578063f2fde38b1461036057600080fd5b8063715018a61461027757806371e2a6571461027f5780638129fc1c146102925780638da5cb5b1461029a57806395d89b41146102ab578063a22cb465146102b357600080fd5b806342842e0e1161011557806342842e0e146101e25780635fc1964f146101f55780636112e8ac146102085780636352211e1461021b5780636c0360eb1461022e57806370a082311461025657600080fd5b806301ffc9a71461015257806306fdde031461017a578063081812fc1461018f578063095ea7b3146101ba57806323b872dd146101cf575b600080fd5b610165610160366004611a5a565b610373565b60405190151581526020015b60405180910390f35b6101826103c5565b6040516101719190611b32565b6101a261019d366004611a92565b610457565b6040516001600160a01b039091168152602001610171565b6101cd6101c8366004611944565b6104f1565b005b6101cd6101dd3660046117fa565b610607565b6101cd6101f03660046117fa565b610638565b6101cd6102033660046119b1565b610653565b6101cd61021636600461196d565b6106fd565b6101a2610229366004611a92565b610789565b60408051808201909152600c81526b697066733a2f2f697066732f60a01b6020820152610182565b6102696102643660046117a7565b610800565b604051908152602001610171565b6101cd610887565b6101cd61028d3660046119b1565b6108bd565b6101cd610967565b6097546001600160a01b03166101a2565b610182610a6c565b6101cd6102c136600461190a565b610a7b565b6101cd6102d4366004611835565b610a8a565b6101826102e7366004611a92565b610ac2565b6102ff6102fa366004611a92565b610bdf565b60405160ff9091168152602001610171565b6101cd61031f3660046119f1565b610c6a565b6101656103323660046117c8565b6001600160a01b039182166000908152606a6020908152604080832093909416825291909152205460ff1690565b6101cd61036e3660046117a7565b610d8a565b60006001600160e01b031982166380ac58cd60e01b14806103a457506001600160e01b03198216635b5e139f60e01b145b806103bf57506301ffc9a760e01b6001600160e01b03198316145b92915050565b6060606580546103d490611cdc565b80601f016020809104026020016040519081016040528092919081815260200182805461040090611cdc565b801561044d5780601f106104225761010080835404028352916020019161044d565b820191906000526020600020905b81548152906001019060200180831161043057829003601f168201915b5050505050905090565b6000818152606760205260408120546001600160a01b03166104d55760405162461bcd60e51b815260206004820152602c60248201527f4552433732313a20617070726f76656420717565727920666f72206e6f6e657860448201526b34b9ba32b73a103a37b5b2b760a11b60648201526084015b60405180910390fd5b506000908152606960205260409020546001600160a01b031690565b60006104fc82610789565b9050806001600160a01b0316836001600160a01b0316141561056a5760405162461bcd60e51b815260206004820152602160248201527f4552433732313a20617070726f76616c20746f2063757272656e74206f776e656044820152603960f91b60648201526084016104cc565b336001600160a01b038216148061058657506105868133610332565b6105f85760405162461bcd60e51b815260206004820152603860248201527f4552433732313a20617070726f76652063616c6c6572206973206e6f74206f7760448201527f6e6572206e6f7220617070726f76656420666f7220616c6c000000000000000060648201526084016104cc565b6106028383610e22565b505050565b6106113382610e90565b61062d5760405162461bcd60e51b81526004016104cc90611bcc565b610602838383610f87565b61060283838360405180602001604052806000815250610a8a565b6097546001600160a01b0316331461067d5760405162461bcd60e51b81526004016104cc90611b97565b60005b8181101561060257600060c960008585858181106106ae57634e487b7160e01b600052603260045260246000fd5b90506020020160208101906106c391906117a7565b6001600160a01b031681526020810191909152604001600020805460ff1916911515919091179055806106f581611d17565b915050610680565b33600090815260c9602052604090205460ff1661075c5760405162461bcd60e51b815260206004820152601760248201527f486f7273653a204f6e6c79206d696e7465722063616c6c00000000000000000060448201526064016104cc565b6107668383611127565b600091825260cb6020526040909120805460ff191660ff90921691909117905550565b6000818152606760205260408120546001600160a01b0316806103bf5760405162461bcd60e51b815260206004820152602960248201527f4552433732313a206f776e657220717565727920666f72206e6f6e657869737460448201526832b73a103a37b5b2b760b91b60648201526084016104cc565b60006001600160a01b03821661086b5760405162461bcd60e51b815260206004820152602a60248201527f4552433732313a2062616c616e636520717565727920666f7220746865207a65604482015269726f206164647265737360b01b60648201526084016104cc565b506001600160a01b031660009081526068602052604090205490565b6097546001600160a01b031633146108b15760405162461bcd60e51b81526004016104cc90611b97565b6108bb6000611141565b565b6097546001600160a01b031633146108e75760405162461bcd60e51b81526004016104cc90611b97565b60005b8181101561060257600160c9600085858581811061091857634e487b7160e01b600052603260045260246000fd5b905060200201602081019061092d91906117a7565b6001600160a01b031681526020810191909152604001600020805460ff19169115159190911790558061095f81611d17565b9150506108ea565b600054610100900460ff166109825760005460ff1615610986565b303b155b6109e95760405162461bcd60e51b815260206004820152602e60248201527f496e697469616c697a61626c653a20636f6e747261637420697320616c72656160448201526d191e481a5b9a5d1a585b1a5e995960921b60648201526084016104cc565b600054610100900460ff16158015610a0b576000805461ffff19166101011790555b610a4f60405180604001604052806005815260200164486f72736560d81b81525060405180604001604052806005815260200164486f72736560d81b815250611193565b610a576111d4565b8015610a69576000805461ff00191690555b50565b6060606680546103d490611cdc565b610a8633838361120b565b5050565b610a943383610e90565b610ab05760405162461bcd60e51b81526004016104cc90611bcc565b610abc848484846112da565b50505050565b6000818152606760205260409020546060906001600160a01b0316610b415760405162461bcd60e51b815260206004820152602f60248201527f4552433732314d657461646174613a2055524920717565727920666f72206e6f60448201526e3732bc34b9ba32b73a103a37b5b2b760891b60648201526084016104cc565b600082815260ca602052604090208054610b5a90611cdc565b80601f0160208091040260200160405190810160405280929190818152602001828054610b8690611cdc565b8015610bd35780601f10610ba857610100808354040283529160200191610bd3565b820191906000526020600020905b815481529060010190602001808311610bb657829003601f168201915b50505050509050919050565b6000818152606760205260408120546001600160a01b0316610c545760405162461bcd60e51b815260206004820152602860248201527f486f7273653a20747970657320717565727920666f72206e6f6e657869737465604482015267373a103a37b5b2b760c11b60648201526084016104cc565b50600090815260cb602052604090205460ff1690565b6097546001600160a01b03163314610c945760405162461bcd60e51b81526004016104cc90611b97565b828114610ced5760405162461bcd60e51b815260206004820152602160248201527f486f7273653a206964732e6c656e677468206e657120757269732e6c656e67746044820152600d60fb1b60648201526084016104cc565b60005b83811015610d8357828282818110610d1857634e487b7160e01b600052603260045260246000fd5b9050602002810190610d2a9190611c68565b60ca6000888886818110610d4e57634e487b7160e01b600052603260045260246000fd5b9050602002013581526020019081526020016000209190610d70929190611634565b5080610d7b81611d17565b915050610cf0565b5050505050565b6097546001600160a01b03163314610db45760405162461bcd60e51b81526004016104cc90611b97565b6001600160a01b038116610e195760405162461bcd60e51b815260206004820152602660248201527f4f776e61626c653a206e6577206f776e657220697320746865207a65726f206160448201526564647265737360d01b60648201526084016104cc565b610a6981611141565b600081815260696020526040902080546001600160a01b0319166001600160a01b0384169081179091558190610e5782610789565b6001600160a01b03167f8c5be1e5ebec7d5bd14f71427d1e84f3dd0314c0f7b2291e5b200ac8c7c3b92560405160405180910390a45050565b6000818152606760205260408120546001600160a01b0316610f095760405162461bcd60e51b815260206004820152602c60248201527f4552433732313a206f70657261746f7220717565727920666f72206e6f6e657860448201526b34b9ba32b73a103a37b5b2b760a11b60648201526084016104cc565b6000610f1483610789565b9050806001600160a01b0316846001600160a01b03161480610f4f5750836001600160a01b0316610f4484610457565b6001600160a01b0316145b80610f7f57506001600160a01b038082166000908152606a602090815260408083209388168352929052205460ff165b949350505050565b826001600160a01b0316610f9a82610789565b6001600160a01b0316146110025760405162461bcd60e51b815260206004820152602960248201527f4552433732313a207472616e73666572206f6620746f6b656e2074686174206960448201526839903737ba1037bbb760b91b60648201526084016104cc565b6001600160a01b0382166110645760405162461bcd60e51b8152602060048201526024808201527f4552433732313a207472616e7366657220746f20746865207a65726f206164646044820152637265737360e01b60648201526084016104cc565b61106f600082610e22565b6001600160a01b0383166000908152606860205260408120805460019290611098908490611cc5565b90915550506001600160a01b03821660009081526068602052604081208054600192906110c6908490611cad565b909155505060008181526067602052604080822080546001600160a01b0319166001600160a01b0386811691821790925591518493918716917fddf252ad1be2c89b69c2b068fc378daa952ba7f163c4a11628f55a4df523b3ef91a4505050565b610a8682826040518060200160405280600081525061130d565b609780546001600160a01b038381166001600160a01b0319831681179093556040519116919082907f8be0079c531659141344cd1fd0a4f28419497f9722a3daafe3b4186f6b6457e090600090a35050565b600054610100900460ff166111ba5760405162461bcd60e51b81526004016104cc90611c1d565b6111c2611340565b6111ca611340565b610a868282611367565b600054610100900460ff166111fb5760405162461bcd60e51b81526004016104cc90611c1d565b611203611340565b6108bb6113b5565b816001600160a01b0316836001600160a01b0316141561126d5760405162461bcd60e51b815260206004820152601960248201527f4552433732313a20617070726f766520746f2063616c6c65720000000000000060448201526064016104cc565b6001600160a01b038381166000818152606a6020908152604080832094871680845294825291829020805460ff191686151590811790915591519182527f17307eab39ab6107e8899845ad3d59bd9653f200f220920489ca2b5937696c31910160405180910390a3505050565b6112e5848484610f87565b6112f1848484846113e5565b610abc5760405162461bcd60e51b81526004016104cc90611b45565b61131783836114f2565b61132460008484846113e5565b6106025760405162461bcd60e51b81526004016104cc90611b45565b600054610100900460ff166108bb5760405162461bcd60e51b81526004016104cc90611c1d565b600054610100900460ff1661138e5760405162461bcd60e51b81526004016104cc90611c1d565b81516113a19060659060208501906116b8565b5080516106029060669060208401906116b8565b600054610100900460ff166113dc5760405162461bcd60e51b81526004016104cc90611c1d565b6108bb33611141565b60006001600160a01b0384163b156114e757604051630a85bd0160e11b81526001600160a01b0385169063150b7a0290611429903390899088908890600401611af5565b602060405180830381600087803b15801561144357600080fd5b505af1925050508015611473575060408051601f3d908101601f1916820190925261147091810190611a76565b60015b6114cd573d8080156114a1576040519150601f19603f3d011682016040523d82523d6000602084013e6114a6565b606091505b5080516114c55760405162461bcd60e51b81526004016104cc90611b45565b805181602001fd5b6001600160e01b031916630a85bd0160e11b149050610f7f565b506001949350505050565b6001600160a01b0382166115485760405162461bcd60e51b815260206004820181905260248201527f4552433732313a206d696e7420746f20746865207a65726f206164647265737360448201526064016104cc565b6000818152606760205260409020546001600160a01b0316156115ad5760405162461bcd60e51b815260206004820152601c60248201527f4552433732313a20746f6b656e20616c7265616479206d696e7465640000000060448201526064016104cc565b6001600160a01b03821660009081526068602052604081208054600192906115d6908490611cad565b909155505060008181526067602052604080822080546001600160a01b0319166001600160a01b03861690811790915590518392907fddf252ad1be2c89b69c2b068fc378daa952ba7f163c4a11628f55a4df523b3ef908290a45050565b82805461164090611cdc565b90600052602060002090601f01602090048101928261166257600085556116a8565b82601f1061167b5782800160ff198235161785556116a8565b828001600101855582156116a8579182015b828111156116a857823582559160200191906001019061168d565b506116b492915061172c565b5090565b8280546116c490611cdc565b90600052602060002090601f0160209004810192826116e657600085556116a8565b82601f106116ff57805160ff19168380011785556116a8565b828001600101855582156116a8579182015b828111156116a8578251825591602001919060010190611711565b5b808211156116b4576000815560010161172d565b80356001600160a01b038116811461175857600080fd5b919050565b60008083601f84011261176e578081fd5b50813567ffffffffffffffff811115611785578182fd5b6020830191508360208260051b85010111156117a057600080fd5b9250929050565b6000602082840312156117b8578081fd5b6117c182611741565b9392505050565b600080604083850312156117da578081fd5b6117e383611741565b91506117f160208401611741565b90509250929050565b60008060006060848603121561180e578081fd5b61181784611741565b925061182560208501611741565b9150604084013590509250925092565b6000806000806080858703121561184a578081fd5b61185385611741565b935061186160208601611741565b925060408501359150606085013567ffffffffffffffff80821115611884578283fd5b818701915087601f830112611897578283fd5b8135818111156118a9576118a9611d48565b604051601f8201601f19908116603f011681019083821181831017156118d1576118d1611d48565b816040528281528a60208487010111156118e9578586fd5b82602086016020830137918201602001949094529598949750929550505050565b6000806040838503121561191c578182fd5b61192583611741565b915060208301358015158114611939578182fd5b809150509250929050565b60008060408385031215611956578182fd5b61195f83611741565b946020939093013593505050565b600080600060608486031215611981578283fd5b61198a84611741565b925060208401359150604084013560ff811681146119a6578182fd5b809150509250925092565b600080602083850312156119c3578182fd5b823567ffffffffffffffff8111156119d9578283fd5b6119e58582860161175d565b90969095509350505050565b60008060008060408587031215611a06578384fd5b843567ffffffffffffffff80821115611a1d578586fd5b611a298883890161175d565b90965094506020870135915080821115611a41578384fd5b50611a4e8782880161175d565b95989497509550505050565b600060208284031215611a6b578081fd5b81356117c181611d5e565b600060208284031215611a87578081fd5b81516117c181611d5e565b600060208284031215611aa3578081fd5b5035919050565b60008151808452815b81811015611acf57602081850181015186830182015201611ab3565b81811115611ae05782602083870101525b50601f01601f19169290920160200192915050565b6001600160a01b0385811682528416602082015260408101839052608060608201819052600090611b2890830184611aaa565b9695505050505050565b6020815260006117c16020830184611aaa565b60208082526032908201527f4552433732313a207472616e7366657220746f206e6f6e20455243373231526560408201527131b2b4bb32b91034b6b83632b6b2b73a32b960711b606082015260800190565b6020808252818101527f4f776e61626c653a2063616c6c6572206973206e6f7420746865206f776e6572604082015260600190565b60208082526031908201527f4552433732313a207472616e736665722063616c6c6572206973206e6f74206f6040820152701ddb995c881b9bdc88185c1c1c9bdd9959607a1b606082015260800190565b6020808252602b908201527f496e697469616c697a61626c653a20636f6e7472616374206973206e6f74206960408201526a6e697469616c697a696e6760a81b606082015260800190565b6000808335601e19843603018112611c7e578283fd5b83018035915067ffffffffffffffff821115611c98578283fd5b6020019150368190038213156117a057600080fd5b60008219821115611cc057611cc0611d32565b500190565b600082821015611cd757611cd7611d32565b500390565b600181811c90821680611cf057607f821691505b60208210811415611d1157634e487b7160e01b600052602260045260246000fd5b50919050565b6000600019821415611d2b57611d2b611d32565b5060010190565b634e487b7160e01b600052601160045260246000fd5b634e487b7160e01b600052604160045260246000fd5b6001600160e01b031981168114610a6957600080fdfea164736f6c6343000804000a",
  "linkReferences": {},
  "deployedLinkReferences": {}
}