{
  "address": "0xA045a96D4D835f3BD786f7353A317eebDe16A9a4",
  "transactionHash": "0x052c09c7380afe0c51e1241637df1c9c317862355d413fab7c52cccd12728c40",
  "args": [],
  "_format": "hh-sol-artifact-1",
  "contractName": "Multisend",
  "sourceName": "contracts/Multisend.sol",
  "abi": [
    {
      "anonymous": false,
      "inputs": [
        {
          "indexed": true,
          "internalType": "address",
          "name": "previousOwner",
          "type": "address"
        },
        {
          "indexed": true,
          "internalType": "address",
          "name": "newOwner",
          "type": "address"
        }
      ],
      "name": "OwnershipTransferred",
      "type": "event"
    },
    {
      "inputs": [],
      "name": "initialize",
      "outputs": [],
      "stateMutability": "nonpayable",
      "type": "function"
    },
    {
      "inputs": [],
      "name": "owner",
      "outputs": [
        {
          "internalType": "address",
          "name": "",
          "type": "address"
        }
      ],
      "stateMutability": "view",
      "type": "function"
    },
    {
      "inputs": [],
      "name": "renounceOwnership",
      "outputs": [],
      "stateMutability": "nonpayable",
      "type": "function"
    },
    {
      "inputs": [
        {
          "components": [
            {
              "internalType": "address",
              "name": "receipt",
              "type": "address"
            },
            {
              "internalType": "uint256",
              "name": "value",
              "type": "uint256"
            }
          ],
          "internalType": "struct Multisend.Balance[]",
          "name": "balances",
          "type": "tuple[]"
        }
      ],
      "name": "sendEther",
      "outputs": [],
      "stateMutability": "payable",
      "type": "function"
    },
    {
      "inputs": [
        {
          "internalType": "address",
          "name": "newOwner",
          "type": "address"
        }
      ],
      "name": "transferOwnership",
      "outputs": [],
      "stateMutability": "nonpayable",
      "type": "function"
    }
  ],
  "bytecode": "0x608060405234801561001057600080fd5b506105d8806100206000396000f3fe60806040526004361061004a5760003560e01c8063715018a61461004f5780638129fc1c146100665780638da5cb5b1461007b578063ba87cc29146100a7578063f2fde38b146100ba575b600080fd5b34801561005b57600080fd5b506100646100da565b005b34801561007257600080fd5b50610064610119565b34801561008757600080fd5b50603354604080516001600160a01b039092168252519081900360200190f35b6100646100b5366004610452565b6101da565b3480156100c657600080fd5b506100646100d5366004610431565b6102a1565b6033546001600160a01b0316331461010d5760405162461bcd60e51b815260040161010490610524565b60405180910390fd5b6101176000610335565b565b600054610100900460ff166101345760005460ff1615610138565b303b155b61019b5760405162461bcd60e51b815260206004820152602e60248201527f496e697469616c697a61626c653a20636f6e747261637420697320616c72656160448201526d191e481a5b9a5d1a585b1a5e995960921b6064820152608401610104565b600054610100900460ff161580156101bd576000805461ffff19166101011790555b6101c5610387565b80156101d7576000805461ff00191690555b50565b6033546001600160a01b031633146102045760405162461bcd60e51b815260040161010490610524565b60005b8181101561029c57600083838381811061023157634e487b7160e01b600052603260045260246000fd5b90506040020180360381019061024791906104c2565b805160208201516040519293506001600160a01b039091169181156108fc0291906000818181858888f19350505050158015610287573d6000803e3d6000fd5b50508080610294906105a4565b915050610207565b505050565b6033546001600160a01b031633146102cb5760405162461bcd60e51b815260040161010490610524565b6001600160a01b0381166103305760405162461bcd60e51b815260206004820152602660248201527f4f776e61626c653a206e6577206f776e657220697320746865207a65726f206160448201526564647265737360d01b6064820152608401610104565b6101d7815b603380546001600160a01b038381166001600160a01b0319831681179093556040519116919082907f8be0079c531659141344cd1fd0a4f28419497f9722a3daafe3b4186f6b6457e090600090a35050565b600054610100900460ff166103ae5760405162461bcd60e51b815260040161010490610559565b6103b66103be565b6101176103e5565b600054610100900460ff166101175760405162461bcd60e51b815260040161010490610559565b600054610100900460ff1661040c5760405162461bcd60e51b815260040161010490610559565b61011733610335565b80356001600160a01b038116811461042c57600080fd5b919050565b600060208284031215610442578081fd5b61044b82610415565b9392505050565b60008060208385031215610464578081fd5b823567ffffffffffffffff8082111561047b578283fd5b818501915085601f83011261048e578283fd5b81358181111561049c578384fd5b8660208260061b85010111156104b0578384fd5b60209290920196919550909350505050565b6000604082840312156104d3578081fd5b6040516040810181811067ffffffffffffffff8211171561050257634e487b7160e01b83526041600452602483fd5b60405261050e83610415565b8152602083013560208201528091505092915050565b6020808252818101527f4f776e61626c653a2063616c6c6572206973206e6f7420746865206f776e6572604082015260600190565b6020808252602b908201527f496e697469616c697a61626c653a20636f6e7472616374206973206e6f74206960408201526a6e697469616c697a696e6760a81b606082015260800190565b60006000198214156105c457634e487b7160e01b81526011600452602481fd5b506001019056fea164736f6c6343000804000a",
  "linkReferences": {},
  "deployedLinkReferences": {}
}