{
  "address": "0x06500204Da871Bd6B702Ba0CD158bB68EC1442B9",
  "abi": [
    {
      "anonymous": false,
      "inputs": [
        {
          "indexed": true,
          "internalType": "address",
          "name": "account",
          "type": "address"
        }
      ],
      "name": "OperatorAdded",
      "type": "event"
    },
    {
      "anonymous": false,
      "inputs": [
        {
          "indexed": true,
          "internalType": "address",
          "name": "account",
          "type": "address"
        }
      ],
      "name": "OperatorRemoved",
      "type": "event"
    },
    {
      "anonymous": false,
      "inputs": [
        {
          "indexed": true,
          "internalType": "address",
          "name": "previousOwner",
          "type": "address"
        },
        {
          "indexed": true,
          "internalType": "address",
          "name": "newOwner",
          "type": "address"
        }
      ],
      "name": "OwnershipTransferred",
      "type": "event"
    },
    {
      "inputs": [
        {
          "internalType": "address",
          "name": "account",
          "type": "address"
        }
      ],
      "name": "addOperator",
      "outputs": [],
      "stateMutability": "nonpayable",
      "type": "function"
    },
    {
      "inputs": [
        {
          "internalType": "contract IERC1155",
          "name": "token",
          "type": "address"
        },
        {
          "internalType": "address",
          "name": "from",
          "type": "address"
        },
        {
          "internalType": "address",
          "name": "to",
          "type": "address"
        },
        {
          "internalType": "uint256",
          "name": "id",
          "type": "uint256"
        },
        {
          "internalType": "uint256",
          "name": "value",
          "type": "uint256"
        },
        {
          "internalType": "bytes",
          "name": "data",
          "type": "bytes"
        }
      ],
      "name": "erc1155safeTransferFrom",
      "outputs": [],
      "stateMutability": "nonpayable",
      "type": "function"
    },
    {
      "inputs": [
        {
          "internalType": "contract IERC721",
          "name": "token",
          "type": "address"
        },
        {
          "internalType": "address",
          "name": "from",
          "type": "address"
        },
        {
          "internalType": "address",
          "name": "to",
          "type": "address"
        },
        {
          "internalType": "uint256",
          "name": "tokenId",
          "type": "uint256"
        }
      ],
      "name": "erc721safeTransferFrom",
      "outputs": [],
      "stateMutability": "nonpayable",
      "type": "function"
    },
    {
      "inputs": [
        {
          "internalType": "address",
          "name": "account",
          "type": "address"
        }
      ],
      "name": "isOperator",
      "outputs": [
        {
          "internalType": "bool",
          "name": "",
          "type": "bool"
        }
      ],
      "stateMutability": "view",
      "type": "function"
    },
    {
      "inputs": [],
      "name": "owner",
      "outputs": [
        {
          "internalType": "address",
          "name": "",
          "type": "address"
        }
      ],
      "stateMutability": "view",
      "type": "function"
    },
    {
      "inputs": [
        {
          "internalType": "address",
          "name": "account",
          "type": "address"
        }
      ],
      "name": "removeOperator",
      "outputs": [],
      "stateMutability": "nonpayable",
      "type": "function"
    },
    {
      "inputs": [],
      "name": "renounceOwnership",
      "outputs": [],
      "stateMutability": "nonpayable",
      "type": "function"
    },
    {
      "inputs": [
        {
          "internalType": "address",
          "name": "newOwner",
          "type": "address"
        }
      ],
      "name": "transferOwnership",
      "outputs": [],
      "stateMutability": "nonpayable",
      "type": "function"
    }
  ],
  "transactionHash": "0xd2383a9f383cf4016ea92c74b936d153ec6bb6329dc0450b927926b554b4c6a6",
  "args": [],
  "numDeployments": 1,
  "solcInputHash": "8a1dba88310dc5623b926c1e7af5c8da",
  "bytecode": "0x608060405234801561001057600080fd5b5061001a3361001f565b61006f565b600080546001600160a01b038381166001600160a01b0319831681178455604051919092169283917f8be0079c531659141344cd1fd0a4f28419497f9722a3daafe3b4186f6b6457e09190a35050565b61083c8061007e6000396000f3fe608060405234801561001057600080fd5b50600436106100885760003560e01c80639c1c2ee91161005b5780639c1c2ee9146100ed578063ac8a584a14610100578063f2fde38b14610113578063f709b9061461012657600080fd5b80636d70f7ae1461008d578063715018a6146100b55780638da5cb5b146100bf5780639870d7fe146100da575b600080fd5b6100a061009b36600461060c565b610139565b60405190151581526020015b60405180910390f35b6100bd61014c565b005b6000546040516001600160a01b0390911681526020016100ac565b6100bd6100e836600461060c565b61018b565b6100bd6100fb36600461062f565b6101c1565b6100bd61010e36600461060c565b610257565b6100bd61012136600461060c565b61028a565b6100bd6101343660046106e8565b610322565b60006101466001836103b7565b92915050565b6000546001600160a01b0316331461017f5760405162461bcd60e51b8152600401610176906107e5565b60405180910390fd5b610189600061043a565b565b6000546001600160a01b031633146101b55760405162461bcd60e51b8152600401610176906107e5565b6101be8161048a565b50565b6101ca33610139565b6101e65760405162461bcd60e51b815260040161017690610791565b604051637921219560e11b81526001600160a01b0388169063f242432a9061021c90899089908990899089908990600401610738565b600060405180830381600087803b15801561023657600080fd5b505af115801561024a573d6000803e3d6000fd5b5050505050505050505050565b6000546001600160a01b031633146102815760405162461bcd60e51b8152600401610176906107e5565b6101be816104cc565b6000546001600160a01b031633146102b45760405162461bcd60e51b8152600401610176906107e5565b6001600160a01b0381166103195760405162461bcd60e51b815260206004820152602660248201527f4f776e61626c653a206e6577206f776e657220697320746865207a65726f206160448201526564647265737360d01b6064820152608401610176565b6101be8161043a565b61032b33610139565b6103475760405162461bcd60e51b815260040161017690610791565b604051632142170760e11b81526001600160a01b0384811660048301528381166024830152604482018390528516906342842e0e90606401600060405180830381600087803b15801561039957600080fd5b505af11580156103ad573d6000803e3d6000fd5b5050505050505050565b60006001600160a01b03821661041a5760405162461bcd60e51b815260206004820152602260248201527f526f6c65733a206163636f756e7420697320746865207a65726f206164647265604482015261737360f01b6064820152608401610176565b506001600160a01b03166000908152602091909152604090205460ff1690565b600080546001600160a01b038381166001600160a01b0319831681178455604051919092169283917f8be0079c531659141344cd1fd0a4f28419497f9722a3daafe3b4186f6b6457e09190a35050565b61049560018261050e565b6040516001600160a01b038216907fac6fa858e9350a46cec16539926e0fde25b7629f84b5a72bffaae4df888ae86d90600090a250565b6104d760018261058a565b6040516001600160a01b038216907f80c0b871b97b595b16a7741c1b06fed0c6f6f558639f18ccbce50724325dc40d90600090a250565b61051882826103b7565b156105655760405162461bcd60e51b815260206004820152601f60248201527f526f6c65733a206163636f756e7420616c72656164792068617320726f6c65006044820152606401610176565b6001600160a01b0316600090815260209190915260409020805460ff19166001179055565b61059482826103b7565b6105ea5760405162461bcd60e51b815260206004820152602160248201527f526f6c65733a206163636f756e7420646f6573206e6f74206861766520726f6c6044820152606560f81b6064820152608401610176565b6001600160a01b0316600090815260209190915260409020805460ff19169055565b60006020828403121561061d578081fd5b81356106288161081a565b9392505050565b600080600080600080600060c0888a031215610649578283fd5b87356106548161081a565b965060208801356106648161081a565b955060408801356106748161081a565b9450606088013593506080880135925060a088013567ffffffffffffffff8082111561069e578384fd5b818a0191508a601f8301126106b1578384fd5b8135818111156106bf578485fd5b8b60208285010111156106d0578485fd5b60208301945080935050505092959891949750929550565b600080600080608085870312156106fd578384fd5b84356107088161081a565b935060208501356107188161081a565b925060408501356107288161081a565b9396929550929360600135925050565b6001600160a01b03878116825286166020820152604081018590526060810184905260a06080820181905281018290526000828460c084013781830160c090810191909152601f909201601f1916010195945050505050565b60208082526034908201527f4f70657261746f72526f6c653a2063616c6c657220646f6573206e6f74206861604082015273766520746865204f70657261746f7220726f6c6560601b606082015260800190565b6020808252818101527f4f776e61626c653a2063616c6c6572206973206e6f7420746865206f776e6572604082015260600190565b6001600160a01b03811681146101be57600080fdfea164736f6c6343000804000a",
  "devdoc": {
    "kind": "dev",
    "methods": {
      "owner()": {
        "details": "Returns the address of the current owner."
      },
      "renounceOwnership()": {
        "details": "Leaves the contract without owner. It will not be possible to call `onlyOwner` functions anymore. Can only be called by the current owner. NOTE: Renouncing ownership will leave the contract without an owner, thereby removing any functionality that is only available to the owner."
      },
      "transferOwnership(address)": {
        "details": "Transfers ownership of the contract to a new account (`newOwner`). Can only be called by the current owner."
      }
    },
    "version": 1
  },
  "userdoc": {
    "kind": "user",
    "methods": {},
    "version": 1
  },
  "storageLayout": {
    "storage": [
      {
        "astId": 7,
        "contract": "contracts/proxy/TransferProxy.sol:TransferProxy",
        "label": "_owner",
        "offset": 0,
        "slot": "0",
        "type": "t_address"
      },
      {
        "astId": 1816,
        "contract": "contracts/proxy/TransferProxy.sol:TransferProxy",
        "label": "_operators",
        "offset": 0,
        "slot": "1",
        "type": "t_struct(Role)1989_storage"
      }
    ],
    "types": {
      "t_address": {
        "encoding": "inplace",
        "label": "address",
        "numberOfBytes": "20"
      },
      "t_bool": {
        "encoding": "inplace",
        "label": "bool",
        "numberOfBytes": "1"
      },
      "t_mapping(t_address,t_bool)": {
        "encoding": "mapping",
        "key": "t_address",
        "label": "mapping(address => bool)",
        "numberOfBytes": "32",
        "value": "t_bool"
      },
      "t_struct(Role)1989_storage": {
        "encoding": "inplace",
        "label": "struct Roles.Role",
        "members": [
          {
            "astId": 1988,
            "contract": "contracts/proxy/TransferProxy.sol:TransferProxy",
            "label": "bearer",
            "offset": 0,
            "slot": "0",
            "type": "t_mapping(t_address,t_bool)"
          }
        ],
        "numberOfBytes": "32"
      }
    }
  }
}