{
  "address": "0x890864262339D2386a9bB7089AcaBCEfAfCE7ab1",
  "abi": [
    {
      "inputs": [
        {
          "internalType": "contract TransferProxy",
          "name": "_transferProxy",
          "type": "address"
        },
        {
          "internalType": "contract ERC20TransferProxy",
          "name": "_erc20TransferProxy",
          "type": "address"
        },
        {
          "internalType": "contract ExchangeStateV1",
          "name": "_state",
          "type": "address"
        },
        {
          "internalType": "address payable",
          "name": "_beneficiary",
          "type": "address"
        }
      ],
      "stateMutability": "nonpayable",
      "type": "constructor"
    },
    {
      "anonymous": false,
      "inputs": [
        {
          "indexed": true,
          "internalType": "address",
          "name": "sellToken",
          "type": "address"
        },
        {
          "indexed": true,
          "internalType": "uint256",
          "name": "sellTokenId",
          "type": "uint256"
        },
        {
          "indexed": false,
          "internalType": "uint256",
          "name": "sellValue",
          "type": "uint256"
        },
        {
          "indexed": false,
          "internalType": "address",
          "name": "owner",
          "type": "address"
        },
        {
          "indexed": false,
          "internalType": "address",
          "name": "buyToken",
          "type": "address"
        },
        {
          "indexed": false,
          "internalType": "uint256",
          "name": "buyTokenId",
          "type": "uint256"
        },
        {
          "indexed": false,
          "internalType": "uint256",
          "name": "buyValue",
          "type": "uint256"
        },
        {
          "indexed": false,
          "internalType": "address",
          "name": "buyer",
          "type": "address"
        },
        {
          "indexed": false,
          "internalType": "uint256",
          "name": "amount",
          "type": "uint256"
        },
        {
          "indexed": false,
          "internalType": "uint256",
          "name": "salt",
          "type": "uint256"
        }
      ],
      "name": "Buy",
      "type": "event"
    },
    {
      "anonymous": false,
      "inputs": [
        {
          "indexed": true,
          "internalType": "address",
          "name": "sellToken",
          "type": "address"
        },
        {
          "indexed": true,
          "internalType": "uint256",
          "name": "sellTokenId",
          "type": "uint256"
        },
        {
          "indexed": false,
          "internalType": "address",
          "name": "owner",
          "type": "address"
        },
        {
          "indexed": false,
          "internalType": "address",
          "name": "buyToken",
          "type": "address"
        },
        {
          "indexed": false,
          "internalType": "uint256",
          "name": "buyTokenId",
          "type": "uint256"
        },
        {
          "indexed": false,
          "internalType": "uint256",
          "name": "salt",
          "type": "uint256"
        }
      ],
      "name": "Cancel",
      "type": "event"
    },
    {
      "anonymous": false,
      "inputs": [
        {
          "indexed": true,
          "internalType": "address",
          "name": "previousOwner",
          "type": "address"
        },
        {
          "indexed": true,
          "internalType": "address",
          "name": "newOwner",
          "type": "address"
        }
      ],
      "name": "OwnershipTransferred",
      "type": "event"
    },
    {
      "inputs": [],
      "name": "beneficiary",
      "outputs": [
        {
          "internalType": "address payable",
          "name": "",
          "type": "address"
        }
      ],
      "stateMutability": "view",
      "type": "function"
    },
    {
      "inputs": [
        {
          "components": [
            {
              "internalType": "address",
              "name": "owner",
              "type": "address"
            },
            {
              "internalType": "uint256",
              "name": "salt",
              "type": "uint256"
            },
            {
              "components": [
                {
                  "internalType": "address",
                  "name": "token",
                  "type": "address"
                },
                {
                  "internalType": "uint256",
                  "name": "tokenId",
                  "type": "uint256"
                },
                {
                  "internalType": "enum ExchangeDomainV1.AssetType",
                  "name": "assetType",
                  "type": "uint8"
                }
              ],
              "internalType": "struct ExchangeDomainV1.Asset",
              "name": "sellAsset",
              "type": "tuple"
            },
            {
              "components": [
                {
                  "internalType": "address",
                  "name": "token",
                  "type": "address"
                },
                {
                  "internalType": "uint256",
                  "name": "tokenId",
                  "type": "uint256"
                },
                {
                  "internalType": "enum ExchangeDomainV1.AssetType",
                  "name": "assetType",
                  "type": "uint8"
                }
              ],
              "internalType": "struct ExchangeDomainV1.Asset",
              "name": "buyAsset",
              "type": "tuple"
            }
          ],
          "internalType": "struct ExchangeDomainV1.OrderKey",
          "name": "key",
          "type": "tuple"
        }
      ],
      "name": "cancel",
      "outputs": [],
      "stateMutability": "nonpayable",
      "type": "function"
    },
    {
      "inputs": [],
      "name": "erc20TransferProxy",
      "outputs": [
        {
          "internalType": "contract ERC20TransferProxy",
          "name": "",
          "type": "address"
        }
      ],
      "stateMutability": "view",
      "type": "function"
    },
    {
      "inputs": [
        {
          "components": [
            {
              "components": [
                {
                  "internalType": "address",
                  "name": "owner",
                  "type": "address"
                },
                {
                  "internalType": "uint256",
                  "name": "salt",
                  "type": "uint256"
                },
                {
                  "components": [
                    {
                      "internalType": "address",
                      "name": "token",
                      "type": "address"
                    },
                    {
                      "internalType": "uint256",
                      "name": "tokenId",
                      "type": "uint256"
                    },
                    {
                      "internalType": "enum ExchangeDomainV1.AssetType",
                      "name": "assetType",
                      "type": "uint8"
                    }
                  ],
                  "internalType": "struct ExchangeDomainV1.Asset",
                  "name": "sellAsset",
                  "type": "tuple"
                },
                {
                  "components": [
                    {
                      "internalType": "address",
                      "name": "token",
                      "type": "address"
                    },
                    {
                      "internalType": "uint256",
                      "name": "tokenId",
                      "type": "uint256"
                    },
                    {
                      "internalType": "enum ExchangeDomainV1.AssetType",
                      "name": "assetType",
                      "type": "uint8"
                    }
                  ],
                  "internalType": "struct ExchangeDomainV1.Asset",
                  "name": "buyAsset",
                  "type": "tuple"
                }
              ],
              "internalType": "struct ExchangeDomainV1.OrderKey",
              "name": "key",
              "type": "tuple"
            },
            {
              "internalType": "uint256",
              "name": "selling",
              "type": "uint256"
            },
            {
              "internalType": "uint256",
              "name": "buying",
              "type": "uint256"
            }
          ],
          "internalType": "struct ExchangeDomainV1.Order",
          "name": "order",
          "type": "tuple"
        },
        {
          "components": [
            {
              "internalType": "uint8",
              "name": "v",
              "type": "uint8"
            },
            {
              "internalType": "bytes32",
              "name": "r",
              "type": "bytes32"
            },
            {
              "internalType": "bytes32",
              "name": "s",
              "type": "bytes32"
            }
          ],
          "internalType": "struct ExchangeDomainV1.Sig",
          "name": "sig",
          "type": "tuple"
        },
        {
          "internalType": "uint256",
          "name": "amount",
          "type": "uint256"
        },
        {
          "internalType": "address",
          "name": "buyer",
          "type": "address"
        }
      ],
      "name": "exchange",
      "outputs": [],
      "stateMutability": "payable",
      "type": "function"
    },
    {
      "inputs": [],
      "name": "owner",
      "outputs": [
        {
          "internalType": "address",
          "name": "",
          "type": "address"
        }
      ],
      "stateMutability": "view",
      "type": "function"
    },
    {
      "inputs": [
        {
          "components": [
            {
              "components": [
                {
                  "internalType": "address",
                  "name": "owner",
                  "type": "address"
                },
                {
                  "internalType": "uint256",
                  "name": "salt",
                  "type": "uint256"
                },
                {
                  "components": [
                    {
                      "internalType": "address",
                      "name": "token",
                      "type": "address"
                    },
                    {
                      "internalType": "uint256",
                      "name": "tokenId",
                      "type": "uint256"
                    },
                    {
                      "internalType": "enum ExchangeDomainV1.AssetType",
                      "name": "assetType",
                      "type": "uint8"
                    }
                  ],
                  "internalType": "struct ExchangeDomainV1.Asset",
                  "name": "sellAsset",
                  "type": "tuple"
                },
                {
                  "components": [
                    {
                      "internalType": "address",
                      "name": "token",
                      "type": "address"
                    },
                    {
                      "internalType": "uint256",
                      "name": "tokenId",
                      "type": "uint256"
                    },
                    {
                      "internalType": "enum ExchangeDomainV1.AssetType",
                      "name": "assetType",
                      "type": "uint8"
                    }
                  ],
                  "internalType": "struct ExchangeDomainV1.Asset",
                  "name": "buyAsset",
                  "type": "tuple"
                }
              ],
              "internalType": "struct ExchangeDomainV1.OrderKey",
              "name": "key",
              "type": "tuple"
            },
            {
              "internalType": "uint256",
              "name": "selling",
              "type": "uint256"
            },
            {
              "internalType": "uint256",
              "name": "buying",
              "type": "uint256"
            }
          ],
          "internalType": "struct ExchangeDomainV1.Order",
          "name": "order",
          "type": "tuple"
        }
      ],
      "name": "prepareMessage",
      "outputs": [
        {
          "internalType": "string",
          "name": "",
          "type": "string"
        }
      ],
      "stateMutability": "pure",
      "type": "function"
    },
    {
      "inputs": [],
      "name": "renounceOwnership",
      "outputs": [],
      "stateMutability": "nonpayable",
      "type": "function"
    },
    {
      "inputs": [
        {
          "internalType": "address payable",
          "name": "newBeneficiary",
          "type": "address"
        }
      ],
      "name": "setBeneficiary",
      "outputs": [],
      "stateMutability": "nonpayable",
      "type": "function"
    },
    {
      "inputs": [
        {
          "internalType": "uint256",
          "name": "_buyerFees",
          "type": "uint256"
        }
      ],
      "name": "setBuyerFees",
      "outputs": [],
      "stateMutability": "nonpayable",
      "type": "function"
    },
    {
      "inputs": [
        {
          "internalType": "uint256",
          "name": "_sellerFees",
          "type": "uint256"
        }
      ],
      "name": "setSellerFees",
      "outputs": [],
      "stateMutability": "nonpayable",
      "type": "function"
    },
    {
      "inputs": [],
      "name": "state",
      "outputs": [
        {
          "internalType": "contract ExchangeStateV1",
          "name": "",
          "type": "address"
        }
      ],
      "stateMutability": "view",
      "type": "function"
    },
    {
      "inputs": [
        {
          "internalType": "address",
          "name": "newOwner",
          "type": "address"
        }
      ],
      "name": "transferOwnership",
      "outputs": [],
      "stateMutability": "nonpayable",
      "type": "function"
    },
    {
      "inputs": [],
      "name": "transferProxy",
      "outputs": [
        {
          "internalType": "contract TransferProxy",
          "name": "",
          "type": "address"
        }
      ],
      "stateMutability": "view",
      "type": "function"
    }
  ],
  "transactionHash": "0x43e9e2187fcf71f96b091e6823878f3304eaf0f682e461a3f190db1658418dad",
  "args": [
    "0x06500204Da871Bd6B702Ba0CD158bB68EC1442B9",
    "0x6D3132515247C5fC1C8AD550136E55C74373B5Ed",
    "0x5D806f5d1737c60FbB26509E8A5CC49d92F6411a",
    "0x0Fc0c315F3b38ca5a3bb7118fa689B9682eeA1E9"
  ],
  "numDeployments": 1,
  "solcInputHash": "8a1dba88310dc5623b926c1e7af5c8da",
  "bytecode": "0x608060405260fa60025560fa6003553480156200001b57600080fd5b5060405162001f4a38038062001f4a8339810160408190526200003e91620000ed565b62000049336200009d565b600480546001600160a01b039586166001600160a01b03199182161790915560058054948616948216949094179093556006805492851692841692909217909155600180549190931691161790556200016d565b600080546001600160a01b038381166001600160a01b0319831681178455604051919092169283917f8be0079c531659141344cd1fd0a4f28419497f9722a3daafe3b4186f6b6457e09190a35050565b6000806000806080858703121562000103578384fd5b8451620001108162000154565b6020860151909450620001238162000154565b6040860151909350620001368162000154565b6060860151909250620001498162000154565b939692955090935050565b6001600160a01b03811681146200016a57600080fd5b50565b611dcd806200017d6000396000f3fe6080604052600436106100c25760003560e01c80637545335b1161007f578063c19d93fb11610059578063c19d93fb146101f9578063ca120b1f14610219578063f2fde38b14610239578063fee03e9e1461025957600080fd5b80637545335b1461018e5780638da5cb5b146101ae578063bf4aa9f3146101cc57600080fd5b80631c31f710146100c757806338af3eed146100e95780633a1910e5146101265780636e14afcc146101395780636e667db314610159578063715018a614610179575b600080fd5b3480156100d357600080fd5b506100e76100e23660046118ea565b610279565b005b3480156100f557600080fd5b50600154610109906001600160a01b031681565b6040516001600160a01b0390911681526020015b60405180910390f35b6100e761013436600461196f565b6102ce565b34801561014557600080fd5b506100e7610154366004611a86565b610505565b34801561016557600080fd5b50600454610109906001600160a01b031681565b34801561018557600080fd5b506100e7610534565b34801561019a57600080fd5b506100e76101a9366004611a86565b61056a565b3480156101ba57600080fd5b506000546001600160a01b0316610109565b3480156101d857600080fd5b506101ec6101e73660046119d1565b610599565b60405161011d9190611b78565b34801561020557600080fd5b50600654610109906001600160a01b031681565b34801561022557600080fd5b506100e761023436600461193b565b6105d0565b34801561024557600080fd5b506100e76102543660046118ea565b610715565b34801561026557600080fd5b50600554610109906001600160a01b031681565b6000546001600160a01b031633146102ac5760405162461bcd60e51b81526004016102a390611bcb565b60405180910390fd5b600180546001600160a01b0319166001600160a01b0392909216919091179055565b6102f46102e0368690038601866119d1565b6102ef36869003860186611a14565b6107b0565b600061031461010086013561030e61012088013586610835565b90610848565b905061033461032836879003870187611953565b86610100013585610854565b600061034660a0870160808801611906565b600381111561036557634e487b7160e01b600052602160045260246000fd5b14156103bd5760405162461bcd60e51b815260206004820152602160248201527f455448206973206e6f7420737570706f72746564206f6e2073656c6c207369646044820152606560f81b60648201526084016102a3565b60006103d0610100870160e08801611906565b60038111156103ef57634e487b7160e01b600052602160045260246000fd5b141561040157610401816002546109ac565b600061042c61041660a0880160808901611906565b610427610100890160e08a01611906565b610a10565b90506001600160a01b038316610440573392505b61049261045536889003880160408901611920565b8561046360208a018a6118ea565b86600186600281111561048657634e487b7160e01b600052602160045260246000fd5b14600254600354610ac4565b6104e46104a736889003880160a08901611920565b83336104b660208b018b6118ea565b60028660028111156104d857634e487b7160e01b600052602160045260246000fd5b14600354600254610ac4565b6104fd6104f6368890038801886119d1565b8585610af1565b505050505050565b6000546001600160a01b0316331461052f5760405162461bcd60e51b81526004016102a390611bcb565b600355565b6000546001600160a01b0316331461055e5760405162461bcd60e51b81526004016102a390611bcb565b6105686000610b95565b565b6000546001600160a01b031633146105945760405162461bcd60e51b81526004016102a390611bcb565b600255565b60606105ca826040516020016105af9190611c71565b60405160208183030381529060405280519060200120610be5565b92915050565b336105de60208301836118ea565b6001600160a01b0316146106235760405162461bcd60e51b815260206004820152600c60248201526b3737ba1030b71037bbb732b960a11b60448201526064016102a3565b600654604051631d03b74d60e11b81526001600160a01b0390911690633a076e9a9061065790849060001990600401611c00565b600060405180830381600087803b15801561067157600080fd5b505af1158015610685573d6000803e3d6000fd5b505050606082018035915061069d90604084016118ea565b6001600160a01b03167fbfe0e802e586c99960de1a111c80f598b281996d65080d74dbe29986f55b274a336106d860c0860160a087016118ea565b604080516001600160a01b0393841681529190921660208083019190915260c087013582840152860135606082015290519081900360800190a350565b6000546001600160a01b0316331461073f5760405162461bcd60e51b81526004016102a390611bcb565b6001600160a01b0381166107a45760405162461bcd60e51b815260206004820152602660248201527f4f776e61626c653a206e6577206f776e657220697320746865207a65726f206160448201526564647265737360d01b60648201526084016102a3565b6107ad81610b95565b50565b8160000151600001516001600160a01b03166107e58260000151836020015184604001516107dd87610599565b929190610d99565b6001600160a01b0316146108315760405162461bcd60e51b8152602060048201526013602482015272696e636f7272656374207369676e617475726560681b60448201526064016102a3565b5050565b60006108418284611d03565b9392505050565b60006108418284611cef565b6006546040516303ec000360e61b81526000916001600160a01b03169063fb0000c090610885908790600401611c53565b60206040518083038186803b15801561089d57600080fd5b505afa1580156108b1573d6000803e3d6000fd5b505050506040513d601f19601f820116820180604052508101906108d59190611a9e565b905060006108e38284610e8e565b9050838111156109415760405162461bcd60e51b8152602060048201526024808201527f6e6f7420656e6f7567682073746f636b206f66206f7264657220666f7220627560448201526379696e6760e01b60648201526084016102a3565b600654604051631d03b74d60e11b81526001600160a01b0390911690633a076e9a906109739088908590600401611c62565b600060405180830381600087803b15801561098d57600080fd5b505af11580156109a1573d6000803e3d6000fd5b505050505050505050565b60006109b88383610e9a565b90506109c48184611cd7565b3414610a0b5760405162461bcd60e51b81526020600482015260166024820152751b5cd9cb9d985b1d59481a5cc81a5b98dbdc9c9958dd60521b60448201526064016102a3565b505050565b60006003836003811115610a3457634e487b7160e01b600052602160045260246000fd5b148015610a6057506003826003811115610a5e57634e487b7160e01b600052602160045260246000fd5b145b15610a6d575060006105ca565b816003811115610a8d57634e487b7160e01b600052602160045260246000fd5b836003811115610aad57634e487b7160e01b600052602160045260246000fd5b1115610abb575060026105ca565b50600192915050565b82610ada57610ad587878787610eac565b610ae8565b610ae8878787878686611168565b50505050505050565b82516040808201516020808201519151818801518551606080880151805190860151888d01519987015189519586526001600160a01b03948516978601979097529083168489015290830152608082019690965286861660a082015260c0810188905260e081019290925292519193909216917fdddcdb07e460849cf04a4445b7af9faf01b7f5c7ba75deaf969ac5ed830312c391908190036101000190a3505050565b600080546001600160a01b038381166001600160a01b0319831681178455604051919092169283917f8be0079c531659141344cd1fd0a4f28419497f9722a3daafe3b4186f6b6457e09190a35050565b604080518082018252601081526f181899199a1a9b1b9c1cb0b131b232b360811b6020820152815182815260608181018452926000919060208201818036833701905050905060005b6020811015610d9157826004868360208110610c5a57634e487b7160e01b600052603260045260246000fd5b1a60f81b6001600160f81b031916901c60f81c60ff1681518110610c8e57634e487b7160e01b600052603260045260246000fd5b01602001516001600160f81b03191682610ca9836002611d03565b81518110610cc757634e487b7160e01b600052603260045260246000fd5b60200101906001600160f81b031916908160001a90535082858260208110610cff57634e487b7160e01b600052603260045260246000fd5b825191901a600f16908110610d2457634e487b7160e01b600052603260045260246000fd5b01602001516001600160f81b03191682610d3f836002611d03565b610d4a906001611cd7565b81518110610d6857634e487b7160e01b600052603260045260246000fd5b60200101906001600160f81b031916908160001a90535080610d8981611d50565b915050610c2e565b509392505050565b6000808590506000610e116040518060400160405280601a81526020017f19457468657265756d205369676e6564204d6573736167653a0a000000000000815250610de48451611185565b604080516000808252602082018181528284018281526060840192835260808401909452889390916112b5565b90506001818051906020012087878760405160008152602001604052604051610e56949392919093845260ff9290921660208401526040830152606082015260800190565b6020604051602081039080840390855afa158015610e78573d6000803e3d6000fd5b5050604051601f19015198975050505050505050565b60006108418284611cd7565b600061084161271061030e8585610835565b600084604001516003811115610ed257634e487b7160e01b600052602160045260246000fd5b1415610f14576040516001600160a01b0382169084156108fc029085906000818181858888f19350505050158015610f0e573d6000803e3d6000fd5b50611162565b600184604001516003811115610f3a57634e487b7160e01b600052602160045260246000fd5b141561100557602084015115610f885760405162461bcd60e51b81526020600482015260136024820152720746f6b656e49642073686f756c64206265203606c1b60448201526064016102a3565b600554845160405163776062c360e01b81526001600160a01b039182166004820152848216602482015283821660448201526064810186905291169063776062c3906084015b600060405180830381600087803b158015610fe857600080fd5b505af1158015610ffc573d6000803e3d6000fd5b50505050611162565b60038460400151600381111561102b57634e487b7160e01b600052602160045260246000fd5b14156110d057826001146110815760405162461bcd60e51b815260206004820152601d60248201527f76616c75652073686f756c64206265203120666f72204552432d37323100000060448201526064016102a3565b6004805485516020870151604051637b84dc8360e11b81526001600160a01b0392831694810194909452858216602485015284821660448501526064840152169063f709b90690608401610fce565b6004805485516020870151604051639c1c2ee960e01b81526001600160a01b03928316948101949094528582166024850152848216604485015260648401526084830186905260c060a4840152600060c48401521690639c1c2ee99060e401600060405180830381600087803b15801561114957600080fd5b505af115801561115d573d6000803e3d6000fd5b505050505b50505050565b60006111778786888686611755565b9050610ae887828787610eac565b6060816111a95750506040805180820190915260018152600360fc1b602082015290565b8160005b81156111d357806111bd81611d50565b91506111cc9050600a83611cef565b91506111ad565b60008167ffffffffffffffff8111156111fc57634e487b7160e01b600052604160045260246000fd5b6040519080825280601f01601f191660200182016040528015611226576020820181803683370190505b5090506000611236600184611d22565b90505b85156112ac5761124a600a87611d6b565b611255906030611cd7565b60f81b828261126381611d39565b93508151811061128357634e487b7160e01b600052603260045260246000fd5b60200101906001600160f81b031916908160001a9053506112a5600a87611cef565b9550611239565b50949350505050565b6060600082518451865188518a518c518e516112d19190611cd7565b6112db9190611cd7565b6112e59190611cd7565b6112ef9190611cd7565b6112f99190611cd7565b6113039190611cd7565b67ffffffffffffffff81111561132957634e487b7160e01b600052604160045260246000fd5b6040519080825280601f01601f191660200182016040528015611353576020820181803683370190505b5090506000805b8a518110156113e6578a818151811061138357634e487b7160e01b600052603260045260246000fd5b01602001516001600160f81b031916838361139d81611d50565b9450815181106113bd57634e487b7160e01b600052603260045260246000fd5b60200101906001600160f81b031916908160001a905350806113de81611d50565b91505061135a565b5060005b89518110156114765789818151811061141357634e487b7160e01b600052603260045260246000fd5b01602001516001600160f81b031916838361142d81611d50565b94508151811061144d57634e487b7160e01b600052603260045260246000fd5b60200101906001600160f81b031916908160001a9053508061146e81611d50565b9150506113ea565b5060005b8851811015611506578881815181106114a357634e487b7160e01b600052603260045260246000fd5b01602001516001600160f81b03191683836114bd81611d50565b9450815181106114dd57634e487b7160e01b600052603260045260246000fd5b60200101906001600160f81b031916908160001a905350806114fe81611d50565b91505061147a565b5060005b87518110156115965787818151811061153357634e487b7160e01b600052603260045260246000fd5b01602001516001600160f81b031916838361154d81611d50565b94508151811061156d57634e487b7160e01b600052603260045260246000fd5b60200101906001600160f81b031916908160001a9053508061158e81611d50565b91505061150a565b5060005b8651811015611626578681815181106115c357634e487b7160e01b600052603260045260246000fd5b01602001516001600160f81b03191683836115dd81611d50565b9450815181106115fd57634e487b7160e01b600052603260045260246000fd5b60200101906001600160f81b031916908160001a9053508061161e81611d50565b91505061159a565b5060005b85518110156116b65785818151811061165357634e487b7160e01b600052603260045260246000fd5b01602001516001600160f81b031916838361166d81611d50565b94508151811061168d57634e487b7160e01b600052603260045260246000fd5b60200101906001600160f81b031916908160001a905350806116ae81611d50565b91505061162a565b5060005b8451811015611746578481815181106116e357634e487b7160e01b600052603260045260246000fd5b01602001516001600160f81b03191683836116fd81611d50565b94508151811061171d57634e487b7160e01b600052603260045260246000fd5b60200101906001600160f81b031916908160001a9053508061173e81611d50565b9150506116ba565b50909998505050505050505050565b60008060006117658687876117b5565b909250905060006117768786610e9a565b905060006117848284610e8e565b905080156117a7576001546117a7908b9083908c906001600160a01b0316610eac565b509198975050505050505050565b6000806117cb856117c68686610e9a565b6117d7565b91509150935093915050565b600080828411156117f6576117ec8385611d22565b91508290506117fd565b5060009050825b9250929050565b80356004811061181357600080fd5b919050565b600060608284031215611829578081fd5b611831611ca0565b9050813561183e81611dab565b81526020828101359082015261185660408301611804565b604082015292915050565b60006101008284031215611873578081fd5b6040516080810181811067ffffffffffffffff821117156118a257634e487b7160e01b83526041600452602483fd5b60405290508082356118b381611dab565b8152602083810135908201526118cc8460408501611818565b60408201526118de8460a08501611818565b60608201525092915050565b6000602082840312156118fb578081fd5b813561084181611dab565b600060208284031215611917578081fd5b61084182611804565b600060608284031215611931578081fd5b6108418383611818565b6000610100828403121561194d578081fd5b50919050565b60006101008284031215611965578081fd5b6108418383611861565b6000806000808486036101e0811215611986578384fd5b61014080821215611995578485fd5b869550606061013f19830112156119aa578485fd5b86019350506101a085013591506101c08501356119c681611dab565b939692955090935050565b600061014082840312156119e3578081fd5b6119eb611ca0565b6119f58484611861565b8152610100830135602082015261012090920135604083015250919050565b600060608284031215611a25578081fd5b6040516060810181811067ffffffffffffffff82111715611a5457634e487b7160e01b83526041600452602483fd5b604052823560ff81168114611a67578283fd5b8152602083810135908201526040928301359281019290925250919050565b600060208284031215611a97578081fd5b5035919050565b600060208284031215611aaf578081fd5b5051919050565b60048110611ad457634e487b7160e01b600052602160045260246000fd5b9052565b8035611ae381611dab565b6001600160a01b0316825260208181013590830152611b0460408201611804565b610a0b6040840182611ab6565b80516001600160a01b031682526020808201519083015260408082015190610a0b90840182611ab6565b80516001600160a01b031682526020808201519083015260408082015190611b6590840182611b11565b506060810151610a0b60a0840182611b11565b6000602080835283518082850152825b81811015611ba457858101830151858201604001528201611b88565b81811115611bb55783604083870101525b50601f01601f1916929092016040019392505050565b6020808252818101527f4f776e61626c653a2063616c6c6572206973206e6f7420746865206f776e6572604082015260600190565b61012081018335611c1081611dab565b6001600160a01b0316825260208481013590830152611c356040808401908601611ad8565b611c4560a0830160a08601611ad8565b826101008301529392505050565b61010081016105ca8284611b3b565b6101208101611c458285611b3b565b600061014082019050611c85828451611b3b565b60208301516101008301526040909201516101209091015290565b6040516060810167ffffffffffffffff81118282101715611cd157634e487b7160e01b600052604160045260246000fd5b60405290565b60008219821115611cea57611cea611d7f565b500190565b600082611cfe57611cfe611d95565b500490565b6000816000190483118215151615611d1d57611d1d611d7f565b500290565b600082821015611d3457611d34611d7f565b500390565b600081611d4857611d48611d7f565b506000190190565b6000600019821415611d6457611d64611d7f565b5060010190565b600082611d7a57611d7a611d95565b500690565b634e487b7160e01b600052601160045260246000fd5b634e487b7160e01b600052601260045260246000fd5b6001600160a01b03811681146107ad57600080fdfea164736f6c6343000804000a",
  "devdoc": {
    "kind": "dev",
    "methods": {
      "owner()": {
        "details": "Returns the address of the current owner."
      },
      "renounceOwnership()": {
        "details": "Leaves the contract without owner. It will not be possible to call `onlyOwner` functions anymore. Can only be called by the current owner. NOTE: Renouncing ownership will leave the contract without an owner, thereby removing any functionality that is only available to the owner."
      },
      "transferOwnership(address)": {
        "details": "Transfers ownership of the contract to a new account (`newOwner`). Can only be called by the current owner."
      }
    },
    "version": 1
  },
  "userdoc": {
    "kind": "user",
    "methods": {},
    "version": 1
  },
  "storageLayout": {
    "storage": [
      {
        "astId": 7,
        "contract": "contracts/ExchangeV1.sol:ExchangeV1",
        "label": "_owner",
        "offset": 0,
        "slot": "0",
        "type": "t_address"
      },
      {
        "astId": 845,
        "contract": "contracts/ExchangeV1.sol:ExchangeV1",
        "label": "beneficiary",
        "offset": 0,
        "slot": "1",
        "type": "t_address_payable"
      },
      {
        "astId": 848,
        "contract": "contracts/ExchangeV1.sol:ExchangeV1",
        "label": "buyerFees",
        "offset": 0,
        "slot": "2",
        "type": "t_uint256"
      },
      {
        "astId": 851,
        "contract": "contracts/ExchangeV1.sol:ExchangeV1",
        "label": "sellerFees",
        "offset": 0,
        "slot": "3",
        "type": "t_uint256"
      },
      {
        "astId": 854,
        "contract": "contracts/ExchangeV1.sol:ExchangeV1",
        "label": "transferProxy",
        "offset": 0,
        "slot": "4",
        "type": "t_contract(TransferProxy)1795"
      },
      {
        "astId": 857,
        "contract": "contracts/ExchangeV1.sol:ExchangeV1",
        "label": "erc20TransferProxy",
        "offset": 0,
        "slot": "5",
        "type": "t_contract(ERC20TransferProxy)1735"
      },
      {
        "astId": 860,
        "contract": "contracts/ExchangeV1.sol:ExchangeV1",
        "label": "state",
        "offset": 0,
        "slot": "6",
        "type": "t_contract(ExchangeStateV1)1703"
      }
    ],
    "types": {
      "t_address": {
        "encoding": "inplace",
        "label": "address",
        "numberOfBytes": "20"
      },
      "t_address_payable": {
        "encoding": "inplace",
        "label": "address payable",
        "numberOfBytes": "20"
      },
      "t_contract(ERC20TransferProxy)1735": {
        "encoding": "inplace",
        "label": "contract ERC20TransferProxy",
        "numberOfBytes": "20"
      },
      "t_contract(ExchangeStateV1)1703": {
        "encoding": "inplace",
        "label": "contract ExchangeStateV1",
        "numberOfBytes": "20"
      },
      "t_contract(TransferProxy)1795": {
        "encoding": "inplace",
        "label": "contract TransferProxy",
        "numberOfBytes": "20"
      },
      "t_uint256": {
        "encoding": "inplace",
        "label": "uint256",
        "numberOfBytes": "32"
      }
    }
  }
}