{
  "address": "0x9fE46736679d2D9a65F0992F2272dE9f3c7fa6e0",
  "transactionHash": "0x09539e8af412ed5306de1d42532e1b20a1aae8e1a4e26e36b05df7330b76d0d2",
  "args": [
    "0xBcd4042DE499D14e55001CcbB24a551F3b954096"
  ],
  "_format": "hh-sol-artifact-1",
  "contractName": "Game",
  "sourceName": "contracts/Game.sol",
  "abi": [
    {
      "anonymous": false,
      "inputs": [
        {
          "indexed": true,
          "internalType": "address",
          "name": "previousOwner",
          "type": "address"
        },
        {
          "indexed": true,
          "internalType": "address",
          "name": "newOwner",
          "type": "address"
        }
      ],
      "name": "OwnershipTransferred",
      "type": "event"
    },
    {
      "inputs": [
        {
          "internalType": "contract IERC20Upgradeable",
          "name": "token",
          "type": "address"
        },
        {
          "internalType": "uint256",
          "name": "amount",
          "type": "uint256"
        }
      ],
      "name": "depositErc20",
      "outputs": [],
      "stateMutability": "payable",
      "type": "function"
    },
    {
      "inputs": [],
      "name": "depositNative",
      "outputs": [],
      "stateMutability": "payable",
      "type": "function"
    },
    {
      "inputs": [
        {
          "internalType": "address",
          "name": "_signer",
          "type": "address"
        }
      ],
      "name": "initialize",
      "outputs": [],
      "stateMutability": "nonpayable",
      "type": "function"
    },
    {
      "inputs": [],
      "name": "owner",
      "outputs": [
        {
          "internalType": "address",
          "name": "",
          "type": "address"
        }
      ],
      "stateMutability": "view",
      "type": "function"
    },
    {
      "inputs": [],
      "name": "renounceOwnership",
      "outputs": [],
      "stateMutability": "nonpayable",
      "type": "function"
    },
    {
      "inputs": [
        {
          "internalType": "address",
          "name": "_signer",
          "type": "address"
        }
      ],
      "name": "setSigner",
      "outputs": [],
      "stateMutability": "nonpayable",
      "type": "function"
    },
    {
      "inputs": [
        {
          "internalType": "address",
          "name": "newOwner",
          "type": "address"
        }
      ],
      "name": "transferOwnership",
      "outputs": [],
      "stateMutability": "nonpayable",
      "type": "function"
    },
    {
      "inputs": [
        {
          "internalType": "address",
          "name": "",
          "type": "address"
        }
      ],
      "name": "userDepositErc20",
      "outputs": [
        {
          "internalType": "uint256",
          "name": "",
          "type": "uint256"
        }
      ],
      "stateMutability": "view",
      "type": "function"
    },
    {
      "inputs": [
        {
          "internalType": "address",
          "name": "",
          "type": "address"
        }
      ],
      "name": "userDepositNative",
      "outputs": [
        {
          "internalType": "uint256",
          "name": "",
          "type": "uint256"
        }
      ],
      "stateMutability": "view",
      "type": "function"
    },
    {
      "inputs": [
        {
          "internalType": "address",
          "name": "",
          "type": "address"
        }
      ],
      "name": "userWithdrawErc20",
      "outputs": [
        {
          "internalType": "uint256",
          "name": "",
          "type": "uint256"
        }
      ],
      "stateMutability": "view",
      "type": "function"
    },
    {
      "inputs": [
        {
          "internalType": "address",
          "name": "",
          "type": "address"
        }
      ],
      "name": "userWithdrawNative",
      "outputs": [
        {
          "internalType": "uint256",
          "name": "",
          "type": "uint256"
        }
      ],
      "stateMutability": "view",
      "type": "function"
    },
    {
      "inputs": [
        {
          "internalType": "uint256",
          "name": "value",
          "type": "uint256"
        },
        {
          "internalType": "uint8",
          "name": "v",
          "type": "uint8"
        },
        {
          "internalType": "bytes32",
          "name": "r",
          "type": "bytes32"
        },
        {
          "internalType": "bytes32",
          "name": "s",
          "type": "bytes32"
        }
      ],
      "name": "withdrawNative",
      "outputs": [],
      "stateMutability": "nonpayable",
      "type": "function"
    }
  ],
  "bytecode": "0x608060405234801561001057600080fd5b50611465806100206000396000f3fe6080604052600436106100a75760003560e01c80636e27068e116100645780636e27068e1461019b578063715018a6146101c85780638da5cb5b146101dd578063c4d66de814610205578063db6b524614610225578063f2fde38b1461022d57600080fd5b80632de0aed6146100ac578063303cf49b146100ec57806340119382146101195780636548b40d146101465780636c19e7831461015b5780636e0bf24f1461017b575b600080fd5b3480156100b857600080fd5b506100d96100c73660046111e3565b60686020526000908152604090205481565b6040519081526020015b60405180910390f35b3480156100f857600080fd5b506100d96101073660046111e3565b60666020526000908152604090205481565b34801561012557600080fd5b506100d96101343660046111e3565b60676020526000908152604090205481565b61015961015436600461121f565b61024d565b005b34801561016757600080fd5b506101596101763660046111e3565b61028b565b34801561018757600080fd5b5061015961019636600461124a565b6102e0565b3480156101a757600080fd5b506100d96101b63660046111e3565b60696020526000908152604090205481565b3480156101d457600080fd5b50610159610363565b3480156101e957600080fd5b506033546040516001600160a01b0390911681526020016100e3565b34801561021157600080fd5b506101596102203660046111e3565b610399565b610159610475565b34801561023957600080fd5b506101596102483660046111e3565b61049b565b336000908152606860205260408120805434929061026c90849061135a565b9091555061028790506001600160a01b038316333084610536565b5050565b6033546001600160a01b031633146102be5760405162461bcd60e51b81526004016102b5906112da565b60405180910390fd5b606580546001600160a01b0319166001600160a01b0392909216919091179055565b33600090815260676020526040902054841161033e5760405162461bcd60e51b815260206004820152601c60248201527f47616d653a204e6f2062616c616e636520746f2077697468647261770000000060448201526064016102b5565b61034b3385858585610596565b50503360009081526067602052604090209190915550565b6033546001600160a01b0316331461038d5760405162461bcd60e51b81526004016102b5906112da565b6103976000610647565b565b600054610100900460ff166103b45760005460ff16156103b8565b303b155b61041b5760405162461bcd60e51b815260206004820152602e60248201527f496e697469616c697a61626c653a20636f6e747261637420697320616c72656160448201526d191e481a5b9a5d1a585b1a5e995960921b60648201526084016102b5565b600054610100900460ff1615801561043d576000805461ffff19166101011790555b610445610699565b606580546001600160a01b0319166001600160a01b0384161790558015610287576000805461ff00191690555050565b336000908152606660205260408120805434929061049490849061135a565b9091555050565b6033546001600160a01b031633146104c55760405162461bcd60e51b81526004016102b5906112da565b6001600160a01b03811661052a5760405162461bcd60e51b815260206004820152602660248201527f4f776e61626c653a206e6577206f776e657220697320746865207a65726f206160448201526564647265737360d01b60648201526084016102b5565b61053381610647565b50565b604080516001600160a01b0385811660248301528416604482015260648082018490528251808303909101815260849091019091526020810180516001600160e01b03166323b872dd60e01b1790526105909085906106d0565b50505050565b606554604080516001600160a01b0388811660208301529181018790529116906105ea908590859085906105e290606001604051602081830303815290604052805190602001206107a7565b92919061095b565b6001600160a01b0316146106405760405162461bcd60e51b815260206004820152601c60248201527f47616d653a207369676e617475726520766572696679206572726f720000000060448201526064016102b5565b5050505050565b603380546001600160a01b038381166001600160a01b0319831681179093556040519116919082907f8be0079c531659141344cd1fd0a4f28419497f9722a3daafe3b4186f6b6457e090600090a35050565b600054610100900460ff166106c05760405162461bcd60e51b81526004016102b59061130f565b6106c8610a50565b610397610a77565b6000610725826040518060400160405280602081526020017f5361666545524332303a206c6f772d6c6576656c2063616c6c206661696c6564815250856001600160a01b0316610aa79092919063ffffffff16565b8051909150156107a2578080602001905181019061074391906111ff565b6107a25760405162461bcd60e51b815260206004820152602a60248201527f5361666545524332303a204552433230206f7065726174696f6e20646964206e6044820152691bdd081cdd58d8d9595960b21b60648201526084016102b5565b505050565b604080518082018252601081526f181899199a1a9b1b9c1cb0b131b232b360811b6020820152815182815260608181018452926000919060208201818036833701905050905060005b60208110156109535782600486836020811061081c57634e487b7160e01b600052603260045260246000fd5b1a60f81b6001600160f81b031916901c60f81c60ff168151811061085057634e487b7160e01b600052603260045260246000fd5b01602001516001600160f81b0319168261086b836002611386565b8151811061088957634e487b7160e01b600052603260045260246000fd5b60200101906001600160f81b031916908160001a905350828582602081106108c157634e487b7160e01b600052603260045260246000fd5b825191901a600f169081106108e657634e487b7160e01b600052603260045260246000fd5b01602001516001600160f81b03191682610901836002611386565b61090c90600161135a565b8151811061092a57634e487b7160e01b600052603260045260246000fd5b60200101906001600160f81b031916908160001a9053508061094b816113e8565b9150506107f0565b509392505050565b60008085905060006109d36040518060400160405280601a81526020017f19457468657265756d205369676e6564204d6573736167653a0a0000000000008152506109a68451610ac0565b60408051600080825260208201818152828401828152606084019283526080840190945288939091610be2565b90506001818051906020012087878760405160008152602001604052604051610a18949392919093845260ff9290921660208401526040830152606082015260800190565b6020604051602081039080840390855afa158015610a3a573d6000803e3d6000fd5b5050604051601f19015198975050505050505050565b600054610100900460ff166103975760405162461bcd60e51b81526004016102b59061130f565b600054610100900460ff16610a9e5760405162461bcd60e51b81526004016102b59061130f565b61039733610647565b6060610ab68484600085611082565b90505b9392505050565b606081610ae45750506040805180820190915260018152600360fc1b602082015290565b8160005b8115610b0e5780610af8816113e8565b9150610b079050600a83611372565b9150610ae8565b60008167ffffffffffffffff811115610b3757634e487b7160e01b600052604160045260246000fd5b6040519080825280601f01601f191660200182016040528015610b61576020820181803683370190505b5090505b8415610bda57610b766001836113a5565b9150610b83600a86611403565b610b8e90603061135a565b60f81b818381518110610bb157634e487b7160e01b600052603260045260246000fd5b60200101906001600160f81b031916908160001a905350610bd3600a86611372565b9450610b65565b949350505050565b6060600082518451865188518a518c518e51610bfe919061135a565b610c08919061135a565b610c12919061135a565b610c1c919061135a565b610c26919061135a565b610c30919061135a565b67ffffffffffffffff811115610c5657634e487b7160e01b600052604160045260246000fd5b6040519080825280601f01601f191660200182016040528015610c80576020820181803683370190505b5090506000805b8a51811015610d13578a8181518110610cb057634e487b7160e01b600052603260045260246000fd5b01602001516001600160f81b0319168383610cca816113e8565b945081518110610cea57634e487b7160e01b600052603260045260246000fd5b60200101906001600160f81b031916908160001a90535080610d0b816113e8565b915050610c87565b5060005b8951811015610da357898181518110610d4057634e487b7160e01b600052603260045260246000fd5b01602001516001600160f81b0319168383610d5a816113e8565b945081518110610d7a57634e487b7160e01b600052603260045260246000fd5b60200101906001600160f81b031916908160001a90535080610d9b816113e8565b915050610d17565b5060005b8851811015610e3357888181518110610dd057634e487b7160e01b600052603260045260246000fd5b01602001516001600160f81b0319168383610dea816113e8565b945081518110610e0a57634e487b7160e01b600052603260045260246000fd5b60200101906001600160f81b031916908160001a90535080610e2b816113e8565b915050610da7565b5060005b8751811015610ec357878181518110610e6057634e487b7160e01b600052603260045260246000fd5b01602001516001600160f81b0319168383610e7a816113e8565b945081518110610e9a57634e487b7160e01b600052603260045260246000fd5b60200101906001600160f81b031916908160001a90535080610ebb816113e8565b915050610e37565b5060005b8651811015610f5357868181518110610ef057634e487b7160e01b600052603260045260246000fd5b01602001516001600160f81b0319168383610f0a816113e8565b945081518110610f2a57634e487b7160e01b600052603260045260246000fd5b60200101906001600160f81b031916908160001a90535080610f4b816113e8565b915050610ec7565b5060005b8551811015610fe357858181518110610f8057634e487b7160e01b600052603260045260246000fd5b01602001516001600160f81b0319168383610f9a816113e8565b945081518110610fba57634e487b7160e01b600052603260045260246000fd5b60200101906001600160f81b031916908160001a90535080610fdb816113e8565b915050610f57565b5060005b84518110156110735784818151811061101057634e487b7160e01b600052603260045260246000fd5b01602001516001600160f81b031916838361102a816113e8565b94508151811061104a57634e487b7160e01b600052603260045260246000fd5b60200101906001600160f81b031916908160001a9053508061106b816113e8565b915050610fe7565b50909998505050505050505050565b6060824710156110e35760405162461bcd60e51b815260206004820152602660248201527f416464726573733a20696e73756666696369656e742062616c616e636520666f6044820152651c8818d85b1b60d21b60648201526084016102b5565b843b6111315760405162461bcd60e51b815260206004820152601d60248201527f416464726573733a2063616c6c20746f206e6f6e2d636f6e747261637400000060448201526064016102b5565b600080866001600160a01b0316858760405161114d919061128b565b60006040518083038185875af1925050503d806000811461118a576040519150601f19603f3d011682016040523d82523d6000602084013e61118f565b606091505b509150915061119f8282866111aa565b979650505050505050565b606083156111b9575081610ab9565b8251156111c95782518084602001fd5b8160405162461bcd60e51b81526004016102b591906112a7565b6000602082840312156111f4578081fd5b8135610ab981611443565b600060208284031215611210578081fd5b81518015158114610ab9578182fd5b60008060408385031215611231578081fd5b823561123c81611443565b946020939093013593505050565b6000806000806080858703121561125f578182fd5b84359350602085013560ff81168114611276578283fd5b93969395505050506040820135916060013590565b6000825161129d8184602087016113bc565b9190910192915050565b60208152600082518060208401526112c68160408501602087016113bc565b601f01601f19169190910160400192915050565b6020808252818101527f4f776e61626c653a2063616c6c6572206973206e6f7420746865206f776e6572604082015260600190565b6020808252602b908201527f496e697469616c697a61626c653a20636f6e7472616374206973206e6f74206960408201526a6e697469616c697a696e6760a81b606082015260800190565b6000821982111561136d5761136d611417565b500190565b6000826113815761138161142d565b500490565b60008160001904831182151516156113a0576113a0611417565b500290565b6000828210156113b7576113b7611417565b500390565b60005b838110156113d75781810151838201526020016113bf565b838111156105905750506000910152565b60006000198214156113fc576113fc611417565b5060010190565b6000826114125761141261142d565b500690565b634e487b7160e01b600052601160045260246000fd5b634e487b7160e01b600052601260045260246000fd5b6001600160a01b038116811461053357600080fdfea164736f6c6343000804000a",
  "linkReferences": {},
  "deployedLinkReferences": {}
}